:020000040000FA
:10000000280B0020F900000001010000ED0E0000A7
:1000100005010000070100000901000000000000C8
:100020000000000000000000000000000B010000C4
:100030000D010000000000000F010000150F00007E
:100040001301000013010000130100001301000060
:100050001301000013010000130100001301000050
:100060001301000031020000130100001301000021
:100070001301000013010000130100001301000030
:100080001301000013010000130100001301000020
:100090001301000013010000130100001301000010
:1000A0001301000013010000130100001301000000
:1000B00013010000130100001301000013010000F0
:1000C00013010000130100001301000013010000E0
:1000D00013010000130100001301000013010000D0
:1000E00013010000DFF80CD000F090F80048004742
:1000F000A9140000280B0020064880470648004746
:10010000FEE7FEE7FEE7FEE7FEE7FEE7FEE7FEE7C7
:10011000FEE7FEE791110000E50000002DE9F05F29
:100120000546002092469B46884606468146402466
:100130001BE0284641464746224600F057F8534602
:100140005A46C01A914110D311461846224600F073
:100150003EF82D1A67EB01084F4622460120002188
:1001600000F035F817EB00094E41201EA4F1010400
:10017000DFDC484631462A464346BDE8F09FD2B20E
:1001800001E000F8012B491EFBD270470022F6E780
:1001900010B513460A4604461946FFF7F0FF2046FD
:1001A00010BD30B50B46014600202022012409E095
:1001B00021FA02F59D4205D303FA02F5491B04FA20
:1001C00002F52844151EA2F10102F1DC30BD202AFF
:1001D00004DB203A00FA02F1002070479140C2F19E
:1001E000200320FA03F3194390407047202A04DBD0
:1001F000203A21FA02F00021704721FA02F3D040A0
:10020000C2F120029140084319467047064C074D41
:1002100006E0E06840F0010394E8070098471034D6
:10022000AC42F6D3FFF762FF301700005017000012
:1002300080B540F28800C2F2000000F029FA80BDCB
:1002400080B5014640F2880041F20012C2F200007F
:10025000C4F202020260002202298260C26004D855
:1002600049B20CA353F8211041604FF080614FF068
:100270000063C0E90413826140F2BD21C26140F213
:10028000A122C0F20001C0F20002C0E9081200F091
:100290002BFA80BD010000000000000000000000FB
:1002A00040F21810C2F200000121016040F210106B
:1002B000C2F20000016801310160704740F218107D
:1002C000C2F200000121016040F21410C2F20000ED
:1002D00001680131016070472DE9F04381B00446A7
:1002E00081A001F0B5F901F081F886A001F0B0F924
:1002F00001F064F80028FBD04FF4FA7000F05EFFC4
:1003000040F22415C2F2000528464FF48071FFF731
:100310003DFF40F22420C2F200004FF48071FFF74D
:1003200035FF002028540130B0F5807FFAD1022C2F
:100330003AD0012C6FD0002C40F0D08000204FF03C
:100340000008FFF77DFF40F2880040F2241140F2E0
:100350002422C2F20000C2F20001C2F200024FF4F5
:10036000807300F083FA40F2181640F2141740F23E
:10037000101541F27464C2F20006C2F20007C2F224
:100380000005C0F2000404E001F018F8002840F075
:10039000A58030680128F7D1C6F8008039682A683E
:1003A000204601F08BF8EFE70220FFF749FF40F20B
:1003B000880440F2241940F22425C2F20004C2F25B
:1003C0000009C2F20005204649462A464FF48073D0
:1003D00000F03AFA204600F03DF90028FAD157A083
:1003E00001F036F941F2A96800260027C0F20008A2
:1003F000002404E001370134B4F5807F51D019F8AE
:100400000400295D8842F5D040462146224601F08D
:1004100055F80136EFE70120FFF712FF40F22419EB
:1004200040F2242540F28800C2F20009C2F2000521
:10043000C2F2000049462A464FF4807300F016FAD3
:1004400040F21810C2F2000001680129FCD140F20C
:100450001410C2F20000016840F21010C2F2000055
:10046000026841F27460C0F2000001F027F841F226
:10047000A96800260027C0F20008002405E000BF9C
:1004800001370134B4F5807F1AD019F80400295DD2
:100490008842F5D040462146224601F00FF8013649
:1004A000EFE741F2E860C0F20000394601F006F8DB
:1004B00041F20A70C0F20000314600F0FFFF0DE08B
:1004C00041F2E860C0F20000394600F0F7FF41F267
:1004D0000A70C0F20000314600F0F0FF1EA001F0EB
:1004E000B7F801B0BDE8F083444D41204D324D20B6
:1004F00074657374206973205265616479212121C8
:10050000200D00002D2D2D2D2D2D2D2D2D2D20508C
:100510006C65617365207072657373207468652003
:100520005553525F504220627574746F6E202D2DAA
:100530002D2D2D2D2D2D2D2D0D000000444D412054
:100540004D324D207465737420636F6D706C6574EB
:1005500065212121200D0000444D41204D324D20C8
:100560007465737420456E64212121200D00000004
:1005700070B5D0F800E04EF60070CBF6FD700EEBD3
:10058000000C4FEA7C10072884BF012070BD4FEAA1
:100590005C1040F2080CC2F2000C0CEB0014CEF818
:1005A0000010CEF80420CEF80840DEF80C5040F6DB
:1005B000FF76B54300011D43CEF80C504CF80010F7
:1005C000C4E90124DEF80C006FF30B001843E0606F
:1005D000DEF8100040F00100CEF81000002070BDE1
:1005E00070B5D0F800E04EF60070CBF6FD700EEB63
:1005F000000C4FEA7C10072884BF012070BD4FEA31
:100600005C1040F2080CC2F2000C0CEB0014CEF8A7
:100610000010CEF80420CEF80840DEF80C5040F66A
:10062000FF76B54300011D43CEF80C504CF8001086
:10063000C4E90124DEF80C004CF201016FF30B0059
:100640001843E060DEF810000843CEF810000020E8
:1006500070BD000000684EF60071CBF6FD710844D5
:1006600041F20801C4F202014209CB68012000FAFC
:1006700002F21A4203D008681043086000200B6998
:10068000134208BF70478868104388600120704794
:1006900070B5044600684EF60071CBF6FD7141F26C
:1006A00008050844C4F20205400955F8081C012257
:1006B00002FA00F60E4208BF70BD55F8040C304235
:1006C00006D0286830432860206A002818BF804779
:1006D0006868304206D0A8683043A860606A002885
:1006E00018BF804770BD0000B0B5044600684EF6E4
:1006F0000071CBF6FD7108444FEA7010072834D81A
:10070000A068002818BFB0F5805F27D1E0683228C4
:100710002BD8A069002818BFB0F5002F22D1E069BE
:100720000125002818BFB0F5800F20D11A2000F055
:100730009BFD00F06DFE00F07BFE41F23000C4F244
:1007400002000560A16820680022B1F5006F026117
:1007500012D0B1F5805F14D101220EE0B0F5006F28
:1007600003D1D3E7B0F5802FD9D00120B0BDB0F5CB
:10077000001FDBD02846B0BD1322E36803FA02F263
:10078000E26004F10C0C9CE82C10114301614FF065
:100790000041C160C16843EA05021143C160E169DB
:1007A000C26841EA0C0111430025C1602846B0BD72
:1007B00080B54FF0000CBCEB133F84464FF00100B6
:1007C0001FD1DCF800C04EF6007ECBF6FD7EE6447D
:1007D0004FEA7E1EBEF1070F88BF80BDCCF8001027
:1007E000CCF80420DCF80C0040F6FF718843184375
:1007F000CCF80C00DCF8100040F00100CCF8100040
:10080000002080BDD0F800C04EF60070CBF6FD7021
:1008100060444FEA7010072884BF01207047CCF86D
:100820000010CCF80420DCF80C0040F6FF7188437F
:100830001843CCF80C00DCF810004CF2010108431E
:10084000CCF810000020704780B5D0F804C0BCF18F
:10085000010F84BF012080BDBCF1000F02D0FFF763
:1008600087FE80BDFFF7A4FF80BD000080B5D0F8F3
:1008700004C0BCF1010F84BF012080BDBCF1000F9A
:1008800002D0FFF7ADFE80BDFFF7BCFF80BD0000CA
:1008900080B500F001F880BDB0B541F25971CDF2DC
:1008A000B711A0FB0112510B232201FB02F14CF600
:1008B000CD4301F1010C4DF68361C4F21B31A0FB65
:1008C0000112910C332201FB02F2CCF6CC43A2FBC5
:1008D0000323052201EBC10102EBD30349F2FF42DE
:1008E000C0F6BA22904201F1010502D94FF48061AD
:1008F0003EE045F60071C0F64C11884202D94FF433
:10090000607135E043F20021C0F61B01884202D934
:100910004FF440712CE040F20051C0F2EA6188428D
:1009200002D94FF4207123E04CF60071C0F27B51E4
:10093000884202D94FF400711AE042F28061C0F29D
:100940006941884202D94FF4C07111E047F2005169
:10095000C0F21931884202D94FF4807108E044F6A0
:10096000000EC0F2E81E0021704588BF0121C901B8
:100970000C22C0F21002D3624FF480131C6824F4DE
:10098000786421431960C2F800C04AF24172C0F293
:1009900082724FF0101190420D6038BFB0BD00F070
:1009A0009BFA40F64400C4F20100016841F48071F2
:1009B0000160B0BD2DE9F04F85B0052800F2AB8194
:1009C000054608680C460021B1EB104F40F0A381AA
:1009D00080B2002800F09F81606841F20101C0F2FE
:1009E000010100278842CEF6FF7709DCB0F5803F91
:1009F00010DA032818BF052811D041F2040106E0DF
:100A0000C11905290BD341F20201C0F2010188424C
:100A100005D080E1A0F58030022880F07C81052D92
:100A200055D80120A8404FF2000640F67008C4F2E5
:100A30000106C4F2010881071BD110F00C0F2ED063
:100A4000012000F011FC08F1300008F1340C08F12D
:100A5000440108F14802032D06F58066039041D158
:100A6000236808F128001B042360029008F12C0081
:100A700049E0002000F0F8FB08F1040C08F1140133
:100A8000012D08F11802CDF80C8031D12368A8F1AE
:100A900008001B0423600290A8F1040033E00C203E
:100AA00000F0E2FB08F1600008F1640C08F1740149
:100AB00008F17802052D06F5006603901ED1236823
:100AC00008F158001B040290002023601BE0002066
:100AD000029000200190002003904FF0000C0021B4
:100AE000002211E008F12000029008F124000AE041
:100AF000A8F110000290A8F10C0004E008F15000E9
:100B0000029008F1540001902568002D00F0038147
:100B10004FF00108CDF800C004911CE06FF01F00F9
:100B2000019900EB8A000B680F2505FA00F023EA13
:100B300000000860049960680528106814BF20EA66
:100B40000B0540EA0B051560256835FA08F008F139
:100B5000010800F0E080A8F1010A012000FA0AF380
:100B600015EA030BF0D0D4F804E0BEF5803F0FDCAB
:100B7000BEF1030F54D041F20400864550D0BEF5BB
:100B8000803F40F08680336823EA0B03336080E0C7
:100B90000EEB07030025052BC1F2010559D2306881
:100BA0002EF0010320EA0B003060B069AB426FEA1F
:100BB0000B0940EA0B00B0610FD1F069AE4500EAC5
:100BC0000900F061306A00EA09003062706A14BFFF
:100BD00000EA090040EA0B007062A81C864507D1B4
:100BE000F06900EA0900F061306A40EA0B00306207
:100BF0004FF6FD70CEF6FE707044012849D8F069BA
:100C0000002340EA0B00C1F20103F0610333706A74
:100C10009E4514BF00EA090040EA0B00706238E00C
:100C2000BAF1100F554628BFA8F11105072D1ED89F
:100C30000299AD000B680F20E768A84023EA000086
:100C400007FA05F31843086000270499DDF800C08F
:100C50001DE0BEF1011F05D041F20200C0F201000B
:100C6000864516D1336843EA0B03336011E06FF019
:100C70001F00019900EB85000B680F27E56887408E
:100C8000BB4305FA00F01843086000270499CEF62C
:100C9000FF77A568022D07D0012D0FD0CDB9039B9A
:100CA000186820EA0B000DE0039B186820EA0B008F
:100CB0001860DCF8000040EA0B0508E0039B1868A8
:100CC00040EA0B001860DCF8000020EA0B05CCF8C5
:100CD00000506079C006086854BF20EA0B0540EA5E
:100CE0000B050D60A079C0073FF425AFBAF1100FD6
:100CF00028BFA8F1110ABAF1070F3FF60FAF02990A
:100D00004FEA8A0308680F2505FA03F39843086041
:100D1000DDF800C00EE705B0BDE8F08F021F022A23
:100D20004FF20002C4F2010212D3831E012B98BFBE
:100D300002F58062052806D8012303FA00F010F0BE
:100D40002A0F18BF09045069084018BF01207047D6
:100D500002F500620528EFD9F5E7000010B504465A
:100D6000016844F6FF30C4F2000081424FF00100F8
:100D700008DC44F20042C4F2000291420ED044F674
:100D8000000207E043F60002C4F20102914205D0DE
:100D900044F60042C4F20002914263D1A0684FEAD7
:100DA0007010032852D8E06840F40040B0F5004FBE
:100DB0004CD121690120062954D800FA01F111F023
:100DC000450F4FD061690120B1F5407F40DB0CD069
:100DD00040F20032C2F20002914206D040F20032EC
:100DE000C1F20002914218BF10BDA0694FEAB030B5
:100DF00003282BD8204600F037F8204600F07AFA76
:100E000004F108030ECB20681143194341F010018F
:100E1000C162D4E9051240F20033C2F200039942E4
:100E200042EA010242F00102026318D040F20030AF
:100E3000C1F2000081421CBF002010BD206840F2BA
:100E40000811C2F200010860002010BD012010BD91
:100E5000B1F5807FC9D0B1F5007FC6D002E0022194
:100E60004165002010BD000010B584B00446006844
:100E700043F60001C4F20101884201D004B010BD64
:100E8000102000F0F1F94FF4C060009003200190B1
:100E9000012002900220039069460020FFF78AFD9E
:100EA000607E000606D54FF4006000906946002081
:100EB000FFF780FD607E400606D54FF4805000901D
:100EC00069460020FFF776FD00F0AAFA00F0C8FAA4
:100ED00000F0B6FA04B010BD07B45FF480305FF0E4
:100EE000005109180A6807BC70470000FEE70000BF
:100EF000B0B501380024B4EB106F18BFB0BD4EF28E
:100F00001005CEF20005686000F0A2FA0720AC6080
:100F10002860B0BD40F22010C2F20000016801312B
:100F20000160704780B586B04FF480110A680823CD
:100F300063F3CB120A60002240F62C010092C4F247
:100F40000101029251F8083C9B0509D451F8083C74
:100F500043F0010341F8083C51F8083C9B05FBD5E0
:100F600049F2000EC0F2D03E0EF1010340F21C1C0B
:100F70009842C2F2000C41F81C2C19D251F8082CEE
:100F8000D20509D551F8082C22F4807241F8082CBA
:100F900051F8082C9205FBD544F60002C0F2E81285
:100FA000904222D10220CCF800200590012020E0C0
:100FB000029A52B3029A012A56D1002203920D22BC
:100FC00041F8042C51F8042CD2065FD444F240239B
:100FD000C0F20F03039A9A4256D0039A0132039249
:100FE00051F8042CD206F5D550E00120CCF800E0F1
:100FF00005900490DCF80000049AB0FBF2F040F297
:101000000C12C2F20002106094E051F8082C42F475
:10101000807241F8082C00BF51F8082C9205FBD5CE
:101020000A6842F001020A600A6822F400120A60AB
:101030000A685200FCD540F60062C0F22772904266
:1010400015D049F20052C0F6BA2290424CD10A683B
:10105000212363F3D3020A600A6842F480020A6023
:101060000A685200FCD554E00320009062E00A6850
:10107000122363F3D3020A600A6842F480020A6012
:101080000A685200FCD544E002220092009A002A2D
:1010900043D10A6842F001020A600A6822F4001291
:1010A0000A6000BF0A685200FCD540F60062C0F238
:1010B000277290421BD049F20052C0F6BA229042E9
:1010C00012D10A6840F2122363F3D3020A600A685D
:1010D00042F006020A600A6842F480020A6000BF19
:1010E0000A685200FCD514E00122009215E00A685B
:1010F00040F2124363F3D3020A600A6842F0060228
:101100000A600A6842F480020A6000BF0A6852005E
:10111000FCD50122059202220492CCF80000049A28
:10112000B0FBF2F040F20C12C2F200021060042098
:1011300041F81C0C009810B10120059002E00498C1
:1011400001281ED10020019051F8180C059B40F297
:10115000FF7290435A1E019B104340EA032041F85E
:10116000180C00BF51F8180CB0F1FF3FFADCDCF8A6
:101170000000FFF78DFB0098B0FA80F0400906B040
:1011800080BD0498022814BF05200420DBE700007E
:101190004EF68850CEF20000016841F47001016003
:1011A000002140F8801C704781B000900098411EDB
:1011B00000280091FAD101B07047000081B0009082
:1011C00040F22010C2F20000016800BF0268009BDC
:1011D000521A9A42FAD301B070470000BFF34F8F02
:1011E000BFF36F8F4EF65070CEF200000021016009
:1011F000BFF34F8FBFF36F8F4EF61450CEF2000047
:10120000016841F400310160BFF34F8FBFF36F8F6E
:101210007047000040F20C10C2F2000000687047F6
:1012200040F21C10C2F200000068704780B540F622
:101230000000C4F20100016841F4803101605020D7
:10124000002100F02BF800F013F949F20050C0F62D
:10125000BA20FFF767FE28B1FFF7C0FF00F034F8AF
:1012600080BD00BFFEE7000080B540F61C010E28DF
:10127000C4F2010107D30E3801220B6802FA00F014
:101280001843086005E001224B6802FA00F0184399
:1012900048600220FFF788FF80BD000040F63C0256
:1012A000C4F20102136801291EBF23F4000010607C
:1012B00070476FF3551343EA40101060106840F414
:1012C000000010607047000080B540F22010C2F2AC
:1012D00000000021016040F21C10C2F20000006812
:1012E00044F6D351C1F26201A0FB01018809FFF766
:1012F000FFFD80BD70B50446FFF78CFF616826686E
:101300000A01B0FBF2F544F2402405FB1200C0F2E2
:101310000F04A0FB04010023FEF700FF89014AF23D
:10132000201241EA9061C0F2070212EB801041F1F5
:10133000000122460023FEF7F1FE3F2884BF01355D
:1013400000207562B06270BD10B540F2C00043F677
:1013500000034FF4E131C2F20000C4F20103C0E91E
:10136000003140F2003160220024C1F20001C0E9E6
:101370000224C0E904418461FFF7F0FCFFF750FF4D
:101380000446FFF747FF024602A0214600F096F808
:1013900010BD00BF4D43552069732072756E6E6994
:1013A0006E672C2048434C4B3D2564487A2C2050D6
:1013B000434C4B3D2564487A0A00000010B50120DB
:1013C0004FF40071FFF7AAFC10B10024204610BDB5
:1013D0001420FFF7F3FE01204FF400710124FFF702
:1013E0009DFC002818BF0024204610BD80B540F2A7
:1013F000B0014FF40070C2F200014FF480320123BB
:101400004FF0000C81E80D100120FFF7D3FA80BDEA
:101410004EF28020CEF200004FF400710160704760
:101420004EF28020CEF200004FF000610160704764
:101430004EF20010CEF200004FF4007101607047D0
:101440004EF20010CEF200004FF0006101607047D4
:101450004EF62350CEF20000E021017070470000EC
:101460004EF21B40CEF20000A02101707047000038
:101470004EF60C50CEF2000001684FF6FF0211400C
:1014800041F0BF6141F401310160704740F2081141
:10149000C2F200010968002904BF002070470860FB
:1014A0008A691207FCD47047FFF7C0FEFFF74CFFB4
:1014B0000020FEF711FF00BFFEE700000FB4054B50
:1014C00010B503A9044A029800F018F810BC5DF8A2
:1014D00014FB00008D1400000000002002E008C88A
:1014E000121F08C1002AFAD170477047002001E09E
:1014F00001C1121F002AFBD1704700002DE9FF4FE8
:1015000089B09B460446002506E025280BD05A46A4
:101510000B999047641C6D1C20780028F5D10DB004
:101520002846BDE8F08F0027B8460122474900E071
:10153000074314F8013F203B02FA03F00842F7D1B9
:1015400020782E2819D114F8010F47F004072A2813
:101550000ED06FF02F022078A0F1300109290CD8AD
:1015600008EB880102EB410100EB0108641CF2E783
:101570000A98641C50F8048B0A9020780028CED07A
:10158000642808D0692806D075281ED05A460B99C1
:1015900090476D1C58E00A994FF00A0901C90A9159
:1015A000002802DA40422D2102E0390504D52B2122
:1015B0008DF82010012103E0F90704D02021F7E77E
:1015C0008A4608AE0DE00021FAE70A994FF00A09B1
:1015D00001C90A91F7E74946FEF7E3FD303106F805
:1015E000011D0028F7D1ADEB060000F120097807B6
:1015F00001D44FF00108C84502DDA8EB090000E066
:1016000000208046002706E008A85A46C05D0B99D6
:1016100090476D1C7F1C5745F6DB04E030205A468E
:101620000B9990476D1CB8F10001A8F10108F5DC99
:1016300005E016F8010B5A460B9990476D1CB9F15D
:101640000001A9F10109F4DC641C65E70928010027
:1016500010B5044601E0FFF719FF14F8010B044927
:101660000028F8D1BDE810400A20FFF70FBF0000A6
:1016700000000020444D41204D324D2074657374AC
:1016800020636F6D706C6574652025642074696DCE
:1016900065732C204572726F722025642074696D09
:1016A0006573212121200D0A005468657265206947
:1016B00073206F6E65206D697374616B65203A20CD
:1016C0006775385F54784275666665725B25645D40
:1016D00020213D206775385F5478427566666572D3
:1016E0005B25645D200D0A00444D41204D324D20A4
:1016F00074657374204F4B20636F756E742025647E
:101700002074696D6573200D0A00444D41204D32EF
:101710004D20746573742045727220636F756E740A
:101720002025642074696D6573200D0A0000000097
:10173000501700000000002008000000DC1400002A
:101740005817000008000020200B0000EC140000D7
:08175000000000000000000091
:04000005000000E512
:00000001FF
