:020000040800F2
:10000000281E0020B5010008B92A0008BB2A0008F4
:10001000BF2A0008C32A0008C72A00080000000001
:10002000000000000000000000000000CB2A0008D3
:10003000CD2A000800000000CB010008CF2A0008EC
:10004000CF010008CF010008CF010008CF01000850
:10005000CF010008CF010008CF010008CF01000840
:10006000CF010008CF010008CF010008CF01000830
:10007000CF010008CF010008CF010008CF01000820
:10008000CF010008CF010008CF010008CF01000810
:10009000CF010008CF010008CF010008CF01000800
:1000A000CF010008CF010008CF010008CF010008F0
:1000B000CF01000843290008CF010008CF01000844
:1000C000CF010008CF010008CF010008CF010008D0
:1000D000CF010008BF2C0008CF010008CF010008A5
:1000E000CF010008CF010008CF010008CF010008B0
:1000F000CF010008CF010008CF010008CF010008A0
:10010000CF010008CF010008CF010008CF0100088F
:10011000CF010008CF010008CF010008CF0100087F
:10012000CF010008CF010008CF010008CF0100086F
:10013000CF010008CF010008CF010008CF0100085F
:10014000CF010008CF010008CF010008CF0100084F
:10015000CF010008CF010008CF010008CF0100083F
:10016000CF010008CF010008CF010008CF0100082F
:10017000CF010008CF010008CF010008CF0100081F
:10018000CF010008CF010008CF010008CF0100080F
:10019000CF010008CF010008DFF80CD002F010FFFB
:1001A0000048004791290008281E002080F3088895
:1001B000704700000648804706480047FEE7FEE714
:1001C000FEE7FEE7FEE7FEE7FEE7FEE7FEE7FEE707
:1001D000A10200089901000810B5002000210022AA
:1001E0007C4B1B6843F480337A4C236000BF794B0F
:1001F0001B68C3F34041521C11B9B2F5A06FF6D190
:10020000744B1B68C3F3404119B9734B734C2360A3
:1002100010BD734B1B6823F00303714C236023460E
:100220001B6843F0040323606A4B5B68694C63609E
:1002300023465B6843F40053636023465B6843F4E2
:10024000A063636023465B68664C2340614C636037
:100250002346586840F4803000BF634B1843234660
:1002600058601B6843F08073236000BF594B1B68C4
:1002700003F00073002BF9D0564B5B6823F00303A7
:10028000544C636023465B6843F00203636000BF25
:10029000504B5B6803F00C03082BF9D100BFB7E7A4
:1002A00010B55248006840F4700050490860494851
:1002B000006840F0010047490860084640684C4922
:1002C000084044494860084600684A490840414996
:1002D00008600846006820F48020086008464068EE
:1002E000454908403B4948600020C86208634FF414
:1002F0001F0088600846C06940F08050C8613F48D0
:10030000C06840F001003D49C8603248C06920F033
:1003100080503049C8613248006820F010003049F0
:100320000860FFF759FF4FF00060304980390860DE
:1003300010BD10B5002100200022264B5B6803F0A1
:100340000C0121B1042906D0082932D107E0224B43
:10035000224C236031E0204B204C23602DE01D4BCC
:100360005B68274C03EA04001A4B5B6803F4803295
:1003700000F000631BB9022303EB904004E04FF44C
:10038000F873C3EB9043581C22B91E4B4343134CE4
:1003900023600DE00F4B5B6803F4003323B1194B6E
:1003A00043430E4C236003E00B4B43430B4C236051
:1003B00003E0094B094C236000BF00BF054B5B689D
:1003C000C3F30313104CE15C044B1B68CB40034C9C
:1003D000236010BD0010024000127A0000000020CF
:1003E00000200240FFFFC0F70000040888ED00E095
:1003F00000C0FFF8FFFFF6FEFFFF00F700700040AF
:1004000000003C0800093D00243300083149014345
:10041000314A1160704770B5002100230F22C47863
:1004200004B32D4C246804F4E064C4F5E064210AAC
:10043000C1F10403CA40447804FA03F184781440FB
:1004400021430901254C0678A155047804F01F05C5
:100450000124AC4005786D11AD0005F1E025C5F82B
:10046000004109E0047804F01F050124AC401C4D54
:100470000678761145F8264070BD1A4A0A400243B4
:10048000154B1B1F1A60704739B1134A121D1268B1
:100490000243114B1B1D1A6006E00F4A121D126821
:1004A00082430D4B1B1D1A607047042808D14FF082
:1004B000E021096941F004014FF0E022116107E0F9
:1004C0004FF0E021096921F004014FF0E0221161B1
:1004D000704700000000FA050CED00E000E400E0C9
:1004E00080E100E080FFFF1F01460020FE4A106807
:1004F00000F0F800084310607047FB49096821F0DC
:100500001001F94A116011460968014311607047F2
:10051000F548006840F04000F34908607047F24930
:10052000096821F08001F04A116011460968014311
:1005300011607047EC49096943F6FF621140EA4ACD
:10054000116111460969014311617047E748E649A5
:100550004860E74848607047E348006940F0800021
:10056000E149086170470620DF49C96801F00101CF
:1005700009B101202AE0DC49C96801F0020109B192
:10058000022023E0D849C96801F0040109B1032021
:100590001CE0D549C96801F0080109B1042015E043
:1005A000D149C96801F0100109B105200EE0CE491A
:1005B000C96801F0400109B1072007E0CA49C968CC
:1005C00001F0800109B1082000E00620704700B565
:1005D00002460623FFF7C7FF034603E0FFF7C3FF0A
:1005E0000346521E012B01D1002AF7D102B909237B
:1005F000184600BD30B5044606254FF43020FFF7FD
:10060000E6FF0546062D17D1B748006940F0020005
:10061000B549086108464461006940F0400008613E
:100620004FF43020FFF7D3FF0546AF48006943F68B
:10063000FD710840AC490861284630BD10B506245C
:100640004FF43020FFF7C3FF0446062C16D1A6480E
:10065000006940F00400A44908610846006940F0C0
:10066000400008614FF43020FFF7B1FF04469E4878
:10067000006943F6FB7108409B490861204610BDA4
:1006800000209949C96901F0020109B1012000E087
:100690000020704730B5974D0624FFF7F1FF08B1F1
:1006A000944DA53D4FF43020FFF791FF0446062CF2
:1006B0003BD18E488C4988608D4888600846006927
:1006C00040F0200008610846006940F040000861E1
:1006D0004FF43020FFF77BFF0446062C1CD18248E4
:1006E000006943F6DF7108407F49086108460069E8
:1006F00040F010000861804805604FF40050FFF79B
:1007000066FF0446092C10D07748006943F6EF7164
:1007100008407549086108E0092C06D07248006954
:1007200043F6EF71084070490861204630BD78B546
:1007300004460D460626002000904FF40050FFF7B7
:1007400046FF0646062E12D16748006940F00100B8
:100750006549086125604FF40050FFF738FF0646F1
:100760006148006943F6FE7108405F490861304600
:1007700078BD70B505460E4606244FF40050FFF7CD
:1007800026FF0446062C18D1584857498860584817
:1007900088600846006940F0100008612E604FF440
:1007A0000050FFF714FF0446092C06D04E4800699C
:1007B00043F6EF7108404C490861204670BD2DE9B1
:1007C000F04304464FF6FF763746B046B14606255D
:1007D000E443E6B2C4F30727C4F307484FEA1469B9
:1007E0004FF40050FFF7F3FE0546062D32D13F4887
:1007F0003D4988603E4888600846006940F0100026
:100800000861FF2E01D1FF2F09D046EA07403A497F
:10081000083108604FF40050FFF7D9FE0546B8F1E3
:10082000FF0F02D1B9F1FF0F0BD0062D09D148EA15
:10083000094031490C3108604FF40050FFF7C7FE02
:100840000546092D06D02848006943F6EF71084097
:10085000254908612846BDE8F08370B505460624A1
:100860002148C06900F01C0086034FF43020FFF7D8
:10087000AEFE0446062C50D11C481B4988601C481B
:1008800088600846006940F0200008610846006959
:1008900040F0400008614FF43020FFF798FE044616
:1008A000062C31D11048006943F6DF7108400E492B
:1008B00008610846006940F01000086125B1300C5D
:1008C00000040D49086005E04FF65A7026EA000062
:1008D000094908604FF43020FFF779FE0446092CDF
:1008E0001BD00148006909E0002002402301674550
:1008F000AB89EFCDA500FFFF00F8FF1F43F6EF71B6
:1009000008408549086108E0092C06D08248006942
:1009100043F6DF71084080490861204670BD70B51C
:10092000054606247C48C06900F01C0086034FF48D
:100930003020FFF74CFE0446062C4DD1774876490F
:100940008860774888600846006940F020000861A8
:100950000846006940F0400008614FF43020FFF77E
:1009600036FE0446062C2ED16B48006943F6DF7133
:100970000840694908610846006940F010000861B4
:10098000300C0004674908604FF43020FFF71FFE69
:10099000044625B1644863491031086004E04FF013
:1009A000FF306049103108604FF43020FFF70FFE30
:1009B0000446092C10D05848006943F6EF710840EE
:1009C0005549086108E0092C06D05348006943F6F0
:1009D000DF71084050490861204670BD2DE9F041A3
:1009E00005460E461746DFF844810624FFF748FE09
:1009F00018B1DFF83881A8F1A50848484649886051
:100A0000474888604FF43020FFF7E1FD0446062C8C
:100A10003DD14148006940F020003F490861084647
:100A2000006940F0400008614FF43020FFF7CFFD2F
:100A30000446062C22D13848006943F6DF7108408D
:100A4000354908610846006940F01000086147F028
:100A5000F8003043284348EA0040324908604FF428
:100A60000050FFF7B4FD0446092C10D02A48006955
:100A700043F6EF7108402849086108E0092C06D0C8
:100A80002548006943F6EF71084023490861204674
:100A9000BDE8F0812048C069800870471E48006AA0
:100AA000704700201C49096801F0200109B10120AC
:100AB00000E00020704700201749096943F6FF62F3
:100AC000114009B1012000E00020704729B1124A0D
:100AD00012690243104B1A6104E00F4A1269824303
:100AE0000D4B1A61704701460020012908D10A4ABE
:100AF000D26902F001020AB1012008E0002006E0FC
:100B0000054AD2680A400AB1012000E0002070477F
:100B10000149C8607047000000200240230167457A
:100B2000AB89EFCD00F8FF1FCC33FFFFA500F8FF26
:100B300010B50446F748844208D10121042000F092
:100B4000B7FC0021042000F0B3FC46E0F2488442E8
:100B500008D10121082000F0ABFC0021082000F0A2
:100B6000A7FC3AE0ED48844208D10121102000F0B2
:100B70009FFC0021102000F09BFC2EE0E8488442FE
:100B800008D10121202000F093FC0021202000F05A
:100B90008FFC22E0E348844208D10121402000F08C
:100BA00087FC0021402000F083FC16E0DE488442F0
:100BB00008D10121802000F07BFC0021802000F082
:100BC00077FC0AE0D948844207D10121801500F062
:100BD0006FFC0021A01500F06BFC10BD10B50121C9
:100BE000084600F065FC0021012000F061FC10BD0A
:100BF0002DE9F041024600250026002000230024B4
:100C0000002791F803C00CF00F0591F803C00CF019
:100C1000100CBCF1000F03D091F802C04CEA05059E
:100C200091F800C0BCF1000F31D0146800202BE017
:100C30004FF0010C0CFA00F3B1F800C00CEA030607
:100C40009E4220D183004FF00F0C0CFA03F7BC43F7
:100C500005FA03FC4CEA040491F803C0BCF1280F28
:100C600006D14FF0010C0CFA00FCC2F814C00AE0E7
:100C700091F803C0BCF1480F05D14FF0010C0CFAFC
:100C800000FCC2F810C0401C0828D1D31460B1F891
:100C900000C0BCF1FF0F34DD546800202EE000F1ED
:100CA000080C4FF0010808FA0CF3B1F800C00CEA88
:100CB00003069E4221D183004FF00F0C0CFA03F77C
:100CC000BC4305FA03FC4CEA040491F803C0BCF1F0
:100CD000280F05D100F1080C08FA0CF8C2F81480AE
:100CE00091F803C0BCF1480F07D100F1080C4FF098
:100CF000010808FA0CF8C2F81080401C0828CED36E
:100D00005460BDE8F0814FF6FF71018001218170D0
:100D10000421C17070470246002093680B400BB15C
:100D2000012000E0002070470146886880B27047CB
:100D300002460020D3680B400BB1012000E00020E8
:100D400070470146C86880B2704701617047016111
:100D50007047416170470AB1016100E0416170472D
:100D6000C16070474FF480320A43826181618261C1
:100D7000826982697047024600206D4B18684FF601
:100D80008073184040EA02100843694B18607047AE
:100D90006849C8617047F0B50C4600230026002260
:100DA0000025002100F00047B7F1004F02D1604F4D
:100DB000FA6919E000F08047B7F1804F02D15C4F2B
:100DC0003A6A11E000F00057B7F1005F02D1584FC6
:100DD0007A6A09E000F08057B7F1805F02D1544F82
:100DE000BA6A01E0524F7A68C0F3034583B2524FAA
:100DF0000740B7F5401F0AD122F070624C4F7F6860
:100E000027F07067DFF828C1CCF80470D1E000F457
:100E10008017B7F5801F13D100F40017B7F5001F36
:100E200003D10327AF403E0402E0032707FA05F68B
:100E3000B24300F0E047002FE8D142F07062B8E022
:100E400000F08077B7F1807F47D100F00407042FCE
:100E500029D100F00077B7F1007F16D1C0F34057D9
:100E60003F0103FA07F7BA433CB1314F796841F0CB
:100E7000010141F0706179609BE02D4F796821F0AC
:100E8000010141F07061796093E0C0F340573F0188
:100E900003FA07F7BA43264F796821F0010141F0C0
:100EA0007061796085E043F00407C0F3405C4FEA6D
:100EB0000C1C07FA0CF7BA433CB11D4F796841F09E
:100EC000010141F07061796073E0194F796821F098
:100ED000010141F0706179606BE000F08067B7F16B
:100EE000806F5BD100F00807082F3DD100F000773C
:100EF000B7F1007F2AD1C0F340573F0103FA07F74B
:100F0000BA43DCB10A4F796841F0080141F07061E1
:100F100079604EE000080140000C014000100140E3
:100F20000014014000180140001C01400020014055
:100F3000000001400000204200003070484F7968F6
:100F400021F0080141F07061796032E0C0F3405750
:100F50003F0103FA07F7BA43414F796821F00801CE
:100F600041F07061796024E043F00807C0F3405C11
:100F70004FEA0C1C07FA0CF7BA433CB1384F7968BA
:100F800041F0080141F07061796012E0344F7968F6
:100F900021F0080141F0706179600AE0C0F3405728
:100FA0003F0103FA07F7BA4300F0E0470FB942F0F8
:100FB00070622CB1C0F340573F0103FA07F73A4380
:100FC00000F00047B7F1004F02D1254FFA6119E058
:100FD00000F08047B7F1804F02D1214F3A6211E013
:100FE00000F00057B7F1005F02D11D4F7A6209E0AF
:100FF00000F08057B7F1805F02D1194FBA6201E06B
:10100000174F7A60F0BD30B500228B071C0F0F23FD
:1010100003FA04F2124B08338C1053F82430934334
:101020000F4C08348D1044F8253023468C1053F8AB
:1010300024308C07240F00FA04F42343084C0834AE
:101040008D1044F8253030BD0549496821F4000170
:10105000034A5160114649680143516070470000DE
:1010600000000140F848006840F00100F6490860BF
:1010700008464068F5490840F3494860084600685A
:10108000F3490840F04908600846006820F48020D1
:10109000086008464068EF490840EB4948604FF453
:1010A0006050C86208634FF41F0088607047E649CB
:1010B000096821F48031E44A11601146096821F47D
:1010C00080211160B0F5803F03D0B0F5802F0ED1A4
:1010D00006E0DD49096841F48031DB4A116007E030
:1010E000D949096841F4A021D74A116000E000BF46
:1010F00000BF704710B501460022002300204A11AE
:10110000012A02D1D04C236806E0022A02D1CE4C3B
:10111000236A01E0CC4C636A01F01F020124944071
:101120001C400CB1012000E0002010BD38B50020AB
:1011300000900024002500BF3120FFF7DBFF0546AB
:101140000098401C00900098B0F5A06F01D0002DD1
:10115000F2D03120FFF7CEFF08B1012400E00024D7
:10116000204638BD01460020B74A106820F0F8003C
:1011700040EAC10010607047B749086070470246F6
:101180000020B14B5868B54B184042EA01031843A0
:10119000AD4B58607047B049086670470146002063
:1011A000A94A506820F00300084350607047A648E1
:1011B000406800F00C00704701460020A24A5068C9
:1011C00020F0F000084350607047014600209E4A1E
:1011D000506820F4E06008435060704701460020EA
:1011E000994A506820F4605040EAC100506070474E
:1011F00029B1954A527A0243934B5A7204E0924ABB
:10120000527A8243904B5A7270479349D8310860A2
:101210004108914AC2F8DC107047014600208A4A12
:10122000D06A20F000500843D06270470146002089
:10123000854AD06A20F0F8500843D06270470146D2
:101240000020814AD06A20F480100843D0627047A1
:10125000024600207C4BD86A20F4806020F478405D
:1012600010430843D862704702460020764BD86A84
:1012700020F4F87009B1104302E0104320F48070AC
:10128000714BD8627047014600206F4AD06A20F047
:101290000F000843D0627047024600206A4B186B6B
:1012A00020F4003020F4784010430843186370475E
:1012B00030B16549096B41F48021634A116305E04F
:1012C0006149096B21F480215F4A11637047002155
:1012D0005D4A203211705C4A82F82010012802D049
:1012E00004280AD104E00121574A2032117005E098
:1012F0000521554A2032117000E000BF00BF704741
:101300005749086070475049096A21F440714E4AB4
:1013100011621146096A014311627047504944390C
:1013200008607047F0B5002100BF002200250024AE
:10133000454E76684B4F06EA0702434E766806F440
:10134000803502F000661EB9022606EB924204E0E8
:101350004FF4F876C6EB9246721C1DB9424E02FB62
:1013600006F30BE0384E766806F400361EB13E4EAA
:1013700002FB06F302E03D4E02FB06F3324E7668B6
:1013800006F00C0121B1042905D0082908D105E097
:10139000364E066007E0354E066004E0036002E06A
:1013A000324E066000BF00BF274E766806F0F0019F
:1013B00009092F4E745C0668E6404660224E766846
:1013C00006F4E061090A2A4E745C4668E6408660CD
:1013D0001D4E766806F46051C90A254E745C466855
:1013E000E640C660184EF66A06F00F01214E745CA6
:1013F0004668B6FBF4F64661134EF66A06F4F871D9
:10140000090901F00F061C4F37F81640B3FBF4F63C
:101410000661F0BD29B10C4A526902430A4B5A6178
:1014200004E0094A52698243074B5A61704729B167
:10143000054A92690243044B9A6104E0024A9269A8
:101440008243014B9A6170470010024000C0FFF8D0
:10145000FFFFF6FEFFFF00F700004242FFFFC0F76C
:101460008004424200003C0800093D0000127A005E
:1014700034330008443300085433000829B13A4A91
:10148000D2690243384BDA6104E0374AD2698243B9
:10149000354BDA61704729B1334A926A0243324BC5
:1014A0009A6204E0304A926A82432F4B9A627047F4
:1014B00029B12D4AD26802432B4BDA6004E02A4A54
:1014C000D2688243284BDA60704729B1264A1269F4
:1014D0000243254B1A6104E0234A12698243224BDE
:1014E0001A61704730B12049096B41F040011E4A32
:1014F000116305E01C49096B21F040011A4A116390
:1015000070471A49086070471949C8647047014616
:101510000020154A506820F0704008435060704722
:1015200001460020104A506820F0E06040EA016067
:10153000506070470C48406A40F080700A49486229
:101540000846406A20F080704862704701460020DB
:10155000054A92680A400AB1012000E00020704765
:101560000149887270470000001002404004424266
:101570000000424210B50446FE48844208D10121D1
:10158000C014FFF795FF0021E014FFF791FF52E030
:10159000B4F1804F08D101210846FFF796FF0021E2
:1015A0000120FFF792FF46E0F348844208D1012171
:1015B0000220FFF78AFF00210220FFF786FF3AE0B2
:1015C000EE48844208D101210420FFF77EFF00216C
:1015D0000420FFF77AFF2EE0E948844208D1012178
:1015E0000820FFF772FF00210820FFF76EFF22E0BE
:1015F000E448844208D101211020FFF766FF002152
:101600001020FFF762FF16E0DF48844208D1012175
:101610002020FFF75AFF00212020FFF756FF0AE0A5
:10162000DA48844207D101214014FFF741FF00212D
:101630006014FFF73DFF10BD0A4600210168CD4B45
:1016400098420ED0D14B98420BD0B0F1804F08D0C9
:10165000C94B984205D0C94B984202D0C84B98421A
:1016600003D121F0700153881943C64B984206D02C
:10167000C54B984203D021F44071D38819430160CF
:101680009388838513880385BA4B984202D0BF4B59
:10169000984201D1137A0386012383820168B54BF6
:1016A00098420ED0B94B98420BD0B0F1804F08D081
:1016B000B14B984205D0B14B984202D0B04B984202
:1016C00006D1537A13B141F4006101E021F40061C5
:1016D000B0F1804F08D0A84B984205D0A74B984254
:1016E00002D0A74B98420DD1937A13B141F48051A7
:1016F00001E021F48051D37A13B141F4005101E0AB
:1017000021F40051B0F1804F05D09B4B984202D09C
:101710009A4B984206D1137B13B141F4804101E00A
:1017200021F48041934B98420BD0984B984208D0BB
:10173000B0F1804F05D0904B984202D08F4B984229
:1017400006D1537B13B141F4004101E021F4004183
:1017500001604168B0F1804F02D0884B984206D1B9
:10176000937B13B141F4807101E021F480714160F9
:10177000704730B5002400220023056A25F00105DA
:101780000562026A4368048B4FF68F752C404FF652
:10179000FC752C400D882C4322F002020D892A434F
:1017A0004D882A43734DA84202D0784DA8420FD1EC
:1017B00022F008024D892A4322F004028D882A4330
:1017C00023F4807323F400738D892B43CD892B433D
:1017D00043600483CD888586026230BD70B50024E5
:1017E00000220023056A25F010050562026A43689D
:1017F000048B48F6FF752C404FF6FF452C400D88B2
:101800004FF6FF7606EA05252C4322F020020D89CB
:1018100042EA05124D8842EA0512564DA84202D00E
:101820005A4DA84213D122F080024D8942EA051296
:1018300022F040028D8842EA051223F4806323F4EB
:1018400000638D8943EA8503CD8943EA85034360BC
:101850000483CD880587026270BD30B50024002264
:101860000023056A25F480750562026A4368848B4B
:101870004FF68F752C404FF6FC752C400D882C438D
:1018800022F400720D8942EA05224D8842EA0522BF
:10189000384DA84202D03D4DA84213D122F4006237
:1018A0004D8942EA052222F480628D8842EA0522AF
:1018B00023F4805323F400538D8943EA0513CD8923
:1018C00043EA051343608483CD888587026230BD77
:1018D00070B5002200230024056A25F480550562B6
:1018E000036A4468828B48F6FF752A404FF6FF452D
:1018F0002A400D884FF6FF7606EA05252A4323F491
:1019000000530D8943EA05334D8843EA0533194DE9
:10191000A84202D01D4DA84204D124F480448D89F0
:1019200044EA851444608283CD88A0F84050036265
:1019300070BD30B5002400220023056A25F48035EF
:101940000562026A4368B0F854404FF68F752C4028
:101950000D882C4322F400320D8942EA05424D885D
:1019600042EA0542034DA84202D0084DA84214D1D4
:101970000EE00000002C0140000400400008004080
:10198000000C0040001000400014004000340140F2
:1019900023F480338D8943EA05234360A0F8544043
:1019A000CD88A0F85850026230BD70B500240022E6
:1019B0000023056A25F480150562026A4368B0F8C1
:1019C000544048F6FF752C400D884FF6FF7606EA26
:1019D00005252C4322F400120D8942EA05524D8858
:1019E00042EA0552F84DA84202D0F84DA84204D16F
:1019F00023F480238D8943EA85234360A0F8544073
:101A0000CD88A0F85C50026270BD828B4FF2FF332C
:101A10001A408283828B4FF6FF7303EA01231A4335
:101A200082837047F0B50C4615460022002100263F
:101A3000076A27F480570762828B016A260340F603
:101A4000FF473A404FF6FF7707EA05273A434FF63C
:101A5000FF7707EA03373A43DB4FB8420ED0DB4F3C
:101A6000B8420BD0B0F1804F08D0D94FB84205D062
:101A7000D84FB84202D0D84FB84205D121F4005116
:101A800046F48057394304E021F4024144F480577E
:101A9000394382830162F0BD828B4FF6F3731A40A3
:101AA0008283828B0A4382837047F0B50C461546C9
:101AB000002200210026076A27F480770762828BC4
:101AC000016A26024FF60C773A404FF6FF7707EA95
:101AD00003172F433A43BC4FB8420ED0BB4FB84216
:101AE0000BD0B0F1804F08D0B94FB84205D0B94FF4
:101AF000B84202D0B84FB84205D121F4007146F483
:101B00008077394304E021F4206144F4807739433D
:101B100082830162F0BD028B4FF2FF331A400283D1
:101B2000028B4FF6FF7303EA01231A4302837047C7
:101B3000F0B50C461546002200210026076A27F062
:101B400010070762028B016A260140F6FF473A4000
:101B50004FF6FF7707EA03373A434FF6FF7707EA76
:101B600005273A43984FB8420ED0984FB8420BD051
:101B7000B0F1804F08D0964FB84205D0954FB8428B
:101B800002D0954FB84205D121F0200146F0100750
:101B9000394304E021F0A00144F0100739430283E7
:101BA0000162F0BD028B4FF6F3731A400283028B81
:101BB0000A430283704770B50C4615460022002187
:101BC000066A26F001060662028B016A4FF60C7661
:101BD00032404FF6FF7606EA03162E4332437A4E22
:101BE000B0420ED0794EB0420BD0B0F1804F08D049
:101BF000774EB04205D0774EB04202D0764EB0421A
:101C000005D121F0020144F00106314304E021F046
:101C10000A0144F0010631430283016270BD70B5D0
:101C200005460C46684885420ED0684885420BD070
:101C3000B5F1804F08D06648854205D06548854299
:101C400002D06548854200D100E000BF208850B92D
:101C50002389A28861882846FFF7ADFFE1882846DE
:101C6000FFF7A0FF25E0208804280AD12389A28855
:101C700061882846FFF75CFFE1882846FFF74BFFA5
:101C800017E0208808280AD12389A288618828467D
:101C9000FFF70BFFE1882846FFF7FEFE09E02389E6
:101CA000A28861882846FFF7BDFEE1882846FFF735
:101CB000ACFE70BD2DE9F04105460C46002601271B
:101CC000608808B9022600E00026A088012801D11A
:101CD000022700E001272088A0B92389A288618813
:101CE0002846FFF768FFE1882846FFF75BFF238956
:101CF0003A4631462846FFF71BFFE1882846FFF7A2
:101D00000AFF13E02389A28861882846FFF710FFA5
:101D1000E1882846FFF7FFFE23893A4631462846E8
:101D2000FFF749FFE1882846FFF73CFFBDE8F08157
:101D300010B502460B884C8823438C882343CC88FB
:101D400023430C8923434C8923438C892343A2F8E2
:101D5000443010688B7B13B120F4806001E040F4C4
:101D60008060CB7B13B140F4803001E020F4803000
:101D70000B7C13B140F4003001E020F4003010601F
:101D800010BD4FF6FF71818000210180C18041802C
:101D9000017241728172C172017341738173704724
:101DA0000021018041808180C18001814181818148
:101DB000C181704700210180418001218180002183
:101DC000C180018170470000002C014000340140B7
:101DD0000004004000080040000C00400021018089
:101DE00041808180C180018141818181704721B121
:101DF000026842F00102026003E0026822F0010280
:101E00000260704731B1B0F8442042F40042A0F8BB
:101E1000442005E0B0F84420C2F30E02A0F84420AC
:101E200070471AB183890B43838102E083898B4316
:101E3000838170478182704741EA0203A0F84830ED
:101E400070471AB183890B43838102E083898B43F6
:101E50008381704701894FF6F87211400181704704
:101E60000A46002101894FF68F7319401143018101
:101E7000704730B504460D4629462046FFF7F0FF6F
:101E8000208940F00700208130BD2DE9F041044653
:101E90000D4616461F46602D06D13B4601223146AF
:101EA0002046FFF745FE05E03B460122314620462D
:101EB000FFF781FE29462046FFF7D2FF208940F038
:101EC00007002081BDE8F08130B50C460021018972
:101ED000C9B24FF6FF7505EA03251543254329438B
:101EE000018130BD2DE9F04105460E461746984662
:101EF000002443463A4631462846FFF7E5FF2C8941
:101F00004FF6F870044044F007044FF68F70044019
:101F100044F070042C81BDE8F081F0B504460D4614
:101F200016461F463B46324629462046FFF7CCFF61
:101F3000208940F480402081F0BD01858282704775
:101F40000A460021016821F07001114301607047C9
:101F5000F0B50C4615461E460021002200230189DB
:101F6000028B036A4FF6F877394021434FF6FC475E
:101F70003A4040F201173A4323F022034FF6FF772D
:101F800007EA06172F433B43018102830362F0BD3A
:101F90000A460021018B4FF68F73194011430183CC
:101FA00070470A460021018B48F6FF7319404FF62F
:101FB000FF7303EA02231943018370470A46002195
:101FC000818B4FF68F7319401143818370470A4606
:101FD0000021818B48F6FF7319404FF6FF7303EA27
:101FE00002231943818370470A460021B0F8541038
:101FF0004FF68F7319401143A0F8541070470A46EA
:102000000021B0F8541048F6FF7319404FF6FF73E3
:1020100003EA02231943A0F85410704721B1026863
:1020200042F08002026003E0026822F08002026057
:10203000704721B1426842F00402426003E0426806
:1020400022F004024260704721B1426842F0080267
:10205000426003E0426822F008024260704721B10A
:10206000426842F00102426003E0426822F001024D
:10207000426070470A460021018B4FF6F773194002
:102080001143018370470A460021018B4FF2FF7311
:1020900019404FF6FF7303EA022319430183704787
:1020A0000A460021818B4FF6F77319401143818353
:1020B00070470A460021818B4FF2FF7319404FF69B
:1020C000FF7303EA02231943818370470A46002104
:1020D000B0F854104FF6F77319401143A0F854109C
:1020E00070470A460021B0F854104FF2FF731940B0
:1020F0004FF6FF7303EA02231943A0F85410704708
:102100000A460021018B4FF6FB73194011430183EE
:1021100070470A460021018B4FF6FF3319404FF6F6
:10212000FF7303EA02231943018370470A46002123
:10213000818B4FF6FB7319401143818370470A4628
:102140000021818B4FF6FF3319404FF6FF7303EAEE
:1021500002231943818370470A460021B0F85410C6
:102160004FF6FB7319401143A0F8541070470A460C
:102170000021B0F854104FF6FF3319404FF6FF73AB
:1021800003EA02231943A0F8541070470A460021BD
:10219000018B4FF67F7319401143018370470A4644
:1021A0000021018BC1F30E014FF6FF7303EA0223F6
:1021B0001943018370470A460021818B4FF67F73D4
:1021C00019401143818370470A460021818BC1F376
:1021D0000E014FF6FF7303EA022319438183704710
:1021E0000A460021B0F854104FF67F73194011438E
:1021F000A0F8541070470A460021B0F85410C1F3FB
:102200000E014FF6FF7303EA02231943A0F854109E
:1022100070470A460021016A21F002011143016260
:1022200070470A460021016A21F00801114301624A
:1022300070470A460021016A21F0200141EA02119B
:10224000016270470A460021016A21F0800141EADB
:102250000211016270470A460021016A21F40071EF
:1022600041EA0221016270470A460021016A21F415
:10227000006141EA0221016270470A460021016AB9
:1022800021F4005141EA0231016270470A460021FF
:10229000016A21F4003141EA0241016270470A46B5
:1022A0000021016A21F4001141EA025101627047E4
:1022B00030B5002301248C40A3B2046A9C4304621D
:1022C000046A02FA01F52C43046230BD30B50023E4
:1022D00004248C40A3B2046A9C430462046A02FA98
:1022E00001F52C43046230BD70B503460020002484
:1022F0001846183001258D40ACB21D6AE643B6B2CF
:1023000035401D6209B1082909D100EB610005685B
:1023100025F0700505600568154305600EE00D1F8A
:10232000C5F34E052844056825F4E04505600568B9
:102330004FF6FF7606EA02263543056070BD21B1EF
:10234000026842F00202026003E0026822F0020228
:102350000260704721B1026842F00402026003E0AB
:10236000026822F004020260704721B1426842F024
:102370008002426003E0426822F0800242607047BF
:10238000026822F00802026002680A430260704795
:10239000426822F07002426042680A43426070471D
:1023A00002894FF6F8731A40028102890A430281BA
:1023B000704702894FF67F731A40028102890A43EF
:1023C000028170478184704781857047818670479C
:1023D0000187704781877047A0F840107047A0F8C8
:1023E00058107047A0F85C107047026822F44072E1
:1023F000026002680A43026070470146888E704797
:102400000146088F70470146888F70470146B1F832
:10241000400070470146B1F8580070470146B1F8D6
:102420005C0070470146888C70470146088D7047F4
:102430000246002013690B400BB1012000E0002090
:102440007047CA430261704730B50246002000233E
:102450000024156905EA0103958905EA010413B111
:102460000CB1012000E0002030BDCA43026170477A
:1024700010B50446FA48844209D101218803FFF7C8
:1024800017F800214FF48040FFF712F84CE0F548B0
:10249000844209D101214804FFF717F800214FF4C5
:1024A0000030FFF712F83FE0EF48844209D10121E4
:1024B0008804FFF70AF800214FF48020FFF705F8A1
:1024C00032E0EA48844209D10121C804FEF7FDFF49
:1024D00000214FF40020FEF7F8FF25E0E448844295
:1024E00009D101210805FEF7F0FF00214FF480100B
:1024F000FEF7EBFF18E0DF48844209D101214804D0
:10250000FEF7D6FF00214FF40030FEF7D1FF0BE0BD
:10251000D948844208D101218804FEF7C9FF00216F
:102520004FF48020FEF7C4FF10BD2DE9F04786B0C0
:1025300005460E460024A24600BFA1460027B089EA
:1025400000B100BF2F462C8A4CF6FF700440F08883
:1025500004432C82AC894EF6F3100440B0883189D4
:102560000843718908430443AC81AC8A4FF6FF40AD
:102570000440B0890443AC826846FEF7D3FEB848F5
:10258000874205D0BB48874202D0BB48874202D170
:10259000DDF80CA001E0DDF808A0A88900F40040F7
:1025A00040B10AEBCA0000EB0A1031684900B0FBE9
:1025B000F1F807E00AEBCA0000EB0A103168890065
:1025C000B0FBF1F86420B8FBF0F0040120096421AD
:1025D00001FB1089A88900F4004040B1322000EBD3
:1025E000C900B0FBF1F000F00700044308E032201E
:1025F00000EB09106421B0FBF1F000F00F00044380
:102600002C8106B0BDE8F0874FF41651016000211F
:102610008180C18001810C2141810021818170472D
:1026200010B502460020108A4FF2FF0318400B88B5
:102630004C8823438C882343CC882343184310823F
:1026400010BD0021018041808180C180704721B18F
:10265000828942F40052828104E082894DF6FF7340
:102660001A4082817047F0B50346002400260025F9
:10267000002040F66A17B94200D100BF1846C1F3E6
:10268000421401F01F06012707FA06F5012C01D1BB
:102690000C3004E0022C01D1103000E014301AB1EB
:1026A00007682F43076002E00768AF430760F0BD8B
:1026B0001AB1838A0B43838202E0838A8B4383822D
:1026C0007047028A4FF6F0731A400282028A0A4368
:1026D0000282704782894FF2FF731A408281828999
:1026E0000A438281704721B1828942F002028281CD
:1026F00004E082894FF6FD731A4082817047028A96
:102700004FF6DF731A400282028A0A430282704740
:1027100021B1028A42F48042028204E0028A4BF62E
:10272000FF731A4002827047C1F30802828070472B
:1027300001468888C0F308007047818941F0010193
:1027400081817047028BD2B20283028B42EA01225E
:1027500002837047028B02F47F420283028B0A439A
:102760000283704721B1828A42F02002828204E013
:10277000828A4FF6DF731A408282704721B1828AC3
:1027800042F01002828204E0828A4FF6EF731A4010
:102790008282704721B1828A42F00802828204E07C
:1027A000828A4FF6F7731A408282704721B182897C
:1027B00042F40042828103E08289C2F30E028281E8
:1027C000704721B1828A42F40062828204E0828AE8
:1027D0004FF2FF731A4082827047828A4FF6FB7372
:1027E0001A408282828A0A438282704721B1828A99
:1027F00042F00202828204E0828A4FF6FD731A40A0
:102800008282704702460020B1F5007F00D100BFF0
:1028100013880B400BB1012000E00020704701F449
:102820000072B2F5007F00D100BFCA43028070473A
:1028300070B50246002400230025002040F66A16E9
:10284000B14200D100BFC1F3421501F01F030126C0
:1028500006FA03F3012D11D19689334015E00000EB
:10286000003801400044004000480040004C004057
:10287000005000400050014000540140022D02D1A0
:10288000168A334001E0968A33400C12012606FA7C
:1028900004F41688344013B10CB1012000E000208C
:1028A00070BD10B50022002340F66A14A14200D189
:1028B00000BF0A1201249440A3B2DC43048010BD7F
:1028C000002107E04FF4B46100BF0A1EA1F101012D
:1028D000FBD1401E0028F5D17047014608687047BB
:1028E00030B585B005460C4601210220FEF7C6FD35
:1028F000ADF80850ADF804400020ADF80A00ADF87E
:10290000060001A94D48FEF797FE012211464B48EB
:10291000FFF787FA4FF4A060FDF778FD1D208DF8D2
:10292000000001208DF801008DF802008DF80300F1
:102930006846FDF770FD01214048FFF758FA05B0E1
:1029400030BD10B501213D48FFF77EFDF8B10121F2
:102950003A48FFF78AFD3A480078012814D13948EF
:102960000088401C3749088008460088B0F5FA6F97
:102970000DDB4FF48071344800F0E5FA0020314956
:1029800008803249086002E000202E49088010BD0E
:1029900047216320FFF7A4FF00F0B4F82CA000F05B
:1029A00041FB4AE03048FFF798FF3049884202D1A6
:1029B00001202F49087028E02E480078012824D1F2
:1029C00000211E48FFF713FA00212B48FFF73FFEB6
:1029D00000F078FA00202749087028490870284834
:1029E0000078012809D100202549087001202049DC
:1029F00008701D491D4800F025FA01210F48FFF716
:102A0000F6F901211C48FFF722FE1948007800283A
:102A1000D2D01748007880B10020154908700021F5
:102A20000648FFF7E4F9174917A000F0FBFA1BA0CE
:102A300000F0F8FA134800F0F3F9B3E7000400409F
:102A40000A0000200C0000202800002004000020C4
:102A50004E5A333630315F696E6974207375636323
:102A600065737321200D0A0000580008785634124F
:102A70000800002009000020003801400E0000205E
:102A80000F00002000400008415050206164647233
:102A9000657373A3BA25780D0A000000BFAACABCEB
:102AA000D6B4D0D0466C617368D3C3BBA7B4FAC2A6
:102AB000EB21210D0A000000704700BFFEE700BFB8
:102AC000FEE700BFFEE700BFFEE7704770477047B4
:102AD0007047000008B54FF4A060FDF797FC252073
:102AE0008DF8000001208DF801008DF802008DF8AE
:102AF00003006846FDF78FFC40F22551BC48FFF704
:102B0000D0FE08BD00B585B001210420FEF78FFC82
:102B100001218803FEF78BFC4FF40070ADF8100024
:102B200018208DF8130003208DF8120004A9B14875
:102B3000FEF75EF84FF48060ADF8100004208DF8C9
:102B4000130004A9AB48FEF753F84FF4E1300090AE
:102B50000020ADF80400ADF80600ADF80800ADF8AF
:102B60000C000C20ADF80A006946A148FFF7DDFC17
:102B7000FFF7B0FF012240F225519D48FFF773FD9A
:102B800001219B48FFF763FD05B000BD70B5044609
:102B90000D4629462046FFF7C7FD00BF802120468D
:102BA000FFF730FE0028F9D070BD2DE9F04107464F
:102BB0000D461646002405E0295D3846FFF7E6FF7E
:102BC000601CC4B2B442F7DB00BF40213846FFF7B7
:102BD00019FE0028F9D0BDE8F08170B506460C4614
:102BE000002500BF615D3046FFF7D0FF6D1C605DC2
:102BF0000028F7D100BF40213046FFF703FE002830
:102C0000F9D070BD2DE9F04105460C46260AE7B221
:102C100031462846FFF788FD00BF80212846FFF790
:102C2000F1FD0028F9D039462846FFF77DFD00BFA9
:102C300080212846FFF7E6FD0028F9D0BDE8F081A5
:102C400070B504460D46E1B26948FFF76DFD00BF5F
:102C500080216748FFF7D6FD0028F9D0204670BDD7
:102C600010B5044600BF20216148FFF7CBFD0028C6
:102C7000F9D05F48FFF75CFD10BD1CB55E480078D9
:102C80008DF800005C4840788DF801005A48807843
:102C90008DF8020000208DF803005748007856494F
:102CA000497808445449897808444042C0B28DF8B4
:102CB0000400052269464E48FFF777FF1CBD30B57A
:102CC000C1B000244FF4807101A800F03CF9002548
:102CD00040F225514648FFF795FD00287ED040F28E
:102CE00025514348FFF7DDFD002044490880444852
:102CF000006886287AD83E48FFF71AFDC1B24048DE
:102D000002680068401C3E4B18603B488154C07804
:102D1000401D3C49087038480078012866D1364883
:102D20004078012862D118460068097888425DD150
:102D300000201946086001203349087002022E491C
:102D400001A800F0E7F800BF05E001A8005D2844F5
:102D5000C5B2601CC4B22B480078401EA042F4DC0F
:102D6000E843401CC5B227480078401E01A9085C12
:102D7000A84236D12548007888BBFFF77EFF21495D
:102D800009784A1F22490988224B03EBC1101A49CE
:102D9000091D00F0BFF81E480088401C1C4908802F
:102DA00008460088102807DB00200880012017490A
:102DB0000870194908700EE01248007805280AD1F9
:102DC0000D48C07838B900201149088001200F490A
:102DD00008701249087000200A4901E006E000E08E
:102DE00008704FF48071044800F0ADF841B030BD78
:102DF0000038014000080140280000200C0000209D
:102E000004000020160000200E0000200900002011
:102E100014000020280100200A0000200F000020DC
:102E200010B50446206820F07040B0F5002F08D29D
:102E30006068324908602068FDF7B8F92F480068DB
:102E4000804710BD70B504460D46FDF77FFB284650
:102E5000FDF7D0FB21462846FDF769FC062803D084
:102E6000FDF77AFB012070BDFDF776FB0020FAE745
:102E70002DE9F04105460E463746FDF767FB002475
:102E800004E007EBC420FDF7B5FB641C002CF8D070
:102E9000002410E055F8241007EB8400FDF747FCF0
:102EA000062807D0FDF758FB0020154908700120BF
:102EB000BDE8F081641CB4F5007FEBD3FDF74CFB5B
:102EC0000020F5E710B50F4800780F4901EBC0204E
:102ED0000E49086000BF0D4801680D48FFF7C8FFA4
:102EE0000028F8D14FF40061094800F02CF805489B
:102EF0000078401C0349087010BD00001800002035
:102F0000080000201D0000200040000820000020D4
:102F10002801002040EA01039B0703D009E008C90B
:102F2000121F08C0042AFAD203E011F8013B00F88E
:102F3000013B521EF9D27047D2B201E000F8012BDA
:102F4000491EFBD270470022F6E710B513460A4629
:102F500004461946FFF7F0FF204610BD2DE9F05F4B
:102F60000546002092469B468846064681464024F8
:102F70001BE0284641464746224600F042F85346A9
:102F80005A46C01A914110D311461846224600F005
:102F900029F82D1A67EB01084F462246012000212F
:102FA00000F020F817EB00094E41201EA4F10104A7
:102FB000DFDC484631462A464346BDE8F09F000024
:102FC000064C074D06E0E06840F0010394E8070076
:102FD00098471034AC42F6D3FDF7E2F8743300089A
:102FE00094330008202A04DB203A00FA02F1002082
:102FF00070479140C2F1200320FA03F31943904037
:103000007047202A04DB203A21FA02F000217047A1
:1030100021FA02F3D040C2F1200291400843194640
:10302000704700000FB4054B10B503A9044A02987D
:1030300000F018F810BC5DF814FB0000412C0008EB
:103040002400002002E008C8121F08C1002AFAD19B
:1030500070477047002001E001C1121F002AFBD118
:10306000704700002DE9FF4F8DB09B460F46044688
:10307000002606E025280BD05A460F999047641C7D
:10308000761C20780028F5D111B03046BDE8F08FCD
:103090000025A8460122984900E0054314F8013FA5
:1030A000203B02FA03F00842F7D120782E2817D1EE
:1030B00014F8010F45F004052A280ED06FF02F02F6
:1030C0002078A0F1300109290AD808EB880102EB29
:1030D000410100EB0108641CF2E757F8048B641C03
:1030E00020786C280DD004DC4C2812D06A2811D12D
:1030F00004E074280DD07A280CD10AE045F40015BC
:1031000007E0617845F48015814202D1641C05F521
:103110008015641C2278692A45D008DC002AB3D0C7
:10312000582A69D0632A10D0642A08D13BE0702A5B
:1031300067D0732A13D0752A5CD0782A5CD01046E9
:103140005A460F999047761CD3E017F8040B8DF878
:10315000000000208DF80100E946012003E057F847
:10316000049B4FF0FF3069074FF0000501D40AE0DF
:103170006D1C45450DDA8542FADB19F8051000296A
:10318000F6D106E06D1C8542FCDB19F8051000291C
:10319000F8D12E4404E019F8010B5A460F999047D4
:1031A0006D1EF8D2A5E00A200021CDE90801C5F383
:1031B000025002280DD001CFC117031E71F1000388
:1031C0000DDA4FF0000CD0EB0C006CEB01012D235D
:1031D00008E0FF1D27F00707F7E80201EDE72B05E0
:1031E00004D52B238DF8283001233BE0EB0739D0A1
:1031F0002023F7E70A2000E010200021CDE9080194
:1032000007E01020002145F00405CDE908014FF04A
:103210000808C5F3025002280FD001CF00214FF05B
:10322000000A2B071FD5702A0DD0DDE908C38CF0EA
:10323000100C5CEA030C0CD015E0FF1D27F007070B
:10324000F7E80201EBE740228DF828204FF0010A51
:103250000BE050EA010306D030238DF828308DF8BA
:10326000292002239A46582A04D024A20DF12009CD
:103270000B9209E026A2F9E7DDE90823FFF76EFECD
:103280000B9B9B5C09F8013D50EA0102F4D1ADEBC8
:10329000090020300890680701D44FF00108089910
:1032A000884502DDA8EB010000E0002080460025F3
:1032B00006E00AA85A46405D0F9990476D1C761C9F
:1032C0005545F6DB04E030205A460F999047761CAE
:1032D000B8F10001A8F10108F5DC05E019F8010BCF
:1032E0005A460F999047761C0899481E0890002965
:1032F000F4DC641CC5E600000928010030313233DB
:103300003435363738396162636465660000000021
:10331000303132333435363738394142434445460B
:103320000000000000000000000000000102030493
:10333000060708090000000001020304010203045B
:103340000607080901020406080A0C1020202020A4
:1033500020202020010002000400060008000A00CE
:103360000C0010002000400080000001000100015E
:103370000001000194330008000000202800000034
:1033800044300008BC33000828000020001E000064
:1033900054300008004495080000000000000000C0
:1033A000000000000000000000000000000000001D
:0C33B00000000000000000000000000011
:040000050800019955
:00000001FF
