:020000040000FA
:100000001004002045010000D5040000D1040000C8
:1000100051010000530100005501000000000000E4
:10002000000000000000000000000000F9040000D3
:100030005901000000000000E9040000FD04000078
:100040005F0100000000000000000000ED0400005F
:10005000CD0400005F010000D9040000DD040000B1
:10006000E1040000E504000000000000C9040000F5
:100070000000000000000000000000000000000080
:100080000000000000000000C504000000000000A7
:100090000000000000000000000000000000000060
:1000A000890500008D050000000000000000000030
:1000B0009105000095050000990500005F01000012
:1000C000000000000000000000000000F10400003B
:1000D000F5040000A1050000A5050000A905000029
:1000E0000000000000000000000000000000000010
:1000F0000000000000000000000000000000000000
:10010000000000005F010000000000005F0100002F
:1001100000000000000000000000000000000000DF
:10012000000000009D050000000000005F010000CD
:10013000DFF80CD000F0A4F90048004719060000D1
:10014000100400200648804706480047FEE7FEE707
:10015000FEE7FEE7FEE7FEE7FEE7FEE7FEE7FEE777
:1001600001050000310100002DE9FE4F804681EAC3
:100170000300C00F0C46009021F0004123F0004521
:10018000B8EB0200A94105D24046214690461C46E4
:100190000B46024623F00040104347D0270DC7F31B
:1001A0000A00C3F30A510290401A019040286BDA0A
:1001B000C3F3130040F4801B0098924620B1002343
:1001C000D2EB030A63EB0B0B01985946C0F14002D6
:1001D000504600F09FF806460D4650465946019A93
:1001E00000F0A7F810EB08006141002487EA1152E3
:1001F00084EAE7731A4340D0009A62B3019A012A55
:100200004FEA075215DC001B61EB02014FF0004280
:1002100002EA0752CDE90042001C41F58011324646
:100220002B4600F0DEF803B0BDE8F08F40462146D3
:10023000F9E7001B61EB0201001C41F58013001877
:100240005B412018A2F5001747EB030140EAD57087
:10025000B6196D4111E06D084FEA360645EAC075E2
:100260004FEA0752001B61EB0201001C41F58011AF
:1002700049084FEA30000019514132462B4603B07D
:10028000BDE8F04F00F09EB8009801224000002326
:10029000D0EB020263EBE073009821464FEAE07472
:1002A000B8EB000061EB0401E9E783F000435BE792
:1002B00081F0004158E700F0004230F000400AD0E1
:1002C000C10D01F56071C0F3160042EA0151C20888
:1002D00040071143704700200146704701F000437A
:1002E00030B421F0004150EA010206D00A0DA2F517
:1002F0006072C1F31301002A02DC30BC0020704799
:10030000440F44EAC104C100E01830BC00EBC25005
:1003100000F021B8202A04DB203A00FA02F1002084
:1003200070479140C2F1200320FA03F31943904033
:100330007047202A06DBCB17203A41FA02F043EA45
:10034000E07306E041FA02F3D040C2F1200291408E
:100350000843194670470029A8BF7047401C490050
:1003600008BF20F00100704710B4B0FA80FC00FA1A
:100370000CF050EA010404BF10BC704749B1CCF145
:10038000200421FA04F411FA0CF118BF01212143D1
:100390000843A3EB0C01CB1D4FEA00614FEA10208C
:1003A00042BF002010BC704700EBC350104400292E
:1003B000A4BF10BC7047401C490008BF20F00100DA
:1003C00010BC704710B5141E73F1000408DA401C0D
:1003D00041F1000192185B411A4301D120F0010064
:1003E00010BD2DE9F04D92469B4611B1B1FA81F254
:1003F00002E0B0FA80F220329046FFF78BFF04460D
:100400000F4640EA0A0041EA0B0153465A460843A8
:1004100013D0114653EA010019D0C8F140025046EA
:1004200000F040F805460E46504659464246FFF752
:1004300071FF084305D0012004E020463946BDE89D
:10044000F08D0020054346EAE0762C4337430A98B6
:100450006305E40AA0EB08000022FD0A44EA4754C1
:100460000A3002D500200146E9E70105101969416B
:10047000DDE9084500196941BDE8F04DA2E700003B
:10048000064C074D06E0E06840F0010394E80700E1
:1004900098471034AC42F6D3FFF74EFE64060000D6
:1004A00084060000202A04DB203A21FA02F0002111
:1004B000704721FA02F3D040C2F120029140084374
:1004C00019467047704700007047000070470000F1
:1004D000FFE7FEE77047000070470000704700002C
:1004E0007047000070470000704700007047000030
:1004F0007047000070470000704700007047000020
:1005000080B582B045F63800C4F20000016821F0E1
:100510000101016045F63400C4F20000016821F0D9
:100520000101016045F61000C4F2000000210160E5
:100530004FF60000C4F200003021CAF2A55101605C
:1005400000F034F841F20C00C4F2020001684FF6EA
:10055000FC7211400160019000F028F801980168D8
:1005600041F48061016001684FF67F4211400160F3
:1005700000F01CF845F60800C4F20000016841F0E4
:100580000101016002B080BD7047000070470000AB
:10059000704700007047000070470000704700007F
:1005A00070470000704700007047000081B00020D5
:1005B0000090FFE7009843F67F01C0F201018842F6
:1005C00005DCFFE7FFE7009801300090F2E701B09B
:1005D0007047000080B582B040F20800C2F200000F
:1005E00001680131016040F20000C2F200000168C0
:1005F00001900846FFF75FFE49F69A12C9F6991274
:1006000049F69913C3F6C973FFF7AEFDFFF766FE0F
:100610000199086002B080BD80B582B000200190D1
:1006200040F20000C2F200004AF6FC11C4F2C821F8
:10063000016040F20800C2F2000001210160FFE702
:10064000FFF7C8FFFCE702E008C8121F08C1002A34
:10065000FAD170477047002001E001C1121F002A43
:10066000FBD1704788060000000000200800000051
:100670004606000090060000080000200804000064
:1006800056060000000000006688E33D0000000000
:0400000500000131C5
:00000001FF
