:020000040000FA
:100000001018002099020000F5570000F931000097
:10001000ED5700002D1A00002172000000000000C2
:10002000000000000000000000000000295F000048
:10003000012F000000000000E55E0000F9630000F1
:100040000132000015320000293200003D3200006C
:100050005132000065320000793200008D3200001C
:10006000A1320000B5320000C9320000DD320000CC
:10007000F132000005330000193300002D33000079
:100080004133000055330000693300007D33000028
:1000900091330000A5330000B9330000CD330000D8
:1000A000E1330000F5330000093400001D34000086
:1000B0003134000045340000593400006D34000034
:1000C0008134000099340000B1340000C9340000CC
:1000D000E1340000F934000011350000293500003A
:1000E00041350000593500007135000089350000A8
:1000F000A1350000B9350000D1350000E935000018
:100100000136000019360000313600004936000083
:10011000613600007936000091360000A9360000F3
:10012000C1360000D9360000F13600000937000062
:1001300021370000393700005137000069370000CF
:100140008137000099370000B1370000C93700003F
:10015000E1370000F93700001138000029380000AD
:10016000413800005938000071380000893800001B
:10017000A1380000B9380000D1380000E93800008B
:1001800001390000193900003139000049390000F7
:10019000613900007939000091390000A939000067
:1001A000C1390000D9390000F1390000093A0000D6
:1001B000213A0000393A0000513A0000693A000043
:1001C000813A0000993A0000B13A0000C93A0000B3
:1001D000E13A0000F93A0000113B0000293B000021
:1001E000413B0000593B0000713B0000893B00008F
:1001F000A13B0000B93B0000D13B0000E93B0000FF
:10020000013C0000193C0000313C0000493C00006A
:10021000613C0000793C0000913C0000A93C0000DA
:10022000C13C0000D93C0000F13C0000093D000049
:10023000213D0000393D0000513D0000693D0000B6
:10024000813D0000D13E000039430000154400000C
:10025000DD460000D9020000D9020000D9020000EA
:100260004D4800006D4B0000F54D0000315000007E
:10027000595100006D530000C9550000DD560000C3
:10028000DFF810D000F0BAFC004800478D9700005E
:10029000AFF300801018002010484FF07701016084
:1002A0000F484FF0770101600E480F4901600B487D
:1002B0004FF0760101600A484FF0760101600B486B
:1002C00080470B480047FEE7FEE7FEE7FEE7FEE754
:1002D000FEE7FEE7FEE7FEE7FEE700000408054054
:1002E0000C0805400008054011110011856500004B
:1002F000810200002DE9F05F0546002092469B46F2
:1003000088460646814640241BE02846414647462B
:10031000224600F0B7FB53465A46C01A914110D30B
:1003200011461846224600F047F82D1A67EB0108DF
:100330004F4622460120002100F03EF817EB00094D
:100340004E41201EA4F10104DFDC484631462A4616
:100350004346BDE8F09F2DE9F0410024061B2546E9
:1003600071F1000605DA01240027D0EB070067EBE6
:100370000101161E73F1000605DA0027D2EB070211
:10038000012567EB0303FFF7B5FF86460E461746C8
:100390009C46AC4204D00025D0EB050E65EB01066F
:1003A00024B10020D2EB000760EB030C704631460D
:1003B0003A466346BDE8F081202A04DB203A00FA81
:1003C00002F1002070479140C2F1200320FA03F3AC
:1003D000194390407047202A06DBCB17203A41FA98
:1003E00002F043EAE07306E041FA02F3D040C2F1C2
:1003F0002002914008431946704770477047704784
:10040000FFFFFFFFFFFFFFFFFFFFFFFFFFFFFFFFFC
:10041000FFFFFFFFFFFFFFFFFFFFFFFFFFFFFFFFEC
:1004200048F2F50CC1F6FF7C604748F2710CC1F64A
:10043000FF7C604748F20D0CC1F6FF7C604748F234
:10044000590CC1F6FF7C604710B5431A934209D29C
:100450008318881803E010F8011D03F8011D521ECF
:10046000F9D210BD40EA01039B0703D009E008C997
:10047000121F08C0042AFAD203E011F8013B00F869
:10048000013B521EF9D210BDD2B201E000F8012B9F
:10049000491EFBD270470022F6E710B513460A4604
:1004A00004461946FFF7F0FF204610BDF0B480EA7D
:1004B0000102D40F4200B2EB410F02D202460846BD
:1004C00011464A0042D0C30DDDB2C1F3C752AD1A86
:1004D000202D35DAC1F3160141F4000204B1524275
:1004E000C5F1200602FA06F12A411044B3EBD05FB1
:1004F00023D0C4B1012DA0EBC35009DCF0BC4FF0F8
:10050000004202EAC352DBB200F5000000F0D3BAA9
:10051000400000F1807000EBC350A0F1807040EA11
:10052000D170490009E0490841EAC071A0EBC3500D
:1005300000F50000400800EBC350F0BC00F0B2BA78
:100540006142012202EB4101001BF6E7F0BC70475B
:1005500081F00041AAE780F00040A7E780EA0102AD
:1005600010B502F00043400022D04A001FD0010E17
:1005700001EB1261C0F35600C2F3560240F40000D2
:1005800042F40002A0FB022000047F39140400D0D2
:10059000401C50EA124001D44000491EC2B20C0671
:1005A00004EBD010401C4008802A02D003E0002059
:1005B00010BD20F00100002900DA0020184310BD12
:1005C00030B480EA010202F0004530F0004221F030
:1005D000004013D090B1C30DD40DC2F31601C0F387
:1005E0001600E41A41F4000140F400027D34914207
:1005F00001D3641C00E04900002C02DA30BC00206A
:1006000070474FF400000023914201D3891A03433D
:1006100040084FEA4101F7D151B1914202D14FF068
:10062000004105E002D24FF0010101E06FF001014D
:1006300003EBC450284430BC00F034BA420005D06B
:10064000C0F3C7525242914201DC0020704700EBD8
:10065000C15070472DE9FE4F804681EA0300C00F6C
:100660000C46009021F0004123F00045B8EB020059
:10067000A94105D24046214690461C460B460246FB
:1006800023F00040104347D0270DC7F30A00C3F3FF
:100690000A510290401A019040286BDAC3F313000C
:1006A00040F4801B0098924620B10023D2EB030A4D
:1006B00063EB0B0B01985946C0F140025046FFF71F
:1006C0007BFE06460D4650465946019AFFF783FECB
:1006D00010EB08006141002487EA115284EAE773B5
:1006E0001A4340D0009A62B3019A012A4FEA075296
:1006F00015DC001B61EB02014FF0004202EA0752D9
:10070000CDE90042001C41F5801132462B4600F035
:100710000FFA03B0BDE8F08F40462146F9E7001B11
:1007200061EB0201001C41F5801300185B412018A9
:10073000A2F5001747EB030140EAD570B6196D41E9
:1007400011E06D084FEA360645EAC0754FEA0752D8
:10075000001B61EB0201001C41F5801149084FEAC2
:1007600030000019514132462B4603B0BDE8F04F2E
:1007700000F0CFB90098012240000023D0EB020224
:1007800063EBE073009821464FEAE074B8EB000099
:1007900061EB0401E9E783F000435BE781F000418E
:1007A00058E72DE9FE4F81EA030404F0004421F0EC
:1007B000004100944FF0000B23F0004350EA010485
:1007C0005ED052EA03045BD0C3F30A54C1F30A5566
:1007D0002C44A4F2F3340194A0FB0254C1F313019E
:1007E00041F48011C3F3130343F4801301FB02446B
:1007F00000FB034E840A970A44EA815447EA835770
:10080000A4FB076802958D0A05FB07854FEA932C28
:1008100004FB0C542705029D4FEA065847EA163799
:10082000B5EB08056EEB070C870E920E47EA8117B1
:1008300042EA8312A7FB0201B6EB0B0164EB000452
:100840002B0D43EA0C335E1844EB1C50DA4651463C
:10085000E7FB0201C5F313044FEA0B3343EA1453D9
:100860004FEA0432019C43EA0603A4F10C0402940B
:10087000009CCDE900B400F05BF903B0BDE8F08F57
:1008800000200146F9E72DE9F04D81EA030404F068
:10089000004B21F0004514464FF0000A23F00041C0
:1008A00050EA050220D054EA01021DD0C5F30A57D0
:1008B0000246C5F31303C1F31300C1F30A5640F413
:1008C000801543F48013A7EB0608101BD64608F2E8
:1008D000FD3873EB050002D308F1010801E092181E
:1008E0005B41B8F1000F03DA00200146BDE8F08D4E
:1008F00000204FF48011064684460EE0171B73EB70
:10090000050705D3121B63EB050306434CEA010CF4
:1009100049084FEA300092185B4150EA0107EDD1D7
:1009200052EA030012D082EA040083EA0501084378
:1009300005D0101BAB4106D20122002306E00022A5
:100940004FF0004302E06FF0010253101AEB060073
:100950004CEB085110EB0A0041EB0B01BDE8F04DE8
:1009600000F0D7B8C10F80EAE0700844CA079623A8
:10097000002100F0A0B896230022114600F09BB899
:1009800000F0004220F00040C10DC0F3160040F41A
:1009900000007F2901DA00207047962903DCC1F1AD
:1009A0009601C84001E096398840002AF4D04042C0
:1009B000704720F00040C10DC0F3160040F4000065
:1009C0007F2901DA00207047962903DCC1F19601E6
:1009D000C840704796398840704700F0004230F0B8
:1009E00000400AD0C10D01F56071C0F3160042EA63
:1009F0000151C2084007114370470020014670476B
:100A000030B5041E71F1000404DB4FF00044404295
:100A100064EB0101141E73F1000405DB1C464FF06A
:100A20000043524263EB0403994208BF904230BD39
:100A3000002801DBC0F10040002901DBC1F10041C9
:100A400081427047002801DBC0F10040002901DB32
:100A5000C1F100418842704730B50B460146002085
:100A60002022012409E021FA02F59D4205D303FA70
:100A700002F5491B04FA02F52844151EA2F10102F1
:100A8000F1DC30BD202A04DB203A21FA02F00021FB
:100A9000704721FA02F3D040C2F12002914008438E
:100AA000194670470029A8BF7047401C490008BF7D
:100AB00020F00100704710B4B0FA80FC00FA0CF08E
:100AC00050EA010404BF10BC704749B1CCF12004C6
:100AD00021FA04F411FA0CF118BF01212143084353
:100AE000A3EB0C01CB1D4FEA00614FEA102042BF7F
:100AF000002010BC704700EBC35010440029A4BF75
:100B000010BC7047401C490008BF20F0010010BC19
:100B1000704710B5141E73F1000408DA401C41F14F
:100B2000000192185B411A4301D120F0010010BD71
:100B30002DE9F04D92469B4611B1B1FA81F202E0E7
:100B4000B0FA80F220329046FFF736FC04460F469A
:100B500040EA0A0041EA0B0153465A46084313D0C3
:100B6000114653EA010019D0C8F140025046FFF780
:100B700089FF05460E46504659464246FFF71CFC83
:100B8000084305D0012004E020463946BDE8F08D39
:100B90000020054346EAE0762C4337430A98630574
:100BA000E40AA0EB08000022FD0A44EA47540A3098
:100BB00002D500200146E9E7010510196941DDE988
:100BC000084500196941BDE8F04DA2E7C1F30A529A
:100BD000C1F3130140F2FF3341F480119A4202DA6B
:100BE00000200146704740F233439A42A2F233425A
:100BF00002DC5242FFF746BFFFF7DEBB064C074D53
:100C000006E0E06840F0010394E8070098471034DC
:100C1000AC42F6D3FFF738FB0CB902003CB9020036
:100C200010B50121044800F0D9FC012803D10121AD
:100C3000014800F073F810BD000004402DE9F047B2
:100C400004460E464FF0040A002C50D0002E4ED021
:100C5000307901284BDC00BF2648844202D0264868
:100C6000844200D104E040F23A2124A002F026F9A7
:100C700000BF2048844216D13068C0F31005307997
:100C800040B9A089A9B20843A081E08940EA154093
:100C9000E08116E0208AA9B208432082608A40EAF7
:100CA000154060820DE03088C0F30805307920B926
:100CB000A089A9B20843A08103E0208AA9B2084311
:100CC00020820027B84604F120090DE005F001005C
:100CD00038B14046411C01F0FF08B268105C09F8C9
:100CE00007006D08781CC7B2002DEFD1AA46504608
:100CF000BDE8F08700000440000404402E2E5C6430
:100D000072697665725C7372635C686333326634F1
:100D100036785F6164632E630000000070B504469E
:100D20000D46A4B100BF0A48844202D0094884425B
:100D300000D104E040F2E44107A002F0BFF800BF98
:100D400094F846000121A940884384F8460070BD0C
:100D500000000440000404402E2E5C647269766535
:100D6000725C7372635C68633332663436785F61D9
:100D700064632E63000000002DE9F04105460C4637
:100D8000002600274FF00408002D7DD0002CFCD059
:100D90002078012878DC00BFFB48854202D0FB4860
:100DA000854200D104E04FF4D171F9A002F086F839
:100DB00000BF00BF607840B16078012805D060783E
:100DC000022802D06078032800D104E040F2A31189
:100DD000EFA002F073F800BF4FF00008607830B168
:100DE000012805D002287DD003287CD1E8E1BAE3B0
:100DF00000BF6088002877D06088002802DD608806
:100E00000F2871DD6088202802DB60882F28F8DD3C
:100E10006088342802DB60883528F2DD6088372856
:100E200002DB60883A28ECDD6088402802DB6088BD
:100E30004328E6DD6088512802DB60885228E0DD27
:100E40006088602802DB60886728DADD60886B28AC
:100E500002DB60886C2847DD6088702802DB6088D0
:100E6000772841DD60887B2802DB60887C283BDDB9
:100E70006088802802DB6088872835DD60888B28C1
:100E800004DB60888C2800E0A0E32DDD6088FF286B
:100E900003DD6088B0F5877F26DD6088B0F5887F48
:100EA00003DB6088B0F5897F1EDD6088B0F58B7F3D
:100EB00003DB6088B0F5957F7DDB6088B0F5957FBA
:100EC00003DD6088B0F5A07F75DB6088B0F5B87F82
:100ED00003DB6088B0F5BE7F6DDB6088B0F5C07F56
:100EE00007DB02E06FE03BE365E06088B0F5C37FBD
:100EF00061DB6088B0F5C57F03DB6088B0F5C77F34
:100F000059DB6088B0F5C87F03DB6088B0F5C97F26
:100F100051DB6088B0F5C97F03DD6088B0F5CA7F1A
:100F200049DD6088B0F5CB7F03DB6088B0F5CC7F0E
:100F300041DB6088B0F5CC7F03DD6088B0F5CD7F04
:100F400039DD6088B0F5D07F03DB6088B0F5D17FF4
:100F500031DD6088B0F5D27F03DB6088B0F5D87FE3
:100F600029DB6088B0F5D87F03DD6088B0F5DA7FD3
:100F700021DB608840F2B71188421CD06088B0F550
:100F8000E07F03DB6088B0F5E47F14DD6088B0F5B6
:100F9000F07F03DB6088B0F5F17F0CDB6088B0F593
:100FA000F17F03DD6088B0F5F27F04DD608840F2F8
:100FB000FF11884200D104E04FF4D67174A001F013
:100FC0007DFF00BFCFE200BFA08800287ED0A088B0
:100FD000002802DDA0880F2878DDA088202802DB09
:100FE000A0882F2872DDA088342802DBA08835284D
:100FF0006CDDA088372802DBA0883A2866DDA0884F
:10100000402802DBA088432860DDA088512802DB4D
:10101000A08852285ADDA088602802DBA0886728B3
:1010200054DDA0886B2802DBA0886C284EDDA088E8
:10103000702802DBA088772848DDA0887B2802DBA7
:10104000A0887C2842DDA088802802DBA088872831
:101050003CDDA0888B2802DBA0888C2836DDA088A8
:10106000FF2803DDA088B0F5877F2FDDA088B0F5CD
:10107000887F03DBA088B0F5897F27DDA088B0F5E5
:101080008B7F03DBA088B0F5957F7BDBA088B0F574
:10109000957F03DDA088B0F5A07F73DBA088B0F555
:1010A000B87F03DBA088B0F5BE7F6BDBA088B0F50E
:1010B000C07F03DBA088B0F5C37F63DBA088B0F5F9
:1010C000C57F05DBA088B0F5C77F00E05AE059DB9B
:1010D000A088B0F5C87F03DBA088B0F5C97F51DBDD
:1010E000A088B0F5C97F03DDA088B0F5CA7F49DDCF
:1010F000A088B0F5CB7F03DBA088B0F5CC7F41DBC7
:10110000A088B0F5CC7F03DDA088B0F5CD7F39DDB8
:10111000A088B0F5D07F03DBA088B0F5D17F31DDAA
:10112000A088B0F5D27F03DBA088B0F5D87F29DB9B
:10113000A088B0F5D87F03DDA088B0F5DA7F21DB89
:10114000A08840F2B71188421CD0A088B0F5E07F9B
:1011500003DBA088B0F5E47F14DDA088B0F5F07F54
:1011600003DBA088B0F5F17F0CDBA088B0F5F17F40
:1011700003DDA088B0F5F27F04DDA08840F2FF1106
:10118000884215D11AE00000000004400004044029
:101190002E2E5C6472697665725C7372635C686340
:1011A0003332663436785F6164632E63000000007A
:1011B0004FF4D871AFF2280001F080FE00BFD2E1F9
:1011C00000BF608800287CD06088002802DD60882D
:1011D0000F2876DD6088202802DB60882F2870DDEC
:1011E0006088342802DB608835286ADD608837280B
:1011F00002DB60883A2864DD6088402802DB608872
:1012000043285EDD6088512802DB6088522858DD63
:101210006088602802DB6088672852DD60886B2860
:1012200002DB60886C284CDD6088702802DB6088F7
:10123000772846DD60887B2802DB60887C2840DDDB
:101240006088802802DB608887283ADD60888B28E8
:1012500002DB60888C2834DD6088FF2803DD60882D
:10126000B0F5877F2DDD6088B0F5887F03DB60886F
:10127000B0F5897F25DD6088B0F58B7F03DB608862
:10128000B0F5957F7BDB6088B0F5957F03DD6088E6
:10129000B0F5A07F73DB6088B0F5B87F03DB6088B2
:1012A000B0F5BE7F6BDB6088B0F5C07F03DB608884
:1012B000B0F5C37F63DB6088B0F5C57F05DB608870
:1012C00000E05CE0B0F5C77F59DB6088B0F5C87F0F
:1012D00003DB6088B0F5C97F51DB6088B0F5C97F5A
:1012E00003DD6088B0F5CA7F49DD6088B0F5CB7F4B
:1012F00003DB6088B0F5CC7F41DB6088B0F5CC7F44
:1013000003DD6088B0F5CD7F39DD6088B0F5D07F32
:1013100003DB6088B0F5D17F31DD6088B0F5D27F26
:1013200003DB6088B0F5D87F29DB6088B0F5D87F13
:1013300003DD6088B0F5DA7F21DB608840F2B71109
:1013400088421CD06088B0F5E07F03DB6088B0F590
:10135000E47F14DD6088B0F5F07F03DB6088B0F5D2
:10136000F17F0CDB6088B0F5F17F03DD6088B0F5BC
:10137000F27F04DD608840F2FF11884200D105E071
:101380004FF4DA71AFF2F81001F098FD00BF00BF22
:10139000A088E8B3A088002802DDA0880F2837DDE8
:1013A000A088202802DBA0882F2831DDA0883428DF
:1013B00002DBA08835282BDDA088372802DBA08837
:1013C0003A2825DDA088402802DBA08843281FDDBD
:1013D000A088512802DBA088522819DDA088602847
:1013E00002DBA088672813DDA0886B2802DBA088B9
:1013F0006C280DDDA088702802DBA088772807DD27
:10140000A0887B2802DBA0887C2801DDA08800E082
:1014100082E0802802DBA08887287DDDA0888B28D9
:1014200002DBA0888C2877DDA088FF2803DDA08858
:10143000B0F5877F70DDA088B0F5887F03DBA088DA
:10144000B0F5897F68DDA088B0F58B7F03DBA088CD
:10145000B0F5957F7BDBA088B0F5957F03DDA08894
:10146000B0F5A07F73DBA088B0F5B87F03DBA08860
:10147000B0F5BE7F6BDBA088B0F5C07F03DBA08832
:10148000B0F5C37F63DBA088B0F5C57F03DBA08820
:10149000B0F5C77F5BDBA088B0F5C87F03DBA08811
:1014A000B0F5C97F53DBA088B0F5C97F03DDA08804
:1014B000B0F5CA7F4BDDA088B0F5CB7F03DBA088F9
:1014C000B0F5CC7F43DBA088B0F5CC7F03DDA088EE
:1014D000B0F5CD7F3BDDA088B0F5D07F03DBA088E1
:1014E000B0F5D17F33DDA088B0F5D27F03DBA088D3
:1014F000B0F5D87F2BDBA088B0F5D87F03DDA088BE
:10150000B0F5DA7F23DBA08840F2B71188421ED005
:10151000A088B0F5E07F00E019E003DBA088B0F51B
:10152000E47F14DDA088B0F5F07F03DBA088B0F580
:10153000F17F0CDBA088B0F5F17F03DDA088B0F56A
:10154000F27F04DDA08840F2FF11884200D105E05F
:1015500040F2B511AFF2C83001F0B0FC00BF02E0BC
:101560004FF0040800BF00BFB8F1000F2ED1207863
:1015700028B96178688961F30200688104E06178C4
:10158000688961F30A2068816078F8B11148854262
:1015900002D1114E371D02E00F4E0836371D60781C
:1015A000012804D0022805D003280BD105E060886B
:1015B00030600AE0A088386007E060883060A0886A
:1015C000386002E04FF0040800BF00BF4046BDE8AD
:1015D000F0810000000004405808014070B5044646
:1015E0000D46002600BF0B48844202D00A488442C0
:1015F00000D104E04FF4996108A001F05FFC00BF46
:1016000094F846000121A940084000B10126304667
:1016100070BD000000000440000404402E2E5C64F5
:1016200072697665725C7372635C686333326634C8
:1016300036785F6164632E630000000070B5054674
:101640000C460426002D78D0002C76D000BF3C48F4
:10165000854202D03B48854200D104E04FF48371BB
:1016600039A001F02BFC00BF00BF2078022804D075
:101670002078012801D0207800B904E040F2071159
:1016800031A001F01BFC00BF00BF607810B1607892
:10169000012800D104E04FF484712BA001F00EFC6E
:1016A00000BF00BFA078012801D0A07800B904E0F5
:1016B00040F2091124A001F001FC00BF00BFE07856
:1016C00040B1E078012805D0E078022802D0E07827
:1016D000032800D104E04FF485711BA001F0EEFB5C
:1016E00000BF00BF207910B12079012800D104E0AB
:1016F00040F20B1114A001F0E1FB00BF00202870A4
:101700002178688861F3051068806178688861F3E2
:10171000C7106880A178688861F386106880E178D6
:10172000688861F3010068802179A88861F38200EC
:10173000A880002085F847000026304670BD0000D4
:1017400000000440000404402E2E5C64726976653B
:10175000725C7372635C68633332663436785F61DF
:1017600064632E63000000002DE9F04104460E463C
:1017700015460427002C25D0012E23DC00BF13487A
:10178000844202D01248844200D104E040F2072192
:1017900010A001F093FB00BF00BF0DB1012D00D1DF
:1017A00004E04FF402710BA001F088FB00BF26B9E2
:1017B000608965F3C710608103E0608965F3CF300D
:1017C000608100273846BDE8F08100000000044039
:1017D000000404402E2E5C6472697665725C73723C
:1017E000635C68633332663436785F6164632E63AA
:1017F000000000001FB50DA00068009000BF002091
:1018000001900290039000BF02224021084800F09E
:101810006DF84020019001208DF80800CDF80CD023
:1018200001A90348FFF70AFA1FBD0000304000007D
:101830000000044000B587B000BF0020069000BF44
:1018400000BF142101A8FEF726FE00BF01208DF87D
:10185000180000208DF8190002208DF81A0006A843
:1018600000F014FE012000F08BFD022005903C20CA
:1018700004901020019002900390002000F0B0FA34
:1018800001A800F09FFC012000F044FC0D2000F0B6
:101890006BFA07B000BD10B5FFF7CCFF00F008F8F9
:1018A000FFF7A8FF00F0A2F801F052FB10BD000006
:1018B0001CB500BF00200090019000BF8DF8000013
:1018C0008DF8010001208DF8020002208DF8030040
:1018D00001208DF804000121084604F0C7FA69468A
:1018E0000148FFF7ABFE1CBD000004402DE9F041AC
:1018F00006460C4617464FF000080D48864201D1B7
:10190000A4B202E0E4B24FF0040800250BE004F0BA
:10191000010028B105EB0801C8B2394600F00AF809
:101920006408681CC5B2002CF1D1BDE8F08100004C
:10193000000004402DE9FC4104460D460026012725
:101940004FF0010800BF00200090019000BF8DF80B
:1019500000508DF80400102C39D2DFE804F0080B99
:101960000E1114171A1D202326292C2F323500267C
:1019700001272FE0002602272CE00026042729E07B
:101980000026082726E00026102723E0002620272F
:1019900020E0002640271DE0002680271AE00126CF
:1019A000012717E00126022714E00226012711E093
:1019B000022602270EE0022604270BE00226082753
:1019C00008E00226102705E00226202702E04FF05B
:1019D000000800BF00BFB8F1010F04D16A463946C4
:1019E000304603F031FFBDE8FC8100001CB500BFAC
:1019F00000200090019000BF0121480404F07AF912
:101A000001208DF800008DF801004FF48370ADF8CF
:101A1000020069460448FFF7AFF901221146024867
:101A2000FFF7A2FE1CBD00000000044010B5AFF39C
:101A3000008010BD70B5044600BF3CB1012C05D03C
:101A4000022C03D0032C01D0042C00D104E040F27E
:101A500042611EA001F032FA00BF34B1012C0DD05A
:101A6000022C14D0032C24D11AE02048007800F076
:101A7000010080F0010080F0010524E01B4800789F
:101A8000C0F3C00080F0010080F001051BE01748A2
:101A90000078C0F3401080F0010080F0010512E0F2
:101AA00012480078C0F3801080F0010080F001053A
:101AB00009E00E48401D007800F0010080F00100B0
:101AC00080F0010500BF00BF284670BD2E2E5C646B
:101AD00072697665725C7372635C68633332663414
:101AE00036785F636C6B2E63000000003C4005405D
:101AF000F8B5044600200090002600BF0CB1012C70
:101B000000D104E040F24F3120A001F0D7F900BF2E
:101B1000264800884AF2015108432549A1F8FE03EE
:101B200094B923482630007800F00700052801D139
:101B300001261FE01E482A30007820F00100401CDA
:101B40001B4981F82A0015E019482A30007820F056
:101B50000100174981F82A0000BF0220FFF76AFF41
:101B600005460098401C00900098B0F5805F01D2B7
:101B7000012DF2D10D4800884FF6FE71084040F467
:101B800025400B49A1F8FE033046F8BD2E2E5C64BB
:101B900072697665725C7372635C68633332663453
:101BA00036785F636C6B2E6300000000FE430540D7
:101BB0000040054070B5044600250026002C7CD06E
:101BC00000BF2068022803D32068102800D804E052
:101BD00040F21D3154A001F071F900BF00BF6068F0
:101BE000012803D36068102800D804E040F21E31B9
:101BF0004DA001F063F900BF00BFA068022803D325
:101C0000A068102800D804E040F21F3146A001F07F
:101C100055F900BF00BFE068142804D3E068B0F5B0
:101C2000F07F00D804E04FF448713FA001F046F97E
:101C300000BF00BF2069012803D32069182800D8FD
:101C400004E040F2213138A001F038F900BF3E48ED
:101C50000068C0F3C01008B93C4801E03C48006887
:101C60002169B0FBF1F5E06800FB05F600BF3948DB
:101C7000854203D33848854200D804E04FF44A71C6
:101C800029A001F01BF900BF00BF3448864203D3EE
:101C90004000864200D804E040F2293122A001F041
:101CA0000DF900BF2E4800884AF2015108432C4923
:101CB00008802078401E2B4900E034E0D1F8001164
:101CC00060F31F71204801602079401E2549D1F83A
:101CD000001160F31B611C480160207A401E2149FD
:101CE000D1F8001160F3175117480160A089401E18
:101CF0001C49D1F8001160F3102113480160207CC9
:101D0000401E1849D1F8001160F304011548C0F8CD
:101D10000011B0F8FE034FF6FE71084040F4254074
:101D20001049A1F8FE0370BD2E2E5C6472697665C1
:101D3000725C7372635C68633332663436785F63F7
:101D40006C6B2E63000000000041054000127A0019
:101D50004481FF1F40420F0000366E01001C4E0EF2
:101D6000FE4305400040054010B5044600BF1CB1CD
:101D7000082C02DB0D2C00DC04E040F245510EA0E3
:101D800001F09CF800BF144800884AF20251084351
:101D90001249A1F8FE030846008A64F30300088292
:101DA0000D4800884FF6FD71084040F425400B496E
:101DB000A1F8FE0310BD00002E2E5C6472697665EA
:101DC000725C7372635C68633332663436785F6367
:101DD0006C6B2E6300000000FE4305400040054090
:101DE00010B5044600BF0CB1012C00D104E040F254
:101DF000FE210FA001F062F800BF154800884AF2EA
:101E0000015108431349A1F8FE030846D0F8000128
:101E100064F3C710C1F800010846B0F8FE034FF69E
:101E2000FE71084040F425400A49A1F8FE0310BDA8
:101E30002E2E5C6472697665725C7372635C686393
:101E40003332663436785F636C6B2E6300000000BB
:101E5000FE4305400040054010B586B00446002012
:101E6000059038480068049036484068039035482B
:101E7000806802903348C068019000BF1CB1012CFB
:101E800002DB052C00DC04E040F2DF312EA001F083
:101E900015F800BF34482B4908613448007800F039
:101EA0000700052801D0052C0DD1314825490860CF
:101EB000C01248608860C86000BF0598401C05904B
:101EC0000598B028F9D32B4800884AF201510843FD
:101ED00026492639A1F8FE03084690F8260064F347
:101EE000020081F826000846B0F8FE034FF6FE71A6
:101EF000084040F425401D492639A1F8FE03002082
:101F0000059000BF0598401C05900598B028F9D3AE
:101F10000C4904980860039848600298886001980A
:101F2000C8601148401E08610020059000BF059858
:101F3000401C05900598B028F9D304F0ADFA06B01E
:101F400010BD0000008004402E2E5C64726976652E
:101F5000725C7372635C68633332663436785F63D5
:101F60006C6B2E63000000000100A5A52640054013
:101F7000EEFAFFFFFE43054010B586B00446002090
:101F800005905748006804905548406803905448AD
:101F9000806802905248C0680190524850490861D8
:101FA000002C7DD000BF2078E178884232DC207898
:101FB000617988422EDC2078A17988422ADCA078D9
:101FC000E178884226DCA0786179884222DC207999
:101FD000A179401A03281CD02079A179401A02283F
:101FE00017D02079A179401A012812D02079A1793F
:101FF000401A0ED0A0792179401A012809D0A07981
:102000002179401A022804D0A0792179401A0328A6
:1020100000D104E040F23E4133A000F04FFF00BF8A
:102020003948007800F0070005280DD137482C49C1
:102030000860C01248608860C86000BF0598401CF6
:1020400005900598B028F9D3314800884AF201512B
:1020500008432F490880A078E17840EA01102179EF
:1020600040EA0120617940EA0130A17940EA01406B
:10207000617840EA0150217840EA016040EA01704D
:10208000214926390862224800884FF6FE7108402F
:1020900040F425401C492639A1F8FE03002000E049
:1020A0001CE0059000BF0598401C05900598B028DD
:1020B000F9D30B4904980860039848600298886037
:1020C0000198C8600748401E08610020059000BFC5
:1020D0000598401C05900598B028F9D306B010BDAE
:1020E000008004400100A5A52E2E5C64726976650F
:1020F000725C7372635C68633332663436785F6334
:102100006C6B2E630000000026400540EEFAFFFFD6
:10211000FE43054038B504460020009000BF0CB1D6
:10212000012C00D104E04FF46D711CA000F0C6FE3C
:1021300000BF224800884AF2015108432049A1F813
:10214000FE03012C01D0012000E000201C492E31AB
:10215000097860F300011A4880F82E1017480088AB
:102160004FF6FE71084040F425401549A1F8FE03E2
:1021700000BF0320FFF75EFC05460098401C00905E
:102180000098B0F5805F06D2012C01D1012000E05B
:102190000020A842EDD1002038BD00002E2E5C6446
:1021A00072697665725C7372635C6863333266343D
:1021B00036785F636C6B2E6300000000FE430540C1
:1021C0000040054070B5044600250026002C7CD058
:1021D00000BF2068022803D32068102800D804E03C
:1021E00040F2833156A000F069FE00BF00BF606876
:1021F000022803D36068102800D804E04FF461710E
:102200004FA000F05BFE00BF00BFA068022803D310
:10221000A068102800D804E040F2853148A000F002
:102220004DFE00BF00BFE068142804D3E068B0F59D
:10223000F07F00D804E040F2863141A000F03EFE7D
:1022400000BF00BF2069022803D32069182800D8E6
:1022500004E040F287313AA000F030FE00BF404871
:102260000068C0F3C01008B93E4801E03E4800686D
:102270002169B0FBF1F5E06800FB05F600BF3B48C3
:10228000854203D33A48854200D804E040F28E31BB
:102290002BA000F013FE00BF00BF3648864203D3D8
:1022A0004000864200D804E040F28F3124A000F0C4
:1022B00005FE00BF304800884AF2015108432E490C
:1022C00008802078401E2D4900E038E0D1F8041144
:1022D00060F31F712248001D01602079401E2749CC
:1022E000D1F8041160F31B611D48001D0160207AC4
:1022F000401E2249D1F8041160F317511848001DFF
:102300000160A089401E1D49D1F8041160F310211D
:102310001348001D0160207C401E1849D1F80411AB
:1023200060F304011548C0F80411B0F8FE034FF63D
:10233000FE71084040F425401049A1F8FE0370BD2D
:102340002E2E5C6472697665725C7372635C68637E
:102350003332663436785F636C6B2E6300000000A6
:102360000041054000127A004481FF1F40420F00E7
:1023700000366E01001C4E0EFE4305400040054035
:10238000F8B5044600200090002600BF0CB1012CD7
:1023900000D104E040F2A31131A000F08FFD00BF96
:1023A00000BF0CB1012C00D104E040F2A5112CA01B
:1023B00000F084FD00BF324800884AF20151084312
:1023C0003049A1F8FE034CBB2E482630007800F0BF
:1023D0000700032801D1012636E02B480068C0F32E
:1023E000C01088B927482A30007800F0010008B9E9
:1023F000012629E023483230007820F00100401CFB
:10240000204981F832001FE01E483230007820F069
:102410000100401C1B4981F8320015E01948323098
:10242000007820F00100174981F8320000BF012038
:10243000FFF700FB05460098401C00900098B0F59F
:10244000805F01D2012DF2D10D4800884FF6FE7158
:10245000084040F425400B49A1F8FE033046F8BD82
:102460002E2E5C6472697665725C7372635C68635D
:102470003332663436785F636C6B2E630000000085
:10248000FE430540004005400041054058B3164951
:1024900009884AF201521143134A11800278124905
:1024A0001231097862F3C7110F4A12321170427863
:1024B0000D491231097862F386110B4A12321170FC
:1024C000827809491231097862F30511064A1232FD
:1024D0001170054909884FF6FE72114041F42541FB
:1024E000024AA2F8FE137047FE4305400040054033
:1024F00070B506460C46154600BFA848864202D075
:10250000A748864200D104E040F27361A5A000F024
:10251000D5FC00BF00BF2CB1012C03D0022C01D090
:10252000032C00D104E040F274619EA000F0C6FCD0
:1025300000BF00BF287828B12878012802D0287869
:10254000022800D104E040F2756196A000F0B6FCCC
:1025500000BF00BF687828B16878012802D0687889
:10256000022800D104E040F276618EA000F0A6FCC3
:1025700000BF00BFA87810B1A878012800D104E0FE
:1025800040F2776187A000F099FC00BF00BFE878B7
:1025900010B1E878012800D104E04FF4CF6181A0A8
:1025A00000F08CFC00BF00BF287910B12879012809
:1025B00000D104E040F279617AA000F07FFC00BF16
:1025C00000BF687910B16879012800D104E040F2B9
:1025D0007A6174A000F072FC00BF00BFA87928B136
:1025E000A879012802D0A879022800D104E040F29D
:1025F0007B616CA000F062FC00BF00BFE87910B105
:10260000E879012800D104E040F27C6165A000F087
:1026100055FC00BF00BF287A10B1287A012800D1EC
:1026200004E040F27D615FA000F048FC00BF00BF05
:10263000687A10B1687A012800D104E040F27E6126
:1026400058A000F03BFC00BF00BF06F15C0000EBAF
:102650008410006820F003002978084306F15C012B
:1026600001EB8411086000BF00BF06F15C0000EBC5
:102670008410006820F00C00697840EA810106F1BE
:102680005C0000EB8410016000BF00BF06F15C003D
:1026900000EB8410006820F01000A97840EA0111D6
:1026A00006F15C0000EB8410016000BF00BF06F182
:1026B0005C0000EB8410006820F02000E97840EA1C
:1026C000411106F15C0000EB8410016000BF00BF07
:1026D00006F15C0000EB8410006820F040002979CE
:1026E00040EA811106F15C0000EB8410016000BF3C
:1026F00000BF06F15C0000EB8410006820F0800051
:10270000697940EAC11106F15C0000EB84100160B8
:1027100000BF00BF06F15C0000EB8410006820F4ED
:102720004070A97940EA012106F15C0000EB8410B9
:10273000016000BF00BF06F15C0000EB8410006880
:1027400020F48060E97940EA812106F15C0000EB29
:102750008410016000BF00BF06F15C0000EB841034
:10276000006820F40060297A40EAC12106F15C008B
:1027700000EB8410016000BF00BF06F15C0000EBBD
:102780008410006820F48050697A40EA013106F133
:102790005C0000EB8410016000BF70BD003005409C
:1027A000003405402E2E5C6472697665725C73722B
:1027B000635C68633332663436785F646D61632EC0
:1027C000630000002DE9F04704460D4690460026C0
:1027D000B14600BF7548844202D07548844200D19A
:1027E00004E040F29A2173A000F068FB00BF00BF34
:1027F0002DB1012D03D0022D01D0032D00D104E015
:1028000040F29B216BA000F059FB00BF00BFB8F164
:10281000000F02D0B8F1010F00D104E04FF427718E
:1028200064A000F04BFB00BF6A480078002872D11A
:10283000012068490870E0690121A94020EA0109E6
:10284000B9F1000F68D0E06900F00100E0B1DDB13E
:10285000A06C070CA06E0A21B1EB104F14D3A06E30
:10286000B7EB104F10D90AE0701C86B2B6F5A04F36
:1028700005D90020574908700920BDE8F087E069B4
:1028800000F001000028EFD1E06900F0020002280A
:1028900020D1012D1ED0D4F88800070CD4F8A80050
:1028A0000A21B1EB104F15D3D4F8A800B7EB104FA5
:1028B00010D9002609E0701C86B2B6F5A04F04D9E5
:1028C0000020444908700920D7E7E06900F00200C1
:1028D0000028F0D1E06900F00400042822D1022D84
:1028E00020D00026D4F8C800070CD4F8E8000A214C
:1028F000B1EB104F16D3D4F8E800B7EB104F11D955
:102900000BE0701C86B2B6F5A04F06D90020314905
:1029100008700920B1E746E02AE0E06900F0040011
:102920000028EED1E06900F00800082820D1032D2E
:102930001ED00026D4F80801070CD4F828010A217B
:10294000B1EB104F14D3D4F82801B7EB104F0FD9C7
:1029500009E0701C86B2B6F5A04F04D900201D49CD
:102960000870092089E7E06900F008000028F0D12C
:10297000B8F1000F0AD0B8F1010F0FD1E0690121C1
:10298000A94001F00F010843E06107E0E06901217F
:10299000A9400F228A431040E06100BF00BF002021
:1029A0000C49087069E7012067E700000030054026
:1029B000003405402E2E5C6472697665725C737219
:1029C000635C68633332663436785F646D61632EAE
:1029D000630000003C81FF1F2DE9F04105460C46D5
:1029E0001646002700BF2F48854202D02E48854258
:1029F00000D104E040F261212CA000F05FFA00BF9A
:102A000000BF2CB1012C03D0022C01D0032C00D12B
:102A100004E040F2622125A000F050FA00BF00BFA0
:102A20002EB1012E03D0022E01D0032E00D104E0DE
:102A300040F263211DA000F041FA00BF3CB1012C1F
:102A400005D0022C03D0032C01D0042726E036B198
:102A5000012E0AD0022E10D0032E1CD113E068697B
:102A60000121A1400843686117E0686904F1100181
:102A700001228A40104368610FE0A8690121A1404A
:102A80000843A86109E0A86904F1100101228A4005
:102A90001043A86101E0042700BF00BF3846BDE82D
:102AA000F081000000300540003405402E2E5C64AB
:102AB00072697665725C7372635C68633332663424
:102AC00036785F646D61632E6300000070B5044664
:102AD0000D4600BF0E48844202D00E48844200D109
:102AE00004E040F295110CA000F0E8F900BF00BF2F
:102AF0000DB1012D00D104E04FF4CB7106A000F020
:102B0000DDF900BF206865F30000206070BD0000A3
:102B100000300540003405402E2E5C6472697665F5
:102B2000725C7372635C68633332663436785F64F8
:102B30006D61632E630000002DE9F04105460C46EF
:102B40001646002700BF2F48854202D02E488542F6
:102B500000D104E04FF4F9712CA000F0AFF900BFF0
:102B600000BF2CB1012C03D0022C01D0032C00D1CA
:102B700004E040F2F31125A000F0A0F900BF00BF6F
:102B80002EB1012E03D0022E01D0032E00D104E07D
:102B90004FF4FA711DA000F091F900BF3CB1012C77
:102BA00005D0022C03D0032C01D0042726E036B137
:102BB000012E0AD0022E10D0032E1CD113E0E8689B
:102BC0000121A1400843E86017E0E86804F1100122
:102BD00001228A401043E8600FE028690121A140EA
:102BE0000843286109E0286904F1100101228A40A4
:102BF0001043286101E0042700BF00BF3846BDE84C
:102C0000F081000000300540003405402E2E5C6449
:102C100072697665725C7372635C686333326634C2
:102C200036785F646D61632E6300000070B5054601
:102C30000C46164600BF7948854202D07848854246
:102C400000D104E040F2B46176A000F037F900BF93
:102C500000BF2CB1012C03D0022C01D0032C00D1D9
:102C600004E040F2B5616FA000F028F900BF00BF9A
:102C7000308800F47C4000B904E040F2B66169A0FD
:102C800000F01CF900BF00BFB078002000B904E0DC
:102C900040F2B76163A000F011F900BF00BFB08936
:102CA0006FF3090000B904E04FF4D7615DA000F0B4
:102CB00005F900BF00BFF0896FF3090000B904E017
:102CC00040F2B96157A000F0F9F800BF0121284691
:102CD000FFF7FCFE05F15C0000EB8410006820F4B7
:102CE000805105F15C0000EB8410016005F14000AB
:102CF00000EB84107168016005F1440000EB841062
:102D0000B168016000BF05F1480000EB8410006865
:102D10006FF309003188084305F1480101EB841184
:102D2000086000BF00BF718805F1480000EB841007
:102D3000006861F31F4005F1480101EB8411086050
:102D400000BF00BF05F14C0000EB841000686FF37A
:102D50000900B189084305F14C0101EB84110860B9
:102D600000BF00BF05F14C0000EB8410006835493E
:102D70000840F18940EA014105F14C0000EB841064
:102D8000016000BF00BF05F1500000EB8410006837
:102D90006FF313007169084305F1500101EB8411D1
:102DA000086000BF00BF318B05F1500000EB8410BC
:102DB000006861F31F5005F1500101EB84110860B8
:102DC00000BF00BF05F1540000EB841000686FF3F2
:102DD0001300F169084305F1540101EB8411086007
:102DE00000BF00BF318C05F1540000EB8410006877
:102DF00061F31F5005F1540101EB8411086000BF1D
:102E000005F1580000EB84103169016006F12402DD
:102E100021462846FFF76CFB70BD000000300540DE
:102E2000003405402E2E5C6472697665725C7372A4
:102E3000635C68633332663436785F646D61632E39
:102E400063000000FFFF00FC70B504460D46164607
:102E500000BF0F48844202D00E48844200D104E0F3
:102E600040F234610CA000F029F800BF0848844209
:102E700005D1114901EB8500C0F8146807E0054849
:102E8000844204D10C4901EB8500C0F8246870BD70
:102E900000300540003405402E2E5C647269766572
:102EA000725C7372635C68633332663436785F6475
:102EB0006D61632E630000000000014070B50446A0
:102EC0000D462A46214602A004F004FA00BFFEE7A0
:102ED00057726F6E6720706172616D657465727391
:102EE0002076616C75653A2066696C6520257320D3
:102EF0006F6E206C696E652025640D0A000000006D
:102F000010B5AFF3008010BD0449486000BF03490D
:102F10000968C1F380110029F9D070470010024000
:102F200010B5022200210348FFF756FD024806F0C3
:102F30007DFF10BD003005404C81FF1F10B50222FF
:102F400001210248FFF748FD10BD00000030054098
:102F500010B500F003F800F0E9F810BD10B58CB022
:102F600000BF30216846FDF796FA00BF00247AE0E2
:102F70006A486B4901EB44110860694800EB441052
:102F8000806880B200F18070654901EB441188606F
:102F9000634800EB441080686FF30900401C6049EF
:102FA00001EB441188605E4800EB4410C06920F0DA
:102FB00003005B4901EB4411C861594800EB441020
:102FC000C06920F00C00001D554901EB4411C86197
:102FD000534800EB4410C06920F4407000F5807045
:102FE0004F4901EB4411C8614D4800EB4410C069E2
:102FF00020F4806000F58060494901EB4411C8610C
:10300000474800EB4410C06920F40060444901EBDC
:103010004411C861424800EB4410C06920F480505C
:1030200000F580503E4901EB4411C861032C0AD1E0
:103030003C483B4901EB441148603948014601EBEB
:10304000441188610EE0601C364901EB4020344990
:1030500001EB441148603249601C01EB401001EB68
:1030600044118861641C042C82D30120ADF8000057
:103070000002ADF80200294801902A480290002081
:10308000ADF80E00ADF80C0004900021ADF818105A
:103090000590ADF8201007908DF8240001218DF8DF
:1030A000251000218DF826108DF827108DF8281096
:1030B0008DF8291001218DF82A108DF82B10002190
:1030C0008DF82C101648049001218DF82D108803DE
:1030D00002F010FE6A4600211348FFF7A7FD012108
:1030E0001148FFF7F3FC012200210F48FFF76AFBAC
:1030F000032200210C48FFF71FFD022200210A488D
:10310000FFF76AFC0121480402F0F4FD40F2C1120D
:1031100000210548FFF798FE0CB010BD5C0004408C
:10312000A4060020A4FEFF1F003005401CB520208F
:10313000ADF800001E20ADF8020003480190032105
:10314000684600F003F81CBD212F00002DE9F04176
:1031500004460E46B4F90250002D01DB1F2D03DD9D
:10316000262D07DB2B2D05DC204606F0FFF840B1AD
:10317000BDE8F081812D03D1208806F057F900E0E9
:10318000F6E7B4F90200002807DB00F01F02012176
:103190009140164A430942F8231000BFB4F90200D7
:1031A0003146002804DB0A07130E114A135406E0C7
:1031B0000A07170E0F4A00F00F031B1FD75400BF5A
:1031C000B4F9020000280DDB00BF00BF00F01F02B1
:1031D000012191404209920002F1E022C2F800115F
:1031E00000BF00BF00BF00BFC2E7000080E200E0F8
:1031F00000E400E018ED00E010B5AFF3008010BD72
:1032000010B50348006810B101490868804710BD37
:1032100080FCFF1F10B50348406810B101494868A1
:10322000804710BD80FCFF1F10B50348806810B1B7
:1032300001498868804710BD80FCFF1F10B5034816
:10324000C06810B10149C868804710BD80FCFF1FED
:1032500010B50348006910B101490869804710BDE5
:1032600080FCFF1F10B50348406910B1014948694F
:10327000804710BD80FCFF1F10B50348806910B166
:1032800001498869804710BD80FCFF1F10B50348C5
:10329000C06910B10149C869804710BD80FCFF1F9B
:1032A00010B50348006A10B10149086A804710BD93
:1032B00080FCFF1F10B50348406A10B10149486AFD
:1032C000804710BD80FCFF1F10B50348806A10B115
:1032D0000149886A804710BD80FCFF1F10B5034874
:1032E000C06A10B10149C86A804710BD80FCFF1F49
:1032F00010B50348006B10B10149086B804710BD41
:1033000080FCFF1F10B50348406B10B10149486BAA
:10331000804710BD80FCFF1F10B50348806B10B1C3
:103320000149886B804710BD80FCFF1F10B5034822
:10333000C06B10B10149C86B804710BD80FCFF1FF6
:1033400010B50348006C10B10149086C804710BDEE
:1033500080FCFF1F10B50348406C10B10149486C58
:10336000804710BD80FCFF1F10B50348806C10B172
:103370000149886C804710BD80FCFF1F10B50348D1
:10338000C06C10B10149C86C804710BD80FCFF1FA4
:1033900010B50348006D10B10149086D804710BD9C
:1033A00080FCFF1F10B50348406D10B10149486D06
:1033B000804710BD80FCFF1F10B50348806D10B121
:1033C0000149886D804710BD80FCFF1F10B5034880
:1033D000C06D10B10149C86D804710BD80FCFF1F52
:1033E00010B50348006E10B10149086E804710BD4A
:1033F00080FCFF1F10B50348406E10B10149486EB4
:10340000804710BD80FCFF1F10B50348806E10B1CF
:103410000149886E804710BD80FCFF1F10B503482E
:10342000C06E10B10149C86E804710BD80FCFF1FFF
:1034300010B50348006F10B10149086F804710BDF7
:1034400080FCFF1F10B50348406F10B10149486F61
:10345000804710BD80FCFF1F10B50348806F10B17E
:103460000149886F804710BD80FCFF1F10B50348DD
:10347000C06F10B10149C86F804710BD80FCFF1FAD
:1034800010B50448D0F8800018B10249D1F8800086
:10349000804710BD80FCFF1F10B50448D0F88400A1
:1034A00018B10249D1F88400804710BD80FCFF1F8D
:1034B00010B50448D0F8880018B10249D1F8880046
:1034C000804710BD80FCFF1F10B50448D0F88C0069
:1034D00018B10249D1F88C00804710BD80FCFF1F55
:1034E00010B50448D0F8900018B10249D1F8900006
:1034F000804710BD80FCFF1F10B50448D0F8940031
:1035000018B10249D1F89400804710BD80FCFF1F1C
:1035100010B50448D0F8980018B10249D1F89800C5
:10352000804710BD80FCFF1F10B50448D0F89C00F8
:1035300018B10249D1F89C00804710BD80FCFF1FE4
:1035400010B50448D0F8A00018B10249D1F8A00085
:10355000804710BD80FCFF1F10B50448D0F8A400C0
:1035600018B10249D1F8A400804710BD80FCFF1FAC
:1035700010B50448D0F8A80018B10249D1F8A80045
:10358000804710BD80FCFF1F10B50448D0F8AC0088
:1035900018B10249D1F8AC00804710BD80FCFF1F74
:1035A00010B50448D0F8B00018B10249D1F8B00005
:1035B000804710BD80FCFF1F10B50448D0F8B40050
:1035C00018B10249D1F8B400804710BD80FCFF1F3C
:1035D00010B50448D0F8B80018B10249D1F8B800C5
:1035E000804710BD80FCFF1F10B50448D0F8BC0018
:1035F00018B10249D1F8BC00804710BD80FCFF1F04
:1036000010B50448D0F8C00018B10249D1F8C00084
:10361000804710BD80FCFF1F10B50448D0F8C400DF
:1036200018B10249D1F8C400804710BD80FCFF1FCB
:1036300010B50448D0F8C80018B10249D1F8C80044
:10364000804710BD80FCFF1F10B50448D0F8CC00A7
:1036500018B10249D1F8CC00804710BD80FCFF1F93
:1036600010B50448D0F8D00018B10249D1F8D00004
:10367000804710BD80FCFF1F10B50448D0F8D4006F
:1036800018B10249D1F8D400804710BD80FCFF1F5B
:1036900010B50448D0F8D80018B10249D1F8D800C4
:1036A000804710BD80FCFF1F10B50448D0F8DC0037
:1036B00018B10249D1F8DC00804710BD80FCFF1F23
:1036C00010B50448D0F8E00018B10249D1F8E00084
:1036D000804710BD80FCFF1F10B50448D0F8E400FF
:1036E00018B10249D1F8E400804710BD80FCFF1FEB
:1036F00010B50448D0F8E80018B10249D1F8E80044
:10370000804710BD80FCFF1F10B50448D0F8EC00C6
:1037100018B10249D1F8EC00804710BD80FCFF1FB2
:1037200010B50448D0F8F00018B10249D1F8F00003
:10373000804710BD80FCFF1F10B50448D0F8F4008E
:1037400018B10249D1F8F400804710BD80FCFF1F7A
:1037500010B50448D0F8F80018B10249D1F8F800C3
:10376000804710BD80FCFF1F10B50448D0F8FC0056
:1037700018B10249D1F8FC00804710BD80FCFF1F42
:1037800010B50448D0F8000118B10249D1F8000181
:10379000804710BD80FCFF1F10B50448D0F804011D
:1037A00018B10249D1F80401804710BD80FCFF1F09
:1037B00010B50448D0F8080118B10249D1F8080141
:1037C000804710BD80FCFF1F10B50448D0F80C01E5
:1037D00018B10249D1F80C01804710BD80FCFF1FD1
:1037E00010B50448D0F8100118B10249D1F8100101
:1037F000804710BD80FCFF1F10B50448D0F81401AD
:1038000018B10249D1F81401804710BD80FCFF1F98
:1038100010B50448D0F8180118B10249D1F81801C0
:10382000804710BD80FCFF1F10B50448D0F81C0174
:1038300018B10249D1F81C01804710BD80FCFF1F60
:1038400010B50448D0F8200118B10249D1F8200180
:10385000804710BD80FCFF1F10B50448D0F824013C
:1038600018B10249D1F82401804710BD80FCFF1F28
:1038700010B50448D0F8280118B10249D1F8280140
:10388000804710BD80FCFF1F10B50448D0F82C0104
:1038900018B10249D1F82C01804710BD80FCFF1FF0
:1038A00010B50448D0F8300118B10249D1F8300100
:1038B000804710BD80FCFF1F10B50448D0F83401CC
:1038C00018B10249D1F83401804710BD80FCFF1FB8
:1038D00010B50448D0F8380118B10249D1F83801C0
:1038E000804710BD80FCFF1F10B50448D0F83C0194
:1038F00018B10249D1F83C01804710BD80FCFF1F80
:1039000010B50448D0F8400118B10249D1F840017F
:10391000804710BD80FCFF1F10B50448D0F844015B
:1039200018B10249D1F84401804710BD80FCFF1F47
:1039300010B50448D0F8480118B10249D1F848013F
:10394000804710BD80FCFF1F10B50448D0F84C0123
:1039500018B10249D1F84C01804710BD80FCFF1F0F
:1039600010B50448D0F8500118B10249D1F85001FF
:10397000804710BD80FCFF1F10B50448D0F85401EB
:1039800018B10249D1F85401804710BD80FCFF1FD7
:1039900010B50448D0F8580118B10249D1F85801BF
:1039A000804710BD80FCFF1F10B50448D0F85C01B3
:1039B00018B10249D1F85C01804710BD80FCFF1F9F
:1039C00010B50448D0F8600118B10249D1F860017F
:1039D000804710BD80FCFF1F10B50448D0F864017B
:1039E00018B10249D1F86401804710BD80FCFF1F67
:1039F00010B50448D0F8680118B10249D1F868013F
:103A0000804710BD80FCFF1F10B50448D0F86C0142
:103A100018B10249D1F86C01804710BD80FCFF1F2E
:103A200010B50448D0F8700118B10249D1F87001FE
:103A3000804710BD80FCFF1F10B50448D0F874010A
:103A400018B10249D1F87401804710BD80FCFF1FF6
:103A500010B50448D0F8780118B10249D1F87801BE
:103A6000804710BD80FCFF1F10B50448D0F87C01D2
:103A700018B10249D1F87C01804710BD80FCFF1FBE
:103A800010B50448D0F8800118B10249D1F880017E
:103A9000804710BD80FCFF1F10B50448D0F884019A
:103AA00018B10249D1F88401804710BD80FCFF1F86
:103AB00010B50448D0F8880118B10249D1F888013E
:103AC000804710BD80FCFF1F10B50448D0F88C0162
:103AD00018B10249D1F88C01804710BD80FCFF1F4E
:103AE00010B50448D0F8900118B10249D1F89001FE
:103AF000804710BD80FCFF1F10B50448D0F894012A
:103B000018B10249D1F89401804710BD80FCFF1F15
:103B100010B50448D0F8980118B10249D1F89801BD
:103B2000804710BD80FCFF1F10B50448D0F89C01F1
:103B300018B10249D1F89C01804710BD80FCFF1FDD
:103B400010B50448D0F8A00118B10249D1F8A0017D
:103B5000804710BD80FCFF1F10B50448D0F8A401B9
:103B600018B10249D1F8A401804710BD80FCFF1FA5
:103B700010B50448D0F8A80118B10249D1F8A8013D
:103B8000804710BD80FCFF1F10B50448D0F8AC0181
:103B900018B10249D1F8AC01804710BD80FCFF1F6D
:103BA00010B50448D0F8B00118B10249D1F8B001FD
:103BB000804710BD80FCFF1F10B50448D0F8B40149
:103BC00018B10249D1F8B401804710BD80FCFF1F35
:103BD00010B50448D0F8B80118B10249D1F8B801BD
:103BE000804710BD80FCFF1F10B50448D0F8BC0111
:103BF00018B10249D1F8BC01804710BD80FCFF1FFD
:103C000010B50448D0F8C00118B10249D1F8C0017C
:103C1000804710BD80FCFF1F10B50448D0F8C401D8
:103C200018B10249D1F8C401804710BD80FCFF1FC4
:103C300010B50448D0F8C80118B10249D1F8C8013C
:103C4000804710BD80FCFF1F10B50448D0F8CC01A0
:103C500018B10249D1F8CC01804710BD80FCFF1F8C
:103C600010B50448D0F8D00118B10249D1F8D001FC
:103C7000804710BD80FCFF1F10B50448D0F8D40168
:103C800018B10249D1F8D401804710BD80FCFF1F54
:103C900010B50448D0F8D80118B10249D1F8D801BC
:103CA000804710BD80FCFF1F10B50448D0F8DC0130
:103CB00018B10249D1F8DC01804710BD80FCFF1F1C
:103CC00010B50448D0F8E00118B10249D1F8E0017C
:103CD000804710BD80FCFF1F10B50448D0F8E401F8
:103CE00018B10249D1F8E401804710BD80FCFF1FE4
:103CF00010B50448D0F8E80118B10249D1F8E8013C
:103D0000804710BD80FCFF1F10B50448D0F8EC01BF
:103D100018B10249D1F8EC01804710BD80FCFF1FAB
:103D200010B50448D0F8F00118B10249D1F8F001FB
:103D3000804710BD80FCFF1F10B50448D0F8F40187
:103D400018B10249D1F8F401804710BD80FCFF1F73
:103D500010B50448D0F8F80118B10249D1F8F801BB
:103D6000804710BD80FCFF1F10B50448D0F8FC014F
:103D700018B10249D1F8FC01804710BD80FCFF1F3B
:103D800010B55148046851480068012804D104F076
:103D9000010008B1AFF300804C48001D0068012805
:103DA00004D104F0020008B1AFF3008047480830A6
:103DB0000068012804D104F0040008B1AFF30080CA
:103DC00042480C300068012804D104F0080008B112
:103DD000AFF300803D4810300068012804D104F0A2
:103DE000100008B1AFF30080384814300068012893
:103DF00004D104F0200008B1AFF30080334818303C
:103E00000068012804D104F0400008B1AFF300803D
:103E10002E481C300068012804D104F0800008B14D
:103E2000AFF30080294820300068012804D104F451
:103E3000807008B1AFF30080244824300068012866
:103E400004D104F4007008B1AFF300801F4828309B
:103E50000068012804D104F4806008B1AFF3008049
:103E60001A482C300068012804D104F4006008B11D
:103E7000AFF30080154830300068012804D104F405
:103E8000805008B1AFF3008010483430006801283A
:103E900004D104F4005008B1AFF300800B4838306F
:103EA0000068012804D104F4804008B1AFF3008019
:103EB00006483C300068012804D104F4004008B1F1
:103EC000AFF3008010BD00005C120540800AA242E2
:103ED00070B5FE48046800260025FD4800680128EA
:103EE0002BD1FC48006840B9FB480068012804D188
:103EF00004F0010008B1AFF30080F64840300068DC
:103F000048B9F54840300068012804D104F48070B5
:103F100008B1FFF705F8F148406800F00116EF48D6
:103F2000C1684FF0011020EA010506EA050020B142
:103F300004F4803008B1AFF30080E948006801283C
:103F40002DD1E448001D006848B9E348001D006811
:103F5000012804D104F0020008B1AFF30080DD486D
:103F60004430006848B9DC4844300068012804D176
:103F700004F4007008B1FEF7E1FFD848406800F093
:103F80000216D648C1684FF0021020EA010506EA81
:103F9000050020B104F4803008B1AFF30080D148AF
:103FA000006801282DD1CB480830006848B9CA48BC
:103FB00008300068012804D104F0040008B1AFF310
:103FC0000080C4484830006848B9C3484830006899
:103FD000012804D104F4806008B1AFF30080BF4829
:103FE000406800F00416BD48C1684FF0041020EA94
:103FF000010506EA050020B104F4803008B1AFF3F2
:104000000080B948006801282DD1B2480C30006802
:1040100048B9B1480C300068012804D104F0080008
:1040200008B1AFF30080AB484C30006848B9AA48EB
:104030004C300068012804D104F4006008B1AFF3EB
:104040000080A648406800F00816A448C1684FF0F8
:10405000081020EA010506EA050020B104F48030CA
:1040600008B1AFF30080A148006801282CD1A04816
:10407000006840B99F480068012804D104F010008E
:1040800008B1AFF300809A484030006848B99948B9
:1040900040300068012804D104F4805008B1AFF327
:1040A00000809548006800F00116934808300168C8
:1040B0004FF0011020EA010506EA050020B104F4E2
:1040C000003008B1AFF300808C48006801282ED181
:1040D0008748001D006848B98648001D006801280F
:1040E00004D104F0200008B1AFF3008080484430D0
:1040F000006848B9784844300068012804D104F4C5
:10410000005008B1AFF300807B48006800F0021651
:104110007948083001684FF0021020EA010506EAEC
:10412000050020B104F4003008B1AFF300807448FA
:10413000006801282ED16E480830006848B96D48E3
:1041400008300068012804D104F0400008B1AFF342
:10415000008067484830006848B95F4848300068C8
:10416000012804D104F4804008B1AFF30080624814
:10417000006800F004166048083001684FF0041031
:1041800020EA010506EA050020B104F4003008B178
:10419000AFF300805B48006801282ED154480C30F2
:1041A000006848B953480C300068012804D104F075
:1041B000800008B1AFF300804D484C30006848B92A
:1041C00045484C300068012804D104F4004008B18F
:1041D000AFF300804848006800F0081646480830F1
:1041E00001684FF0081020EA010506EA050020B139
:1041F00004F4003008B1AFF30080434800680128A0
:1042000009D14248006800F00F0020B104F480207A
:1042100008B1AFF300803C4808300068012809D19C
:104220003948EC380068012804D104F4002008B1B2
:10423000AFF300803448001D0068012809D13248DE
:10424000F0380068012804D104F4801008B1AFF3FD
:1042500000804FF01C40C068C0F3C01020B104F4CF
:10426000800008B1AFF3008029488669456806EAF6
:10427000050000F07F0020B104F4000008B1AFF3A6
:1042800000802448066823481438056806EA0500BB
:1042900000F07F0020B104F0807008B1AFF300801F
:1042A0001D4806681C481438056806EA050000F039
:1042B0007F0020B104F0007008B1AFF30080174810
:1042C00006681648143805682AE0000060120540A8
:1042D000B00BA6420002A6420001A64200300540F3
:1042E000B013A642B01BA642B023A642B08BA64292
:1042F0000082A6420081A64204340540B093A64243
:10430000B09BA642B0A3A642008320421004014005
:10431000002005401824054018280540182C0540A9
:1043200006EA050000F07F0020B104F0806008B1CB
:10433000AFF3008070BD000010B52F4804682F480F
:10434000D0F80802012808D12D480068012804D1BE
:1043500004F0010008B1AFF3008029483838006844
:10436000012809D1264840300068012804D104F012
:10437000020008B1AFF3008022480068012809D18B
:10438000204878300068012804D104F0040008B106
:10439000AFF300801B4840300068012809D119485C
:1043A000B8300068012804D104F0080008B1AFF368
:1043B000008015480068012809D1134820300068A2
:1043C000012804D104F4001008B1AFF300800F48B5
:1043D000006B012804D104F4800008B1AFF3008021
:1043E0000B48006800F4403020B104F4000008B12C
:1043F000AFF3008010BD0000641205400000484289
:1044000080024842088248420008A8420080984240
:104410000494044070B5AA48046800260025A94801
:104420000068012808D1A8480068012804D104F0D8
:10443000010008B1AFF30080A248001D0068012808
:1044400009D1A148001D0068012804D104F0020030
:1044500008B1AFF300809B4808300068012809D1FB
:10446000994808300068012804D104F0040008B11C
:10447000AFF3008093480C300068012809D19248BE
:104480000C300068012804D104F0080008B1AFF333
:1044900000808C4810300068012809D18A4810300B
:1044A0000068012804D104F0100008B1AFF30080C7
:1044B000844814300068012809D18348143000680A
:1044C000012804D104F0200008B1AFF300807D483A
:1044D00018300068012809D17B481830006801288D
:1044E00004D104F0400008B1AFF3008075481C30DF
:1044F0000068012809D174481C300068012804D1E3
:1045000004F0800008B1AFF300806E4820300068EE
:10451000012809D16C4820300068012804D104F436
:10452000807008B1AFF300806848406D00F44030FF
:10453000C6096648006F00F4C06506EA050020B1B0
:1045400004F4006008B1AFF300806048406D00F4EF
:104550004020C6095D48006F00F4C05506EA05001A
:1045600020B104F4805008B1AFF3008058480068CF
:10457000012808D157480068012804D104F480308C
:1045800008B1AFF300805248001D0068012809D12E
:104590005048001D0068012804D104F4003008B11F
:1045A000AFF300804A4808300068012809D1494823
:1045B00008300068012804D104F4802008B1AFF36A
:1045C000008043480C300068012809D141480C3074
:1045D0000068012804D104F4002008B1AFF3008082
:1045E0003B4810300068012809D13A481030006873
:1045F000012804D104F4801008B1AFF300803448DE
:1046000014300068012809D13248143000680128AC
:1046100004D104F4001008B1AFF300802C48183026
:104620000068012809D12B4818300068012804D1FE
:1046300004F4800008B1AFF3008025481C30006806
:10464000012809D123481C300068012804D104F452
:10465000000008B1AFF300801D4820300068012839
:1046600009D11C4820300068012804D104F0807072
:1046700008B1AFF300801848006800F44030C60964
:1046800015481C30006800F4C06506EA050020B13A
:1046900004F0006008B1AFF300800F48006800F438
:1046A0004020C6090C481C30006800F4C05506EADA
:1046B000050020B104F0805008B1AFF3008070BD58
:1046C00068120540800A3042000E304200800140EE
:1046D000808A3042008E30425484014070B5574881
:1046E00004680026002556480068012808D155486E
:1046F0000068012804D104F0010008B1AFF3008084
:104700004F48001D0068012809D14E48001D00686F
:10471000012804D104F0020008B1AFF3008048483A
:1047200008300068012809D146480830006801288F
:1047300004D104F0040008B1AFF3008040480C300D
:104740000068012809D13F480C300068012804D1D5
:1047500004F0080008B1AFF3008039481030006859
:10476000012809D1374810300068012804D104F02D
:10477000100008B1AFF30080314814300068012800
:1047800009D1304814300068012804D104F0200019
:1047900008B1AFF300802A4818300068012809D119
:1047A000284818300068012804D104F0400008B1FE
:1047B000AFF3008022481C300068012809D121484D
:1047C0001C300068012804D104F0800008B1AFF368
:1047D00000801B4820300068012809D1194820308A
:1047E0000068012804D104F4807008B1AFF30080A0
:1047F0001548006800F44030C60913481C300068B2
:1048000000F4C06506EA050020B104F4006008B1B8
:10481000AFF300800C48006800F44020C6090A4845
:104820001C30006800F4C05506EA050020B104F40D
:10483000805008B1AFF3008070BD00006C120540DD
:10484000800A3142000E31425488014070B5002484
:104850000026BA480568BA48D0F8804004F4805071
:1048600038B104F4804020B105F0010008B1AFF385
:10487000008004F4005038B104F4004020B105F089
:10488000020008B1AFF30080AD4890300468AC4836
:10489000D0F89C6004EA0600C0B220B105F0040024
:1048A00008B1AFF30080A748046804F4805038B121
:1048B00004F4804020B105F0080008B1AFF3008097
:1048C00004F4005038B104F4004020B105F01000A9
:1048D00008B1AFF300809B481030046899481C3041
:1048E000066804EA0600C0B220B105F0200008B155
:1048F000AFF300809448046804F4805038B104F4A5
:10490000804020B105F0400008B1AFF3008004F40E
:10491000005038B104F4004020B105F0800008B127
:10492000AFF3008088481030046887481C30066860
:1049300004EA0600C0B220B105F4807008B1AFF3FC
:1049400000808248046804F4805038B104F4804048
:1049500020B105F4007008B1AFF3008004F40050FA
:1049600038B104F4004020B105F4806008B1AFF321
:10497000008076481030046874481C30066804EAE9
:104980000600C0B220B105F4006008B1AFF30080AA
:104990006F48046804F4805038B104F4804020B1BA
:1049A00005F4805008B1AFF3008004F4005038B132
:1049B00004F4004020B105F4005008B1AFF30080CA
:1049C00063481030046862488038D0F89C6004EA7C
:1049D0000600C0B220B105F4804008B1AFF30080FA
:1049E0005C48046804F4805038B104F4804020B17D
:1049F00005F4803008B1AFF3008004F4005038B102
:104A000004F4004020B105F4003008B1AFF3008099
:104A10005048103004684F481C30066804EA06000D
:104A2000C0B220B105F4802008B1AFF300804A483D
:104A30000068012810D149488069494900EA010409
:104A40004648406900EA010604EA060020B105F480
:104A5000002008B1AFF3008042480468C66806F041
:104A6000200038B104F00B0020B105F4800008B13B
:104A7000AFF3008006EA040000F0200020B105F446
:104A8000000008B1AFF3008006EA040000F08000E7
:104A900020B105F0807008B1AFF3008006EA040091
:104AA00000F0400020B105F0007008B1AFF30080C5
:104AB00006F0020038B104F4807020B105F0806087
:104AC00008B1AFF300802848046827480C30066816
:104AD00006F0200038B104F00B0020B105F00060B2
:104AE00008B1AFF3008006EA040000F0200020B116
:104AF00005F0805008B1AFF3008006EA040000F032
:104B0000800020B105F0005008B1AFF3008006EA44
:104B1000040000F0400020B105F0804008B1AFF380
:104B2000008006F0020038B104F4807020B105F076
:104B3000004008B1AFF3008070BD00007C1205405A
:104B4000005001408054014080580140805C014089
:104B500080600140806401400001804300000C40FF
:104B6000FBFC7CF700D0014000D4014070B500246C
:104B700000269948056899480468C66806F0200030
:104B800038B104F00B0020B105F0010008B1AFF31B
:104B9000008006EA040000F0200020B105F00200C9
:104BA00008B1AFF3008006EA040000F0800020B1F5
:104BB00005F0040008B1AFF3008006EA040000F03D
:104BC000400020B105F0080008B1AFF3008006F006
:104BD000020038B104F4807020B105F0100008B173
:104BE000AFF300807E4804687D480C30066806F00C
:104BF000200038B104F00B0020B105F0200008B10E
:104C0000AFF3008006EA040000F0200020B105F0B8
:104C1000400008B1AFF3008006EA040000F0800015
:104C200020B105F0800008B1AFF3008006EA04006F
:104C300000F0400020B105F4807008B1AFF30080AF
:104C400006F0020038B104F4807020B105F4007061
:104C500008B1AFF3008063484468466904F480609B
:104C600038B106F0800020B105F4006008B1AFF360
:104C7000008004F4007038B106F0200020B105F483
:104C8000805008B1AFF3008004F4006038B106F042
:104C9000010020B905F4005008B1AFF3008004F41E
:104CA000807038B106F01D0020B105F4804008B1D5
:104CB000AFF300804C4804684B481030066804F499
:104CC000806038B106F0800020B105F4803008B172
:104CD000AFF3008004F4007038B106F0200020B17A
:104CE00005F4003008B1AFF3008004F4006038B17F
:104CF00006F0010020B905F4802008B1AFF3008070
:104D000004F4807038B106F01D0020B105F40020D5
:104D100008B1AFF3008035484468466904F4806008
:104D200038B106F0800020B105F4001008B1AFF3EF
:104D3000008004F4007038B106F0200020B105F4C2
:104D4000800008B1AFF3008004F4006038B106F0D1
:104D5000010020B905F4000008B1AFF3008004F4AD
:104D6000807038B106F01D0020B105F0807008B1E8
:104D7000AFF300801E4804681D481030066804F434
:104D8000806038B106F0800020B105F0806008B185
:104D9000AFF3008004F4007038B106F0200020B1B9
:104DA00005F0006008B1AFF3008004F4006038B192
:104DB00006F0010020B905F0805008B1AFF3008083
:104DC00004F4807038B106F01D0020B105F00050E9
:104DD00008B1AFF3008070BD8012054000100240A2
:104DE0000014024000C0014004C401400000024021
:104DF0000404024070B500248A4805688A48048B80
:104E000005F0010038B104F0100020B104F04000BA
:104E100008B1AFF3008005F0020038B104F02000C3
:104E200020B104F0800008B1AFF300807E48848B8D
:104E300005F0040038B104F0100020B104F0400087
:104E400008B1AFF3008005F0080038B104F020008D
:104E500020B104F0800008B1AFF300807248048CE8
:104E600005F0100038B104F0100020B104F040004B
:104E700008B1AFF3008005F0200038B104F0200045
:104E800020B104F0800008B1AFF3008066484830DC
:104E9000048805F0400038B104F4807020B104F4B7
:104EA000007008B1AFF3008005F0800038B104F461
:104EB000005020B104F4804008B1AFF300805A489C
:104EC000A430048805F4807040B104F00100C043B0
:104ED00020B104F0100008B1AFF3008005F40070B9
:104EE00040B104F00200C04320B104F4807008B166
:104EF000AFF3008005F4806040B104F00400C043CB
:104F000020B104F4805008B1AFF300804748048812
:104F100005F4803038B104F0100020B104F04000F6
:104F200008B1AFF3008005F4003038B104F0200080
:104F300020B104F0800008B1AFF300803B48001DB1
:104F4000048805F4802038B104F0100020B104F08A
:104F5000400008B1AFF3008005F4002038B104F040
:104F6000200020B104F0800008B1AFF300802F488A
:104F70000830048805F4801038B104F0100020B126
:104F800004F0400008B1AFF3008005F4001038B120
:104F900004F0200020B104F0800008B1AFF30080DD
:104FA00022483030048805F4800038B104F4807061
:104FB00020B104F4007008B1AFF3008005F40000E4
:104FC00038B104F4005020B104F4804008B1AFF3CC
:104FD000008016488C30048805F0807040B104F0E1
:104FE0000100C04320B104F0100008B1AFF300800D
:104FF00005F0007040B104F00200C04320B104F499
:10500000807008B1AFF3008005F0806040B104F01B
:105010000400C04320B104F4805008B1AFF3008015
:1050200070BD000084120540007001401848024025
:1050300070B50024464805684648048805F001001C
:1050400038B104F0100020B104F0400008B1AFF313
:10505000008005F0020038B104F0200020B104F017
:10506000800008B1AFF300803A48001D048805F0C5
:10507000040038B104F0100020B104F0400008B181
:10508000AFF3008005F0080038B104F0200020B133
:1050900004F0800008B1AFF300802E480830048887
:1050A00005F0100038B104F0100020B104F0400009
:1050B00008B1AFF3008005F0200038B104F0200003
:1050C00020B104F0800008B1AFF3008021483030F7
:1050D000048805F0400038B104F4807020B104F475
:1050E000007008B1AFF3008005F0800038B104F41F
:1050F000005020B104F4804008B1AFF3008015489F
:105100008C30048805F4807040B104F00100C04385
:1051100020B104F0100008B1AFF3008005F4007076
:1051200040B104F00200C04320B104F4807008B123
:10513000AFF3008005F4806040B104F00400C04388
:1051400020B104F4805008B1AFF3008070BD0000BE
:1051500088120540184C024070B57A480468002651
:1051600000257948006800F00F067748083000688D
:1051700000F00F0506EA050020B104F0400008B178
:10518000AFF3008070482030006800F00F066E48D2
:105190002830006800F00F0506EA050020B104F091
:1051A000800008B1AFF3008067484030006800F02D
:1051B0000F0665484830006800F00F0506EA050054
:1051C00020B104F4807008B1AFF300805E48603015
:1051D000006800F00F065C486830006800F00F05BA
:1051E00006EA050020B104F4007008B1AFF30080B6
:1051F00056484068012809D1544880300068012889
:1052000004D104F4803008B1AFF300804F48C06887
:10521000012809D14D4884300068012804D104F4E4
:10522000003008B1AFF3008048480069012809D177
:105230004748806800F0030020B104F4802008B1E2
:10524000AFF3008043484068012809D141488030CD
:105250000068012804D104F4002008B1AFF30080F5
:105260003C48C068012809D13A48843000680128C8
:1052700004D104F4801008B1AFF300803548006910
:10528000012809D13448006800F0030020B104F47B
:10529000001008B1AFF3008030484068012809D100
:1052A0002E4880300068012804D104F4800008B141
:1052B000AFF300802948C068012809D1274884300D
:1052C0000068012804D104F4000008B1AFF30080A5
:1052D00022480069012809D12148806800F00300B4
:1052E00020B104F0807008B1AFF300801D48406821
:1052F000012809D11B4880300068012804D104F03E
:10530000007008B1AFF300801648C068012809D1C9
:10531000144884300068012804D104F0806008B18A
:10532000AFF300800F480069012809D10E480068DA
:1053300000F0030020B104F0006008B1AFF300807A
:1053400070BD00008C1205400C7C014000003C4206
:1053500000E0014000803C4208E40140000044427B
:1053600000200240008044420824024070B5874873
:105370000468002600258648D0F89800012808D146
:1053800084480068012804D104F0100008B1AFF38C
:1053900000807F488C300068012809D17D480C3896
:1053A0000068012804D104F0200008B1AFF30080A8
:1053B00077489C300068012809D17648001D0068B4
:1053C000012804D104F0400008B1AFF30080724816
:1053D0004068724900EA01066F48C06900EA0105A9
:1053E00006EA050020B104F0800008B1AFF30080A8
:1053F0006B480068012808D16A480068012804D178
:1054000004F4807008B1AFF3008065480C38006880
:10541000012809D163480C380068012804D104F43C
:10542000007008B1AFF300805D48001D00680128DE
:1054300009D15C48001D0068012804D104F4806093
:1054400008B1AFF3008058480068544900EA0106EB
:1054500055481830006800EA010506EA050020B149
:1054600004F4006008B1AFF30080504800680128E0
:1054700008D14F480068012804D104F4805008B1D5
:10548000AFF3008049480C380068012809D148482A
:105490000C380068012804D104F4005008B1AFF3BF
:1054A00000804248001D0068012809D14048001DC5
:1054B0000068012804D104F4804008B1AFF30080F3
:1054C0003C480068354900EA01063A48183000684F
:1054D00000EA010506EA050020B104F4004008B125
:1054E000AFF3008034480068012808D133480068D1
:1054F000012804D104F4003008B1AFF300802E4835
:1055000010300068012809D12C48103000680128AB
:1055100004D104F4802008B1AFF30080284800686B
:10552000012809D1264880300068012804D104F4FC
:10553000801008B1AFF300802148001D00680128E9
:1055400009D11F4884300068012804D104F40010F8
:1055500008B1AFF300801A4808300068012809D16B
:10556000174888300068012804D104F4800008B18D
:10557000AFF300801348406800F4403020B104F4D9
:10558000000008B1AFF3008070BD0000901205402C
:1055900000009C4298039C4200E004401752F00037
:1055A00098809C4298839C4204E4044098009D4269
:1055B00098039D4204E804406082A842241CA8424B
:1055C000008390420090044070B53C480468002578
:1055D0003B480068012809D1394820380068012873
:1055E00004D104F0010008B1AFF300803448001D7D
:1055F0000068012809D132481C380068012804D10C
:1056000004F0020008B1FBF70BFB2E4805882E487A
:105610000068012809D12D480068012800D025B173
:1056200004F0040008B1AFF30080274800680128A7
:1056300009D126480068012800D025B104F00800EF
:1056400008B1AFF3008022480068012809D1204842
:1056500020380068012804D104F0100008B1AFF32D
:1056600000801B48001D0068012809D118481C381B
:105670000068012804D104F0200008B1AFF30080D5
:1056800014480068012809D113480088C0F30800B5
:1056900020B104F0400008B1AFF300800D4800686D
:1056A000012809D10C480088C0F3080020B104F09B
:1056B000800008B1AFF3008070BD00009412054077
:1056C000E0088042B000044020148042401680422E
:1056D000E088804220948042B00404402DE9F05FCD
:1056E0000026B346002400250027A046A146A24676
:1056F0003A48006801281AD13948078838480830E4
:10570000B0F80080801FB0F8009035480A30B0F83B
:1057100000A007EA080040F2F711084028B909EA9A
:105720000A0040F27F11084008B1AFF300802B4817
:105730000C300068012815D12A48078EB0F838804F
:10574000B0F83290B0F83AA007EA080040F2F7113A
:10575000084028B909EA0A0040F27F11084008B160
:10576000AFF300801D4810300068012834D11E4876
:105770000678401E90F800B0801C04781A481A3051
:10578000057805F0200028BB06F0010010BB06EAF2
:105790000B0000F0FE00E8B904F0010010B104F0C5
:1057A0000200B8B904F0040010B104F0080088B990
:1057B00004F0100010B104F0200058B905F0080002
:1057C00010B105F0100028B905F0400020B105F037
:1057D000800008B1AFF30080BDE8F09F0853A242FB
:1057E00030FC064000000740A504074010B5AFF3A9
:1057F000008010BD10B500F001F810BD10B500BF5D
:105800000648006800B104E04FF4A37104A0FDF75E
:1058100055FB00BF01480068804710BD4081FF1F55
:105820002E2E5C6472697665725C7372635C686369
:105830003332663436785F6578696E745F6E6D6991
:105840005F7377692E6300002DE9F04706468946AD
:105850001446002700BF4EB1012E07D0022E05D0FE
:10586000032E03D0042E01D0052E00D104E040F217
:1058700013116CA0FDF722FB00BF00BF207828B1F8
:105880002078012802D02078022800D104E040F2DC
:10589000151164A0FDF712FB00BF00BF607928B1AD
:1058A0006079012802D06079022800D104E04FF429
:1058B0008B715CA0FDF702FB00BF00BFA07910B1A7
:1058C000A079012800D104E040F2171155A0FDF79E
:1058D000F5FA00BF00BF607810B16078012800D1F0
:1058E00004E04FF48C714FA0FDF7E8FA00BF00BF51
:1058F000A07810B1A078012800D104E040F219117D
:1059000048A0FDF7DBFA00BF00BFE07810B1E078F7
:10591000012800D104E04FF48D7142A0FDF7CEFACA
:1059200000BF00BF207910B12079012800D104E028
:1059300040F21B113BA0FDF7C1FA00BF00BFE079A8
:1059400010B1E079012800D104E04FF48E7135A048
:10595000FDF7B4FA00BF00F0C5F900275AE00120B6
:10596000B84000EA090078B3364800EB861000EB37
:1059700087053448801C00EB861000EB87086178AF
:10598000288861F38E302880A178288861F30C3054
:105990002880E178288861F34920288021792888A7
:1059A00061F386102880A179288861F3820028801D
:1059B0006179288861F305102880207828B10128B2
:1059C0000CD002281BD113E022E0288820F40040EC
:1059D0002880288820F00200288011E0288820F400
:1059E00000402880288820F00200801C288007E0E2
:1059F000288820F4004000F50040288000E000BF27
:105A000000BFE179B8F8000061F30820A8F80000B1
:105A1000781CC7B2102FA2D300F016F80020BDE802
:105A2000F08700002E2E5C6472697665725C73727A
:105A3000635C68633332663436785F6770696F2EF3
:105A400063000000003C05404FF4254001490880F8
:105A500070470000FC3B054070B504460E4600BF91
:105A60004CB1012C07D0022C05D0032C03D0042C00
:105A700001D0052C00D104E040F2762106A0FDF70C
:105A80001DFA00BF0C48102101FB04052888304393
:105A90002880002070BD00002E2E5C64726976653F
:105AA000725C7372635C68633332663436785F6746
:105AB00070696F2E630000000A38054070B5044617
:105AC0000E4600BF4CB1012C07D0022C05D0032C90
:105AD00003D0042C01D0052C00D104E040F25E215B
