:020000040800F2
:10000000E8DA0020AD010008FD150008B70100087E
:10001000F9150008090F0008952E000800000000DF
:10002000000000000000000000000000951F000814
:100030002113000800000000C3010008312100085E
:10004000C7010008C7010008C7010008C701000870
:10005000C7010008C7010008C7010008C701000860
:10006000C7010008C7010008C7010008C701000850
:10007000C7010008C7010008C7010008C701000840
:10008000C7010008C7010008C7010008C701000830
:10009000C7010008C7010008C7010008C701000820
:1000A000C7010008C7010008C70100086D22000849
:1000B0009523000899230008C7010008C70100081C
:1000C000C7010008C7010008C7010008C7010008F0
:1000D000C7010008C7010008C70100085D2B000820
:1000E000C7010008C7010008C7010008C7010008D0
:1000F000C7010008C7010008C7010008C7010008C0
:10010000C7010008C7010008C7010008C7010008AF
:10011000C7010008C7010008C7010008C70100089F
:10012000C7010008C7010008C7010008C70100088F
:10013000C7010008C7010008C7010008C70100087F
:10014000C7010008C7010008C7010008C70100086F
:10015000C7010008C7010008C7010008C70100085F
:10016000C7010008C7010008C7010008C70100084F
:100170000D0F0008C7010008C7010008C7010008EB
:10018000C7010008C7010008C7010008C70100082F
:10019000C7010008C7010008DFF80CD000F084FB9D
:1001A00000480047295D0008E8DA0020064880473B
:1001B00006480047FEE7FEE7FEE7FEE7FEE7FEE74C
:1001C000FEE7FEE7FEE7FEE7A1210008990100082F
:1001D0002DE9F05F0546002092469B46884606467C
:1001E000814640241BE0284641464746224600F00F
:1001F00006FA53465A46C01A914110D31146184682
:10020000224600F0EDF92D1A67EB01084F46224611
:100210000120002100F0E4F917EB00094E41201EF7
:10022000A4F10104DFDC484631462A464346BDE8D6
:10023000F09F2DE9F0410024061B254671F10006D0
:1002400005DA01240027D0EB070067EB0101161E39
:1002500073F1000605DA0027D2EB0702012567EBF0
:100260000303FFF7B5FF86460E4617469C46AC4291
:1002700004D00025D0EB050E65EB010624B100206B
:10028000D2EB000760EB030C704631463A466346FA
:10029000BDE8F081002800DA4042704710B5431AEB
:1002A000934209D28318881803E010F8011D03F85F
:1002B000011D521EF9D210BD40EA01039B0703D075
:1002C00009E008C9121F08C0042AFAD203E011F895
:1002D000013B00F8013B521EF9D210BD034611F854
:1002E000012B00F8012B002AF9D1184670472DE99F
:1002F000FE4F804681EA0300C00F0C46009021F0BB
:10030000004123F00045B8EB0200A94105D2404668
:10031000214690461C460B46024623F000401043FF
:1003200047D0270DC7F30A00C3F30A510290401AC1
:10033000019040286BDAC3F3130040F4801B00984F
:10034000924620B10023D2EB030A63EB0B0B01981A
:100350005946C0F14002504600F042F906460D46AB
:1003600050465946019A00F05AF910EB08006141D5
:10037000002487EA115284EAE7731A4340D0009AB6
:1003800062B3019A012A4FEA075215DC001B61EBA8
:1003900002014FF0004202EA0752CDE90042001C80
:1003A00041F5801132462B4600F091F903B0BDE8CB
:1003B000F08F40462146F9E7001B61EB0201001C6B
:1003C00041F5801300185B412018A2F5001747EB98
:1003D000030140EAD570B6196D4111E06D084FEA8E
:1003E000360645EAC0754FEA0752001B61EB020171
:1003F000001C41F5801149084FEA300000195141B5
:1004000032462B4603B0BDE8F04F00F051B90098DA
:10041000012240000023D0EB020263EBE07300985E
:1004200021464FEAE074B8EB000061EB0401E9E714
:1004300083F000435BE781F0004158E72DE9FE4F70
:1004400081EA030404F0004421F0004100944FF0DD
:10045000000B23F0004350EA01045ED052EA03048B
:100460005BD0C3F30A54C1F30A552C44A4F2F3340D
:100470000194A0FB0254C1F3130141F48011C3F3B2
:10048000130343F4801301FB024400FB034E840A70
:10049000970A44EA815447EA8357A4FB0768029508
:1004A0008D0A05FB07854FEA932C04FB0C542705A6
:1004B000029D4FEA065847EA1637B5EB08056EEB82
:1004C000070C870E920E47EA811742EA8312A7FBB8
:1004D0000201B6EB0B0164EB00042B0D43EA0C3375
:1004E0005E1844EB1C50DA465146E7FB0201C5F3A7
:1004F00013044FEA0B3343EA14534FEA0432019CCE
:1005000043EA0603A4F10C040294009CCDE900B474
:1005100000F0DDF803B0BDE8F08F00200146F9E7F8
:1005200030B5041E71F1000404DB4FF0004440427A
:1005300064EB0101141E73F1000405DB1C464FF04F
:100540000043524263EB0403801A994101D3012016
:1005500030BD002030BD00F0004230F000400AD035
:10056000C10D01F56071C0F3160042EA0151C208E5
:1005700040071143704700200146704701F00043D7
:1005800030B421F0004150EA010206D00A0DA2F574
:100590006072C1F31301002A02DC30BC00207047F6
:1005A000440F44EAC104C100E01830BC00EBC25063
:1005B00000F047B830B50B46014600202022012448
:1005C00009E021FA02F59D4205D303FA02F5491B21
:1005D00004FA02F52844151EA2F10102F1DC30BD37
:1005E000202A04DB203A00FA02F1002070479140F3
:1005F000C2F1200320FA03F3194390407047202AE8
:1006000004DB203A21FA02F00021704721FA02F3BC
:10061000D040C2F120029140084319467047202A79
:1006200006DBCB17203A41FA02F043EAE07306E01A
:1006300041FA02F3D040C2F120029140084319462A
:1006400070470029A8BF7047401C490008BF20F030
:100650000100704710B4B0FA80FC00FA0CF050EAC8
:10066000010404BF10BC704749B1CCF1200421FA49
:1006700004F411FA0CF118BF012121430843A3EB44
:100680000C01CB1D4FEA00614FEA102042BF002051
:1006900010BC704700EBC35010440029A4BF10BC2D
:1006A0007047401C490008BF20F0010010BC704793
:1006B00010B5141E73F1000408DA401C41F100016A
:1006C00092185B411A4301D120F0010010BD2DE9C1
:1006D000F04D92469B4611B1B1FA81F202E0B0FAB8
:1006E00080F220329046FFF77BFF04460F4640EA37
:1006F0000A0041EA0B0153465A46084313D01146FB
:1007000053EA010019D0C8F140025046FFF777FFC5
:1007100005460E46504659464246FFF761FF0843DC
:1007200005D0012004E020463946BDE8F08D0020C8
:10073000054346EAE0762C4337430A986305E40A0A
:10074000A0EB08000022FD0A44EA47540A3002D513
:1007500000200146E9E7010510196941DDE9084576
:1007600000196941BDE8F04DA2E72DE9F04D81EA9D
:10077000030404F0004B21F0004514464FF0000A3A
:1007800023F0004150EA050220D054EA01021DD0B6
:10079000C5F30A570246C5F31303C1F31300C1F3AF
:1007A0000A5640F4801543F48013A7EB0608101B8B
:1007B000D64608F2FD3873EB050002D308F10108B4
:1007C00001E092185B41B8F1000F03DA0020014606
:1007D000BDE8F08D00204FF48011064684460EE0FF
:1007E000171B73EB050705D3121B63EB05030643C9
:1007F0004CEA010C49084FEA300092185B4150EA7C
:100800000107EDD152EA030012D082EA040083EA24
:100810000501084305D0101BAB4106D2012200237D
:1008200006E000224FF0004302E06FF00102531097
:100830001AEB06004CEB085110EB0A0041EB0B01E0
:10084000BDE8F04DFFF734BFC1F30A52C1F3130105
:1008500040F2FF3341F480119A4202DA002001464F
:10086000704740F233439A42A2F2334202DC5242D2
:10087000FFF7C5BEFFF7B4BE30B5041E71F100042A
:1008800004DB4FF00044404264EB0101141E73F19D
:10089000000405DB1C464FF00043524263EB0403A7
:1008A000994208BF904230BD064C074D06E0E06813
:1008B00040F0010394E8070098471034AC42F6D3A7
:1008C000FFF76EFCEC8F02080C90020880B582B036
:1008D0008DF8070000919DF8070048B9FFE74FF435
:1008E0008070002100F05AFF009800F041FF07E0FF
:1008F0000098012100F052FF002000F039FFFFE7CF
:1009000002B080BD84B003908DF80B108DF80A20E2
:100910008DF809300020019000909DF80B001228FE
:1009200010D1FFE70398C06D0190019820F00700F7
:1009300001909DF8091001980843019001980399CE
:10094000C86544E09DF80B000A2821DBFFE7039807
:10095000C06801909DF80B0000EB4000A0F11E0163
:1009600007208840009000990198884301909DF8E5
:1009700009009DF80B1001EB41011E3988400090E1
:10098000009901980843019001980399C8601DE0FF
:100990000398006901909DF80B0000EB40010720CF
:1009A0008840009000990198884301909DF80900C3
:1009B0009DF80B1001EB41018840009000990198CF
:1009C00008430190019803990861FFE7FFE79DF84C
:1009D0000A00062820DCFFE70398406B01909DF891
:1009E0000A0000EB8000411F1F2088400090009902
:1009F0000198884301909DF80B009DF80A1001EBC7
:100A000081010539884000900099019808430190C0
:100A100001980399486347E09DF80A000C2821DCFF
:100A2000FFE70398006B01909DF80A0000EB80003F
:100A3000A0F123011F20884000900099019888436D
:100A400001909DF80B009DF80A1001EB81012339FC
:100A500088400090009901980843019001980399FB
:100A6000086320E00398C06A01909DF80A0000EB3B
:100A70008000A0F141011F2088400090009901985A
:100A8000884301909DF80B009DF80A1001EB81014D
:100A900041398840009000990198084301900198DD
:100AA0000399C862FFE7FFE704B0704782B0019086
:100AB0008DF803109DF8030030B1FFE701998868B5
:100AC00040F00100886005E00199886820F001008D
:100AD0008860FFE702B0704782B001908DF8031084
:100AE0009DF8030030B1FFE70199886840F48070F9
:100AF000886005E00199886820F480708860FFE7CD
:100B000002B0704782B001908DF803109DF8030089
:100B100030B1FFE70199886840F48010886005E0F3
:100B20000199886820F480108860FFE702B0704760
:100B300082B001908DF803109DF8030030B1FFE7FB
:100B40000199886840F4A000886005E001998868F0
:100B500020F4A0008860FFE702B0704782B00190E7
:100B600000208DF80300019880684007002804D514
:100B7000FFE701208DF8030003E000208DF803005B
:100B8000FFE79DF8030002B07047000082B00190BB
:100B90008DF8031000208DF802000198806D9DF8FB
:100BA0000310084204D0FFE701208DF8020003E0A3
:100BB00000208DF80200FFE79DF8020002B07047A8
:100BC00084B003900291002001908DF803000398F7
:100BD0004068019001984FF6FF61CFF6F071084030
:100BE000019002990868097940EA012101980843B7
:100BF00001900198039948600398806801900198DA
:100C00004FF2FD71CFF6F171084001900299C8686A
:100C10008A681043497940EA4101019808430190EC
:100C20000198039988600398C06A0190019820F4A4
:100C3000700001900298007C411E9DF8030008435B
:100C40008DF803009DF80310019840EA01500190CF
:100C500001980399C86204B07047000083B0029005
:100C60000191002000900198007AC00730B1FFE7A1
:100C70000299C86D40F00800C86505E00299C86D8A
:100C800020F00800C865FFE70298806D0090019889
:100C9000007878B1FFE7009840F400600090FFE72B
:100CA00041F62001C4F20001086840F48060086049
:100CB000FFE70EE0009820F400600090FFE741F6A7
:100CC0002001C4F20001086820F480600860FFE79A
:100CD000FFE70198407828B1FFE7009840F4806072
:100CE000009004E0009820F480600090FFE70198F5
:100CF000807828B1FFE7009840F40070009004E08D
:100D0000009820F400700090FFE70198C07828B1A7
:100D1000FFE7009840F48070009004E0009820F411
:100D200080700090FFE70198407928B1FFE70098B4
:100D300040F00800009004E0009820F008000090C7
:100D4000FFE701988079C00728B1FFE7009840F0DD
:100D50000400009004E0009820F004000090FFE7F9
:100D6000009820F0030000900198C1790098084392
:100D70000090009820F01000009001980079012860
:100D800005D1FFE7009840F010000090FFE70098C1
:100D90000299886503B0704781B000900099886817
:100DA00040F00400886001B07047000080B541F257
:100DB0000000C4F20100102104F0F8FD40F600002C
:100DC000C4F20100402104F0F1FD00F003F800F04E
:100DD000A9FA80BD80B58EB000210991012005904F
:100DE0008DF828008DF829004FF460220B920C91A9
:100DF0008DF8340040F60000C4F20200049009A906
:100E0000FFF7DEFE0498059A03210523FFF77AFD1C
:100E100004980599FFF760FE04980599FFF746FED0
:100E2000FFE740F60000C4F202002021FFF7AEFE0B
:100E300008B9FFE7F5E740F60000C4F20200FFF74B
:100E4000ABFFFFE740F60000C4F20200FFF786FEAA
:100E500008B1FFE7F6E740F60000C4F20200012106
:100E60000391FFF765FE03980021019109918DF828
:100E700028108DF829100B910C918DF8340040F654
:100E80000040C4F20200029009A9FFF799FE0298FF
:100E900003218DF81F1006A9FFF7E0FE019B0298C1
:100EA000039A0521FFF72EFD02980399FFF72AFE0A
:100EB00002980399FFF710FE02980399FFF7F6FDD9
:100EC000FFE740F60040C4F202002021FFF75EFE7B
:100ED00008B9FFE7F5E740F60040C4F20200FFF76B
:100EE0005BFFFFE740F60040C4F20200FFF736FE6A
:100EF00008B1FFE7F6E740F60040C4F20200012126
:100F0000FFF716FE0EB080BDFFE7FEE780B54FF09D
:100F100000500021C4F2020100F0B0F9002852D0C4
:100F2000FFE79420C4F20200002100F08FF940F2A4
:100F30002C00C2F200000068032815D1FFE740F240
:100F40009C71C2F20001A020C4F20200016000689E
:100F500040F22801C2F20001086040F22C01C2F206
:100F60000001002008601AE040F22C01C2F20001EA
:100F70000A6840F29C70C2F2000000EB422000F5CB
:100F80000072A020C4F202000260006840F2280251
:100F9000C2F200021060086801300860FFE740F20A
:100FA0001C00C2F2000005F017FE4FF08050002137
:100FB000C4F2020100F008F89420C4F202000121FA
:100FC00000F044F9FFE780BD82B0019000910198E4
:100FD0000099486002B0704783B0029001918DF88B
:100FE00003209DF8030030B1FFE7019A02990868D9
:100FF0001043086005E0019A029908689043086070
:10100000FFE703B07047000081B0009000990868C6
:101010004FF6FE72104008600099002008600099A9
:101020004860009988600099C86000980821C4F25F
:101030000201884208D1FFE70421C4F202010868D6
:1010400040F00F000860FFE000981C21C4F202018C
:10105000884208D1FFE70421C4F20201086840F089
:10106000F0000860EFE000983021C4F202018842ED
:1010700008D1FFE70421C4F20201086840F470605F
:101080000860DFE000984421C4F20201884208D1E0
:10109000FFE70421C4F20201086840F470400860D0
:1010A000CFE000985821C4F20201884208D1FFE73E
:1010B0000421C4F20201086840F470200860BFE017
:1010C00000986C21C4F20201884208D1FFE7042194
:1010D000C4F20201086840F470000860AFE00098B4
:1010E0008021C4F20201884208D1FFE70421C4F242
:1010F0000201086840F0706008609FE00098942149
:10110000C4F20201884208D1FFE70421C4F20201BF
:10111000086840F0704008608FE0009840F2084195
:10112000C4F20201884209D1FFE740F20441C4F24F
:101130000201086840F00F0008607DE0009840F26E
:101140001C41C4F20201884209D1FFE740F2044188
:10115000C4F20201086840F0F00008606BE00098FB
:1011600040F23041C4F20201884209D1FFE740F267
:101170000441C4F20201086840F47060086059E05C
:10118000009840F24441C4F20201884209D1FFE7CD
:1011900040F20441C4F20201086840F47040086063
:1011A00047E0009840F25841C4F20201884209D158
:1011B000FFE740F20441C4F20201086840F47020E5
:1011C000086035E0009840F26C41C4F202018842A8
:1011D00009D1FFE740F20441C4F20201086840F47B
:1011E0007000086023E0009840F28041C4F20201E0
:1011F000884209D1FFE740F20441C4F202010868C5
:1012000040F07060086011E0009840F29441C4F230
:101210000201884209D1FFE740F20441C4F2020111
:10122000086840F070400860FFE7FFE7FFE7FFE76E
:10123000FFE7FFE7FFE7FFE7FFE7FFE7FFE7FFE77E
:10124000FFE7FFE7FFE7FFE701B0704782B00190DB
:101250008DF803109DF8030030B1FFE7019908688D
:1012600040F00100086006E0019908684FF6FE7240
:1012700010400860FFE702B07047000084B00390A0
:10128000029100208DF807000090029800680090FD
:1012900000980399084204D0FFE701208DF8070069
:1012A00003E000208DF80700FFE79DF8070004B079
:1012B0007047000080B583B002900191002000903B
:1012C000029800680090009847F6F07188430090FB
:1012D0000199D1F820E08868D1F810C04B698A697B
:1012E00040EA0E0040EA0C0018431043CA6910435C
:1012F0004A6A1043896A01430098084300900098A5
:10130000029908600198C0680299486001980068D5
:1013100002998860019840680299C86003B080BD56
:101320007047000080B500F001F880BD80B594B032
:101330000820C4F202000090FFF766FE009840F615
:101340004C01C4F20201099141F69821C2F2000158
:101350000A91002104910B91012207920C920D91A8
:101360000E914FF4807201920F924FF480620292BC
:1013700010922022039211921291139109A90591C2
:10138000FFF798FF00980799FFF760FF9420C4F2D9
:1013900002000690FFF738FEDDF804C0029B039AB6
:1013A0000499079840F64C4EC4F2020ECDF824E0A2
:1013B00040F29C7EC2F2000ECDF828E00B91CDF8F1
:1013C00030C00D914FF0800ECDF838E0CDF83CC024
:1013D000109311924FF44052129213914C228DF8B7
:1013E00020208DF821108DF822108DF8230008A8F8
:1013F00000F006F905990698FFF75CFF0698079A32
:101400000221FFF7E9FD06980799FFF71FFF14B0C7
:1014100080BD000088B007900691002005900490E0
:1014200003900290019000900698C07800F00F00A1
:1014300005900698C078C006002806D5FFE70698F4
:101440008178059808430590FFE706980078002802
:101450004BD0FFE707980068019000200390FFE75A
:10146000039807283DD8FFE70399012088400290A0
:1014700006980088029908400490049802998842CE
:101480002AD1FFE703988000029002990F2088403C
:10149000009000990198884301900598029900FAFC
:1014A00001F10198084301900698C078282806D1D8
:1014B000FFE7039901208840079948610BE00698EF
:1014C000C078482806D1FFE7039901208840079992
:1014D0000861FFE7FFE7FFE7FFE7039801300390AC
:1014E000BEE7019807990860FFE706980088B0F505
:1014F000807F50DBFFE70798406801900020039051
:10150000FFE70398072842D8FFE7039800F1080196
:1015100001208840029006980088029908400490B3
:101520000498029988422DD1FFE703988000029029
:1015300002990F20884000900099019888430190FB
:101540000598029900FA01F1019808430190069864
:10155000C078282808D1FFE7039800F1080101208E
:10156000884007994861FFE70698C078482808D165
:10157000FFE7039800F108010120884007990861FE
:10158000FFE7FFE7FFE7039801300390B9E7019811
:1015900007994860FFE708B07047000082B00190EB
:1015A000ADF8021000208DF8010001988068BDF8A8
:1015B0000210084204D0FFE701208DF8010003E08B
:1015C00000208DF80100FFE79DF8010002B0704790
:1015D00082B00190ADF80210BDF802000199486197
:1015E00002B0704782B00190ADF80210BDF8020061
:1015F0000199086102B07047FFE7FEE770470000FD
:1016000084B003900020029001900F200090039876
:10161000C078C0B3FFE74EF60C50CEF20000006871
:10162000C043C0F3022002900298C0F10400019070
:1016300000980299C840009003984078019988402A
:101640000290039880780099014002980843029024
:101650000298000102900298039909784EF2004224
:10166000CEF2000288540398027802F01F01012094
:1016700088404EF20011CEF2000141EAD20121F081
:10168000030108600FE00398027802F01F010120B7
:1016900088404EF28011CEF2000141EAD20121F0E1
:1016A00003010860FFE704B07047000081B00090BC
:1016B00000980021C0F2FA5108434EF60C51CEF2C8
:1016C0000001086001B0704781B045F6C020C2F249
:1016D0000000006845F6BC21C2F20001096888429A
:1016E00022D0FFE745F6C020C2F20000006840F2B9
:1016F000F041C2F20001173188420AD3FFE745F6F4
:10170000C021C2F2000140F2F040C2F200000860C5
:10171000FFE745F6C022C2F200021068411C1160CA
:1017200000788DF80300FFE79DF8030001B07047D3
:1017300083B0029001910020009041F22C01C4F28C
:10174000020108680090009820F4806000900098E2
:1017500020F478400090029A009810430090019A7B
:101760000098104300900098086003B07047000094
:1017700082B001900020009041F22C01C4F20201DD
:1017800008680090009820F00F000090019A0098DF
:10179000104300900098086002B0704783B0029038
:1017A0008DF807100020009041F22C00C4F20200D6
:1017B00000680090009820F4F87000909DF80700F1
:1017C00028B1FFE7029900980843009008E00299C9
:1017D000009808430090009820F480700090FFE784
:1017E000009841F22C01C4F20201086003B0704776
:1017F00082B001900020009041F20401C4F2020185
:1018000008680090009820F4E0600090019A009829
:10181000104300900098086002B0704782B00190B9
:101820008DF803109DF8030048B1FFE7019A41F2DB
:101830001401C4F2020108681043086008E0019A2C
:1018400041F21401C4F20201086890430860FFE706
:1018500002B0704782B001908DF803109DF803002C
:1018600048B1FFE7019A41F21C01C4F20201086885
:101870001043086008E0019A41F21C01C4F2020121
:10188000086890430860FFE702B0704782B001909B
:101890008DF803109DF8030048B1FFE7019A41F26B
:1018A0001801C4F2020108681043086008E0019AB8
:1018B00041F21801C4F20201086890430860FFE792
:1018C00002B0704787B00690002005900490039006
:1018D0000290019041F20400C4F20200016800226B
:1018E000C0F63C0211400391006800F48030029081
:1018F0009DF80F000007002806D4FFE70399022097
:1019000000EB9140039006E003996FF4F77000EB51
:1019100091400390FFE7029840B9FFE7039840F633
:101920000011C0F23D014843049019E041F2040067
:10193000C4F2020000688003002808D5FFE703987E
:1019400040F60011C0F23D014843049007E00398BF
:1019500041F20021C0F27A0148430490FFE7FFE71B
:1019600041F20400C4F20200006800F00C0005908F
:101970000598009040B1FFE7009804280BD0FFE7DE
:10198000009808280ED011E0069941F20020C0F21C
:101990007A00086011E0069941F20020C0F27A0056
:1019A00008600AE004980699086006E0069941F28A
:1019B0000020C0F27A000860FFE741F20401C4F29F
:1019C0000201086800F0F0000590059800090590F4
:1019D000059A4CF6DC60C0F60100825C0192069B21
:1019E0001A68DDF804C022FA0CF25A600A6802F4A0
:1019F000E0620592059A120A0592059A825C0192AC
:101A0000069B5A68DDF804C022FA0CF29A60096855
:101A100001F4605105910599C90A05910599405C49
:101A2000019006994868019AD040C86041F22C00A4
:101A3000C4F20200016801F00F010591059A4CF60D
:101A4000AC61C0F60101895C0191069A5168019B65
:101A5000B1FBF3F15161006800F4F870059005984E
:101A600000090590059800F00F014CF6BC60C0F627
:101A7000010030F81100019004980199B0FBF1F0D9
:101A80000699086107B0704780B58AB0DDF830C0AC
:101A9000099008910792069340F23800C2F20000C4
:101AA0000290FFE70298007818B9FFE701F0F4F917
:101AB000FFE7FFE740F23800C2F200000490099807
:101AC00002282AD8FFE7EFF311804FF0200181F3BD
:101AD000118801900498099901EB410100EBC100C4
:101AE00018300390099878B1FFE7089803990860C7
:101AF0000798039948600698039988600399002025
:101B000008610399C860FFE70C9803994861019840
:101B100080F311880020059003E04FF0FF3005901E
:101B2000FFE705980AB080BD80B501F0B5F980BD2A
:101B300080B586B005900491039240F23800C2F25D
:101B400000000190FFE70198007818B9FFE701F065
:101B5000A3F9FFE7FFE7EFF311804FF0200181F3D6
:101B60001188009005980499039A00F007F80290F4
:101B7000009880F31188029806B080BD80B58AB0C5
:101B800009900891079208980490099800EB400189
:101B900040F23800C2F2000000EBC10018300390A0
:101BA00003984069029040B1FFE70298012819D0DC
:101BB000FFE7029802282CD032E0039801F0BAF92E
:101BC000059005980799884203D2FFE70020069008
:101BD00007E00798069003980499079A01F034FCEF
:101BE000FFE720E0039801F0A5F905900598079913
:101BF000884203D2FFE70598019002E00798019020
:101C0000FFE70198069003980499069A01F01CFCDE
:101C100009E003980499079A01F0A4FB069002E0FA
:101C200000200690FFE706980AB080BD82B080B51C
:101C300084B0079306920390029106A8009003983F
:101C400002996A4600F008F80190019804B0BDE8D6
:101C5000804002B07047000080B5A4B0239022916C
:101C6000219207A81B9040201C9000201D902399D2
:101C70001F911E90FFE7229800788DF8830022982C
:101C8000013022909DF8830008B9FFE76DE19DF8CF
:101C90008300252840F05C81FFE700201890012098
:101CA0001A90FFE7229800788DF883009DF8830052
:101CB0002338014604910D2829D80499DFE801F062
:101CC0001F2727272727272717270727270F189892
:101CD00040F0010018902298013022901AE01898E4
:101CE00040F00200189022980130229012E01898DB
:101CF00040F0040018902298013022900AE01898D1
:101D000040F00800189022980130229002E0002054
:101D10001A90FFE7FFE71A980028C3D1FFE70020D9
:101D20001790FFE7229800788DF883009DF88300D4
:101D3000302805DBFFE79DF883003A2801DBFFE749
:101D400010E0229801302290179800EB80019DF856
:101D5000830000EB410030381790FFE70120002896
:101D6000E0D1FFE700201990229800788DF88300D9
:101D70009DF883002E2825D1FFE72298013022907C
:101D8000FFE7229800788DF883009DF883003028C3
:101D900005DBFFE79DF883003A2801DBFFE710E051
:101DA000229801302290199800EB80019DF8830061
:101DB00000EB410030381990FFE701200028E0D106
:101DC000FFE7FFE7229800788DF88300FFE79DF892
:101DD00083006C2805D0FFE79DF88300682808D1B0
:101DE000FFE7229801302290229800788DF8830036
:101DF00000E004E0FFE701200028E8D1FFE79DF8BC
:101E0000830001460391252800F09880FFE703989E
:101E100058284FD0FFE70398632814D0FFE70398B2
:101E200064281FD0FFE70398702876D0FFE7039857
:101E3000732853D0FFE70398752827D0FFE703984E
:101E4000782837D07FE0219A1068011D1160006862
:101E50001A901A988DF81B009DF81B101BA801F012
:101E600045FA71E0219A1068011D116000681A900E
:101E70001A99199B1798DDF860C06A46C2F804C029
:101E800010601BA80A2201F075F85DE0219A106825
:101E9000011D116000681A901A99199B1798DDF8B6
:101EA00060C06A46C2F804C010601BA80A2201F094
:101EB00047F949E0219A1068011D116000681A90E5
:101EC0001A99199B1798DDF860C06A46C2F804C0D9
:101ED00010601BA8102201F033F935E0219A106838
:101EE000011D116000680590FFE7059800788DF8E6
:101EF00083000598013005909DF8830008B9FFE73D
:101F00000AE09DF883101BA801F0F0F9FFE71E9886
:101F1000B0F1FF3FE9DCFFE716E0219A1068011DF0
:101F2000116000681A901A996846002242600823DE
:101F300003601BA8102201F003F905E01BA825216E
:101F400001F0D4F900E0FFE722980130229005E08B
:101F50009DF883101BA801F0C9F9FFE7FFE71E9861
:101F6000B0F1FF3F3FF787AEFFE71E9801280EDB79
:101F7000FFE71D9830B1FFE723981D9A07A9FFF7E7
:101F8000D7FDFFE71D991E9808441E90FFE71E9895
:101F900024B080BD7047000084B0002003908DF80D
:101FA0000B00019042F20001C4F20201086820F027
:101FB000030008600868086041F20401C4F20201ED
:101FC0000091086808600868086008680860086888
:101FD0004FF6FF72CFF2C07210400860086803909D
:101FE000039840F4C01003900398086041F2000188
:101FF000C4F20201086840F080700860FFE741F217
:102000000000C4F2020000688001002801D4FFE74C
:10201000F5E741F20401C4F20201086820F0030070
:102020000860086840F002000860FFE741F2040021
:10203000C4F20200006800F00C00082801D0FFE79D
:10204000F4E704B07047000080B582B00820012199
:102050000091FFF71BFC00991020FFF717FC009977
:102060004FF48020FFF7F6FB00990846FFF70EFCBF
:1020700000994FF48050FFF7D1FB00994FF40050C6
:10208000FFF7CCFB00990846FFF7C8FB4FF4A060B0
:10209000FFF7AEFB00994FF40060FFF7F7FB0099E4
:1020A0000420FFF7F3FB00990846FFF7D3FB0099E4
:1020B0000220FFF7CFFB002001900721FEF706FC6E
:1020C00001984FF46051FFF733FB02B080BD000070
:1020D00080B582B0009000980138B0F1807F03D3C2
:1020E000FFE70120019019E0009801384EF2140139
:1020F000CEF2000108604FF0FF300F2101F0EAF945
:102100004EF21801CEF20001002008604EF21002DB
:10211000CEF20002072111600190FFE7019802B0A2
:1021200080BD000045F6A420C2F2000000687047A0
:1021300080B500F031F880BD45F6A820C2F200005D
:10214000026845F6A421C2F2000108681044086044
:102150007047000080B582B001900198C8B1FFE7D8
:1021600001994FF47A70B0FBF1F045F6A821C2F264
:102170000001086040F20400C2F20000006801990A
:10218000B0FBF1F0FFF7A4FF10B1FFE7FFE7FEE7B8
:10219000FFE702B080BD000080B5FFF7CDFF80BD36
:1021A00080B54EF68851CEF20001086840F4700008
:1021B000086041F20002C4F20202106840F001001F
:1021C000106041F20401C4F2020108684CF20003FD
:1021D000CFF6FF031840086010684FF6FF73CFF684
:1021E000F66318401060106820F4802010600868C2
:1021F0004FF6FF72CFF200721040086041F22C01DE
:10220000C4F202010020086041F23001C4F2020170
:10221000086041F20801C4F202014FF41F00086097
:1022200041F21C01C4F20201086840F080500860CD
:1022300047F20C02C4F20002106840F00100106086
:10224000086820F08050086042F20001C4F20201E8
:10225000086840F090000860FFF79EFE4EF60851B7
:10226000CEF200014FF00060086080BD80B582B002
:1022700042F60040C4F20100022100F03BF940B1F7
:10228000FFE742F60040C4F20100022100F086F8A8
:102290007EE042F60040C4F20100042100F02AF979
:1022A00040B1FFE742F60040C4F20100042100F013
:1022B00075F86CE042F60040C4F20100082100F01D
:1022C00019F940B1FFE742F60040C4F201000821CD
:1022D00000F064F85AE042F60040C4F20100102118
:1022E00000F05CF840F23000C2F20000026840F2F8
:1022F0009C71C2F200011144019141F69A21C2F28F
:1023000000010988019A11800068B0F5007F07D1AB
:10231000FFE740F21C00C2F2000004F05DFC21E087
:1023200040F23000C2F200000068B0F5806F07D1C3
:10233000FFE740F21C00C2F2000004F04DFC10E088
:1023400040F23000C2F200000068B0F5C06F07D163
:10235000FFE740F21C00C2F2000004F03DFCFFE782
:10236000FFE7FFE740F23000C2F2000001680231EF
:1023700001600068B0F5006F07D1FFE740F230015F
:10238000C2F2000100200860FFE7FFE7FFE7FFE778
:1023900002B080BD704700007047000082B001901D
:1023A0000091009A019908699043086102B0704752
:1023B00082B001908DF803109DF8030030B1FFE763
:1023C0000199086840F08000086005E001990868FC
:1023D00020F080000860FFE702B0704782B00190F3
:1023E000ADF802100020ADF800000198008BADF8A8
:1023F0000000BDF8000020F00800ADF80000BDF8B6
:102400000210BDF800000843ADF80000BDF8000060
:102410000199088302B0704782B00190ADF80210B4
:102420000020ADF800000198008BADF80000BDF869
:10243000000020F40060ADF80000BDF80210BDF807
:10244000000040EA0120ADF80000BDF8000001994D
:10245000088302B07047000082B00190ADF802100E
:102460000020ADF800000198808BADF80000BDF8A9
:10247000000020F00800ADF80000BDF80210BDF823
:1024800000000843ADF80000BDF800000199888302
:1024900002B0704782B001908DF803109DF80300E0
:1024A00030B1FFE70199086840F00100086005E0DD
:1024B0000199086820F001000860FFE702B070474A
:1024C00082B001908DF803109DF8030040B1FFE742
:1024D0000199B1F8440040F40040A1F8440007E03D
:1024E0000199B1F844006FF3DF30A1F84400FFE731
:1024F00002B0704785B00490039100208DF80B0066
:102500000190009004980069039908400190049894
:102510008089039908400090019838B1FFE700983E
:1025200020B1FFE701208DF80B0003E000208DF8BB
:102530000B00FFE79DF80B0005B0704785B00490D5
:1025400003910020ADF80A00019000900499086AF8
:1025500020F0010008620498006A01900498406825
:1025600000900498008BADF80A00BDF80A0020F036
:102570007000ADF80A00BDF80A0020F00300ADF8C5
:102580000A0003980188BDF80A000843ADF80A0064
:10259000019820F0020001900398018901980843F6
:1025A000019003984188019808430190049842F6ED
:1025B0000041C4F20101884208D0FFE7049843F2C9
:1025C0000041C4F20101884225D1FFE7019820F0C3
:1025D00008000190039841890198084301900198EF
:1025E00020F004000190039881880198084301902D
:1025F000009820F480700090009820F40070009003
:10260000039881890098084300900398C189009835
:1026100008430090FFE7009804994860BDF80A005D
:10262000049908830398C0880499888601980499BE
:10263000086205B07047000085B004900391002047
:10264000ADF80A00019000900499086A20F010008B
:1026500008620498006A0190049840680090049809
:10266000008BADF80A00BDF80A0020F4E040ADF898
:102670000A00BDF80A0020F44070ADF80A00039883
:102680000188BDF80A0040EA0120ADF80A0001986F
:1026900020F02000019003980189019840EA011080
:1026A000019003984188019840EA01100190049834
:1026B00042F60041C4F20101884208D0FFE70498C5
:1026C00043F20041C4F20101884229D1FFE7019899
:1026D00020F08000019003984189019840EA0110A0
:1026E0000190019820F040000190039881880198A2
:1026F00040EA01100190009820F48060009000985A
:1027000020F40060009003988189009840EA8100DD
:1027100000900398C189009840EA81000090FFE78B
:10272000009804994860BDF80A000499088303984A
:10273000C0880499088701980499086205B0704719
:1027400085B0049003910020ADF80A00019000903C
:102750000499086A20F4807008620498006A019065
:102760000498406800900498808BADF80A00BDF88A
:102770000A0020F07000ADF80A00BDF80A0020F051
:102780000300ADF80A0003980188BDF80A00084369
:10279000ADF80A00019820F40070019003980189B7
:1027A000019840EA0120019003984188019840EA8D
:1027B00001200190049842F60041C4F201018842D0
:1027C00008D0FFE7049843F20041C4F201018842B7
:1027D00029D1FFE7019820F4006001900398418916
:1027E000019840EA01200190019820F48060019056
:1027F00003988188019840EA01200190009820F414
:1028000080500090009820F4005000900398818937
:10281000009840EA011000900398C189009840EAAE
:1028200001100090FFE7009804994860BDF80A0085
:10283000049988830398C08804998887019804992B
:10284000086205B07047000083B00290019100203B
:102850000090029800680090029842F60041C4F28D
:102860000101884225D0FFE7029843F20041C4F2FB
:10287000010188421DD0FFE70298B0F1804F18D0C7
:10288000FFE7029840F20041C4F20001884210D0F4
:10289000FFE7029840F60001C4F20001884208D028
:1028A000FFE7029840F60041C4F2000188420AD1D5
:1028B000FFE7009820F07000009001984188009890
:1028C00008430090FFE7029841F20001C4F20001C2
:1028D000884212D0FFE7029841F20041C4F20001A1
:1028E00088420AD0FFE7009820F4407000900198D9
:1028F000C188009808430090FFE70098029908609B
:102900000198808802998885019800880299088535
:10291000029842F60041C4F20101884208D0FFE764
:10292000029843F20041C4F20101884205D1FFE759
:102930000198007A02990886FFE7029901208882AF
:10294000029800680090029842F60041C4F201012A
:10295000884225D0FFE7029843F20041C4F201010A
:1029600088421DD0FFE70298B0F1804F18D0FFE7F2
:10297000029840F20041C4F20001884210D0FFE703
:10298000029840F60001C4F20001884208D0FFE737
:10299000029840F60041C4F20001884210D1FFE7DE
:1029A0000198407AC00728B1FFE7009840F4006022
:1029B000009004E0009820F400600090FFE7FFE73B
:1029C0000298B0F1804F18D0FFE7029840F2004122
:1029D000C4F20001884210D0FFE7029840F60001DF
:1029E000C4F20001884208D0FFE7029840F6004197
:1029F000C4F2000188421FD1FFE70198807AC00726
:102A000028B1FFE7009840F48050009004E000985F
:102A100020F480500090FFE70198C07AC00728B1E9
:102A2000FFE7009840F40050009004E0009820F484
:102A300000500090FFE7FFE70298B0F1804F10D000
:102A4000FFE7029840F20041C4F20001884208D03A
:102A5000FFE7029840F60001C4F20001884210D15D
:102A6000FFE70198007BC00728B1FFE7009840F41A
:102A70008040009004E0009820F480400090FFE740
:102A8000FFE7029842F60041C4F2010188421DD0DE
:102A9000FFE7029843F20041C4F20101884215D0D9
:102AA000FFE70298B0F1804F10D0FFE7029840F2A4
:102AB0000041C4F20001884208D0FFE7029840F6C6
:102AC0000001C4F20001884210D1FFE70198407B69
:102AD000C00728B1FFE7009840F40040009004E0F0
:102AE000009820F400400090FFE7FFE7009802996B
:102AF00008600298406800900298B0F1804F08D0BA
:102B0000FFE7029840F60001C4F20001884210D1AC
:102B1000FFE70198807BC00728B1FFE7009840F4E9
:102B20008070009004E0009820F480700090FFE72F
:102B3000FFE700980299486003B0704780B582B003
:102B40000320019002F0A8FF019803F015F802F0AD
:102B50003DFF02F021FD02B080BD000080B582B0D3
:102B600044F60000C4F2000040F2255100F094F851
:102B700068B1FFE744F60000C4F2000000F076F907
:102B80008DF807009DF8070004F0ECF8FFE702B0AD
:102B900080BD000086B00590ADF812108DF81120B0
:102BA00000200390029001900090BDF8120040F6C2
:102BB0006A11884201D1FFE7FFE7059800909DF870
:102BC000120040090390BDF8120000F01F000290AF
:102BD00002990120884001900398012804D1FFE761
:102BE00000980C3000900CE00398022804D1FFE715
:102BF00000981030009003E0009814300090FFE738
:102C0000FFE79DF8110030B1FFE7019A00990868CD
:102C10001043086005E0019A009908689043086035
:102C2000FFE706B07047000082B001908DF80310F6
:102C30009DF8030030B1FFE70199888940F4005006
:102C4000888105E00199888920F400508881FFE798
:102C500002B0704782B00190ADF8021000208DF8EC
:102C60000100BDF80200B0F5007F01D1FFE7FFE7EA
:102C700001980088BDF802100840000420B1FFE769
:102C800001208DF8010003E000208DF80100FFE72E
:102C90009DF8010002B0704786B00590ADF81210A3
:102CA00000200390029001908DF80300BDF81200FF
:102CB00040F66A11884201D1FFE7FFE79DF8120054
:102CC00040090190BDF8120000F01F000290029927
:102CD0000120884002900198012806D1FFE705985D
:102CE000818902980840029010E00198022806D1DC
:102CF000FFE70598018A02980840029005E00598D0
:102D0000818A029808400290FFE7FFE79DF81300D0
:102D10000390039901208840039005980188039847
:102D200008400390029838B1FFE7039820B1FFE70D
:102D300001208DF8030003E000208DF80300FFE779
:102D40009DF8030006B0704780B58EB00D900C91D1
:102D500000200B900A900990089007900C988089A9
:102D600008B1FFE7FFE70D9807900D98008A0B90D8
:102D70000B984CF6FF7108400B900C98C1880B988B
:102D800008430B900B980D9908820D9880890B9041
:102D90000B984EF6F31108400B900C9988880A891D
:102DA0001043498901430B9808430B900B980D99E8
:102DB00088810D98808A0B900B984FF6FF41084050
:102DC0000B900C9881890B9808430B900B980D99E8
:102DD000888201A8FEF776FD079843F60001C4F249
:102DE0000101884210D0FFE7079845F20001C4F2C4
:102DF0000101884208D0FFE7079845F20041C4F27C
:102E00000101884203D1FFE704980A9002E0039889
:102E10000A90FFE70A98192148430C99096889002C
:102E2000B0FBF1F00990099848F21F51C5F2EB117F
:102E3000A0FB01026FF00F0000EA52000B90099B0B
:102E40000B980009642200FB12300890089A322087
:102E500000EB0210A0FB0110C0F343110B980843D4
:102E60000B900B980D9908810EB080BD81B0009039
:102E7000009880886FF35F2001B0704782B00190A6
:102E8000ADF80210BDF802006FF35F200199888051
:102E900002B07047FFE7FEE780B582B040F238002D
:102EA000C2F2000001900199032008610199486174
:102EB00001984DF23D01C0F601018161019A40F295
:102EC000F000C2F20000D061019A4FF480601062FD
:102ED000019A00209062019A5062019AD062019A90
:102EE0001166019A40F2E001C2F200015166019AB6
:102EF00010219166019908670199C8660199486790
:102F0000019807304DF23901C0F60101FDF7E6F9ED
:102F1000BFF35F8F01984DF23201C0F60101FDF75A
:102F2000DDF9BFF35F8F019920208871BFF35F8FB8
:102F300002B080BD84B003900398006902900398AA
:102F4000C068019002980199884209D8FFE7039868
:102F500080680199401A029908440138009005E000
:102F600002990198C04308440090FFE7009804B01C
:102F70007047000010B58CB0DDF83CC0DDF838C0FB
:102F80000B900A91099208930A98B0F1FF3F04DC74
:102F9000FFE70A984042059002E00A980590FFE793
:102FA0000598069001200790FFE706980999884246
:102FB00009DBFFE70698099990FBF1F00690079866
:102FC00001300790F1E708980799884203D9FFE795
:102FD00008980790FFE70E9870B1FFE70A9800285D
:102FE00006D4FFE79DF83C004007002804D5FFE722
:102FF0000E9801380E90FFE79DF83C0080070028EE
:1030000003D5FFE7089858B3FFE79DF83C00C007D9
:1030100030BBFFE70E9810B3FFE7FFE70E990020E3
:10302000049041B1FFE707990E9A0020914238BF02
:1030300001200490FFE70498C00778B1FFE70E98DD
:1030400001380E900B98202100F050F90B98C068C1
:10305000B0F1FF3F01DCFFE700E0DFE7FFE7FFE75C
:103060000B98C068002869D4FFE70A98B0F1FF3FC9
:1030700008DCFFE70A9840420A900B982D2100F0E7
:1030800035F90CE09DF83C004007002805D5FFE726
:103090000B982B2100F02AF900E0FFE7FFE70B98DF
:1030A000C068002849D4FFE79DF83C00800700284D
:1030B0002ED5FFE79DF83C00C00748BBFFE7089806
:1030C00030BBFFE70E9810B3FFE7FFE70E99002033
:1030D000039041B1FFE707990E9A0020914238BF53
:1030E00001200390FFE70398C00778B1FFE70E982F
:1030F00001380E900B98302100F0F8F80B98C0685A
:10310000B0F1FF3F01DCFFE700E0DFE7FFE7FFE7AB
:103110000B98C06800280FD4FFE70B980A99099A0A
:10312000089BDDF838C00F9CEE46CEF80440CEF880
:1031300000C000F005F8FFE7FFE7FFE70CB010BDA7
:1031400080B58CB0DDF83CC0DDF838C00B900A913A
:10315000099208930A980590012006900490FFE7D1
:1031600005980999884209D3FFE705980999B0FBAA
:10317000F1F00590049801300490F1E70898049963
:10318000884203D9FFE708980490FFE79DF83C00C8
:10319000C007C0BBFFE70E98A0B3FFE79DF83C0057
:1031A0008007002807D5FFE7089820B9FFE73020FF
:1031B0008DF80F0003E020208DF80F00FFE7FFE7F8
:1031C0000E990020029041B1FFE704990E9A002069
:1031D000914238BF01200290FFE70298C00780B1FA
:1031E000FFE70E9801380E900B989DF80F1000F035
:1031F0007DF80B98C068B0F1FF3F01DCFFE700E00D
:10320000DEE7FFE7FFE70B98C06800286CD4FFE714
:10321000FFE70898022804D3FFE7089801380890D0
:103220000BE00A980699B0FBF1F00790079809990E
:10323000884201D2FFE705E0FFE709990698484375
:103240000690E6E7FFE70A980699B0FBF1F00790D1
:10325000079806990A9A00FB11200A900B98079A82
:1032600047F2FE71C0F60001895C00F03FF80B9850
:10327000C068B0F1FF3F01DCFFE709E0099906985B
:10328000B0FBF1F00690FFE706980028DBD1FFE7DE
:103290009DF83C00C00730B3FFE70E9810B3FFE77E
:1032A000FFE70E990020019041B1FFE704990E9AC3
:1032B0000020914238BF01200190FFE70198C0072C
:1032C00078B1FFE70E9801380E900B98202100F09E
:1032D0000DF80B98C068B0F1FF3F01DCFFE700E09C
:1032E000DFE7FFE7FFE7FFE70CB080BD80B584B004
:1032F00003908DF80B1003988068019001980130BD
:103300000399496888420FD8FFE79DF80B0003999D
:103310000968019A885401980130039988600399DB
:10332000C8680130C860FFE7039841688068884238
:1033300015D1FFE70398016882680069FEF7F8FB82
:1033400003998968884205D0FFE703994FF0FF3061
:10335000C86003E0039900208860FFE7FFE704B03E
:1033600080BD000080B58AB00990089107920020C6
:1033700005900998C0680390FFE7099800690490D8
:1033800004980399884206D9FFE704990398C0433B
:103390000844069008E0099881680398049A801A06
:1033A000C04308440690FFE7069809998968039A84
:1033B000891A884203D2FFE70698019005E0099830
:1033C00080680399401A0190FFE7019806900698DB
:1033D0000799884203D2FFE70698009002E0079819
:1033E0000090FFE700980690099840680399084408
:1033F000029002980899069AFCF750FF06990598E2
:10340000084405900699089808440890069907987A
:10341000401A079006990398084403900398099965
:103420008968884203D1FFE700200390FFE7BFF3DC
:103430005F8F03980999C860FFE7079800289CD11F
:10344000FFE705980AB080BD80B588B00790069167
:1034500005920798C0680390079880680399401AFE
:10346000029002980599884212D9FFE707984068B0
:1034700003990844019001980699059AFCF70EFFFC
:10348000BFF35F8F0398059908440799C8601FE050
:1034900002980490079840680399084401900198A5
:1034A0000699049AFCF7FAFE05980299401A0490CE
:1034B00007984068019001980699029A1144049A6D
:1034C000FCF7ECFEBFF35F8F04980799C860FFE735
:1034D00008B080BD82B08DF8070000919DF907000B
:1034E00000280AD4FFE7009800019DF907104EF26A
:1034F0000042CEF2000288540BE0009800019DF8D3
:10350000071001F00F014EF61452CEF2000288545B
:10351000FFE702B07047000083B0029001910020E5
:103520000090FFE700987F280CD8FFE70298009AE8
:1035300030F82200019921F81200FFE700980130CD
:103540000090EFE7002003B07047000080B582B024
:103550004DF2E020C2F2000001900168AA2002F0C2
:10356000F7FD01984168AB2002F0F2FD02B080BD8A
:1035700080B586B0059000200490039002900090E2
:10358000059901F2FF31890A0191019B4DF2D82280
:10359000C2F200021168194411600490FFE7049818
:1035A0001D2858DCFFE700200290049940F69C702B
:1035B000C2F2000000EBC100406800283FD1FFE7E5
:1035C0000498019908441F2801D3FFE743E00498B9
:1035D0000390FFE703980499019A114488421CD292
:1035E000FFE7039940F69C70C2F2000000EBC100B7
:1035F000406868B1FFE701200290039840F69C7193
:10360000C2F2000101EBC00149680844049004E0E3
:10361000FFE7039801300390DCE7029870B9FFE7F9
:10362000049840F69C71C2F2000151F830000090FD
:103630000198049A01EBC20148600CE00AE004988A
:1036400040F69C71C2F2000101EBC00149680844D8
:103650000490FFE7A3E7009848B9FFE705994CF607
:10366000EC60C0F6010003F051FCFFE7FEE70098B4
:1036700006B080BD0000000080B588B007900691BC
:103680000592059890ED010A90ED021A9DED062A2B
:10369000B8EEC22A21EE021A9DED072AB8EEC22A20
:1036A00081EE021A30EE410A8DED040A059890ED84
:1036B000000A9DED041A30EE410A8DED030A0498CC
:1036C000FCF749FF41EC100B8DED000B0398FCF764
:1036D00042FF41EC100B9FED1E1B53EC112B51ECE4
:1036E000100BFCF7ABFE9DED000B41EC110B53EC06
:1036F000112B51EC100BFCF7FAFD41EC100B51ECC7
:10370000100BFCF73BFF04909DED040A059890ED2B
:10371000021A9DED062AB8EEC22A21EE021A9DED8C
:10372000072AB8EEC22A81EE021A30EE410A80ED75
:10373000010A059890ED010AB5EE400AF1EE10FA83
:1037400004DAFFE7059900204860FFE708B080BD74
:103750009A9999999999C93F80B590B00F900E9117
:103760000D920E98013000EBD07040100B900E9827
:1037700001300A900A988000FFF7FAFE0990099933
:10378000002008600C90FFE70C980E99884214DA2C
:10379000FFE70F980C9A30F912004CF2B061C0F6B6
:1037A000000151F822104843099901EB8201486059
:1037B000FFE70C9801300C90E6E700200C90FFE743
:1037C0000C980B99884210DAFFE709990C9A01EBE3
:1037D000820351F82200D3F80034184441F8220043
:1037E000FFE70C9801300C90EAE70B980C90FFE78C
:1037F0000C980A9988420ADAFFE709990C9A002086
:1038000041F82200FFE70C9801300C90F0E70A998C
:1038100003A8019000220292012301F0F4F801981C
:1038200009990D9A01F05AF902980C90FFE70C984B
:103830000A9988420DDAFFE70D990C9B51F8230095
:103840000A9A1A4441F82200FFE70C9801300C90C4
:10385000EDE700200C90FFE70C980A9901EBD1727C
:103860004FF0FF3101EB6201884222DAFFE70D9948
:103870000A9A0C9B02EB430001EB80008068A2EBEC
:10388000430201EB820141F8080C0D990A9A0C9B46
:1038900002EB430001EB8000C0684042A2EB430210
:1038A00001EB820141F8040CFFE70C9801300C9009
:1038B000D2E70D990A9801EB8000406808600D99E5
:1038C000002048600D990A9A01EB8201486009982E
:1038D00001F0C0FE10B080BD80B582B00020019024
:1038E0004DF2D020C2F2000000680090032810D8EA
:1038F0000099DFE801F00B02050801F0F9FB09E08F
:1039000002F0B6F906E002F0CDF903E001F084FF21
:1039100000E0FFE702B080BD86B0059005984FF447
:10392000B4714843C013049005980499484341007A
:103930006FF4D96000EBE130039005980399484398
:1039400041000498C0EBE130029005980299484389
:1039500041000398C0EBE13046F60921084401908C
:103960000598019941430298C0EBE130009000981E
:1039700006B0704780B58AB009900891089878B968
:10398000FFE70998012804DBFFE74CF610100790C9
:1039900005E043F2F060CFF6FF700790FFE781E0AB
:1039A0000898FCF777FC05900998FCF773FC0490E5
:1039B00004980599884214DDFFE70898C117C903E8
:1039C00041EA5041C003099AD317FCF732FC069034
:1039D0000698FFF7A1FF01464CF61010401A079019
:1039E00019E004980599884210DAFFE70998C11791
:1039F000C90341EA5041C003089AD317FCF719FCE8
:103A000006900698FFF788FF079003E046F288408B
:103A10000790FFE7FFE70898B0F1FF3F29DCFFE7D9
:103A20000998002812D4FFE70798002808DCFFE770
:103A3000079849F22021C0F201010844039002E0F6
:103A400007980390FFE70398079011E00798012873
:103A500008DBFFE7079846F6E051CFF6FE71084411
:103A6000029002E007980290FFE702980790FFE7B4
:103A700017E00998B0F1FF3F12DCFFE70798012833
:103A800008DBFFE7079846F6E051CFF6FE710844E1
:103A9000019002E007980190FFE701980790FFE787
:103AA000FFE7FFE707980AB080BD0000A1B00E90C5
:103AB0000D910C920B93002007900E98011D0E9112
:103AC000006809900998012803DBFFE70998059031
:103AD0000BE009980021119110901198109981FA2A
:103AE000A0F00F900F980590FFE70598099000202F
:103AF00006900D98013880080890FFE70898002884
:103B000000F09C80FFE70E98011D0E9100680A905E
:103B10000A98012803DBFFE70A9804900BE00A9853
:103B20000021149113901498139981FAA0F0129027
:103B300012980490FFE704980A900A98099988421D
:103B400006DDFFE70A980990069801300790FFE725
:103B50000E98011D0E9100680A900A98012803DB57
:103B6000FFE70A9803900BE00A980021179116903E
:103B70001798169981FAA0F0159015980390FFE711
:103B800003980A900A980999884206DDFFE70A9887
:103B90000990069802300790FFE70E98011D0E91DC
:103BA00000680A900A98012803DBFFE70A98029050
:103BB0000BE00A9800211A9119901A98199981FA24
:103BC000A0F0189018980290FFE702980A900A98BF
:103BD0000999884206DDFFE70A98099006980330A4
:103BE0000790FFE70E98011D0E9100680A900A9851
:103BF000012803DBFFE70A9801900BE00A980021F7
:103C00001D911C901D981C9981FAA0F01B901B9887
:103C10000190FFE701980A900A980999884206DD09
:103C2000FFE70A980990069804300790FFE7069886
:103C3000043006900898013808905FE70D98013825
:103C400000F003000890FFE7089850B3FFE70E98D4
:103C5000011D0E9100680A900A98012803DBFFE716
:103C60000A9800900BE00A98002120911F9020985C
:103C70001F9981FAA0F01E901E980090FFE700980F
:103C80000A900A980999884207DDFFE70A98099087
:103C90000D980899401A0790FFE708980138089096
:103CA000D2E709980C99086007980B99086021B031
:103CB00070470000F0B5F1B1002300BF02EB430CE8
:103CC00032F813E0BCF802C02EF0030E2CF0030C07
:103CD00050F80E5050F80C6000EB0E0400EB0C078F
:103CE00040F80E6040F80C507E68656802338B42E5
:103CF00066607D60E2D3F0BD70B51D460388044662
:103D0000012A0E460ED1FF2B1BDDB3F5806F26DB9B
:103D1000B3F5805F3BD0B3F5006F32D0B3F5806F61
:103D200035D04BE0FF2B13DDB3F5806F1EDBB3F511
:103D3000805F3DD0B3F5006F34D0B3F5806F37D0DE
:103D40003CE03F2B19DC102B21D0202B19D035E083
:103D50003F2B23DC102B2BD0202B23D02EE0B3F5D0
:103D6000807F14D0B3F5007F0BD027E0B3F5807FC0
:103D70001ED0B3F5007F15D020E0402B07D0802B5C
:103D80001CD162683046194600F022F816E06268DD
:103D900030461946012300F063FA0FE0402B07D0AC
:103DA000802B0BD162683046194600F095F805E08B
:103DB000626830461946012300F03EFC35B1A18906
:103DC000A2683046BDE87040FFF774BF70BD0000C8
:103DD0002DE9F04F81B08246002091460C46B0EBB1
:103DE000510F4FEA510B67D00AEBCB0C04215A4616
:103DF000009400BF0CEB01040AEB010654F8040C1C
:103E000056F8045C4FEAA00809EB0103AF1008EB79
:103E1000A50553F8043C59F801E046F8045C5AF84B
:103E200001505CF80160A7EBA000AF104FEAA608B4
:103E3000A7EBA60608EBA5054AF8015050FB13F5C1
:103E400056FB13F323F0004325F0004550FB1E30D2
:103E500066FB1E5540006B004CF80100013A01F171
:103E6000080144F8043CC5D1504659464A4602234D
:103E700000F0F6F9009859460AEB80004A46022302
:103E800000F0EEF9BBF1000F13D00AF1080000BFFB
:103E900050E90212D0E90037490052005B007F0070
:103EA00040E90212C0E90037BBF1010B00F110003C
:103EB000EED101B0BDE8F08F504659464A46022384
:103EC00000F0CEF90AEB840059464A46022301B0BD
:103ED000BDE8F04F00F0C4B92DE9F04F83B0029077
:103EE000002015460F46B0EB510F4FEA510B70D032
:103EF00000970298CDF804B0DDF808A000EBCB0CD9
:103F0000042100BF0AEB010757F8046C0CEB010E0B
:103F10005EF8044CB010A0EBA400A4106B582A4625
:103F20000D4404EBA60455F8045C47F8044C5AF819
:103F300001405CF80160A710A7EBA607B61006EBDE
:103F4000A4044AF8014050FB15F457FB15F580FB1B
:103F5000039824F0004425F0004557FB134460FB10
:103F60000350C9F1000313F1004340F10000400089
:103F7000154663004CF80100BBF1010B01F108018B
:103F80004EF8043CBED1029C019E204631462A4692
:103F9000022300F051FB0098314604EB80002A46D2
:103FA000022300F049FB8EB10298083050E902125A
:103FB000D0E90037490052005B007F0040E902125F
:103FC000C0E90037013E00F11000EFD103B0BDE8B9
:103FD000F08F029C594620462A46022300F02CFB13
:103FE00004EB870059462A46022303B0BDE8F04F90
:103FF00000F022BB2DE9F04381B00C460021904631
:10400000B1EB920F05463ED04FEA9809D5E9000181
:1040100051FB01F150FB00F0490801EB5000214633
:1040200000F064FED5E9020151FB01F150FB00F004
:10403000490801EB5000211D00F058FED5E90401AC
:1040400051FB01F150FB00F0490801EB500004F175
:10405000080100F04BFED5E9060105F1200651FBF1
:1040600001F150FB00F0490801EB500004F10C0194
:1040700004F1100700F03AFEB9F1010935463C465B
:10408000C4D13C46354618F0030611D0D5E90001ED
:10409000271D51FB01F150FB00F0490801EB5000D6
:1040A000214600F023FE013E05F108053C46EDD116
:1040B00001B0BDE8F08300002DE9F04F86465EF8C0
:1040C00004CBA1F101090024B4EB990F26D00124FF
:1040D000C8464FEA990A64F301080027002400BF8C
:1040E0005EF827500EEB8706AC45BCBFAC467C1C87
:1040F000D6E9015BF668AC45BCBFAC46BC1CDC45F0
:10410000BCBFDC46FC1CB44507F10407BCBFB44689
:104110003C46BAF1010AE3D100EB880E19F0030026
:1041200008D040425EF8045BAC45BCBFAC460C18FE
:104130000130F7D3C2F800C01C60BDE8F08F00006A
:10414000F0B54FF0000CBCEB910F15D08B0821F0AF
:10415000030E4FF0000C0446256867680CEB2546FB
:1041600006FA85F606EB274606FA87FC013B04F1C2
:104170000804F1D100EB4E0011F0030305D000BF9D
:1041800030F9027B013BBC44FAD19CFBF1F010807A
:10419000F0BD00002DE9F04381B0002390468E462B
:1041A000B3EB910F1ED04FEA9E042EF0030C0023B8
:1041B00000210646D6E90075D6E90229DB1941EB54
:1041C000E7715B1941EBE5719B1841EBE27113EB71
:1041D000090341EBE971013C06F11006EAD100EB5D
:1041E0008C0000E000211EF0030606D050F8042BDE
:1041F0009B1841EBE271013EF8D11846724600234C
:10420000FCF717F8C8F8000001B0BDE8F083000023
:1042100010B54FF0000CBCEB930F12D0C1EA014C6B
:104220004FEA930E0468BEF1010E94FA1CF4146078
:10423000446800F1080094FA1CF4546002F108028A
:10424000F0D113F0030308BF10BD00BF30F9024BDB
:10425000013B94FA11F422F8024BF7D110BD000093
:104260002DE9F04F9BB04FEA910C009000F1040E45
:104270004FEA0C1019904FEACC001490D80013901C
:1042800018010B910CEB4C0102F10409129003EBA5
:104290004300C900C000CA46CB461A910592079355
:1042A0001190CDF804E0CDF810C000BF19995EF868
:1042B000040C0EEB0102179252F8042C0311171193
:1042C00007EB2017A3EB2210169014980D460EEB67
:1042D00000031A9853F8044C0EEB000151F8046CDB
:1042E0005EF80550361106EB2414DEF80060CDF8B8
:1042F00060C04FEA26180A4615912911A8EB251827
:10430000E519DDF810C04EF8045C5EF8005001EBD2
:1043100026115EF83C602D1105EB26156E18CEF8BF
:104320000060491B5EF83C505EF800602D11A5EB63
:10433000261553F8046C3C1B52F8047C3611A6EB8E
:1043400027165AF8047CDAF8000057FB04F257FBF2
:1043500001F754FB007450FB01F0101A400043F8C1
:10436000040C600016994EF83C00481B29445BF889
:10437000044CDBF8005006EB0802A8EB060354FBE4
:1043800000F654FB02F455FB02F2B21A179F50FBE1
:104390000540520047F8042C199A40004EF80200DC
:1043A00059F8040CD9F8002050FB01F450FB03F03D
:1043B00051FB020052FB03F1611A159A490042F8C1
:1043C000041C1A9940004EF801001398DDF860C0F3
:1043D00083441298BCF1010C824411980EF1080E2E
:1043E00081447FF463AF0B9D142DC0F0E7800499E6
:1043F000284600BF039007980A46800007904FF0B8
:10440000FF30890800EB92000690C8001A9001EB7B
:10441000410002910F010199D4004FEAC008002029
:104420000A9100219246CDE90E42CDE90C8700BFEA
:104430000991A94207990144089180F0AE804FEAA2
:10444000400C820000EB40000599400040F0010361
:1044500051F8200051F82330149042F0010051F837
:104460002000DDE909BE139051F822004CF0010252
:10447000129051F822001593119051F82C001090D1
:1044800039460EEB07005EF8045C50F8043C1A99BC
:1044900019905819EA1A0EEB01030EEB0805189251
:1044A00053F804AC55F8042C414652441618B61083
:1044B0004EF8046C1A9EDEF800905EF807705EF805
:1044C00006605EF8014007EB0908A0EB020CA21998
:1044D00002EB0804A410CEF80040A8EB0202DDF8BD
:1044E0004880139C08465CFB08F652FB04F1711AE5
:1044F000491053F804AC55F8046C43F8041C1A999D
:104500005EF800305EF801105CFB04F058FB02001E
:10451000189AC91AA9EB0707AAEB0603561A01EB6A
:104520000208109A119903EB07091795169656FB86
:1045300002F559FB01F6FB1AAD1B199CDDF850A0E2
:10454000159F6D1044F8045C58FB0AF553FB07F601
:10455000AD1B179E6D10DDF868C046F8045C401076
:10456000DDE90E644EF80C0016980B9D50FB01F02F
:1045700052FB090058FB07F15AFB03110D9A40103A
:104580004EF8020048100C99A344174688464EF88E
:104590000100AB45B644FFF473AF0A98099908309F
:1045A0000A9006980131814208987FF641AF03983E
:1045B000029950284FEA9000BFF41CAF009ADDF832
:1045C000109000BFD2E9001CD2E90286D2E9045360
:1045D000D2E9067408EB0100284400EB070E06EB55
:1045E0000C0018442044C2E900E0A1EB0800284474
:1045F000A0EB070EACEB06001844001BC2E902E07A
:10460000881B401B00EB040E08EB0C00C01AC01BFB
:10461000C2E904E07018ACEB0801401BC91A001B8A
:104620003944C2E90601B9F1010902F12002C9D1F8
:104630001BB0BDE8F08F00002DE9F04F9DB08C0855
:10464000009000F1040E20011A90E0001490D800B0
:10465000139018010B9104EB4401171D129003EB0A
:104660004300C900C000BB46B9461B9105920793A1
:104670001190CDF804E004941A9A5EF8040C0EEB45
:104680000203154653F8042C1997189303111711B8
:1046900007EB2017A3EB221016901498DEF80060A9
:1046A0000EEB00081B9858F804AC0EEB000151F813
:1046B000043C17941B115EF8054003EB2A133511D7
:1046C0001C912211A5EB2411DC19DDF810C04EF865
:1046D000044C5EF800405EF83C50241102EB2612B8
:1046E00004EB2514A518CEF800505BF8045CA7EB8A
:1046F000030ADBF80060121B55FB0AF752FB067732
:10470000159101461C987F0055FB02F256FB0AF3F7
:1047100058F8044C50F8040C48F8047C5EF83C70DF
:10472000D21A5EF8011052003F1124114EF83C20BD
:10473000169AA7EB2118A4EB2010159B59F8044CEE
:1047400008EB020CD9F80050A3EB000A54FB0CF65E
:104750005AFB05661899760041F8046CA2EB080133
:10476000184454FB0AF355FB0CF29A1A1A9B199F32
:1047700052004EF8032057F8042C3B6852FB01F41A
:1047800050FB034452FB00F053FB01F1401A1B990C
:1047900040004EF8010013981C9E8144129864005A
:1047A00046F8044C179C83441198013C0EF1080E06
:1047B00007447FF461AF0B9B142BC0F0E880049991
:1047C000184600BF039007980A46800007904FF0F4
:1047D000FF30890800EB92000690C8001A9001EBA8
:1047E000410002914FEA011C0199C000D7000C90D2
:1047F00000200A9100211646CDF86CC0CDE90D725B
:104800000991994207990144089180F0AF804100D5
:10481000820000EB4000059D400040F0010355F888
:10482000200055F82330129042F0010055F8200086
:104830001393119055F8220041F001021C9055F895
:104840002200109055F821000F90DDE9090E00BFFD
:104850001B99DDF830B05EF801201A9918900EEB24
:104860000C005EF8043C50F8047CDEF800500EEBBF
:10487000010A0EEB0B045AF8048C54F8046C1990DE
:10488000F818A3EB070C5719AA1A179206EB08029F
:104890001518AD104EF8045C5EF801605EF80B5020
:1048A0002346841AA819C2199210CEF800205EF887
:1048B00001205EF80B503F1AA2EB050953F8042CB7
:1048C0001D461C9B5AF8048C54FB03F6119B09EB04
:1048D0000C0053FB0766ACEB0909DDF83CC01694ED
:1048E000A8EB020274101799DDF8488015974AF872
:1048F000044C149050FB0CF71098DDF84CA08E1A65
:104900000A4459FB08F150FB06775AFB0211199C27
:104910007F10491044F8047C45F8041C1C99159C30
:104920001B9F54FB01F1169C0E9D54FB03F3C91A07
:104930001A9B49104EF80310149B56FB0CF153FBC5
:1049400000F3C91A49104EF8071052FB08F159FB41
:104950000AF0081A40104EF80B0018980D9C0B9B9B
:104960002844BC469842A644FFF472AF0A980999BD
:1049700008300A9006980131814208987FF640AFCE
:104980000398029950284FEA9000BFF41BAF009A99
:10499000DDF81090D2E9001CD2E90286D2E9045376
:1049A000D2E9067408EB0100284400EB070E06EB81
:1049B0000C0018442044C2E900E0A1EB08002844A0
:1049C000A0EB070EACEB06001844001BC2E902E0A6
:1049D0007018401BA0EB040EACEB0800C01A384462
:1049E000C2E904E0881B08EB0C01401BC91A2044F3
:1049F000C91BC2E90601B9F1010902F12002C9D1BE
:104A00001DB0BDE8F08F80B54CF6AC6C44F6AC6ED2
:104A100089B2C0F6000CC0F6010E0160C0E903CEF9
:104A20000271B1F5007F4FF0FF0243710FDBB1F56A
:104A3000006F18DB2ED0B1F5005F31D0B1F5805F8B
:104A400049D14BF23861C0F60001022240E07F29D3
:104A500015DC20292AD040293DD14BF25861C0F6FF
:104A60000001802234E0B1F5007F26D0B1F5806FDF
:104A700031D14BF27861C0F60001082228E080298C
:104A800021D0B1F5807F26D14BF21861C0F600012C
:104A900020221DE04BF20861C0F60001042217E05D
:104AA0004BF26861C0F60001012211E04BF228616F
:104AB000C0F600014FF480720AE04BF24861C0F684
:104AC0000001102204E04BF28861C0F60001402290
:104AD00082600022416150B280BD00002DE9F041AA
:104AE00082B0144605464769027900680E46012ADD
:104AF0004FEA50081CD1D5E902C22B693046414625
:104B00000094CDF804C000F0AFF82A796B793846EC
:104B10002146FFF7F1F82868C0B1002054F82010B2
:104B2000490044F82010296801308842F6D30DE08E
:104B30006B7938463146FFF7DFF8D5E902722B6909
:104B4000304641460094019700F004F802B0BDE8F9
:104B5000F08100002DE9F04F85B0DDF838C00493F6
:104B600082464B1E4FEA4100009067D00F9C101DFB
:104B7000E5006FF0030404EB011B04EBC101002707
:104B80000190CDE9025300BF01980AEBC702431917
:104B90004459D66853F8043C926886FB04E852FBFB
:104BA00013F952FB14FC66FB0499CEF1000212F1DA
:104BB000004256FB13CE5AF8016049F1000266FB31
:104BC0000429049886FB04C343590AEB01085246A2
:104BD00083FB060A63FB06EE58F8046C924686FBDC
:104BE0000482CCF1000212F10042C0F1000049F150
:104BF000000210F1004056FB13204EF10002DDF8D8
:104C000038C066FB0422C8F1000313F100430CEB2B
:104C1000C70342F10002C3E902020CEB0B0343F8A5
:104C2000040C5042039B4CF80B00029801370544DA
:104C3000ABF1080BBB42A1F10801A5D1DAE90001F3
:104C4000401A009940104CF8210041F00100002169
:104C50004CF82010DAE9000210444010CCE90001C1
:104C600005B0BDE8F08F00002DE9F04F81B0D1B361
:104C70004FF0000C0025009300EBC10602EBCC0BBB
:104C8000766853F83C90DBF80440431952F83CA096
:104C900050F805B089FB0687C4F1000E5B685BFB2A
:104CA0001EFE5BFB1AF753FB147753FB1AE356FB0C
:104CB000147769FB063EC8F1000650F8313016F152
:104CC000004653FB19764EF1000753FB14730A9C00
:104CD000013904EB05077B600B9F009B665105F1D2
:104CE0000805BC44C8D101B0BDE8F08F10B501285B
:104CF0006DDBB0FA80F3A3F1010C5FEACC7218BF50
:104D0000A3F1020C00FA0CFE00EE10EA9FED321A3D
:104D1000B8EEC00A20EE010A45F6DF1310EE102AA5
:104D2000C5F63773A3EB62029FED2C0A01EE102A41
:104D300021EE000ABDEEC00A10EE102A82FB0230FE
:104D400040004FEA6E0440EAD37080FB0403C00FBA
:104D500040EA4300C0F1405080FB0202400F40EAAD
:104D6000C20020F0030080FB00235B0043EAD27204
:104D700082FB0423D20F42EA4302C2F1405282FB7B
:104D80000002400F40EAC20020F0030080FB002335
:104D90005B0043EAD27282FB0423D20F42EA430251
:104DA000C2F1405282FB0002400F40EAC20020F0F4
:104DB000030080FB0E02800F40EA82000CEBDC72E5
:104DC00020F00100521040FA02F2002001E0FF2022
:104DD000002240B20A6010BD000000300000804E8A
:104DE00081B08DF803009DF8030008B9FFE700E0EB
:104DF000FFE701B07047000081B08DF803009DF817
:104E0000030008B9FFE700E0FFE701B070470000CA
:104E100081B08DF803009DF8030008B9FFE700E0BA
:104E2000FFE701B0704700007047000081B08DF8C7
:104E300003009DF8030008B9FFE700E0FFE701B0B9
:104E40007047000045F6BC21C2F2000140F2F0407C
:104E5000C2F20000086045F6C021C2F200010860FD
:104E600040F29B71C2F20001FF2008707047000001
:104E700081B08DF803009DF8030008B9FFE700E05A
:104E8000FFE701B07047000080B584B00020ADF8A6
:104E90000E0040F29250C2F200000088862839D8F5
:104EA000FFE700F067FC012834DBFFE7FCF70CFCB0
:104EB00001F006F868B3FFE70020029000F044F923
:104EC000029940F20750C2F200000190808800046D
:104ED00000BA0730ADF80E0040F28E50C2F200006A
:104EE000032201F06DFB02990198872201F068FB13
:104EF000029840F23401C2F20001088041F28C01B4
:104F0000C2F2000108704DF2DC21C2F200010880FB
:104F1000FFE7FFE704B080BD80B582B00190ADF837
:104F20000210019820B1FFE7BDF8020008B9FFE7C1
:104F30000FE0FFE7BDF80200411EADF8021040B1DE
:104F4000FFE70198007801F06DFF019801300190B2
:104F5000F0E702B080BD000080B584B08DF80F008E
:104F6000ADF80C1000218DF80B1040F29450C2F2F5
:104F70000000019055220270AA22427081709DF8B3
:104F80000F10C1709DF80D100171BDF80C1041712A
:104F9000BDF80C100731ADF80C10BDF80C1001393C
:104FA00089B200F087FB014601988DF80B109DF83F
:104FB0000B10BDF80C20024402F8011CBDF80C10C7
:104FC000FFF7AAFF04B080BD83B0029001200190DA
:104FD00000200090FFE70198400001900098013008
:104FE0000090FFE7019802998842F4DDFFE70098FE
:104FF000C0F11F0000900098B0F1FF3F03DCFFE715
:1050000000200090FFE7009803B0704780B588B09B
:1050100007900691059204935A2001900020029077
:10502000FFE702980199884222DAFFE707984BF2DE
:105030009861C0F60001CA88029B1A4400EB820006
:105040000430898803AAFFF7A5F803984BF2C4112E
:10505000C4F62E5180FB0101000F40EA01100599B2
:10506000029A41F82200FFE7029801300290D8E747
:1050700001980499086008B080BD000080B586B032
:105080006846FCF71FFCFFE7009A4DF21601C0F6D8
:1050900001010020FCF7CAFDFFE7FFE7019A4DF28E
:1050A0000B01C0F601010020FCF7C0FDFFE7FFE7A0
:1050B000029A4CF6EF71C0F601010020FCF7B6FD34
:1050C000FFE7FFE7039A4CF6FB71C0F601010020F1
:1050D000FCF7ACFDFFE7FFE7059A4DF20701C0F6CC
:1050E00001010020FCF7A2FDFFE706B080BD000033
:1050F00080B582B040F60000C4F201004FF4805148
:10510000FCF766FAEE20009001F08CFE1120019071
:1051100001F088FE009801F085FE019801F082FE02
:10512000009801F07FFE019801F07CFE4DF2D02145
:10513000C2F200010020086041F6A021C2F2000185
:10514000086002B080BD000080B586B0ADF81600E2
:1051500000208DF81300BDF8160040F20751C2F28E
:1051600000010844C0788DF80D009DF80D0001463F
:105170000291E0B3FFE7029801283BD0FFE70298D5
:1051800002283AD0FFE70298032839D0FFE70298B7
:10519000042853D0FFE70298062856D0FFE702986C
:1051A000082800F0A780FFE70298A12800F0F5800A
:1051B000FFE70298E22800F0A080FFE70298E428C9
:1051C00000F0A680FFE70298E52800F0AC80FFE73A
:1051D0000298E62800F0B280FFE70298E72800F086
:1051E000B880FFE70298E82800F0BE80D8E000F021
:1051F000E9FAD6E001F00EFCD3E000F0AFFAD0E01F
:10520000BDF8160040F20751C2F20001084481794E
:1052100040F29B70C2F2000001700078012807D0B4
:10522000FFE740F29B70C2F20000007808B9FFE788
:10523000FFE703200021FFF78FFEB2E04DF2C4210B
:10524000C2F2000101200870ABE0BDF8160040F288
:105250000751C2F20001084400790002ADF80E00C7
:10526000BDF8160008444179BDF80E000844ADF8B9
:105270000E000020ADF81000FFE7BDF81000BDF8EB
:105280000E10884235DAFFE7BDF81600BDF81010A1
:10529000014440F20750C2F200000144097A0902B9
:1052A000ADF81410BDF81610BDF8102011440144DB
:1052B0004A7ABDF814101144ADF81410BDF8161058
:1052C0000844BDF810100844063000F06DF88DF861
:1052D00012009DF81200012801D1FFE700E0FFE76E
:1052E000BDF81400BDF8101008440430ADF81000EB
:1052F000C3E756E0FEF72AF953E0BDF8160040F286
:105300000751C2F2000108448079FFF78FFD48E0A1
:10531000BDF8160040F20751C2F20001084480793E
:10532000FFF75EFD3DE0BDF8160040F20751C2F206
:10533000000108448079FFF76BFD32E0BDF81600EC
:1053400040F20751C2F2000108448079FFF790FD56
:1053500027E0BDF8160040F20751C2F200010844F0
:105360008079FFF749FD1CE09DF813004FF4803170
:1053700000910322019201F0A1FC0099019A8DF89D
:1053800013009DF8130001F099FC8DF813009DF8AF
:105390001310E820FFF7E0FD03E0FFF745FD00E014
:1053A000FFE706B080BD000080B584B0029002988F
:1053B00000788DF80700029840788DF80500029873
:1053C00080780002ADF802000298C178BDF80200B2
:1053D0000844ADF802009DF8070000F091F98DF83F
:1053E00006009DF805009DF806204BF2A061C0F66E
:1053F000000101EB42014978884204D0FFE7002018
:105400008DF80F000FE09DF8070002990431BDF8F8
:10541000022000F00DF88DF80400FFE79DF804006D
:105420008DF80F00FFE79DF80F0004B080BD00006D
:1054300080B586B08DF817000491ADF80E209DF868
:105440001700AC3801460191092800F29F800199AC
:10545000DFE801F0059C9C9C101E2C3A485648F64B
:10546000E870C0F602000168AD2000F071FE8DF812
:105470000D008CE00498016840F20800C2F20000C0
:1054800001600168BA2000F063FE8DF80D007EE037
:105490000498016840F20800C2F2000041604168CF
:1054A000BB2000F055FE8DF80D0070E004980168F7
:1054B00040F20800C2F2000081608168BC2000F068
:1054C00047FE8DF80D0062E00498016840F2080084
:1054D000C2F20000C160C168BD2000F039FE8DF845
:1054E0000D0054E00498016840F20800C2F2000088
:1054F00001610169BE2000F02BFE8DF80D0046E031
:105500000498007801380146009104283CD800999D
:10551000DFE801F0030E19242F0040F20800C2F268
:1055200000000168BA2000F013FE8DF80D002CE099
:1055300040F20800C2F200004168BB2000F008FE03
:105540008DF80D0021E040F20800C2F200008168F1
:10555000BC2000F0FDFD8DF80D0016E040F20800C3
:10556000C2F20000C168BD2000F0F2FD8DF80D0010
:105570000BE040F20800C2F200000169BE2000F01A
:10558000E7FD8DF80D0000E0FFE700E0FFE79DF884
:105590000D0006B080BD000080B542F60040C4F2A8
:1055A00001000121FCF78CFF80BD000086B0059052
:1055B000049100200290009001200390FFE70398DF
:1055C00004990139884228DAFFE70598039950F8D1
:1055D0002100019001980599039A01EB820151F88D
:1055E000041C884214DDFFE701980599039A01EB3A
:1055F0008201496888420BDDFFE7019800998842E3
:1056000005DDFFE70198009003980290FFE7FFE7B0
:10561000FFE7039801300390D1E7029806B0704786
:1056200080B582B0019000919DF8041044F600000E
:10563000C4F20000FDF722FCFFE744F60000C4F2CC
:1056400000008021FDF706FB08B9FFE7F5E70198A8
:1056500002B080BD82B0019000200090FFE700986A
:105660001D2825DCFFE7009940F69C70C2F200007F
:1056700050F831000199884215D1FFE7009940F6B2
:105680009C70C2F2000000EBC1014B684DF2D822C1
:10569000C2F200021168C91A1160009900EBC10141
:1056A0000020486004E0FFE7009801300090D6E752
:1056B00002B0704783B00290ADF8061000208DF85C
:1056C0000300ADF80400FFE7BDF80400BDF80610C4
:1056D000884210DAFFE70298411C029101789DF898
:1056E000030008448DF80300FFE7BDF80400013013
:1056F000ADF80400E8E79DF8030003B07047000030
:1057000080B582B08DF8070000F026F88DF805000E
:1057100000208DF80600FFE79DF806009DF80510B3
:10572000884215DAFFE79DF806104BF2A060C0F63C
:10573000000010F811009DF80710884201D1FFE722
:1057400006E0FFE79DF8060001308DF80600E3E76C
:105750009DF8060002B080BD0720704780B582B07A
:1057600000208DF807009DF807100220FFF7F4FBDA
:1057700002B080BD81B045F6BC20C2F200000068D6
:1057800045F6C021C2F200010968884204D0FFE753
:1057900001208DF8030003E000208DF80300FFE7EF
:1057A0009DF8030001B0704780B582B00190019967
:1057B00040F21C00C2F2000001F0BCF90090009819
:1057C00002B080BD80B582B000208DF8070041F6A0
:1057D0009C20C2F20000007870B9FFE79DF8070036
:1057E000002101F08DFA8DF8070041F69C21C2F2EC
:1057F00000010120087007E09DF80700012101F079
:105800007FFA8DF80700FFE79DF807100020FFF7EB
:10581000A3FB02B080BD000080B541F69420C2F227
:10582000000090ED000AB7EE001AB4EE410AF1EE66
:1058300010FA2ADCFFE74DF2C820C2F2000000682F
:10584000FAF789FE41EC100B9FED431B53EC112B33
:105850004FEAD37C51EC100B6CF3DF7141EC100B71
:1058600051EC100BFAF75CFE38B9FFE74DF2D0218E
:10587000C2F200010120086006E04DF2D021C2F220
:10588000000100200860FFE729E04DF2C820C2F2C5
:1058900000000068FAF75FFE41EC100B9FED2E1B35
:1058A00053EC112B4FEAD37C51EC100B6CF3DF71EE
:1058B00041EC100B51EC100BFAF732FE38B9FFE750
:1058C0004DF2D021C2F200010220086006E04DF244
:1058D000D021C2F2000100200860FFE7FFE741F697
:1058E000A020C2F20000006801282CD1FFE7FCF7DD
:1058F00019FC014645F6B420C2F2000001600068C0
:105900004DF2CC21C2F200010968411A41F6902003
:10591000C2F2000001600068B0F57A7F12D9FFE79B
:1059200041F6A021C2F200010020086041F690215A
:10593000C2F2000108604DF2D021C2F20001032042
:105940000860FFE706E041F69021C2F20001002066
:105950000860FFE780BD00BF0000000000000000FD
:1059600082B045F6C420C2F20000009000200190F1
:10597000FFE701981D2816DCFFE70099019A40F621
:105980009C70C2F2000040F83210019900EBC10196
:1059900000204860009800F580600090FFE70198C3
:1059A00001300190E5E702B07047000080B584B097
:1059B000039002910298ADF8040000208DF80700D2
:1059C000039801A9FBF726FD04B080BD80B58EB019
:1059D00040F2E730ADF82C000F20ADF82800002091
:1059E0000390ADF82E00ADF82A0042F60040C4F254
:1059F000010004900AA9FCF727FF039904983022BC
:105A0000ADF8182001220592ADF81A20ADF81E104D
:105A1000ADF82010ADF8241006A90291FCF790FE15
:105A200003990498FCF718FD0299039A0498059BC2
:105A30004FF0600CCDF804C0ADF818C0ADF81A30C6
:105A40000923ADF81E300223ADF82030ADF8242034
:105A5000FCF774FD03990498FCF7C0FCDDF804C062
:105A60000299039A0498059BADF818C0ADF81A3056
:105A70001323ADF81E30ADF82020ADF82420FCF73C
:105A8000DBFD03990498FCF7C7FC04980599FCF723
:105A90008FFC0EB080BD000080B588B007900798DD
:105AA0000590032858D80599DFE801F0021A32441E
:105AB0004FF480600490ADF8180010208DF81B00A2
:105AC00003208DF81A0040F60000C4F20100039094
:105AD00006A9FBF79FFC03980499FBF779FD3CE0CE
