:020000040000FA
:108000000804002045810000AB830000A983000024
:1080100051810000538100005581000000000000E4
:108020000000000000000000000000004984000083
:108030005981000000000000298400004B840000EA
:108040005F81000000000000000000005F81000070
:108050008F8100005F810000000000000000000030
:108060000000000000000000000000005F81000030
:108070000000000000000000000000000000000000
:1080800000000000000000008D81000000000000E2
:1080900000000000000000000000000000000000E0
:1080A000698600006B8600000000000000000000F0
:1080B0006D860000A1860000A38600005F8100009D
:1080C00000000000000000000000000045840000E7
:1080D00047840000A5860000A7860000A98600004E
:1080E0000000000000000000000000000000000090
:1080F0000000000000000000000000000000000080
:10810000000000005F810000000000005F810000AF
:10811000000000000000000000000000000000005F
:10812000000000005F810000000000005F8100008F
:10813000DFF80CD000F018F8004800478D880000E8
:10814000080400200648804706480047FEE7FEE78F
:10815000FEE7FEE7FEE7FEE7FEE7FEE7FEE7FEE7F7
:108160004D84000031810000064C074D06E0E068B8
:1081700040F0010394E8070098471034AC42F6D36E
:10818000FFF7DAFFDC8A0000FC8A000070477047C6
:1081900070B50446A0F180400D46B0F580301CBF9C
:1081A000A4F18040B0F588300DD0A4F18040B0F546
:1081B00090301CBFA4F18040B0F5A83003D07621E8
:1081C000214800F05FFB286818B977211E4800F0AD
:1081D00059FB2879002818BF012808D0022818BFA9
:1081E000032804D04FF07801174800F04BFB687962
:1081F00000281CBF0128022804D04FF07901124842
:1082000000F040FB29792868012918BF022913D002
:108210000329606108BF70BD6979002908BF206526
:1082200008D0012902BFE063206570BD02290CBFA0
:10823000E06470BD206470BD2061297902290CBF03
:108240006064A06470BD00009C89000070B50646A3
:10825000A0F1804015460C46B0F580301CBFA6F159
:108260008040B0F588300ED0A6F18040B0F5903057
:108270001CBFA6F18040B0F5A83004D04FF4F871CF
:10828000204800F0FFFA002C18BF012C20D0022C4F
:1082900018BF032C1CD0042C18BF052C18D0062C9A
:1082A00018BF072C14D0082C18BF092C10D00A2C8A
:1082B00018BF0B2C0CD00C2C18BF0D2C08D00E2C7A
:1082C00018BF0F2C04D040F2F1110E4800F0DAFA7A
:1082D000002D18BF012D0DD0022D18BF032D09D080
:1082E000042D1CBF052D062D04D04FF4F97105484F
:1082F00000F0C8FAB069610005FA01F10843B06105
:1083000070BD00009C89000070B50446A0F180405B
:108310000D46B0F580301CBFA4F18040B0F5883028
:108320000ED0A4F18040B0F590301CBFA4F1804085
:10833000B0F5A83004D040F26F11064800F0A2FA60
:1083400025B94FF4B871034800F09CFA6068A8435F
:10835000606070BD9C89000070B50446A0F180404B
:108360000D46B0F580301CBFA4F18040B0F58830D8
:108370000ED0A4F18040B0F590301CBFA4F1804035
:10838000B0F5A83004D04FF4AD71064800F07AFA89
:1083900025B940F25B11034800F074FA6068284385
:1083A000606070BD9C890000FEE7704770B50446B0
:1083B0008078002818BF012804D04FF052011948D6
:1083C00000F060FA6078042803D35321154800F0C8
:1083D00059FAA0780122002820784FF0E0231AD023
:1083E000810801F1E02191F800C48007C00EFF254B
:1083F00085402CEA050C6578AD0105FA00F040EAED
:108400000C0081F80004207800F01F0002FA00F050
:10841000C3F8000170BD00F01F0002FA00F0C3F8BD
:10842000800170BDEC8900007047000003490A68B4
:1084300012F4006FFBD1024908607047104C0040F5
:10844000004C00407047704770477047214981B029
:10845000052088612048016841F001010160002287
:108460001E4800920099491C00918142FADB1C4988
:108470000B6823F001030B601A490A601B4B1A4971
:10848000196000920099491C00918142FADB184B57
:10849000D9684FF6FC7C01EA0C0141F00101D9607A
:1084A00000920099491C00918142FADBD96821F4BD
:1084B0008061D96000920099491C00918142FADBE9
:1084C0000C48016821F0010101600B49C0130860EC
:1084D00001B070470050014038580040803801001A
:1084E00034580040105800403000A5A500F8004066
:1084F000001002400858004008ED00E070B50D463D
:108500000446B0F1804F1FBFA4F18040B0F58060F9
:10851000A4F18040B0F5006004D040F2D9110648C3
:1085200000F0B0F9012D04D04FF4ED71024800F0D5
:10853000A9F9256070BD00003C8A000070B50D46A9
:108540000446B0F1804F1FBFA4F18040B0F58060B9
:10855000A4F18040B0F5006004D04FF4C4710A4823
:1085600000F090F955B1012D04BF606840F00100A2
:1085700007D040F28911044800F084F9606820F0C7
:108580000100606070BD00003C8A000070B51646B6
:108590000D460446B0F1804F1FBFA4F18040B0F5F6
:1085A0008060A4F18040B0F5006004D04FF4D27137
:1085B0000C4800F067F9012D04D040F2A5110948DC
:1085C00000F060F9002E04BF6069A84308D0012EB6
:1085D00004D04FF4D371034800F054F96069284384
:1085E000606170BD3C8A000070B50D460446B0F174
:1085F000804F1FBFA4F18040B0F58060A4F180409F
:10860000B0F5006003D0C521164800F03BF9E878CA
:10861000002818BF082804D04FF0C801114800F006
:1086200031F92879002818BF012804D04FF0C9017A
:108630000C4800F027F92888A061A878E0606069FC
:1086400020F0080060616069E9780843606128797A
:10865000012860690CBF40F0020020F00200606158
:1086600070BD00003C8A00007047704710B5094C8F
:108670002068401C2060B0F57A7F04D306A000F08B
:10868000D9F8002020600121BDE810408807FFF7DD
:1086900035BF000000000020617070320000000053
:1086A00070477047704770477047000070B50446C8
:1086B000A0F180400D46B0F588401FBFA4F1804076
:1086C000B0F59040A4F18040B0F5984003D0E3218C
:1086D000094800F0D7F8002D04BF606820F0800042
:1086E00008D0012D03D0E421034800F0CBF86068E6
:1086F00040F08000606070BD8C8A000070B5044658
:10870000A0F180400D46B0F588401FBFA4F1804025
:10871000B0F59040A4F18040B0F5984003D08C2192
:10872000424800F0AFF828684149401E884203D310
:108730008D213E4800F0A6F8A888012818BF03281C
:1087400009D004281CBF0528072804D04FF08E014B
:10875000364800F097F8E888002818BF082808D0A5
:10876000102818BF182804D04FF08F012F4800F0B0
:1087700089F8E86804281CBF0828102804D04FF0A6
:1087800090012A4800F07EF8288A012818BF0028A6
:1087900004D04FF09101254800F074F84FF6FF70B7
:1087A00020624FF0FF30E061A888E9880143288902
:1087B00008436060288A0028606814BF40F4807015
:1087C00020F480706060EA682968686902FB01FC37
:1087D000B0FBFCF30CFB1303B0FBFCF0520851435D
:1087E000994238BF401C80B2A060E868042813D0CA
:1087F000082809D0102818BF70BDA06820F44030A8
:10880000A060A068A06070BDA06820F44030A060A7
:10881000A06840F4003006E0A06820F44030A0607A
:10882000A06840F48030A06070BD00008C8A000019
:10883000808D5B00014A024900F013B88788000070
:108840000400002002E008C8121F08C1002AFAD163
:1088500070477047002001E001C1121F002AFBD1C0
:1088600070472DE9F04116460F460446002503E007
:108870003946B047641C6D1C20780028F8D1284682
:10888000BDE8F081FEE7C0B2FFF7D0BD86B01C2086
:108890008DF8080001248DF80A4000208DF80900A9
:1088A00002A8FFF783FD17208DF8020040F2E730A1
:1088B000ADF800008DF804406946A007FFF794FE6C
:1088C000012211469007FFF761FE01218807FFF79B
:1088D00035FE2D4D01220B212846FFF7B7FC012262
:1088E0000A212846FFF7B2FC4FF496400090ADF8FD
:1088F00004400820ADF806002020ADF80800102044
:1089000003902248224D0590ADF810406946284654
:10891000FFF7F4FE01212846FFF7C8FE40201D4E58
:1089200000908DF8044069463046FFF731FC802006
:10893000009069463046FFF72BFC20020090694604
:108940003046FFF725FC40213046FFF705FD80212A
:108950003046FFF701FD21023046FFF7FDFC0E4DCA
:1089600080213046FFF7D0FC2946491EB1F1FF3F78
:10897000FBDC80213046FFF7EFFC2C46641EB4F18F
:10898000FF3FFBDCECE700000010014000366E0109
:10899000004C004000200140FDFF5F002E2E5C2EA9
:1089A0002E5C2E2E5C2E2E5C2E2E5C4C696272612B
:1089B000726965735C505433325A31393278785F5A
:1089C0005374645065726970685F4C69625F447289
:1089D000697665725C7372635C707433327A3139B4
:1089E0003278785F6770696F2E6300002E2E5C2EE0
:1089F0002E5C2E2E5C2E2E5C2E2E5C4C69627261DB
:108A0000726965735C505433325A31393278785F09
:108A10005374645065726970685F4C69625F447238
:108A2000697665725C7372635C707433327A313963
:108A30003278785F6D6973632E6300002E2E5C2E92
:108A40002E5C2E2E5C2E2E5C2E2E5C4C696272618A
:108A5000726965735C505433325A31393278785FB9
:108A60005374645065726970685F4C69625F4472E8
:108A7000697665725C7372635C707433327A313913
:108A80003278785F74696D2E630000002E2E5C2EA4
:108A90002E5C2E2E5C2E2E5C2E2E5C4C696272613A
:108AA000726965735C505433325A31393278785F69
:108AB0005374645065726970685F4C69625F447298
:108AC000697665725C7372635C707433327A3139C3
:108AD0003278785F756172742E630000FC8A000042
:108AE000000000200800000044880000048B000003
:108AF000080000200004000054880000000000006E
:048B00000000000071
:040000050000813145
:00000001FF
