:020000040000FA
:10000000500B0020F900000001010000390F000032
:1000100005010000070100000901000000000000C8
:100020000000000000000000000000000B010000C4
:100030000D010000000000000F010000A9130000E6
:100040001301000013010000130100001301000060
:100050001301000013010000130100001301000050
:100060001301000013010000130100001301000040
:100070001301000013010000130100001301000030
:100080001301000013010000130100001301000020
:100090001301000013010000130100003D0F0000D8
:1000A0001301000013010000130100001301000000
:1000B00013010000130100001301000013010000F0
:1000C00013010000130100001301000013010000E0
:1000D00013010000130100001301000013010000D0
:1000E00013010000DFF80CD000F0A2F80048004730
:1000F000E9180000500B00200648804706480047DA
:10010000FEE7FEE7FEE7FEE7FEE7FEE7FEE7FEE7C7
:10011000FEE7FEE725160000E50000002DE9F05F90
:100120000546002092469B46884606468146402466
:100130001BE0284641464746224600F069F85346F0
:100140005A46C01A914110D311461846224600F073
:1001500050F82D1A67EB01084F4622460120002176
:1001600000F047F817EB00094E41201EA4F10104EE
:10017000DFDC484631462A464346BDE8F09F40EA68
:1001800001039B0703D009E008C9121F08C0042A15
:10019000FAD203E011F8013B00F8013B521EF9D2FC
:1001A0007047D2B201E000F8012B491EFBD2704724
:1001B0000022F6E710B513460A4604461946FFF733
:1001C000F0FF204610BD30B50B460146002020222E
:1001D000012409E021FA02F59D4205D303FA02F554
:1001E000491B04FA02F52844151EA2F10102F1DCB4
:1001F00030BD202A04DB203A00FA02F100207047CB
:100200009140C2F1200320FA03F319439040704754
:10021000202A04DB203A21FA02F00021704721FA5B
:1002200002F3D040C2F120029140084319467047C2
:10023000064C074D06E0E06840F0010394E8070033
:1002400098471034AC42F6D3FFF750FFD41A0000A1
:10025000F41A000010B540F2880441F20010C2F216
:100260000004C4F2020020604FF4805004F1080C36
:100270000A2100224FF000638CE80F002046C4E9F9
:100280000622C4E9082200F05FF840F2B000C2F292
:100290000000846310BD000001684EF60070CBF6CC
:1002A000FD700A184FEA721007284FF0010088BF4E
:1002B00070470B69520923F001030B6141F20801F9
:1002C000C4F202010B68904043EA00020A608A68A7
:1002D000104388600020704770B5D0F800E04EF6FB
:1002E0000070CBF6FD700EEB000C4FEA7C10072877
:1002F00084BF012070BD4FEA5C1040F2080CC2F2CE
:10030000000C0CEB0014CEF80010CEF80420CEF850
:100310000840DEF80C5040F6FF76B54300011D435F
:10032000CEF80C504CF80010C4E90124DEF80C00A3
:100330006FF30B001843E060DEF8100040F001009E
:10034000CEF81000002070BDB0B5044600684EF62F
:100350000071CBF6FD7108444FEA7010072834D8BD
:10036000A068002818BFB0F5805F27D1E068322868
:100370002BD8A069002818BFB0F5002F22D1E06962
:100380000125002818BFB0F5800F20D11A2001F0F8
:10039000A5F901F04DFA01F063FA41F23000C4F220
:1003A00002000560A16820680022B1F5006F0261BB
:1003B00012D0B1F5805F14D101220EE0B0F5006FCC
:1003C00003D1D3E7B0F5802FD9D00120B0BDB0F56F
:1003D000001FDBD02846B0BD1322E36803FA02F207
:1003E000E26004F10C0C9CE82C10114301614FF009
:1003F0000041C160C16843EA05021143C160E1697F
:10040000C26841EA0C0111430025C1602846B0BD15
:1004100080B54FF0000CBCEB133F84464FF0010059
:100420001FD1DCF800C04EF6007ECBF6FD7EE64420
:100430004FEA7E1EBEF1070F88BF80BDCCF80010CA
:10044000CCF80420DCF80C0040F6FF718843184318
:10045000CCF80C00DCF8100040F00100CCF81000E3
:10046000002080BD80B5D0F804C0BCF1010F84BF6E
:10047000012080BDBCF1000F02D0FFF72DFF80BD31
:10048000FFF7C6FF80BD000080B500F001F880BD19
:10049000B0B541F25971CDF2B711A0FB0112510B69
:1004A000232201FB02F14CF6CD4301F1010C4DF684
:1004B0008361C4F21B31A0FB0112910C332201FBBA
:1004C00002F2CCF6CC43A2FB0323052201EBC101CF
:1004D00002EBD30349F2FF42C0F6BA22904201F187
:1004E000010502D94FF480613EE045F60071C0F687
:1004F0004C11884202D94FF4607135E043F200217B
:10050000C0F61B01884202D94FF440712CE040F242
:100510000051C0F2EA61884202D94FF4207123E011
:100520004CF60071C0F27B51884202D94FF4007141
:100530001AE042F28061C0F26941884202D94FF468
:10054000C07111E047F20051C0F21931884202D95E
:100550004FF4807108E044F6000EC0F2E81E00215E
:10056000704588BF0121C9010C22C0F21002D3627C
:100570004FF480131C6824F4786421431960C2F896
:1005800000C04AF24172C0F282724FF010119042E4
:100590000D6038BFB0BD00F0C5FC40F64400C4F2A9
:1005A0000100016841F480710160B0BD2DE9F04F98
:1005B00085B0052800F2AB81054608680C4600218D
:1005C000B1EB104F40F0A38180B2002800F09F8172
:1005D000606841F20101C0F2010100278842CEF6B5
:1005E000FF7709DCB0F5803F10DA032818BF052833
:1005F00011D041F2040106E0C11905290BD341F2E3
:100600000201C0F20101884205D080E1A0F58030EE
:10061000022880F07C81052D55D80120A8404FF29A
:10062000000640F67008C4F20106C4F20108810712
:100630001BD110F00C0F2ED0012001F04FF808F163
:10064000300008F1340C08F1440108F14802032D90
:1006500006F58066039041D1236808F128001B0449
:100660002360029008F12C0049E0002001F036F8E8
:1006700008F1040C08F11401012D08F11802CDF85D
:100680000C8031D12368A8F108001B04236002907C
:10069000A8F1040033E00C2001F020F808F160001C
:1006A00008F1640C08F1740108F17802052D06F5D3
:1006B000006603901ED1236808F158001B040290C5
:1006C000002023601BE00020029000200190002009
:1006D00003904FF0000C0021002211E008F12000EF
:1006E000029008F124000AE0A8F110000290A8F19D
:1006F0000C0004E008F15000029008F15400019051
:100700002568002D00F003814FF00108CDF800C0EE
:1007100004911CE06FF01F00019900EB8A000B6848
:100720000F2505FA00F023EA0000086004996068CC
:100730000528106814BF20EA0B0540EA0B05156078
:10074000256835FA08F008F1010800F0E080A8F10A
:10075000010A012000FA0AF315EA030BF0D0D4F8DD
:1007600004E0BEF5803F0FDCBEF1030F54D041F230
:100770000400864550D0BEF5803F40F08680336847
:1007800023EA0B03336080E00EEB07030025052B03
:10079000C1F2010559D230682EF0010320EA0B00A6
:1007A0003060B069AB426FEA0B0940EA0B00B06100
:1007B0000FD1F069AE4500EA0900F061306A00EA45
:1007C00009003062706A14BF00EA090040EA0B00B9
:1007D0007062A81C864507D1F06900EA0900F06143
:1007E000306A40EA0B0030624FF6FD70CEF6FE70C4
:1007F0007044012849D8F069002340EA0B00C1F297
:100800000103F0610333706A9E4514BF00EA0900DA
:1008100040EA0B00706238E0BAF1100F554628BF6D
:10082000A8F11105072D1ED80299AD000B680F2005
:10083000E768A84023EA000007FA05F318430860B8
:1008400000270499DDF800C01DE0BEF1011F05D0AE
:1008500041F20200C0F20100864516D1336843EA36
:100860000B03336011E06FF01F00019900EB85006E
:100870000B680F27E5688740BB4305FA00F0184373
:10088000086000270499CEF6FF77A568022D07D0EF
:10089000012D0FD0CDB9039B186820EA0B000DE0A5
:1008A000039B186820EA0B001860DCF8000040EA9F
:1008B0000B0508E0039B186840EA0B001860DCF8A1
:1008C000000020EA0B05CCF800506079C0060868EB
:1008D00054BF20EA0B0540EA0B050D60A079C00764
:1008E0003FF425AFBAF1100F28BFA8F1110ABAF1F1
:1008F000070F3FF60FAF02994FEA8A0308680F25EA
:1009000005FA03F398430860DDF800C00EE705B070
:10091000BDE8F08F007E7047007F704780B50168AA
:10092000CA68D2054AD5CA6802F48072CA60CA6829
:1009300012070DD4CA681206FCD5CA6802F08002FC
:10094000CA600268D168C9062BD5002112E000BF39
:10095000CA681206FCD5CA6802F08002CA60CA687A
:10096000D2063DD400F11C011DE000BF0268D3682F
:10097000DB0616D5D3685B05F8D51269036A5A54AD
:10098000026800BFD3681B06FCD5D368013103F0B1
:100990008003D360836A026B013B01328B420263A6
:1009A000E4D200F1180100220A60816931B9C169FD
:1009B00021B901688A6822F480728A600168CA6875
:1009C000520758BF80BDCA6802F00402CA608A6834
:1009D00022F480128A60006C002818BF804780BD16
:1009E000C26A0123A2F1010C03E000BFCA68D2066B
:1009F000B8D59C45B6D3CA68120603D5CA6802F0BA
:100A00008002CA60CA689205F0D5426AD0F834E024
:100A1000D25C01330A610EF101024263E6E7000095
:100A200010B50446006845F60001C4F20001884292
:100A300005D045F20041C4F20001884231D161681D
:100A400001292ED8616944F23F220139C0F20F0218
:100A5000914226D8A168012923D8E168012920D82C
:100A6000816821F001018160204600F03BF8606858
:100A7000C8B101281CBF002010BD206861698268D0
:100A800042F004028260204600F0B4FA2068A168B7
:100A90008268012922F4004208BF02F50042826008
:100AA00019E0012010BD206804F108030ECB846812
:100AB000012944F400348460846824F4004408BFAD
:100AC00004F5004484608168012A21F0020108BF16
:100AD000023181600360816841F001018160002082
:100AE00010BD000080B584B0006845F20041C4F23A
:100AF0000001884201D004B080BD142000F0EEFD5A
:100B0000002000F0EBFDC0200090032001900120A8
:100B100002900620039069460120FFF747FD00F090
:100B200097FE00F0ADFE04B080BD0000B0B51C46DD
:100B30000546006845F60003C4F20003984205D05C
:100B400045F20043C4F2000398421AD10020296202
:100B5000AA62286328464FF480710022234600F0E1
:100B6000E9FB70B92868C16801F48071C160C06890
:100B7000000706D4284680210022234600F0DAFB35
:100B800008B10120B0BD2868C16801F08001C160D2
:100B900001E000BF2868C168C9061BD5C1684905C6
:100BA000F8D50069296B2A6A4B1C2B6350542846E0
:100BB00080210022234600F0BDFB0028E1D12968F6
:100BC000A86ACA68002802F08002CA60E2D0296BD5
:100BD0008142DFD32868816821F040018160C168CB
:100BE000C1600020B0BD000080B50368944645F6A2
:100BF0000002C4F2000293420A4607D045F20041C7
:100C0000C4F200018B421CBF012080BD0262C0F80B
:100C100028C0C0F830C0996841F480219960D96833
:100C200001F00401D960996841F480119960806BEA
:100C300003F110016346FFF715FC002080BD0000A2
:100C400080B5D0F800E045F60003C4F200039E45ED
:100C500007D045F20043C4F200039E451CBF0120AB
:100C600080BD83694FF0010C0BB1604680BDC0F8B8
:100C700018C04FF0000C01628262C0F830C0DEF88C
:100C80000C0040F48070CEF80C00DEF8080040F450
:100C90008070CEF80800604680BD0000B0B5054603
:100CA000006845F60004C4F20004A04205D045F2F5
:100CB0000044C4F20004A04216D169620021EA6235
:100CC0006963C168002201F48071C16028464FF455
:100CD000807100F02FFB38B92868C16801F4807179
:100CE000C160C168090701D40120B0BDC168C9064F
:100CF00006D4C168C160686B013868630020B0BD6C
:100D0000002102E0C268D206F3D5C268120606D5F9
:100D1000C26802F08002C2606A6B01326A63C26814
:100D20009205EFD5EA6A013A8A42EBD36A6A525CCD
:100D300001310261E6E7000080B5D0F800E045F639
:100D40000003C4F200039E4507D045F20043C4F2FD
:100D500000039E451CBF012080BDC3694FF0010CFC
:100D60000BB1604680BDC2620022C0F81CC0416267
:100D70004263DEF8082022F40032CEF80820097819
:100D8000CEF81010C0F834C0DEF80C004FF0000CA4
:100D900040F48070CEF80C00DEF8080040F480705B
:100DA000CEF80800604680BD10B50446016844F6E0
:100DB000FF30C4F2000081424FF0010008DC44F231
:100DC0000042C4F2000291420ED044F6000207E055
:100DD00043F60002C4F20102914205D044F60042FB
:100DE000C4F20002914263D1A0684FEA7010032858
:100DF00052D8E06840F40040B0F5004F4CD1216972
:100E00000120062954D800FA01F111F0450F4FD006
:100E100061690120B1F5407F40DB0CD040F2003227
:100E2000C2F20002914206D040F20032C1F200024A
:100E3000914218BF10BDA0694FEAB03003282BD8EB
:100E4000204600F037F8204600F08EFC04F108033D
:100E50000ECB20681143194341F01001C162D4E95F
:100E6000051240F20033C2F20003994242EA010245
:100E700042F00102026318D040F20030C1F20000DB
:100E800081421CBF002010BD206840F23C11C2F21C
:100E900000010860002010BD012010BDB1F5807F69
:100EA000C9D0B1F5007FC6D002E002214165002023
:100EB00010BD000010B584B00446006843F6000180
:100EC000C4F20101884201D004B010BD102000F02E
:100ED00005FC4FF4C06000900320019001200290B7
:100EE0000220039069460020FFF760FB607E000649
:100EF00006D54FF40060009069460020FFF756FBCE
:100F0000607E400606D54FF4805000906946002070
:100F1000FFF74CFB00F094FC00F0C2FC00F0A8FCD2
:100F200004B010BD07B45FF480305FF000510918C1
:100F30000A6807BC70470000FEE7000080B540F279
:100F4000B000C2F20000FFF7E9FC80BD80B540F2BE
:100F5000B00045F200430021C2F20000C4F20003D9
:100F6000C0E9003148F2A06101224FF0A60CC0F2A6
:100F70000101C0E90222C0E904C140F6C171C0F21A
:100F800000010164FFF74CFD80BD000080B540F218
:100F9000B00045F200430021C2F20000C4F2000399
:100FA000C0E9003148F2A06101224FF0A60CC0F266
:100FB0000101C0E90222C0E904C1FFF731FD80BD93
:100FC00080B540F24C10C2F200000121017040F2E5
:100FD0008800C2F2000040F2B0010268C2F20001D3
:100FE0008B6AD2686FF31F329A1A0A63FFF754F9BB
:100FF00080BD0000B0B50C46054600F045FBA100E1
:10100000B0FBF1F0296801384860B0BDFFF79EFFE2
:10101000FFF720F940F2502440F2501540F2B0079B
:1010200040F24C1841F6B429C2F20004C2F20005A5
:10103000C2F20007C2F200084FF0000BC0F2000934
:101040000FF2A00A0FE000BF3846214632464FF4A7
:101050007A73FFF723FED7E90C12484600F04EFCE6
:10106000504600F015FD20464FF48071FFF7A0F8C0
:1010700028464FF48071FFF79BF810A000F008FDA0
:101080004FF4B270B862384629464FF4B272FFF797
:10109000ABFD00BF98F800000128FBD188F800B034
:1010A0003E6B002ED0D03E6B204632462946012EA4
:1010B00098BF0122FFF763F8C6E700BF493243201B
:1010C000536C617665205465737420697320526592
:1010D0006164792028444D41204D6F6465292121A8
:1010E00021200D0049324320536C61766520546500
:1010F000737420456E642028444D41204D6F646513
:1011000029212121200D0000FFF740FF40F250254A
:1011100040F2501640F2B00741F6B4290FF28408AD
:10112000C2F20005C2F20006C2F20007C0F20009D6
:1011300028A400BF404600F0ABFC28464FF4807165
:10114000FFF736F830464FF48071FFF731F8384634
:1011500031464FF48072FFF773FD00BF3846FFF74A
:10116000D9FB0028FAD1386B38B13A6B28463146A2
:10117000012A98BF0122FFF702F8384631464FF4A2
:101180008072FFF7D9FD00BF3846FFF7C5FB002886
:10119000FAD1D7E90C12484600F0B0FB204600F027
:1011A00077FCC7E749324320536C6176652054656C
:1011B00073742069732052656164792028496E74C4
:1011C000657272757074204D6F646529212121202C
:1011D0000D00000049324320536C61766520546550
:1011E000737420456E642028496E74657272757040
:1011F00074204D6F646529212121200D000000001D
:10120000FFF7C4FE40F2502540F2501640F2B007FE
:1012100041F6B4290FF27C08C2F20005C2F20006C2
:10122000C2F20007C0F2000925A40FE038462946A3
:101230004FF480724FF47A73FFF730FDD7E90C1248
:10124000484600F05BFB204600F022FC404600F0E0
:101250001FFC28464FF48071FEF7AAFF30464FF47A
:101260008071FEF7A5FF00BF384631464FF480720B
:101270004FF47A73FFF75AFC0028F5D1386B002839
:10128000D4D03A6B28463146012A98BF0122FEF796
:1012900076FFCBE749324320536C61766520546575
:1012A00073742069732052656164792028506F6CD3
:1012B0006C696E67204D6F646529212121200D0026
:1012C00049324320536C6176652054657374204520
:1012D0006E642028506F6C6C696E67204D6F64657A
:1012E00029212121200D000010B5044607A000F09F
:1012F000CFFB022C06D0012C06D0002C18BF10BD4D
:10130000FFF77EFFFFF782FEFFF7FEFE2D2D2D2D4E
:101310002D2D2D2D2D2D2049324320536C617665C6
:101320002054657374202D2D2D2D2D2D2D2D2D2D1B
:101330000D00000081B0BBB1C3EB03230093D0F8D4
:1013400000C000BFDCF80C300B405B1AB3FA83F32B
:101350005B09934212D1009B581E002B009002BFE4
:10136000012001B07047EDE7006800BFC3680B4083
:101370005B1AB3FA83F35B099342F7D0002001B004
:1013800070470000B0B501380024B4EB106F18BFEF
:10139000B0BD4EF21005CEF20005686000F078FA9C
:1013A0000720AC602860B0BD40F24810C2F20000D7
:1013B000016801310160704780B586B04FF480113B
:1013C0000A68082363F3CB120A60002240F62C015E
:1013D0000092C4F20101029251F8083C9B0509D425
:1013E00051F8083C43F0010341F8083C51F8083C2F
:1013F0009B05FBD549F2000EC0F2D03E0EF1010371
:1014000040F2441C9842C2F2000C41F81C2C19D244
:1014100051F8082CD20509D551F8082C22F4807215
:1014200041F8082C51F8082C9205FBD544F600022F
:10143000C0F2E812904222D10220CCF800200590A0
:10144000012020E0029A52B3029A012A56D10022CA
:1014500003920D2241F8042C51F8042CD2065FD4DB
:1014600044F24023C0F20F03039A9A4256D0039AE3
:101470000132039251F8042CD206F5D550E0012038
:10148000CCF800E005900490DCF80000049AB0FB72
:10149000F2F040F24012C2F20002106094E051F803
:1014A000082C42F4807241F8082C00BF51F8082C37
:1014B0009205FBD50A6842F001020A600A6822F42C
:1014C00000120A600A685200FCD540F60062C0F2C1
:1014D0002772904215D049F20052C0F6BA229042CB
:1014E0004CD10A68212363F3D3020A600A6842F4EC
:1014F00080020A600A685200FCD554E00320009084
:1015000062E00A68122363F3D3020A600A6842F4B5
:1015100080020A600A685200FCD544E00222009270
:10152000009A002A43D10A6842F001020A600A6860
:1015300022F400120A6000BF0A685200FCD540F68F
:101540000062C0F2277290421BD049F20052C0F6EE
:10155000BA22904212D10A6840F2122363F3D302F6
:101560000A600A6842F006020A600A6842F48002D1
:101570000A6000BF0A685200FCD514E00122009204
:1015800015E00A6840F2124363F3D3020A600A6866
:1015900042F006020A600A6842F480020A6000BF54
:1015A0000A685200FCD50122059202220492CCF86E
:1015B0000000049AB0FBF2F040F24012C2F20002C6
:1015C0001060042041F81C0C009810B10120059017
:1015D00002E0049801281ED10020019051F8180C57
:1015E000059B40F2FF7290435A1E019B104340EA54
:1015F000032041F8180C00BF51F8180CB0F1FF3F60
:10160000FADCDCF80000FEF73FFF0098B0FA80F04B
:10161000400906B080BD0498022814BF05200420AC
:10162000DBE700004EF68850CEF20000016841F47E
:1016300070010160002140F8801C704781B000906B
:101640000098411E00280091FAD101B070470000B7
:10165000BFF34F8FBFF36F8F4EF65070CEF2000086
:1016600000210160BFF34F8FBFF36F8F4EF6145010
:10167000CEF20000016841F400310160BFF34F8FEA
:10168000BFF36F8F7047000040F24010C2F20000BD
:101690000068704740F24410C2F2000000687047D2
:1016A00080B540F60000C4F20100016841F48031C9
:1016B00001605020002100F02BF800F0F9F849F209
:1016C0000050C0F6BA20FFF777FE28B1FFF7C0FF41
:1016D00000F034F880BD00BFFEE7000080B540F6A2
:1016E0001C010E28C4F2010107D30E3801220B6839
:1016F00002FA00F01843086005E001224B6802FA84
:1017000000F0184348600220FFF798FF80BD0000FA
:1017100040F63C02C4F20102136801291EBF23F403
:101720000000106070476FF3551343EA40101060DB
:10173000106840F4000010607047000080B540F26F
:101740004810C2F200000021016040F24410C2F2D1
:101750000000006844F6D351C1F26201A0FB010110
:101760008809FFF70FFE80BD70B50446FFF78CFFB8
:10177000616826680A01B0FBF2F544F2402405FBDB
:101780001200C0F20F04A0FB04010023FEF7C6FC08
:1017900089014AF2201241EA9061C0F2070212EB7D
:1017A000801041F1000122460023FEF7B7FC3F28DC
:1017B00084BF013500207562B06270BD10B540F283
:1017C000F40043F600034FF4E131C2F20000C4F22A
:1017D0000103C0E9003140F2003160220024C1F26F
:1017E0000001C0E90224C0E904418461FFF7DCFA8A
:1017F000FFF750FF0446FFF747FF024602A02146CD
:1018000000F07CF810BD00BF4D4355206973207275
:10181000756E6E696E672C2048434C4B3D256448BD
:101820007A2C2050434C4B3D2564487A0A00000036
:101830004EF28020CEF200004FF40071016070473C
:101840004EF28020CEF200004FF000610160704740
:101850004EF28020CEF200004FF40001016070478C
:101860004EF20010CEF200004FF40071016070479C
:101870004EF20010CEF200004FF0006101607047A0
:101880004EF20010CEF200004FF4000101607047EC
:101890004EF62350CEF20000E021017070470000A8
:1018A0004EF21B40CEF20000A021017070470000F4
:1018B0004EF60C50CEF2000001684FF6FF021140C8
:1018C00041F0BF6141F401310160704740F23C11C9
:1018D000C2F200010968002904BF002070470860B7
:1018E0008A691207FCD47047FFF7DAFEFFF766FF3C
:1018F0000020FFF7F9FC00BFFEE700000FB4054B26
:1019000010B503A9044A029800F018F810BC5DF85D
:1019100014FB0000CD1800000000002002E008C801
:10192000121F08C1002AFAD170477047002001E059
:1019300001C1121F002AFBD1704700002DE9FF4FA3
:1019400089B09B460446002506E025280BD05A4660
:101950000B999047641C6D1C20780028F5D10DB0C0
:101960002846BDE8F08F0027B8460122474900E02D
:10197000074314F8013F203B02FA03F00842F7D175
:1019800020782E2819D114F8010F47F004072A28CF
:101990000ED06FF02F022078A0F1300109290CD869
:1019A00008EB880102EB410100EB0108641CF2E73F
:1019B0000A98641C50F8048B0A9020780028CED036
:1019C000642808D0692806D075281ED05A460B997D
:1019D00090476D1C58E00A994FF00A0901C90A9115
:1019E000002802DA40422D2102E0390504D52B21DE
:1019F0008DF82010012103E0F90704D02021F7E73A
:101A00008A4608AE0DE00021FAE70A994FF00A096C
:101A100001C90A91F7E74946FEF7D5FB303106F8D0
:101A2000011D0028F7D1ADEB060000F12009780771
:101A300001D44FF00108C84502DDA8EB090000E021
:101A400000208046002706E008A85A46C05D0B9992
:101A500090476D1C7F1C5745F6DB04E030205A464A
:101A60000B9990476D1CB8F10001A8F10108F5DC55
:101A700005E016F8010B5A460B9990476D1CB9F119
:101A80000001A9F10109F4DC641C65E709280100E3
:101A900010B5044601E0FFF719FF14F8010B0449E3
:101AA0000028F8D1BDE810400A20FFF70FBF000062
:101AB00000000020527820436F756E743A20256430
:101AC0002C20547820436F756E743A202564200DC5
:101AD0000A000000F81A00000000002008000000C2
:101AE0001C190000001B000008000020480B00002B
:101AF0002C190000000000000000000000000000A1
:04000005000000E512
:00000001FF
