:020000040000FA
:10000000300B0020C100000081020000110200003E
:1000100000000000000000000000000000000000E0
:100020000000000000000000000000004703000086
:100030000000000000000000870200006D040000C6
:10004000D30000003B01000000000000D3000000CE
:10005000000000008302000085020000D3000000C1
:10006000000000003D0100003F0100000000000012
:1000700039010000F1040000D3000000F704000083
:10008000F5040000F3040000D300000000000000AD
:10009000000000000000000000000000D30000008D
:1000A000D30000004303000045030000F9040000F2
:1000B000FB04000000000000000000000000000041
:1000C0000448804704480047FEE7FEE7FEE7FEE7F6
:1000D000FEE7FEE789040000DD00000003488546D6
:1000E00000F018F8004800471D070000300B002002
:1000F00003460B439B0703D009E008C9121F08C041
:10010000042AFAD203E00B780370401C491C521EEB
:10011000F9D27047064C0125064E05E0E36807CC8E
:100120002B430C3C98471034B442F7D3FFF7DAFF67
:1001300090070000A00700007047704770477047A5
:1001400030B50B2504466D04284600F03CF808281D
:1001500014D1C006C4600B498C4202D9C1138C4231
:1001600001D3094906E03F214902084A611A914238
:1001700005D807490160284600F025F830BD072062
:1001800030BD0000FF7500000301EBADFF01000072
:100190000301AEC50820C1064A68120701D5042034
:1001A00070474A68920601D506207047496849069B
:1001B000FBD50720704701B50098C105400A00290A
:1001C00000D0401C08BD00B50346FFF7E3FF02E086
:1001D000FFF7E0FF5B1E042803D0002B00D10920AD
:1001E00000BD002BF4D1FAE708B50020694608707D
:1001F000064B04E0684600F0BFF8002802D15868BA
:100200006428F7DD6846007808BD00001C00002067
:10021000FEE70000F8B5134D002068600126FF27B7
:10022000114C2D3719E02078002802D0012814D174
:100230000AE00E480068C00701D00DA000E00FA042
:1002400000F0B2F8267008E0FFF7CEFF312804D1A5
:10025000432000F079F800F07DF86868B842E2DDEC
:10026000F8BD00001C0000200000002000F001404C
:100270003541354135410D0A000000004E0D0A00A0
:10028000704770477047704770B50C46054604E0EC
:10029000284600F071F8012804D0641EF8D200202E
:1002A000C04370BD002070BDF7B582B0054603980D
:1002B0000021016068460499FFF7E6FF002839D164
:1002C00068460178182914D006DC012909D00229D2
:1002D00009D004292ED132E0412918D0612929D131
:1002E00015E0802601E00126B60201242970771D61
:1002F00018E00499FFF7C8FF00281BD16846007872
:10030000182817D100200399C043086017E0012086
:1003100005B0F0BD28190499FFF7B6FF002809D1F0
:10032000641CA4B2BC42F5D3A8786978FF2250407F
:10033000814202D00020C043EAE703980660002013
:10034000E6E770477047704710B500F021F80020CD
:1003500010BD000010B5044800F0DCF8002802DDF4
:1003600002A000F021F810BD2C000020737563631B
:100370006573730D0A00000004490A69D20703D0AF
:100380000968017001207047002070470044004058
:1003900031B5044C6946204600F0B0F821694905A2
:1003A000FCD438BD0044004010B5044602E0FFF71D
:1003B000EFFF641C20780028F9D110BD70B5002330
:1003C00002781C46302A2DD14278782A01D0582A4A
:1003D00028D18278002A23D00223C25C002A11D0BF
:1003E0001546413D052D06D91646613E052E02D91A
:1003F0003136092E38D826011446303C092C03D852
:10040000224606E00C6018E0052D01D8373A00E0DE
:10041000573AB4185B1C0B2BDFD301E00B2B00D336
:10042000002070BDC25C002AECD06B2A01D04B2AA0
:1004300005D1002B03D0A00208E00120EEE76D2AD1
:1004400001D04D2A04D1002B02D020050860F4E72A
:100450001546303D092D07D80A256C43303C141948
:100460005B1C0B2BDED3DBE70020D7E7054A00201F
:10047000810053585B1C5350401C80B20428F7D3B2
:10048000704700001C00002010B516498868012440
:10049000204388600869204308618868A043886019
:1004A0004869A04348618869A0438861A007026841
:1004B0000D4B1A4302600D4AD06880088000D0605E
:1004C000D06870239843D060486AC008C000486272
:1004D00000F017F8D068800700D0FEE708692043D5
:1004E000086110BD001800402000EBAD00F0014095
:1004F00070477047704770477047704709780160D0
:10050000704708B500200090401C0090C828FBDB15
:1005100008BD0000F1B5FFB0FFB08EB00020009024
:10052000019001207149C00348600020FFA90546E1
:100530000746C8610024FFA98C61486B086201224C
:1005400003AE120502A93046FFF7AEFE002811D017
:10055000012874D0002F00DD6D1C052D70DD1820E2
:10056000FFF716FF1820FFF713FF00207FB07FB0C2
:100570000FB0F0BD029A00251146521C09D0012A85
:1005800009D06846407BE2B2904212D0002877D072
:100590009BE00620E7E70620FFF7FAFE0198012816
:1005A00002D14320FFF7F4FE0198401CC0B2019035
:1005B00090E0002C12D00A46FFAFF11C386AFFF71A
:1005C00097FD4A4B786B586102990126B6078E4613
:1005D000009A0020F11351188C465FE06846C07BFA
:1005E00000284DD00020F21C414B02E01954401C61
:1005F000521C1178002901D0FF28F7DD00261E5477
:10060000FFA83146243001E04354491C521C1378A2
:10061000202B01D01029F7DB46546946FFF7CEFEA8
:10062000324F00983349386188420ADD1820FFF7BD
:10063000AFFE1820FFF7ACFE0020C04396E738E07D
:1006400040E0FFF7B8FDBE60F86030460CE0798806
:10065000414378680818FFF773FD38707878401CBC
:100660007870B868401CB860F968884202D239785E
:100670000829ECD00620FFF78BFE432014E0FFE7AB
:100680000620FFF785FE2AE0F1605A6980CA3761CB
:10069000194F3760091D5A61001D5960704502DA13
:1006A00059686145F0D30620FFF772FE0127641CEC
:1006B0000BE01820FFF76CFE1820FFF769FE022000
:1006C000C04353E74320FFF763FEFFA8806900287B
:1006D00000D134E7FFA8C069002800D12AE7034809
:1006E0000078FFF755FE009840E700000400002066
:1006F0002C040020FF7F00002101EBAD02E008C8C0
:10070000121F08C1002AFAD170477047002001E08B
:1007100001C1121F002AFBD17047000001201249BD
:100720008006086111490001C861FF211048AA3103
:1007300041604E2181600F48072101610E494161EE
:10074000FFF768FD0D490E488A698242FCD00D49C9
:1007500000200860BFF34F8F0C490B48C860BFF3FF
:100760004F8F00BFFDE70000001000484000004828
:100770000044004000E000E0DF2E0000000C0020FC
:100780005A5A5A5A00F001400400FA0500ED00E000
:10079000A0070000000000201C000000FC06000074
:1007A000000000000860000200800000000000005F
:0C07B0000000000000000000000000003D
:04000005000000DD1A
:00000001FF
