:020000040000FA
:10000000289D0020450100009D1C000035360000A1
:1000100057010000590100005B01000000000000D2
:10002000000000000000000000000000812B000024
:100030005F01000000000000A11E0000852B0000F1
:10004000650100000000000000000000A51E000087
:10005000311B0000650100000D1D0000111D000096
:10006000151D0000651D000000000000C91A0000F9
:100070000000000000000000000000000000000080
:100080000000000000000000D9190000000000007E
:100090000000000000000000000000000000000060
:1000A000292D00004D2D0000000000000000000080
:1000B000512D0000552D0000592D00006501000054
:1000C000000000000000000000000000792B00008C
:1000D0007D2B0000612D0000652D0000692D0000C2
:1000E0000000000000000000000000000000000010
:1000F0000000000000000000000000000000000000
:100100000000000065010000000000006501000023
:1001100000000000000000000000000000000000DF
:10012000000000005D2D00000000000065010000DF
:10013000DFF80CD001F028FC004800470D32000029
:10014000289D00200848804708480949016009485F
:100150000047FEE7FEE7FEE7FEE7FEE7FEE7FEE715
:10016000FEE7FEE7FEE70000A92B000000F80040D4
:10017000F000A5A5310100002DE9F04F4FF0000C73
:100180004FF0000301EB1C6EBEF90250BEF90040B7
:100190000EF5807EBEF90290BEF900800EF5807EDD
:1001A000BEF90270BEF900600EF5807EBEF902B0A5
:1001B000BEF900A00EF5807ED044D944A8EB4A0ACF
:1001C000A9EB4B0B4FEAA4044FEAA50504EBA604E8
:1001D00005EBA705A4EB6606A5EB670704EBA804EF
:1001E00005EBA905A4EB6808A5EB690906EBAB06CE
:1001F000A7EBAA07A6EB6B0B07EB6A0A458020F872
:10020000044B478020F8046BA0F8029020F8048B80
:10021000A0F802A020F804BB03F1010393FAA3FCA9
:10022000402BAFD1A0EB82014FF0100312090FF267
:10023000361000F1000006B403EB430C6144A2F554
:10024000803202EB8332B1F90250B1F90040A1EBE8
:100250000301B0F902B0B0F900A000F10400A5EB71
:10026000040E0EFB0BFC0AEB4B0E05FB0ACB04FB4A
:100270000ECAB1F90250B1F90040A1EB0301B0F987
:100280000290B0F9008000F10400A5EB040E0EFB13
:1002900009FC08EB490E05FB08C904FB0EC8B1F9BF
:1002A0000250B1F90040A1EB0301B0F90270B0F9BE
:1002B000006000F10400A5EB040E0EFB07FC06EB4A
:1002C000470E05FB06C704FB0EC6B1F90250B1F993
:1002D000004001F10001D044D944A8EB4A0AA9EB3F
:1002E0004B0B4FEAA4044FEAA50504EB264405EBAB
:1002F0002745A4EBE636A5EBE73704EB284405EBEE
:100300002945A4EBE838A5EBE93906EB2B46A7EB2A
:100310002A47A6EBEB3B07EBEA3A4D800C801944E9
:100320004F800E801944A1F80290A1F80080194472
:10033000A1F802A021F804BBB2F5803283DA03EB06
:10034000430C6144A2F101025FEA024E18BFA0EB28
:100350000C007FF476AF06BC4FEA830392087FF46B
:100360006AAFBDE8F08F0040000000400000004090
:1003700000005DDD213BA3227E180000412D7EA5FB
:10038000412D0000412D00C000405DDD82E75DDDB4
:10039000213B7EA5412D00400000004000000040B0
:1003A0000000AA2A94126B39460649327C0CA81127
:1003B0008E2349327C0CA3227E1821F77931AA2A98
:1003C0009412A8118E235DDD213BA3227E1800002C
:1003D000412D95C6B13F461A2B1E58EE3735BEB497
:1003E000C53EA8118E235DDD213B63A97138DF086E
:1003F0009A28B7CDC53E7EA5412D0000412D00C0F5
:10040000004063A92B1E21F77931BEB4C53EBEB4AE
:100410007C0C58EE373561AC213B95C6BAF9BAE58C
:1004200071383BA737355DDD82E75DDD213B7EA579
:10043000412D21F766D756D53F3D3BA78E23A81106
:10044000C9CAB7CDC53E61AC7E18AA2AC1C295C63D
:10045000B13FBEB47C0C00400000004000000040F2
:1004600000001E3BB504693E9201C83C2403EB35F5
:100470006409C83C24036B3946066C30060E1E3BEB
:10048000B504EB356409AA2A94126B394606493241
:100490007C0CAE240917AF37D607882E8D0F7E1E31
:1004A0005D1BEB356409AA2A941224188C1F1E3494
:1004B000F10AB3269015A8118E2349327C0CA32291
:1004C0007E18140B60276C30060E7E1E5D1B7104B7
:1004D000FB2A882E8D0F461A2B1EC7FD5A2E9D2CE7
:1004E0001211FE15E72021F77931AA2A9412A811DA
:1004F0008E2387F05334B2281314480D202602EAC5
:10050000E536B3269015DF089A289CE32B39AE24F4
:1005100009177104FB2A5DDD213BA3227E18000030
:10052000412D4ED7C53C9320EF198FFB6C2F78D10E
:10053000153E7E1E5D1B21F77931E2CB0F3F641C17
:10054000C61CB8F2683395C6B13F461A2B1E58EE4A
:10055000373597C1FB3F24188C1F02EAE536F0BC03
:10056000EC3FFE15E720BAE57138A6B8853FD513F4
:100570003D2282E1DB39BEB4C53EA8118E235DDD8C
:10058000213B40B1AF3D790FDA244DD9423C2EAE2C
:10059000423C480D202656D53F3D8EAB823A140B87
:1005A000602778D1153E63A97138DF089A28B7CD46
:1005B000C53EB1A71236A906CE2915CA4F3F78A667
:1005C00068337104FB2A95C6B13FBCA57630390269
:1005D000212C38C3EC3F7EA5412D0000412D00C0E9
:1005E0000040BCA5CE29C7FD5A2EF0BCEC3F78A632
:1005F00020268FFB6C2F09BAB13FB1A73D2257F9D6
:1006000076304DB74F3F63A92B1E21F77931BEB429
:10061000C53E8EABEF19ECF474325EB2153E2EAED1
:100620009015B8F268332DB03F3D40B1121187F0FC
:1006300053342EAE423CBEB47C0C58EE373561AC20
:10064000213BA6B8D6072BEC1236C8AADB39F0BC82
:10065000240302EAE53663A9713897C16EFEDCE730
:10066000B03734A8E53695C6BAF9BAE571383BA774
:100670003735E2CB0FF59CE32B3978A6683378D178
:1006800073F082E1DB39EDA579314ED7EDEB6DDF0B
:10069000823A99A56C2F5DDD82E75DDD213B7EA569
:1006A000412D9CE33AE352DBB63B99A5FB2A02EAD3
:1006B00019DF4DD9423CEDA59A2887F026DB4ED7AD
:1006C000C53C78A6202621F766D756D53F3D3BA7E7
:1006D0008E23C7FDDFD363D3AF3D34A8E720710479
:1006E00094D078D1153E63A92B1E140B8CCD94CFDA
:1006F000723EC8AA5D1BA811C9CAB7CDC53E61AC80
:100700007E18241850C8E2CB0F3F2EAE90157E1EE7
:1007100025C615CA4F3F2DB09412AE244AC451C805
:10072000853F5EB28D0FAA2AC1C295C6B13FBEB445
:100730007C0C6C308EC1E2C4D43F4DB76409EB35FC
:10074000B1C038C3EC3F09BA46061E3B2CC097C166
:10075000FB3FF0BC240300002DE9F04F4FF0000CEC
:100760004FF0000301EB9C5EBEF90250BEF9004061
:100770000EF5806EBEF90290BEF900800EF5806E17
:10078000BEF90270BEF900600EF5806EBEF902B0CF
:10079000BEF900A00EF5806ED044D944A8EB4A0AF9
:1007A000A9EB4B0B4FEAA4044FEAA50504EBA60402
:1007B00005EBA705A4EB6606A5EB670704EBA80409
:1007C00005EBA905A4EB6808A5EB690906EBAB06E8
:1007D000A7EBAA07A6EB6B0B07EB6A0A458020F88C
:1007E000044B478020F8046BA0F8029020F8048B9B
:1007F000A0F802A020F804BB03F1010393FAA3FCC4
:10080000B3F5807FAED1A0EB82014FF01003120947
:100810000FF2341000F1000006B403EB430C614406
:10082000A2F5803202EB8332B1F90250B1F90040F7
:10083000A1EB0301B0F902B0B0F900A000F104008F
:10084000A5EB040E0EFB0BFC0AEB4B0E05FB0ACBD3
:1008500004FB0ECAB1F90250B1F90040A1EB03014B
:10086000B0F90290B0F9008000F10400A5EB040E8D
:100870000EFB09FC08EB490E05FB08C904FB0EC87A
:10088000B1F90250B1F90040A1EB0301B0F90270D7
:10089000B0F9006000F10400A5EB040E0EFB07FCAC
:1008A00006EB470E05FB06C704FB0EC6B1F9025066
:1008B000B1F9004001F10001D044D944A8EB4A0A43
:1008C000A9EB4B0B4FEAA4044FEAA50504EB264421
:1008D00005EB2745A4EBE636A5EBE73704EB284408
:1008E00005EB2945A4EBE838A5EBE93906EB2B46E7
:1008F000A7EB2A47A6EBEB3B07EBEA3A4D800C80CF
:1009000019444F800E801944A1F80290A1F800808C
:100910001944A1F802A021F804BBB2F5803283DAB1
:1009200003EB430C6144A2F101025FEA024E18BFDF
:10093000A0EB0C007FF476AF06BC4FEA830392086D
:100940007FF46AAFBDE8F08F004000000040000077
:10095000004000005DDD213BA3227E180000412DF8
:100960007EA5412D0000412D00C000405DDD82E7E5
:100970005DDD213B7EA5412D0040000000400000D0
:1009800000400000AA2A94126B39460649327C0CBA
:10099000A8118E2349327C0CA3227E1821F77931CD
:1009A000AA2A9412A8118E235DDD213BA3227E1872
:1009B0000000412D95C6B13F461A2B1E58EE373523
:1009C000BEB4C53EA8118E235DDD213B63A97138FD
:1009D000DF089A28B7CDC53E7EA5412D0000412DE8
:1009E00000C0004063A92B1E21F77931BEB4C53E7B
:1009F000BEB47C0C58EE373561AC213B95C6BAF9D4
:100A0000BAE571383BA737355DDD82E75DDD213B17
:100A10007EA5412D21F766D756D53F3D3BA78E23B6
:100A2000A811C9CAB7CDC53E61AC7E18AA2AC1C2F9
:100A300095C6B13FBEB47C0C0040000000400000F1
:100A4000004000001E3BB504693E9201C83C2403EF
:100A5000EB356409C83C24036B3946066C30060E3E
:100A60001E3BB504EB356409AA2A94126B3946067D
:100A700049327C0CAE240917AF37D607882E8D0F6C
:100A80007E1E5D1BEB356409AA2A941224188C1F64
:100A90001E34F10AB3269015A8118E2349327C0C1E
:100AA000A3227E18140B60276C30060E7E1E5D1B81
:100AB0007104FB2A882E8D0F461A2B1EC7FD5A2E55
:100AC0009D2C1211FE15E72021F77931AA2A9412E4
:100AD000A8118E2387F05334B2281314480D202612
:100AE00002EAE536B3269015DF089A289CE32B39F5
:100AF000AE2409177104FB2A5DDD213BA3227E1879
:100B00000000412D4ED7C53C9320EF198FFB6C2F71
:100B100078D1153E7E1E5D1B21F77931E2CB0F3F68
:100B2000641CC61CB8F2683395C6B13F461A2B1E2A
:100B300058EE373597C1FB3F24188C1F02EAE53683
:100B4000F0BCEC3FFE15E720BAE57138A6B8853F4A
:100B5000D5133D2282E1DB39BEB4C53EA8118E23F8
:100B60005DDD213B40B1AF3D790FDA244DD9423CE8
:100B70002EAE423C480D202656D53F3D8EAB823AE4
:100B8000140B602778D1153E63A97138DF089A28C5
:100B9000B7CDC53EB1A71236A906CE2915CA4F3F1B
:100BA00078A668337104FB2A95C6B13FBCA57630A0
:100BB0003902212C38C3EC3F7EA5412D0000412D88
:100BC00000C00040BCA5CE29C7FD5A2EF0BCEC3FAA
:100BD00078A620268FFB6C2F09BAB13FB1A73D2222
:100BE00057F976304DB74F3F63A92B1E21F7793166
:100BF000BEB4C53E8EABEF19ECF474325EB2153E56
:100C00002EAE9015B8F268332DB03F3D40B11211B1
:100C100087F053342EAE423CBEB47C0C58EE3735D0
:100C200061AC213BA6B8D6072BEC1236C8AADB393B
:100C3000F0BC240302EAE53663A9713897C16EFE61
:100C4000DCE7B03734A8E53695C6BAF9BAE57138AD
:100C50003BA73735E2CB0FF59CE32B3978A66833F9
:100C600078D173F082E1DB39EDA579314ED7EDEB28
:100C70006DDF823A99A56C2F5DDD82E75DDD213B5A
:100C80007EA5412D9CE33AE352DBB63B99A5FB2AB6
:100C900002EA19DF4DD9423CEDA59A2887F026DB00
:100CA0004ED7C53C78A6202621F766D756D53F3DBE
:100CB0003BA78E23C7FDDFD363D3AF3D34A8E72026
:100CC000710494D078D1153E63A92B1E140B8CCDE2
:100CD00094CF723EC8AA5D1BA811C9CAB7CDC53E44
:100CE00061AC7E18241850C8E2CB0F3F2EAE901591
:100CF0007E1E25C615CA4F3F2DB09412AE244AC49D
:100D000051C8853F5EB28D0FAA2AC1C295C6B13FB8
:100D1000BEB47C0C6C308EC1E2C4D43F4DB76409C4
:100D2000EB35B1C038C3EC3F09BA46061E3B2CC0B8
:100D300097C1FB3FF0BC24030040000000400000CE
:100D400000400000D03E2E019B3F6500363FC900A9
:100D50009A3D5B02363FC900693E92015F3C8803C1
:100D6000D03E2E019A3D5B021E3BB504693E9201C6
:100D7000C83C2403D939E205023EF701F43BED03F8
:100D80008E380E079A3D5B021E3BB5043F3739088B
:100D9000313DC002463A7E05EB356409C83C240368
:100DA0006B39460692348E0A5F3C88038E380E07F4
:100DB0003433B70BF43BED03AF37D607D231DF0C3A
:100DC0008A3B5104CE369D086C30060E1E3BB5049E
:100DD000EB356409022F2B0FB23A1A0505352B0AA1
:100DE000932D5010463A7E051E34F10A212C7311C2
:100DF000D939E2053433B70BAA2A94126B39460667
:100E000049327C0C3129B413FD38AA065B31410DFF
:100E1000B327D2148E380E076C30060E3226EE152C
:100E20001F3872077B2FCA0EAE240917AF37D607BB
:100E3000882E8D0F262321183F373908932D501007
:100E40009C213719CE369D089D2C12110E204B1A6D
:100E50005D360109A42BD3117E1E5D1BEB356409A1
:100E6000AA2A9412EB1C6C1C7835C709AF295413BD
:100E7000561B791D05352B0AB2281314BE19841E82
:100E800092348E0AB327D21424188C1F1E34F10A10
:100E9000B326901588169120A933540BB1254C1612
:100EA000EA1493213433B70BAE2409174A13922264
:100EB000BF321A0CA923C417A8118E2349327C0C07
:100EC000A3227E1805108824D231DF0C9C2137190B
:100ED000610E7E255B31410D9320EF19BB0C71260D
:100EE000E430A40D891FA71A140B60276C30060E7E
:100EF0007E1E5D1B6D094C28F42F680E721D121C9E
:100F0000C40735297B2FCA0E641CC61C1B061A2A6F
:100F1000022F2B0F561B791D7104FB2A882E8D0F73
:100F2000461A2B1EC702D82B0E2EEE0F3519DC1ECB
:100F30001C01B22C932D501024188C1F72FF882D89
:100F4000182DB11011173A20C7FD5A2E9D2C1211E1
:100F5000FE15E7201DFC282F212C7311EA14932184
:100F600073FAF22FA42BD311D5133D22CAF8B8304F
:100F7000282B3412BF12E72221F77931AA2A9412C2
:100F8000A8118E2379F536322D2AF41291103524CA
:100F9000D2F3EF32AF295413790FDA242CF2A333B2
:100FA0003129B413610E7E2587F05334B22813140F
:100FB000480D2026E3EEFF34332873142E0CC1268F
:100FC00041EDA535B327D214140B6027A1EB4836A9
:100FD00033273115FA09FE2702EAE536B3269015C4
:100FE000DF089A2865E87E373226EE15C4073529D2
:100FF000CBE61238B1254C16A906CE2932E5A13828
:101000002F25AB168D05652A9CE32B39AE240917D5
:101010007104FB2A08E2B0392B24661755038F2B85
:1010200077E0303AA923C4173902212CE9DEAB3A24
:10103000262321181C01B22C5DDD213BA3227E1842
:101040000000412DD5DB923B1F22DB18E4FECF2DA3
:101050004FDAFD3B9C213719C7FD5A2ECDD8643C91
:1010600017219319ABFCE42E4ED7C53C9320EF1902
:101070008FFB6C2FD3D5213D0E204B1A73FAF22F24
:101080005CD4783D891FA71A57F97630E8D2C93D5C
:10109000041F021B3CF8F93078D1153E7E1E5D1B03
:1010A00021F779310CD05C3EF81DB81B06F6F831FB
:1010B000A5CE9D3E721D121CECF4743241CDD83E7B
:1010C000EB1C6C1CD2F3EF32E2CB0F3F641CC61C4E
:1010D000B8F2683388CA403FDD1B201D9FF1DF3323
:1010E00032C96B3F561B791D87F05334E1C7913FDE
:1010F000CE1AD31D6FEFC63495C6B13F461A2B1ECC
:1011000058EE37354EC5CC3FBE19841E41EDA5358E
:101110000CC4E13F3519DC1E2BEC1236CFC2F13F77
:10112000AD18341F16EB7D3697C1FB3F24188C1F7A
:1011300002EAE53665C000409B17E31FEFE84B3736
:1011400038BFFF3F11173A20DCE7B03711BEF83F38
:1011500088169120CBE61238F0BCEC3FFE15E72054
:10116000BAE57138D4BBDB3F74153D21AAE4CF3812
:10117000BFBAC43FEA1493219CE32B39AFB9A73F10
:101180005F14E8218EE28439A6B8853FD5133D224D
:1011900082E1DB39A2B75D3F4A13922277E0303A11
:1011A000A5B6303FBF12E7226DDF823AAFB5FD3EF4
:1011B00034123B2364DED33ABEB4C53EA8118E235D
:1011C0005DDD213BD5B3883E1D11E22357DC6D3B2D
:1011D000F2B2453E9110352452DBB63B15B2FC3DD0
:1011E000051088244FDAFD3B40B1AF3D790FDA247A
:1011F0004DD9423C71B05B3DED0E2C254DD8853C60
:10120000A9AF033D610E7E254ED7C53CE8AEA53C97
:10121000D40DCF2551D6033D2EAE423C480D20269D
:1012200056D53F3D7BADDA3BBB0C71265CD4783D97
:10123000D0AC6D3B2E0CC12663D3AF3D2BACFA3A3C
:10124000A10B11276DD2E33D8EAB823A140B6027C0
:1012500078D1153EF8AA063A870AAF2785D0453ED1
:101260006AAA8439FA09FE2794CF723EE3A9FD38B1
:101270006D094C28A5CE9D3E63A97138DF089A28D8
:10128000B7CDC53EEBA8E1375208E728CCCCEB3E02
:101290007BA84B37C4073529E2CB0F3F12A8B136E4
:1012A00036078129FBCA303FB1A71236A906CE29DD
:1012B00015CA4F3F57A76E351B061A2A32C96B3F16
:1012C00005A7C6348D05652A51C8853FBBA61934CC
:1012D000FF04B02A72C79C3F78A668337104FB2ACA
:1012E00095C6B13F3EA6B232E303452BBAC5C43F13
:1012F0000BA6F83155038F2BE2C4D43FE0A539315A
:10130000C702D82B0CC4E13FBCA576303902212C92
:1013100038C3EC3FA1A5AF2FAA016A2C66C2F53FE6
:101320008DA5E42E1C01B22C97C1FB3F81A5152E83
:101330008E00FA2CCAC0FF3F7EA5412D0000412D32
:1013400000C0004081A56A2C72FF882D38BFFF3F86
:101350008DA58F2BE4FECF2D73BEFB3FA1A5B02A38
:1013600056FE152EB0BDF53FBCA5CE29C7FD5A2EA1
:10137000F0BCEC3FE0A5E72839FD9F2E32BCE13FF1
:101380000BA6FE27ABFCE42E77BBD43F3EA611276D
:101390001DFC282FBFBAC43F78A620268FFB6C2FD8
:1013A00009BAB13FBBA62C2501FBAF2F56B99C3F14
:1013B00005A7352473FAF22FA6B8853F57A73B231C
:1013C000E5F93430F8B76B3FB1A73D2257F97630D5
:1013D0004DB74F3F12A83D21CAF8B830A5B6303FEF
:1013E0007BA83A203CF8F93000B60F3FEBA8341F39
:1013F000AEF739315EB5EB3E63A92B1E21F779318B
:10140000BEB4C53EE3A9201D93F6B93122B49D3E7A
:101410006AAA121C06F6F83188B3723EF8AA021BBB
:1014200079F53632F2B2453E8EABEF19ECF47432F8
:101430005EB2153E2BACDB185FF4B232CDB1E33DAA
:10144000D0ACC417D2F3EF3240B1AF3D7BADAB1699
:1014500045F32C33B5B0783D2EAE9015B8F2683315
:101460002DB03F3DE8AE73142CF2A333A9AF033D7A
:10147000A9AF54139FF1DF3328AFC53C71B03412CC
:1014800013F11934A9AE853C40B1121187F05334E1
:101490002EAE423C15B2EE0FFBEF8D34B6ADFD3BE8
:1014A000F2B2CA0E6FEFC63441ADB63BD5B3A40D50
:1014B000E3EEFF34D0AC6D3BBEB47C0C58EE373558
:1014C00061AC213BAFB5540BCCED6E35F6ABD33AE6
:1014D000A5B62B0A41EDA5358EAB823AA2B701091C
:1014E000B6ECDC3529AB303AA6B8D6072BEC123671
:1014F000C8AADB39AFB9AA06A1EB48366AAA843973
:10150000BFBA7E0516EB7D360FAA2B39D4BB51042A
:101510008CEAB136B7A9CF38F0BC240302EAE5362D
:1015200063A9713811BEF70178E9183712A912388A
:1015300038BFC900EFE84B37C5A8B03765C09BFF7F
:1015400065E87E377BA84B3797C16EFEDCE7B03786
:1015500034A8E536CFC240FD53E7E137F1A77D3629
:101560000CC413FCCBE61238B1A712364EC5E6FA0E
:1015700042E6423874A7A53595C6BAF9BAE571387E
:101580003BA73735E1C78EF832E5A13805A7C63449
:1015900032C963F7AAE4CF38D3A6533488CA39F6E0
:1015A00023E4FD38A4A6DF33E2CB0FF59CE32B390F
:1015B00078A6683341CDE6F315E3583950A6EF32EB
:1015C000A5CEBFF28EE284392CA674320CD098F1ED
:1015D00008E2B0390BA6F83178D173F082E1DB393B
:1015E000EDA57931E8D24FEFFCE0063AD3A5F9300A
:1015F0005CD42DEE77E0303ABCA57630D3D50CED37
:10160000F2DF593AA9A5F22F4ED7EDEB6DDF823A02
:1016100099A56C2FCDD8CFEAE9DEAB3A8DA5E42EA3
:101620004FDAB4E964DED33A85A55A2ED5DB9AE8C1
:10163000E1DDFA3A7FA5CF2D5DDD82E75DDD213B5F
:101640007EA5412DE9DE6DE6DADC473B7FA5B22CB5
:1016500077E059E557DC6D3B85A5212C08E248E48D
:10166000D5DB923B8DA58F2B9CE33AE352DBB63B57
:1016700099A5FB2A32E52DE2D1DADA3BA9A5652A44
:10168000CBE624E14FDAFD3BBCA5CE2965E81DE0A1
:10169000CED9203CD3A5352902EA19DF4DD9423CE9
:1016A000EDA59A28A1EB18DECDD8643C0BA6FE2749
:1016B00041ED19DD4DD8853C2CA66027E3EE1EDCFC
:1016C000CDD7A53C50A6C12687F026DB4ED7C53C1A
:1016D00078A620262CF231DACFD6E43CA4A67E25CB
:1016E000D2F33FD951D6033DD3A6DA2479F551D8A8
:1016F000D3D5213D05A7352421F766D756D53F3DE3
:101700003BA78E23CAF87FD6D8D45B3D74A7E722C7
:1017100073FA9BD55CD4783DB1A73D221DFCBBD4A8
:10172000DFD3933DF1A79321C7FDDFD363D3AF3D53
:1017300034A8E72072FF06D3E8D2C93D7BA83A203F
:101740001C0131D26DD2E33DC5A88C1FC70261D107
:10175000F2D1FC3D12A9DC1E710494D078D1153E63
:1017600063A92B1E1B06CCCFFED02D3EB7A9791D39
:10177000C40707CF85D0453E0FAAC61C6D0947CECA
:101780000CD05C3E6AAA121C140B8CCD94CF723E16
:10179000C8AA5D1BBB0CD4CC1CCF883E29ABA71AB2
:1017A000610E21CCA5CE9D3E8EABEF19051073CBFB
:1017B0002ECEB13EF6AB3719A811C9CAB7CDC53E7A
:1017C00061AC7E184A1324CA41CDD83ED0ACC417B0
:1017D000EA1483C9CCCCEB3E41AD09178816E8C8A2
:1017E00057CCFD3EB6AD4C16241850C8E2CB0F3F87
:1017F0002EAE9015BE19BEC76ECB203FA9AED21437
:10180000561B31C7FBCA303F28AF1314EB1CA8C6C8
:1018100088CA403FA9AF54137E1E25C615CA4F3F44
:101820002DB094120E20A7C5A3C95D3FB5B0D3114A
:101830009C212DC532C96B3F40B112112623B9C47A
:10184000C1C8783FCDB15010AE244AC451C8853FBD
:101850005EB28D0F3226E0C3E1C7913FF2B2CA0EED
:10186000B3277BC372C79C3F88B3060E31291CC3C4
:1018700003C7A73F22B4410DAA2AC1C295C6B13FF2
:10188000BEB47C0C212C6DC227C6BB3F5EB5B70B26
:10189000932D1DC2BAC5C43F00B6F10A022FD3C1B1
:1018A0004EC5CC3FA5B62B0A6C308EC1E2C4D43FE6
:1018B0004DB76409D2314FC176C4DB3FF8B79D08FC
:1018C000343315C10CC4E13FA6B8D6079234E0C04A
:1018D000A1C3E73F56B90E07EB35B1C038C3EC3FA3
:1018E00009BA46063F3788C0CFC2F13FBFBA7E056E
:1018F0008E3864C066C2F53F77BBB504D93945C0A0
:10190000FEC1F83F32BCED031E3B2CC097C1FB3F2C
:10191000F0BC24035F3C19C030C1FD3FB0BD5B0289
:101920009A3D0BC0CAC0FF3F73BE9201D03E03C0B8
:1019300065C0004038BFC90040EA01039B0703D0DF
:1019400009E008C9121F08C0042AFAD203E011F8FE
:10195000013B00F8013B521EF9D2704730B50B46EF
:10196000014600202022012409E021FA02F59D42CF
:1019700005D303FA02F5491B04FA02F52844151EA3
:10198000A2F10102F1DC30BD064C074D06E0E06833
:1019900040F0010394E8070098471034AC42F6D3B6
:1019A000FEF7CAFB8C380000AC380000026822F455
:1019B000F872026002680A4302600909012202FA11
:1019C00001F14161704700000268002922F0010224
:1019D00018BF0132026070477047000010B50268FE
:1019E000D1E900C322F0FC02D1E902E41A43224308
:1019F000026042684FF607739A43097C42EA0C0280
:101A0000114341EA0E2141602109012202FA01F14C
:101A1000416110BD016841F00201016070470000A2
:101A20004FF20C024001C4F200021358002923F4C3
:101A300080431350135823F4804318BF03F58043A9
:101A4000135070474FF20C024001C4F200021358C9
:101A5000002923F001031350135823F0010318BF8A
:101A60000133135070470000B0B54FF2000CC4F2C0
:101A7000000CD1E90032D1E902454FEA401E0CEBDF
:101A800040104CF80E3042608460C268D1E90434E2
:101A900022F4CF7242EAC502896942EAC31242EADD
:101AA000440242EA8101C160B0BD00004FF20C0265
:101AB0004001C4F20002135823F40053135013588A
:101AC00019431150704700007047000080B54FF275
:101AD0008C03C4F20003C0004FF01F0CD3F800E0E9
:101AE0000CFA00F22EEA02021A601A6801FA00F0FB
:101AF0001043186080BD00004EF6FC51CEF200018C
:101B00000A6842F080720A6041F20001CEF20001E0
:101B10000A6842F001020A6040F27001C2F200015C
:101B20000860704741F20400CEF200000068704780
:101B300070470000816370472023002A08BF2423D8
:101B4000C15070470B79D1F800C05A1E022A09D241
:101B5000022BC0F810C014BF48304430C0F800C099
:101B6000704700BF032B03D11430C0F800C070478A
:101B7000C0F814C0497902290AD001290ED00029E1
:101B800018BF7047C0F850C04030C0F800C0704760
:101B9000C0F84CC04030C0F800C07047C0F83CC02E
:101BA0005030C0F800C070474900836902FA01F163
:101BB00019438161704700004268114341607047DA
:101BC000042A88BF7047DFE802F003070B0D1100FD
:101BD00081620163C160704781624163C160704787
:101BE00081607047C1620163C1607047C162416337
:101BF000C16070474EF62C52CEF200021168B1F16E
:101C0000FF3F43DD52F8083C40F22C01C2F20001D4
:101C10004B6212F8043C81F8283012F8033CCB6286
:101C2000D3680B6332F8023C8B8613688B6353686E
:101C3000CB6312690A6400220A6000BF0A6832B9E5
:101C40000A6822B90A6812B90A68002AF6D002683E
:101C50004A6042688A608268CA60C2680A61026932
:101C60004A6142698A618269CA61C069086200206A
:101C7000086000BF086880B9086870B9086860B972
:101C80000868002818BF7047F4E700BF116841F0EA
:101C90000041116081690231816170477047000025
:101CA00010B5817802784EF2004CCEF2000C09B3E8
:101CB00093081CF803E04478182101EAC201FF22CE
:101CC000A4018A40E4B22EEA020204FA01F11143AF
:101CD0000CF803100078012200F01F0102FA01F154
:101CE000C0F342104FF600520CEB8000CFF6FF72AB
:101CF000815010BD02F01F00012101FA00F04FF6E3
:101D00008051CFF6FF714CF8010010BD7047000004
:101D10007047000010B542F20004C4F201042046EE
:101D20004FF48061FFF706FF20464FF40061FFF794
:101D300001FF05A1002000F005FA40F21400C2F2F4
:101D400000000121016010BD757365722062757419
:101D5000746F6E20707265737365642121210D0AA2
:101D600000000000704700000A8802628A78CB7881
:101D700091F804C04979426041EA0C010361C161F4
:101D800070470000826C22F000721143816470473A
:101D9000826C002922F0807218BF02F18072826486
:101DA00070470000016070474268012922F001027B
:101DB00008BF0132426070470068084018BF012028
:101DC000704700007F2915DC102988BF7047012368
:101DD00003FA01FC40F21613C0F201031CEA030FE0
:101DE00007D0002AC3690CBF8B430B430829C3618A
:101DF0001AD07047B1F5004F06DA802914D0B1F53A
:101E0000006F11D0F5E700BF0ED0B1F1806FF0D1B7
:101E1000816C002A1EBF41F080618164704721F00F
:101E200080618164704700BF002A426B14BF114378
:101E300022EA010141637047B0B50A78032A11D83C
:101E4000DFE802F002060A0E8B8943620AE000BF57
:101E50008B89836206E000BF8B89C36202E000BF0A
:101E60008B8903634FEA820E07234FF4881403FA29
:101E70000EF39440D0F848C023434C782CEA030575
:101E800004FA0EFCD1E90143944003FA02F244EA59
:101E9000050343EA0C031A438264897BC164B0BD25
:101EA000704700007047000040F27800C2F2000066
:101EB00003210161416143F6820140F22012C0F228
:101EC0000001C2F200028161C2614FF480620262CD
:101ED000002282624262C262016640F21801C2F2CE
:101EE0000001013141661021816645F25241C0F284
:101EF00054010267C2664267C0F8071044F24751B6
:101F0000C0F25201C0F8031044F25351C4F24771B9
:101F1000016020218171704710B540F2780EC2F245
:101F2000000E9EF800308C46002B42D10321CEF8E3
:101F30001010CEF8141043F6820140F22013C0F2C4
:101F40000001C2F20003CEF81810CEF81C304FF496
:101F50008063CEF820300023CEF82830CEF824302D
:101F6000CEF82C30CEF8601040F21801C2F2000119
:101F70000131CEF864101021CEF8681045F25241BC
:101F8000C0F25401CEF87030CEF86C30CEF8743018
:101F9000CEF8071044F24751C0F25201CEF80310B8
:101FA00044F25351C4F24771CEF8001020218EF84C
:101FB0000610EFF311844FF0200181F31188614680
:101FC00000F004F884F3118810BD00002DE9F04FF3
:101FD00081B040F2780300EB4000C2F2000303EB53
:101FE000C006F06A14460228894611D0012845D05F
:101FF00048B9354655F8247F6868B84276D9F94320
:102000000844A04279D20026304601B0BDE8F08FE6
:1020100056F8245F301DA6F1040BB246A6F108085D
:102020000026009020E000BFDBF80000EA431144E6
:102030000144471BB94238BF0F46D8F80000A742F9
:1020400028BF2746284449463A46FFF775FCDBF887
:1020500000007919E41B0D1A3E44B94418BF0D461F
:10206000002CCAF8005057D000980168A942DBD96B
:10207000EA43DBF800001144DBE700BFB04658F844
:10208000247FD8F80410B94204D9FA43306A1144C5
:1020900004E000BF306AFA4311440144A14238BF52
:1020A0000C46C51B56F81C0FAC4238440CD24946AE
:1020B0002246FFF741FCE019C8F8000026463046EA
:1020C00001B0BDE8F08F00BF49462A46FFF734FC57
:1020D000671B306809EB05013A46FFF72DFCC8F88D
:1020E00000702646304601B0BDE8F08F316AFA43F1
:1020F00010440844A042FFF486AF56F81C0F7168E4
:102100003844A1EB0708A0450AD949462246FFF703
:1021100013FC381928602646304601B0BDE8F08F20
:1021200049464246FFF708FCA4EB0807306809EB74
:1021300008013A46FFF700FC2F602646304601B002
:10214000BDE8F08F82B080B582B0CDE9042304AA47
:10215000019201AA00F006F802B0BDE8804002B08A
:10216000704700002DE9F04F9DB0164608AA41F2D5
:10217000597918924022002505901C900DF1600BB2
:10218000CDF2B71900200C461992CDE91A550796E1
:102190000CE000BF3B46CDF8048000F055FEA3E103
:1021A0001B982146B0F1FF3F40F3CE8414F8013B69
:1021B000252B1BD0002B00F0AF84DDE91920411C3A
:1021C000914207D8189A13541B98199A01301B9002
:1021D00008461A919042E3D118991C98FFF79CFE8B
:1021E0001A99884240F0A4841A95D9E701F1020AAD
:1021F0004FF000081AF8011CA1F123030D2B00F287
:102200005F800222DFE803F0085C5C5C5C5C5C5C85
:102210000A5C0C5C5C0D00BF082202E0042200E0B6
:1022200001229AF8001048EA0208A1F123030D2BBD
:1022300000F286800222DFE803F007838383838332
:10224000838309830B83830C082202E0042200E0CD
:1022500001229AF8011048EA0208A1F123030D2B8C
:1022600000F26C800222DFE803F00769696969699E
:10227000696909690B69690C082202E0042200E01F
:1022800001229AF8021048EA0208A1F123030D2B5B
:1022900000F262800222DFE803F00F5F5F5F5F5FA2
:1022A0005F5F115F0D5F5F0748EA02080AF1040AE9
:1022B000A0E700BF0122F7E70822F5E70422F3E7D1
:1022C000AAF1010AA1F13002092A3DD80AF1020A55
:1022D000002200BF02EB820201EB42021AF8011C4D
:1022E000303AA1F13003092B3ED802EB820201EB18
:1022F00042029AF80010303AA1F13003092B35D888
:1023000002EB820201EB42029AF80110303AA1F18D
:102310003003092B76D802EB820201EB42029AF8D5
:102320000210303AA1F13003092B0AF1040AD1D985
:10233000AAF1020A2E291BD009E000BF0AF1010A06
:10234000A1F13002092AC1D900222E2910D000277C
:102350002539532968D9C7E00AF1020AA1F13002F0
:10236000092AF1D8B2E700BFAAF1010A2E29EED15D
:10237000534613F8011FA1F13007092F06D9002792
:102380009A46253953294FD9AEE000BF0AF1020A17
:10239000002700BF07EB870301EB43039AF8001007
:1023A000A1F13007092FA3F1300739D807EB8703D4
:1023B00001EB43039AF80110A1F13007092FA3F1B3
:1023C000300725D807EB870301EB43039AF8021087
:1023D000A1F13007092FA3F130071FD807EB8703BE
:1023E00001EB43039AF80310A3F13007A1F1300386
:1023F000092B0AF1040ACDD9AAF1010A253953297A
:1024000012D971E00AF1010A2E29B1D09FE700BF6D
:102410000AF1010A2539532906D965E00AF1020AB1
:102420002539532900F26080DFE811F0AC015E002D
:102430005E005E005E005E005E005E005E005E00AC
:102440005E005E005E005E005E005E005E005E009C
:102450005E005E005E005E005E005E005E005E008C
:102460005E005E005E005E005E005E005E005E007C
:102470005E005E005E005E005E005E005E005E006C
:102480005E005E005E005E005E005E005E005E005C
:102490005E0054005E005E005E005E005E005E0056
:1024A0005E005E005E005E00DC01FC015E005E001E
:1024B0005E0062005E005E005E0062005E005E0024
:1024C0005E00A4025E005E00B2025E00E0025E00FA
:1024D0005E005400FFE73068011D31600168009222
:1024E0005846102256E600BF0AF1010458E600BF24
:1024F0009AF801102539532900F22A81DFE811F0FA
:10250000200128012801280128012801280128018B
:102510002801280128012801280128012801280173
:102520002801280128012801280128012801280163
:102530002801280128012801280128012801280153
:102540002801280128012801280128012801280143
:102550002801280128012801280128012801280133
:1025600028012801280154002801280128012801F8
:102570002801280128012801280128012C01300107
:1025800028012801280158002801280128015800A5
:1025900028012801280134012801280138012801D7
:1025A0003C012801280154000AF1010A93E700BF09
:1025B0009AF802102539532900F2EE80DFE811F075
:1025C000E000EC00EC00EC00EC00EC00EC00EC00B7
:1025D000EC00EC00EC00EC00EC00EC00EC00EC009B
:1025E000EC00EC00EC00EC00EC00EC00EC00EC008B
:1025F000EC00EC00EC00EC00EC00EC00EC00EC007B
:10260000EC00EC00EC00EC00EC00EC00EC00EC006A
:10261000EC00EC00EC00EC00EC00EC00EC00EC005A
:10262000EC00EC00EC00B800EC00EC00EC00EC007E
:10263000EC00EC00EC00EC00EC00EC00F000F4002E
:10264000EC00EC00EC005400EC00EC00EC0054005A
:10265000EC00EC00EC00F800EC00EC00FC00EC00FE
:102660000001EC00EC00B8009AF80310253953295A
:1026700000F2B280DFE811F0A800B000B000B000B6
:10268000B000B000B000B000B000B000B000B000CA
:10269000B000B000B000B000B000B000B000B000BA
:1026A000B000B000B000B000B000B000B000B000AA
:1026B000B000B000B000B000B000B000B000B0009A
:1026C000B000B000B000B000B000B000B000B0008A
:1026D000B000B000B000B000B000B000B0006000CA
:1026E000B000B000B000B000B000B000B000B0006A
:1026F000B000B000B400D400B000B000B00054008E
:10270000B000B000B0005400B000B000B0007C01D8
:10271000B000B0008A01B000B801B000B0006000A5
:102720001AF8041F253953297FF67EAEDCE600BF78
:102730000AF1020ACFE600BF0AF1030ACBE600BFA6
:102740000AF1010ADDE91920411C91421FD95AE022
:102750000AF1010AC8E600BF0AF1010A42E000BF1F
:102760000AF1010A5EE000BF0AF1010A02E100BFBE
:102770000AF1010A0CE100BF0AF1010A36E100BFCB
:102780000AF1020ADDE91920411C91423BD8189A4E
:102790002523135431E000BF0AF1020AA4E600BF6A
:1027A0000AF1020A1EE000BF0AF1020A3AE000BF85
:1027B0000AF1020ADEE000BF0AF1020AE8E000BF07
:1027C0000AF1020A12E100BF0AF1030ADDE9192049
:1027D000411C9142DBD916E00AF1030A84E600BFEE
:1027E0000AF1030ADDE919203368411C1F1D9142DB
:1027F000376008D81A68189B1A541B98199A013028
:102800001B9008461A9190427FF46EAE18991C985E
:10281000FFF782FB1A99884240F0E2801A9563E63E
:102820000AF1030A31680B1D33600C68002C214645
:10283000C4F1000348BF19460A2906931CD34FF080
:10284000020B42F2107500BF632917D9B1F57A7FE8
:10285000C0F03E81A942C0F03F81A1FB093648F299
:102860009F63C0F2010399424FEA56310BF1040B0A
:10287000EAD8ABF1010B01E04FF0010BBB454FF083
:10288000000538BFBB466AB10021002C48BF0121BA
:1028900008F0040341EA9301A2EB010918F00206D3
:1028A00005D12FE04FF0000918F002062AD04FBBE7
:1028B000002800F12281B4F1FF3F40F3A1805FEADC
:1028C000487040F1B680DDE91920411C914208D8DA
:1028D000189A2B2313541B98199A01301B90084601
:1028E0001A91904240F0A58018991C98FFF714FBAC
:1028F0001A99884240F0FE801A951B98002840F1F2
:102900009B80FAE05FEAC871D2D1B9F1000FCFD055
:1029100059460496D94538BF494609F1010641F2A6
:1029200059790025CDF2B719039104E01B981A9547
:10293000002800F1B880013EB34580F0D180DDE988
:1029400019214B1C934208D81898202242541B98F6
:10295000199A013019461A931B909142E8D118999F
:102960001C98FFF7D9FA1A998842DFD098E000BF87
:102970000AF1030A30681022011D31600168082045
:102980000090584608230195FFF707BC0AF1030A97
:1029900031680A1D32600C6808E000BF1B981A9568
:1029A000B0F1FF3F04F101047FF79EAD2778002FBF
:1029B0003FF49AADDDE919214B1C934207D81898D2
:1029C00047541B98199A013019461A931B9091424B
:1029D000E6D118991C98FFF79FFA1A998842DDD022
:1029E0004FF0FF301B907FE50AF1030A3068011DAC
:1029F00031600168009258460A22FFF7CBBB00BF46
:102A0000DDE91920411C914208D8189A2D2313544E
:102A10001B98199A01301B9008461A91904263D175
:102A200018991C98FFF778FA1A99884262D1069C87
:102A30001A951B98002860D4D6B308F001013943D9
:102A400036D1B9F1000F33D006945C46D94538BF72
:102A50004C4609F1010641F259790025CDF2B7192A
:102A600004E000BF1B981A9500281CD4013EB34512
:102A70004ED2DDE919214B1C934208D81898302218
:102A800042541B98199A013019461A931B9091428F
:102A9000EAD118991C98FFF73FFA1A998842E1D0B9
:102AA0004FF0FF301B90079E0DF1600BFFF71CBD30
:102AB000079E0DF1600B584621460A223B46CDF891
:102AC0000090CDF8048000F0BFF9002519E000BFA8
:102AD0000BF1010BD2E600BF0BF1020BCEE600BFFB
:102AE000DDE903960025E3E6069C1B980028A3D5A4
:102AF00003E000BF4FF0FF301B90079E00250DF153
:102B0000600B41F25979CDF2B719FFF7EDBC00BF68
:102B1000A146079E069CCCE701280FDB1A9A8AB1D2
:102B2000059808A9FFF7F8F9DDE91A100BE000BFD6
:102B30004FF0FF301DB0BDE8F08F00BF00201DB08A
:102B4000BDE8F08F002108441DB0BDE8F08F000003
:102B500044F61041C4F200010A68120509D50A685A
:102B6000120544BF0A685FEA025202D50A681205DC
:102B7000F2D441F8100C7047704700007047000015
:102B80007047000040F27400C2F20000016811B109
:102B900001680139016040F21000C2F200000168D2
:102BA000013101607047000080B583B045F6100028
:102BB000C4F20000816A41F20C0E21F00101816231
:102BC000426AC4F2020E22F001024262DEF80020E4
:102BD00043F2006322F04002CEF8002040F20802E7
:102BE000C2F20002C0F26E1313604AF21802C0F281
:102BF0000102426040F611520260026842F0100287
:102C0000026000BF0268B2F1FF3F09DD01680029E0
:102C100006D40168002903D40168B1F1FF3FF1DC5B
:102C20004FF60002F023C4F20002CAF2A5534FF09F
:102C3000000C1360CDF800C0009B43F68002C0F288
:102C40000102934218DA00BF009B01330093009BFE
:102C5000934211DA009901310091009991420BDA07
:102C60000099013100910099914205DA00990131F2
:102C7000009100999142E7DBDEF800304FF6FC71DD
:102C800019400231CEF80010CDF808C002999142E7
:102C900018DA00BF0299013102910299914211DACA
:102CA000029901310291029991420BDA02990131A4
:102CB00002910299914205DA029901310291029939
:102CC0009142E7DBDEF800104FF67F4341F480616C
:102CD000CEF80010DEF800101940CEF800100021E8
:102CE00001910199914217DA0199013101910199FC
:102CF000914211DA019901310191019991420BDA66
:102D00000199013101910199914205DA019901314D
:102D1000019101999142E7DB50F8081C41F0010153
:102D200040F8081C03B080BD10B541F20004C4F2A5
:102D3000000420461021FFF73FF8002808BF10BD0F
:102D400020461021BDE81040FFF72CB87047000066
:102D50007047000070470000704700007047000097
:102D6000704700007047000044F60040C4F20000C5
:102D7000026802A10020FFF7E5B900BF7265763A4C
:102D8000203078253032580D0A00000042680029B2
:102D900022F0800218BF803242607047002AC26869
:102DA0000CBF22EA01011143C160704780B54FF6A4
:102DB000FF7202624FF0FF32C261B1F804C0CB88EB
:102DC0000A8943EA0C031A4342600A8A4368002ACC
:102DD00023F4807318BF03F580734360D1F800C0FB
:102DE000CA68D1F814E00CFB02F3BEFBF3F101FB5F
:102DF00013EE530803FB0CF39E4588BF013189B2E3
:102E0000042A81600CD0082A14D0102A18BF80BD73
:102E1000816821F4403181608168816080BD00BF9C
:102E2000816821F440318160816841F480318160A2
:102E300080BD00BF816821F440318160816841F428
:102E40000031816080BD00002DE9F04F83B08B46DA
:102E5000DDE90C911F4615469345044602D24FF01A
:102E600001081FE04FF00208584600BFB0FBF5F024
:102E7000A84217D3B0FBF5F0A8420DD3B0FBF5F094
:102E8000A8420DD3B0FBF5F008F10408A842EDD23A
:102E9000A8F1010806E000BF08F1010802E000BF48
:102EA00008F10208B84538BFB846B9F1000F01F083
:102EB0000100029035D0A0BB88074FF020064FF0EC
:102EC000200048BF3026002F18BF064640464FF06E
:102ED000000AC84588BF4846019005E0C4F808A02C
:102EE000E068B0F1FF3F1CDDC8456FD2D4E9012096
:102EF000411C914207D822681654E068626801308C
:102F0000E0600846A1609042A9F10109E8D121687A
:102F10002069FFF701F8A1688842DFD04FF0FF3049
:102F2000E060E068002860D4012601E0013F6E43C4
:102F3000022F01D3013F03E0BBFBF6F1A9421BD3F3
:102F4000012F05FB06F601D9013F03E0BBFBF6F1BB
:102F5000A94211D3012F05FB06F601D9013F03E079
:102F6000BBFBF6F1A94207D3012F05FB06F6DDD81E
:102F7000BBFBF6F1A942DAD2A1680FF2C80A00BF82
:102F80006268BBFBF6F74B1C934209D81AF807009E
:102F900022685054E068626801301946A360E0601E
:102FA000914209D121682069FEF7B6FFA1688842E5
:102FB00012D1E0680021A160002810D4B6FBF5F220
:102FC00007FB16BBAE421646DAD208E0DDF80490E5
:102FD000E0680028A8D508E04FF0FF30E060029AD2
:102FE000002A18BFB9F1000F02D103B0BDE8F08F7D
:102FF00009F10105202602E0B0F1FF3FF5DD013DBA
:10300000A845F2D262684B1C934207D82068465408
:10301000E068626801301946A360E0609142EBD13C
:1030200021682069FEF778FFA168884204D1E06832
:103030000021A160E0E700BF4FF0FF30E06003B087
:10304000BDE8F08F303132333435363738394142CC
:10305000434445462DE9F04140F21008C2F2000811
:10306000D8F80400002800F0C180002460A0C8F84F
:10307000044000F0B3FB40F22050C2F200007C306C
:10308000611CA21C40E91F41A0F17401E31C261D34
:10309000651DA71D04F1070C4CC1A0F1680181E872
:1030A000A01004F1080104F1090204F10A0304F17B
:1030B0000B0704F10C0604F10D0504F10E0C04F1EC
:1030C0000F0E40F85C1C40F8582C40F8543C40F877
:1030D000507C40E9136540E911CE04F1100104F180
:1030E000110204F1120304F1130704F1140604F1B0
:1030F000150504F1160C04F1170E40F83C1C40F8BD
:10310000382C40F8343C40F8307C40E90B6540E90D
:1031100009CE04F1180104F1190204F11A0304F1B3
:103120001B0704F11C0604F11D0504F11E0C04F13B
:103130001F0E203440F81C1C40F8182C40F8143C9A
:1031400040F8107C40E9036540F804CCC0F800E08A
:10315000B4F5806F00F1800092D1FEF7E3FC41F2FC
:10316000205540F22056C2F20005C2F20006044685
:10317000284631464FF48062FCF7FEFF2846314670
:103180004FF48062FDF7E8FAFEF7CCFC46F2676187
:10319000001BC6F2666180FB0101881100EBD17251
:1031A00043F60000C0F200004FF4806100F04CFADA
:1031B000D8F800000EE000BFD8F80010091AB1F5E9
:1031C000FA7FA8BFBDE8F081D8F80010091AB1F560
:1031D000FA7F0BDAD8F80010091AB1F5FA7F05DA90
:1031E000D8F80010091AB1F5FA7FE5DBBDE8F081E7
:1031F00046465420546573742053746172740D00F4
:1032000080B5C0B2FFF7A4FC80BD00008AB0FEF715
:103210004BFE43F6380143F67A0243F67503C0F2DB
:103220000001C0F20002C0F2000300204FF00008CD
:10323000FEF788FF43F6210143F6600243F66C0374
:10324000C0F20001C0F20002C0F200030020FEF74D
:1032500079FF42F200054020C4F201056C4600905F
:103260004FF0010928462146ADF80490FEF76AFCAC
:103270008020009028462146ADF80490FEF762FCBD
:103280004FF48070009028462146ADF80490FEF778
:1032900059FC28464021FEF78FFC28468021FEF786
:1032A0008BFC28464FF48071FEF786FC0820ADF8B1
:1032B000000068468DF80290FEF7F2FC28464FF4B5
:1032C00080610022FEF77CFC28464FF4006100225A
:1032D000FEF776FC28464FF480610122FEF72CFCB5
:1032E00028464FF400610122FEF726FC2720ADF8A6
:1032F000000068468DF80290FEF7D2FC41F200040F
:10330000C4F2000404F57056304601210122FFF793
:1033100045FDA5F5805738460B210122FEF744FCF8
:1033200038460A210122FEF73FFC4FF4E1300090BD
:103330000120C0F2080001902020ADF80800102004
:10334000039046F60000C0F68910059069463046A5
:10335000ADF81090FFF72AFD30460121FFF716FD6A
:1033600004F5A046304630213027FEF71FFB04202D
:103370000090FF20CDE90207694630468DF8109095
:10338000CDF80480FEF72AFB30460121FEF71CFB36
:103390003046FEF73FFB46F20C00C4F200000090FE
:1033A00041F62050C2F20000CDE901096946002033
:1033B000CDE90399CDE90588FEF756FB00200E21E3
:1033C000FEF784FB00200021FEF770FB00200121A6
:1033D000FEF726FB00200121FEF734FB00F0B0F8D9
:1033E000A5F50055284608210222FEF7DDFB2846F8
:1033F0000B210222FEF7D8FB1820ADF81C0007A80D
:103400008DF81E90FEF74CFC40F20409C2F2000950
:10341000D9F800004DF68361C4F21B31A0FB010115
:1034200040F2E7304FF0FF37ADF8200007EBD14016
:103430008DF8230008A92046ADF82480FEF794FCFF
:103440004FF440706D46ADF800004FF480362046D2
:103450002946CDF804808DF80E800296ADF80C80D8
:10346000FEF7EAFC40F20330ADF8000040F2F31042
:10347000ADF80C0020462946CDF804808DF80E806A
:103480000296FEF7D9FC204610210122FEF79AFC95
:1034900020460021FEF77CFC20460021FEF772FC4E
:1034A00020460121FEF780FC16A10020FEF74AFE0F
:1034B0001CA000F093F9D9F8000044F6D351C1F2F2
:1034C0006201A0FB010107EB9110B0F1807F01D3F5
:1034D000FEE700BF4EF21001CEF2000148604EF64A
:1034E0002350CEF20000C02202700720C1F80880ED
:1034F0000860D9F80000FEF7FFFA00BFFFF7AAFD49
:10350000FCE700BF666C617368636F64652070726E
:103510006F6772616D20626567696E2E2E2E0D0ACF
:1035200000000000666C617368636F6465207072F0
:103530006F6772616D20626567696E2E2E2E0D00B9
:10354000B0B533A137A20020FEF7FCFD41F22405FF
:10355000C4F2020543F65A042A78C0F2000400209F
:103560002146FEF7EFFD6A7800202146FEF7EAFDCE
:10357000AA7800202146FEF7E5FDEA7800202146E2
:10358000FEF7E0FD2A7900202146FEF7DBFD6A798F
:1035900000202146FEF7D6FDAA7900202146FEF73D
:1035A000D1FDEA7900202146FEF7CCFD2A7A0020E1
:1035B0002146FEF7C7FD6A7A00202146FEF7C2FDCC
:1035C000AA7A00202146FEF7BDFDEA7A00202146B6
:1035D000FEF7B8FD2A7B00202146FEF7B3FD6A7B8B
:1035E00000202146FEF7AEFDAA7B00202146FEF713
:1035F000A9FDEA7B00202146FEF7A4FD43F67502F3
:103600000AA1C0F200020020BDE8B040FEF79ABD5A
:1036100025736D63752063686970207569643A204D
:103620000D0A00001B5B313B33326D0025730D0A20
:10363000000000001EF0040F0CBFEFF30880EFF352
:103640000980FEF7D7BA00000FB4054B10B503A9E7
:10365000044A029800F018F810BC5DF814FB000052
:10366000013200000000002002E008C8121F08C15B
:10367000002AFAD170477047002001E001C1121FF3
:10368000002AFBD1704700002DE9FF4F89B09B460F
:103690000446002506E025280BD05A460B99904792
:1036A000641C6D1C20780028F5D10DB02846BDE8BB
:1036B000F08F0027B8460122474900E0074314F87D
:1036C000013F203B02FA03F00842F7D120782E2870
:1036D00019D114F8010F47F004072A280ED06FF013
:1036E0002F022078A0F1300109290CD808EB8801BD
:1036F00002EB410100EB0108641CF2E70A98641C2C
:1037000050F8048B0A9020780028CED0642808D086
:10371000692806D075281ED05A460B9990476D1C13
:1037200058E00A994FF00A0901C90A91002802DA03
:1037300040422D2102E0390504D52B218DF82010BF
:10374000012103E0F90704D02021F7E78A4608AEFB
:103750000DE00021FAE70A994FF00A0901C90A9120
:10376000F7E74946FEF7FAF8303106F8011D002860
:10377000F7D1ADEB060000F12009780701D44FF036
:103780000108C84502DDA8EB090000E000208046E2
:10379000002706E008A85A46C05D0B9990476D1CAB
:1037A0007F1C5745F6DB04E030205A460B999047C2
:1037B0006D1CB8F10001A8F10108F5DC05E016F870
:1037C000010B5A460B9990476D1CB9F10001A9F104
:1037D0000109F4DC641C65E70928010010B5044602
:1037E00001E0FFF70DFD14F8010B04490028F8D1A2
:1037F000BDE810400A20FFF703BD000000000020D4
:1038000074686520256420706F696E747320666625
:1038100074206973207573652025642075730D0A03
:1038200000636F6D70696C65642074696D653A2022
:1038300025732025730D0A0025734D4355204348F9
:1038400049503A20505433325A3139322050574D72
:103850002044454D4F25730D0A0025303258200075
:1038600046656220313820323032320031343A310C
:10387000313A3137001B5B306D001B5B343B343118
:103880006D005465726D696E616C0000B0380000A7
:10389000000000201000000068360000C038000062
:1038A00010000020189D0000783600000000000085
:1038B000000000000068890900366E010000000069
:0400000500000131C5
:00000001FF
