:020000040000FA
:10000000302A0020450100006D050000512E00003F
:1000100057010000590100005B01000000000000D2
:100020000000000000000000000000002915000092
:100030005F01000000000000490800002D150000CD
:100040006501000000000000000000004D080000F5
:100050000104000065010000DD050000E10500006D
:10006000E50500003506000000000000D103000097
:100070000000000000000000000000000000000080
:100080000000000000000000E1020000000000008D
:100090000000000000000000000000000000000060
:1000A000D1160000F516000000000000000000005E
:1000B000F9160000FD1600000117000065010000A0
:1000C00000000000000000000000000021150000FA
:1000D00025150000091700000D170000111700007A
:1000E0000000000000000000000000000000000010
:1000F0000000000000000000000000000000000000
:100100000000000065010000000000006501000023
:1001100000000000000000000000000000000000DF
:10012000000000000517000000000000650100004D
:10013000DFF80CD000F08EF8004800472D1F0000BB
:10014000302A0020084880470848094901600948CA
:100150000047FEE7FEE7FEE7FEE7FEE7FEE7FEE715
:10016000FEE7FEE7FEE700005115000000F8004042
:10017000F000A5A5310100000048704724310000BF
:1001800040EA01039B0703D009E008C9121F08C019
:10019000042AFAD203E011F8013B00F8013B521E99
:1001A000F9D27047D2B201E000F8012B491EFBD210
:1001B00070470022F6E710B513460A460446194672
:1001C000FFF7F0FF204610BD30B505462A460B4626
:1001D00012F8010B13F8014B08B1A042F8D01CB182
:1001E000002802D06D1CF1E7284630BD421C10F8F3
:1001F000011B0029FBD1801A704710B5002200E0D6
:10020000521C835C8C5CA34201D1002BF8D1D8B284
:10021000E1B2401A10BD034611F8012B00F8012B82
:10022000002AF9D11846704730B50B460146002028
:100230002022012409E021FA02F59D4205D303FAA8
:1002400002F5491B04FA02F52844151EA2F1010229
:10025000F1DC30BD064C074D06E0E06840F00103DC
:1002600094E8070098471034AC42F6D3FFF764FFD8
:10027000A0330000D033000030B58C1810F8012BEB
:1002800012F00F0301D110F8013B120906D110F84A
:10029000012B03E010F8015B01F8015B5B1EF9D153
:1002A00001E001F8013B521EFBD1A142E6D3002040
:1002B00030BD0000026822F4F872026002680A434E
:1002C00002600909012202FA01F141617047000050
:1002D0000268002922F0010218BF01320260704753
:1002E0007047000010B50268D1E900C322F0FC029B
:1002F000D1E902E41A432243026042684FF60773D1
:100300009A43097C42EA0C02114341EA0E21416002
:100310002109012202FA01F1416110BD016841F099
:1003200002010160704700004FF20C024001C4F26C
:1003300000021358002923F480431350135823F468
:10034000804318BF03F58043135070474FF20C02EF
:100350004001C4F200021358002923F00103135096
:10036000135823F0010318BF0133135070470000E6
:10037000B0B54FF2000CC4F2000CD1E90032D1E963
:1003800002454FEA401E0CEB40104CF80E30426024
:100390008460C268D1E9043422F4CF7242EAC50213
:1003A000896942EAC31242EA440242EA8101C16019
:1003B000B0BD00004FF20C024001C4F2000213581D
:1003C00023F4005313501358194311507047000081
:1003D0007047000080B54FF28C03C4F20003C000E8
:1003E0004FF01F0CD3F800E00CFA00F22EEA0202E4
:1003F0001A601A6801FA00F01043186080BD00000E
:1004000070470000816370472023002A08BF24231F
:10041000C15070470B79D1F800C05A1E022A09D288
:10042000022BC0F810C014BF48304430C0F800C0E0
:10043000704700BF032B03D11430C0F800C07047D1
:10044000C0F814C0497902290AD001290ED0002928
:1004500018BF7047C0F850C04030C0F800C07047A7
:10046000C0F84CC04030C0F800C07047C0F83CC075
:100470005030C0F800C070474900836902FA01F1AA
:100480001943816170470000426811434160704721
:10049000042A88BF7047DFE802F003070B0D110044
:1004A00081620163C160704781624163C1607047CE
:1004B00081607047C1620163C1607047C16241637E
:1004C000C16070474EF62C52CEF200021168B1F1B5
:1004D000FF3F43DD52F8083C40F6D471C2F2000100
:1004E0004B6212F8043C81F8283012F8033CCB62CE
:1004F000D3680B6332F8023C8B8613688B635368B6
:10050000CB6312690A6400220A6000BF0A6832B92C
:100510000A6822B90A6812B90A68002AF6D0026885
:100520004A6042688A608268CA60C2680A61026979
:100530004A6142698A618269CA61C06908620020B1
:10054000086000BF086880B9086870B9086860B9B9
:100550000868002818BF7047F4E700BF116841F031
:10056000004111608169023181617047704700006C
:1005700010B5817802784EF2004CCEF2000C09B32F
:1005800093081CF803E04478182101EAC201FF2215
:10059000A4018A40E4B22EEA020204FA01F11143F6
:1005A0000CF803100078012200F01F0102FA01F19B
:1005B000C0F342104FF600520CEB8000CFF6FF72F2
:1005C000815010BD02F01F00012101FA00F04FF62A
:1005D0008051CFF6FF714CF8010010BD704700004C
:1005E0007047000010B542F20004C4F20104204636
:1005F0004FF48061FFF706FF20464FF40061FFF7DC
:1006000001FF05A1002000F071FA41F2C440C2F2DE
:1006100000000121016010BD757365722062757460
:10062000746F6E20707265737365642121210D0AE9
:1006300000000000704700000A8802628A78CB78C8
:1006400091F804C04979426041EA0C010361C1613B
:1006500070470000826C22F0007211438164704781
:10066000826C002922F0807218BF02F180728264CD
:1006700070470000016070474268012922F00102C2
:1006800008BF0132426070470068084018BF01206F
:10069000704700007F2915DC102988BF70470123AF
:1006A00003FA01FC40F21613C0F201031CEA030F27
:1006B00007D0002AC3690CBF8B430B430829C361D1
:1006C0001AD07047B1F5004F06DA802914D0B1F581
:1006D000006F11D0F5E700BF0ED0B1F1806FF0D1FF
:1006E000816C002A1EBF41F080618164704721F057
:1006F00080618164704700BF002A426B14BF1143C0
:1007000022EA010141637047F0B587B041F200046D
:10071000C4F2000404F57045284608210222FFF7C0
:10072000ABFE28460B210222FFF7A6FE1820ADF8EB
:10073000000001208DF802006846FFF719FF40F61F
:100740006C60C2F2000000684DF68361C4F21B3198
:10075000A0FB010140F2E730ADF814004FF0FF308C
:1007600000EBD1408DF81700002605A92046ADF812
:100770001860FFF761FF4FF4407001ADADF8040061
:100780004FF480372046294602968DF81260039771
:10079000ADF8106000F024F840F20330ADF804002A
:1007A00040F2F310ADF810002046294602968DF86D
:1007B0001260039700F014F8204610210122FFF781
:1007C00069FF20460021FFF74BFF20460021FFF77D
:1007D00041FF20460121FFF74FFF07B0F0BD0000A9
:1007E000B0B50A78032A11D8DFE802F002060A0E33
:1007F0008B8943620AE000BF8B89836206E000BFF9
:100800008B89C36202E000BF8B8903634FEA820ECB
:1008100007234FF4881403FA0EF39440D0F848C02D
:1008200023434C782CEA030504FA0EFCD1E901437A
:10083000944003FA02F244EA050343EA0C031A4324
:100840008264897BC164B0BD7047000070470000BE
:1008500041F21C00C2F2000003210161416143F238
:10086000812141F2C402C0F20001C2F200028161A2
:10087000C2614FF480620262002282624262C262FE
:10088000016640F6C071C2F20001013141661021DB
:10089000816645F25241C0F254010267C266426766
:1008A000C0F8071044F24751C0F25201C0F80310DB
:1008B00044F25351C4F247710160202181717047A5
:1008C00010B541F21C0EC2F2000E9EF800308C46AC
:1008D000002B42D10321CEF81010CEF8141043F2B1
:1008E000812141F2C403C0F20001C2F20003CEF83C
:1008F0001810CEF81C304FF48063CEF8203000235F
:10090000CEF82830CEF82430CEF82C30CEF8601057
:1009100040F6C071C2F200010131CEF8641010211E
:10092000CEF8681045F25241C0F25401CEF8703052
:10093000CEF86C30CEF87430CEF8071044F2475140
:10094000C0F25201CEF8031044F25351C4F2477181
:10095000CEF8001020218EF80610EFF311844FF02E
:10096000200181F31188614600F004F884F31188B6
:1009700010BD00002DE9F04F81B041F21C0300EBE7
:100980004000C2F2000303EBC006F06A14460228DE
:10099000894611D0012845D048B9354655F8247FFD
:1009A0006868B84276D9F9430844A04279D2002653
:1009B000304601B0BDE8F08F56F8245F301DA6F137
:1009C000040BB246A6F108080026009020E000BF04
:1009D000DBF80000EA4311440144471BB94238BF29
:1009E0000F46D8F80000A74228BF274628444946AA
:1009F0003A46FFF7C5FBDBF800007919E41B0D1A36
:100A00003E44B94418BF0D46002CCAF8005057D0D8
:100A100000980168A942DBD9EA43DBF800001144E1
:100A2000DBE700BFB04658F8247FD8F80410B9427D
:100A300004D9FA43306A114404E000BF306AFA4333
:100A400011440144A14238BF0C46C51B56F81C0F87
:100A5000AC4238440CD249462246FFF791FBE019DC
:100A6000C8F800002646304601B0BDE8F08F00BF50
:100A700049462A46FFF784FB671B306809EB0501EE
:100A80003A46FFF77DFBC8F800702646304601B0B5
:100A9000BDE8F08F316AFA4310440844A042FFF4E5
:100AA00086AF56F81C0F71683844A1EB0708A045C3
:100AB0000AD949462246FFF763FB381928602646C3
:100AC000304601B0BDE8F08F49464246FFF758FB7B
:100AD000A4EB0807306809EB08013A46FFF750FB22
:100AE0002F602646304601B0BDE8F08F82B080B559
:100AF00082B0CDE9042304AA019201AA00F006F80D
:100B000002B0BDE8804002B0704700002DE9F04F10
:100B10009DB0164608AA41F2597918924022002544
:100B200005901C900DF1600BCDF2B71900200C461A
:100B30001992CDE91A5507960CE000BF3B46CDF857
:100B4000048000F06DFEA3E11B982146B0F1FF3F49
:100B500040F3CE8414F8013B252B1BD0002B00F072
:100B6000AF84DDE91920411C914207D8189A13542B
:100B70001B98199A01301B9008461A919042E3D1B4
:100B800018991C98FFF79CFE1A99884240F0A4849B
:100B90001A95D9E701F1020A4FF000081AF8011C72
:100BA000A1F123030D2B00F25F800222DFE803F0A6
:100BB000085C5C5C5C5C5C5C0A5C0C5C5C0D00BFB3
:100BC000082202E0042200E001229AF8001048EA1C
:100BD0000208A1F123030D2B00F286800222DFE838
:100BE00003F0078383838383838309830B83830CCD
:100BF000082202E0042200E001229AF8011048EAEB
:100C00000208A1F123030D2B00F26C800222DFE821
:100C100003F0076969696969696909690B69690CA0
:100C2000082202E0042200E001229AF8021048EAB9
:100C30000208A1F123030D2B00F262800222DFE8FB
:100C400003F00F5F5F5F5F5F5F5F115F0D5F5F07C7
:100C500048EA02080AF1040AA0E700BF0122F7E708
:100C60000822F5E70422F3E7AAF1010AA1F1300214
:100C7000092A3DD80AF1020A002200BF02EB8202D3
:100C800001EB42021AF8011C303AA1F13003092BA2
:100C90003ED802EB820201EB42029AF80010303A91
:100CA000A1F13003092B35D802EB820201EB42029D
:100CB0009AF80110303AA1F13003092B76D802EBF3
:100CC000820201EB42029AF80210303AA1F130039D
:100CD000092B0AF1040AD1D9AAF1020A2E291BD044
:100CE00009E000BF0AF1010AA1F13002092AC1D9C5
:100CF00000222E2910D000272539532968D9C7E0B2
:100D00000AF1020AA1F13002092AF1D8B2E700BFC4
:100D1000AAF1010A2E29EED1534613F8011FA1F1C1
:100D20003007092F06D900279A46253953294FD96C
:100D3000AEE000BF0AF1020A002700BF07EB8703FD
:100D400001EB43039AF80010A1F13007092FA3F13A
:100D5000300739D807EB870301EB43039AF80110FA
:100D6000A1F13007092FA3F1300725D807EB87033E
:100D700001EB43039AF80210A1F13007092FA3F108
:100D800030071FD807EB870301EB43039AF80310E2
:100D9000A3F13007A1F13003092B0AF1040ACDD9E0
:100DA000AAF1010A2539532912D971E00AF1010A81
:100DB0002E29B1D09FE700BF0AF1010A2539532936
:100DC00006D965E00AF1020A2539532900F260804C
:100DD000DFE811F0AC015E005E005E005E005E00C8
:100DE0005E005E005E005E005E005E005E005E0013
:100DF0005E005E005E005E005E005E005E005E0003
:100E00005E005E005E005E005E005E005E005E00F2
:100E10005E005E005E005E005E005E005E005E00E2
:100E20005E005E005E005E005E005E005E005E00D2
:100E30005E005E005E005E005E0054005E005E00CC
:100E40005E005E005E005E005E005E005E005E00B2
:100E5000DC01FC015E005E005E0062005E005E0080
:100E60005E0062005E005E005E00A4025E005E0046
:100E7000B2025E00E0025E005E005400FFE73068F0
:100E8000011D3160016800925846102256E600BFED
:100E90000AF1010458E600BF9AF8011025395329D8
:100EA00000F22A81DFE811F0200128012801280141
:100EB00028012801280128012801280128012801EA
:100EC00028012801280128012801280128012801DA
:100ED00028012801280128012801280128012801CA
:100EE00028012801280128012801280128012801BA
:100EF00028012801280128012801280128012801AA
:100F0000280128012801280128012801280154006E
:100F10002801280128012801280128012801280189
:100F2000280128012C01300128012801280158003E
:100F3000280128012801580028012801280134012E
:100F400028012801380128013C012801280154000A
:100F50000AF1010A93E700BF9AF8021025395329D4
:100F600000F2EE80DFE811F0E000EC00EC00EC00B5
:100F7000EC00EC00EC00EC00EC00EC00EC00EC0011
:100F8000EC00EC00EC00EC00EC00EC00EC00EC0001
:100F9000EC00EC00EC00EC00EC00EC00EC00EC00F1
:100FA000EC00EC00EC00EC00EC00EC00EC00EC00E1
:100FB000EC00EC00EC00EC00EC00EC00EC00EC00D1
:100FC000EC00EC00EC00EC00EC00EC00EC00B800F5
:100FD000EC00EC00EC00EC00EC00EC00EC00EC00B1
:100FE000EC00EC00F000F400EC00EC00EC0054002D
:100FF000EC00EC00EC005400EC00EC00EC00F8001D
:10100000EC00EC00FC00EC000001EC00EC00B8008F
:101010009AF803102539532900F2B280DFE811F065
:10102000A800B000B000B000B000B000B000B00048
:10103000B000B000B000B000B000B000B000B00030
:10104000B000B000B000B000B000B000B000B00020
:10105000B000B000B000B000B000B000B000B00010
:10106000B000B000B000B000B000B000B000B00000
:10107000B000B000B000B000B000B000B000B000F0
:10108000B000B000B0006000B000B000B000B00030
:10109000B000B000B000B000B000B000B400D400A8
:1010A000B000B000B0005400B000B000B000540078
:1010B000B000B000B0007C01B000B0008A01B00008
:1010C000B801B000B00060001AF8041F2539532998
:1010D0007FF67EAEDCE600BF0AF1020ACFE600BF73
:1010E0000AF1030ACBE600BF0AF1010ADDE9192083
:1010F000411C91421FD95AE00AF1010AC8E600BF1B
:101100000AF1010A42E000BF0AF1010A5EE000BFF5
:101110000AF1010A02E100BF0AF1010A0CE100BF75
:101120000AF1010A36E100BF0AF1020ADDE91920DD
:10113000411C91423BD8189A2523135431E000BF3B
:101140000AF1020AA4E600BF0AF1020A1EE000BF8B
:101150000AF1020A3AE000BF0AF1020ADEE000BF2B
:101160000AF1020AE8E000BF0AF1020A12E100BF38
:101170000AF1030ADDE91920411C9142DBD916E08E
:101180000AF1030A84E600BF0AF1030ADDE9192027
:101190003368411C1F1D9142376008D81A68189B9C
:1011A0001A541B98199A01301B9008461A919042C4
:1011B0007FF46EAE18991C98FFF782FB1A9988424B
:1011C00040F0E2801A9563E60AF1030A31680B1DCC
:1011D00033600C68002C2146C4F1000348BF194657
:1011E0000A2906931CD34FF0020B42F2107500BF80
:1011F000632917D9B1F57A7FC0F03E81A942C0F0CA
:101200003F81A1FB093648F29F63C0F20103994276
:101210004FEA56310BF1040BEAD8ABF1010B01E0B8
:101220004FF0010BBB454FF0000538BFBB466AB11C
:101230000021002C48BF012108F0040341EA93017A
:10124000A2EB010918F0020605D12FE04FF00009CA
:1012500018F002062AD04FBB002800F12281B4F119
:10126000FF3F40F3A1805FEA487040F1B680DDE9BE
:101270001920411C914208D8189A2B2313541B980B
:10128000199A01301B9008461A91904240F0A580AF
:1012900018991C98FFF714FB1A99884240F0FE80B9
:1012A0001A951B98002840F19B80FAE05FEAC8710C
:1012B000D2D1B9F1000FCFD059460496D94538BFE5
:1012C000494609F1010641F259790025CDF2B719D5
:1012D000039104E01B981A95002800F1B880013EA4
:1012E000B34580F0D180DDE919214B1C934208D829
:1012F0001898202242541B98199A013019461A93C3
:101300001B909142E8D118991C98FFF7D9FA1A99C5
:101310008842DFD098E000BF0AF1030A306810224B
:10132000011D31600168082000905846082301958E
:10133000FFF707BC0AF1030A31680A1D32600C6826
:1013400008E000BF1B981A95B0F1FF3F04F10104BB
:101350007FF79EAD2778002F3FF49AADDDE9192184
:101360004B1C934207D8189847541B98199A013080
:1013700019461A931B909142E6D118991C98FFF7D1
:101380009FFA1A998842DDD04FF0FF301B907FE51D
:101390000AF1030A3068011D316001680092584665
:1013A0000A22FFF7CBBB00BFDDE91920411C9142A7
:1013B00008D8189A2D2313541B98199A01301B90A2
:1013C00008461A91904263D118991C98FFF778FA51
:1013D0001A99884262D1069C1A951B98002860D4FD
:1013E000D6B308F00101394336D1B9F1000F33D03B
:1013F00006945C46D94538BF4C4609F1010641F2D6
:1014000059790025CDF2B71904E000BF1B981A9551
:1014100000281CD4013EB3454ED2DDE919214B1CF6
:10142000934208D81898302242541B98199A0130D8
:1014300019461A931B909142EAD118991C98FFF70C
:101440003FFA1A998842E1D04FF0FF301B90079E77
:101450000DF1600BFFF71CBD079E0DF1600B5846A8
:1014600021460A223B46CDF80090CDF8048000F0DA
:10147000D7F9002519E000BF0BF1010BD2E600BF40
:101480000BF1020BCEE600BFDDE903960025E3E693
:10149000069C1B980028A3D503E000BF4FF0FF3047
:1014A0001B90079E00250DF1600B41F25979CDF29A
:1014B000B719FFF7EDBC00BFA146079E069CCCE71D
:1014C00001280FDB1A9A8AB1059808A9FFF7F8F9E5
:1014D000DDE91A100BE000BF4FF0FF301DB0BDE892
:1014E000F08F00BF00201DB0BDE8F08F0021084440
:1014F0001DB0BDE8F08F000044F61041C4F20001B9
:101500000A68120509D50A68120544BF0A685FEA2D
:10151000025202D50A681205F2D441F8100C704745
:1015200070470000704700007047000041F218004B
:10153000C2F20000016811B101680139016041F691
:101540002C20C2F2000001680131016070470000E8
:1015500080B583B045F61000C4F20000816A41F204
:101560000C0E21F001018162426AC4F2020E22F0E7
:1015700001024262DEF8002043F2006322F04002E2
:10158000CEF8002040F67062C2F20002C0F26E1384
:1015900013604AF21802C0F20102426040F6115292
:1015A0000260026842F01002026000BF0268B2F1FD
:1015B000FF3F09DD0168002906D40168002903D432
:1015C0000168B1F1FF3FF1DC4FF60002F023C4F2F5
:1015D0000002CAF2A5534FF0000C1360CDF800C012
:1015E000009B43F68002C0F20102934218DA00BF6A
:1015F000009B01330093009B934211DA0099013163
:101600000091009991420BDA009901310091009903
:10161000914205DA00990131009100999142E7DB8E
:10162000DEF800304FF6FC7119400231CEF80010A0
:10163000CDF808C00299914218DA00BF0299013131
:1016400002910299914211DA0299013102910299B3
:1016500091420BDA0299013102910299914205DA25
:1016600002990131029102999142E7DBDEF8001004
:101670004FF67F4341F48061CEF80010DEF8001091
:101680001940CEF80010002101910199914217DA1A
:101690000199013101910199914211DA01990131C8
:1016A0000191019991420BDA01990131019101995E
:1016B000914205DA01990131019101999142E7DBEB
:1016C00050F8081C41F0010140F8081C03B080BD2F
:1016D00010B541F20004C4F2000420461021FEF7C8
:1016E000D3FF002808BF10BD20461021BDE81040E0
:1016F000FEF7C0BF70470000704700007047000051
:1017000070470000704700007047000070470000FD
:10171000B0B544F60040C4F20000046841F6A415D8
:10172000C2F20005E0B2294600F00EFA0D280AD1F7
:1017300040F6746005F10801C2F2000001F016F9EC
:10174000284600F0F9F903A100202246BDE8B04088
:10175000FFF7CCB97265763A203078253032580DD3
:101760000A0000004268002922F0800218BF80327F
:1017700042607047002AC2680CBF22EA010111438F
:10178000C160704780B54FF6FF7202624FF0FF32C2
:10179000C261B1F804C0CB880A8943EA0C031A433A
:1017A00042600A8A4368002A23F4807318BF03F555
:1017B00080734360D1F800C0CA68D1F814E00CFB14
:1017C00002F3BEFBF3F101FB13EE530803FB0CF332
:1017D0009E4588BF013189B2042A81600CD0082A55
:1017E00014D0102A18BF80BD816821F44031816077
:1017F0008168816080BD00BF816821F440318160D3
:10180000816841F48031816080BD00BF816821F42E
:1018100040318160816841F40031816080BD000009
:101820002DE9F04F83B08B46DDE90C911F4615463C
:101830009345044602D24FF001081FE04FF0020822
:10184000584600BFB0FBF5F0A84217D3B0FBF5F047
:10185000A8420DD3B0FBF5F0A8420DD3B0FBF5F0D4
:1018600008F10408A842EDD2A8F1010806E000BF83
:1018700008F1010802E000BF08F10208B84538BFCE
:10188000B846B9F1000F01F00100029035D0A0BBBD
:1018900088074FF020064FF0200048BF3026002F69
:1018A00018BF064640464FF0000AC84588BF484664
:1018B000019005E0C4F808A0E068B0F1FF3F1CDD2E
:1018C000C8456FD2D4E90120411C914207D8226853
:1018D0001654E06862680130E0600846A1609042FA
:1018E000A9F10109E8D121682069FEF7E9FFA168A3
:1018F0008842DFD04FF0FF30E060E068002860D41D
:10190000012601E0013F6E43022F01D3013F03E0B6
:10191000BBFBF6F1A9421BD3012F05FB06F601D94B
:10192000013F03E0BBFBF6F1A94211D3012F05FBF8
:1019300006F601D9013F03E0BBFBF6F1A94207D34C
:10194000012F05FB06F6DDD8BBFBF6F1A942DAD282
:10195000A1680FF2C80A00BF6268BBFBF6F74B1C18
:10196000934209D81AF8070022685054E068626868
:1019700001301946A360E060914209D121682069D5
:10198000FEF79EFFA168884212D1E0680021A160A5
:10199000002810D4B6FBF5F207FB16BBAE42164684
:1019A000DAD208E0DDF80490E0680028A8D508E065
:1019B0004FF0FF30E060029A002A18BFB9F1000F23
:1019C00002D103B0BDE8F08F09F10105202602E045
:1019D000B0F1FF3FF5DD013DA845F2D262684B1C36
:1019E000934207D820684654E0686268013019467F
:1019F000A360E0609142EBD121682069FEF760FFAF
:101A0000A168884204D1E0680021A160E0E700BF3E
:101A10004FF0FF30E06003B0BDE8F08F303132337B
:101A200034353637383941424344454610B50446CB
:101A300023A001F025FA43F2A820C0F2000001F033
:101A40001DFB43F2D120C0F2000001F017FB43F26E
:101A50002330C0F2000001F011FB43F24C30C0F221
:101A6000000001F00BFB43F2FA20C0F2000001F08D
:101A700005FB43F27530C0F2000001F0FFFA13A03D
:101A800001F0FEF913A001F0FBF91EA001F0F6FA37
:101A900021A001F0F3FA43F2A520C0F20000214694
:101AA00001F0EEF9002044F8240FA080A060A0818E
:101AB0001FA1204600F00CFE0120E08010BD00BFF9
:101AC0000D0A1B5B33363B316D0000000D0A1B5BBA
:101AD000306D00001B5B33373B316D4275696C64C0
:101AE0003A202020202020204665622032312032FA
:101AF0003032322031383A32353A34370D0A1B5BF6
:101B0000306D000056657273696F6E3A2020202098
:101B100020312E302E300D00436F70797269676866
:101B2000743A2020203230323220686168610D0022
:101B30006C7320636D64000000214FF6FF724160FA
:101B40000280017270470000B0B50D4691F8811017
:101B5000044602290ED000292ED1A4F10802052A3C
:101B600044D800200121DFE802F044033D41414F09
:101B700003204AE095F88000A4F16101C9B228442D
:101B80001A2980F86C401DD243F228114FF0FF3023
:101B9000C0F20001132853D00A185378A3424FD043
:101BA0009378A34254D0D378A34253D0127904300F
:101BB000A242EFD14FE000BF002085F8810020460F
:101BC000B0BD00BF7E2CDFD0A4F14100C0B2192807
:101BD000DAD995F88000132827D30020A5F88000D3
:101BE0002046B0BD0121012021B911E04FF0FF30A6
:101BF000002169B143F29011C0F2000151F82010A8
:101C0000284688472046B0BD022001210029F1D195
:101C10001B2C0FD195F88010022085F881006818E0
:101C20001B2180F86C1095F88000013085F8800049
:101C30002046B0BD2846214600F09AF92046B0BDA6
:101C4000A0F11301B1FA81F14909013004E000BFAC
:101C5000023000E003300021002943F24011C0F2BD
:101C6000000118BF4FF0FF3051F820102846884778
:101C70000020A5F880002046B0BD000000214FF6EE
:101C8000FF72416002800172A0F88010704700006E
:101C900041F2C440C2F20000016800291CBF0021CB
:101CA000016070472DE9F04188B0FEF7D1FD43F2A5
:101CB0001B2143F2682243F26323C0F20001C0F209
:101CC0000002C0F2000300204FF00008FEF70EFFF4
:101CD00043F2042143F24E2243F25A23C0F20001A0
:101CE000C0F20002C0F200030020FEF7FFFE42F245
:101CF00000044020C4F2010401AD019001272046F8
:101D00002946ADF80870FEF785FB8020019020463B
:101D10002946ADF80870FEF77DFB4FF48070019006
:101D200020462946ADF80870FEF774FB2046402196
:101D3000FEF7AAFB20468021FEF7A6FB20464FF4C3
:101D40008071FEF7A1FB0820ADF8040001A88DF812
:101D50000670FEF70DFC20464FF480610022FEF76E
:101D600097FB20464FF400610022FEF791FB2046CE
:101D70004FF480610122FEF747FB20464FF40061DB
:101D80000122FEF741FB2720ADF8040001A88DF8E1
:101D90000670FEF7EDFB46F20005C4F20005A5F55E
:101DA000A056304601210122FFF7E4FCA4F580543F
:101DB00020460A210122FEF75FFB20460B2101226B
:101DC000FEF75AFB4FF4E13001900120C0F2080009
:101DD00002902020ADF80C001020049046F6000080
:101DE000C0F68910069001A93046ADF81470FFF7CF
:101DF000C9FC30460121FFF7B5FC284630213024CC
:101E0000FEF758FA04200190FF20CDE9030401A950
:101E100028468DF81470CDF80880FEF763FA28463E
:101E20000121FEF755FA2846FEF778FA46F20C0033
:101E3000C4F20000019041F2C840C2F20000CDE9B6
:101E4000020701A90020CDE90477CDE90688FEF755
:101E50008FFA00200E21FEF7BDFA00200021FEF7C8
:101E6000A9FA00200121FEF75FFA00200121FEF708
:101E70006DFAFEF749FC00F0B5FA40F66C60C2F26C
:101E80000000006844F6D351C1F26201A0FB0101D9
:101E90004FF0FF3000EB9110B0F1807F02D300BF14
:101EA000FEE700BF4EF21001CEF2000148604EF690
:101EB0002350CEF20000C02202700720C1F8088033
:101EC00008600F20012100F0CCFF00F0CFFF05A13A
:101ED0000020FEF70BFE0BA001F0D0F808B0BDE823
:101EE000F08100BF666C617368636F646520707217
:101EF0006F6772616D20626567696E2E2E2E0D0A06
:101F000000000000666C617368636F646520707226
:101F10006F6772616D20626567696E2E2E2E0D00EF
:101F200080B5C0B2FFF7E8FA80BD0000FFF7BAFE47
:101F300041F6A410C2F20000FFF7A0FE40F6746064
:101F4000C2F20000FFF772FD43F27024C0F20004F9
:101F50004EF6017021460A2200F08DFFFFF798FE31
:101F60004EF6217021460C2200F085FFF0E70000BC
:101F7000B0B54268612A25D80D46B0F900108A42F2
:101F80002CD900BF8118CB79541E0B72B0F90030E8
:101F90009C4225D98B79941ECB71B0F900309C42BC
:101FA0001ED94B79D41E8B71B0F900309C4217D9E1
:101FB0000B79043A4B71B0F900108A42E2D889B229
:101FC0000FE000BF018861226129426024BF6021C7
:101FD0000180002180F86910B0BD00BF89B201E026
:101FE00099B24268013101320180426009B200F1C8
:101FF00008025554416800235354B0F9001040685A
:102000000131814202D206A000F03AFF40F6686139
:10201000C2F200012846BDE8B04001F02DB800BF73
:102020001B5B314000000000F0B581B0044690F821
:10203000800080B140F6686504F16C060027C2F2AA
:10204000000500BFF05D294601F016F894F8800005
:1020500001378742F6D301B0F0BD000010B590F80B
:102060006E10332918BF10BDB0F900404268611CE2
:1020700091421BD20319997A59724268A11C91426C
:1020800012D2D97A99724268E11C91420CD2197B22
:10209000D9724268211D914206D25A7B1A73426856
:1020A000631D93420C46E5D3B0F9004011B2A14242
:1020B00018DD40F66864511EC2F2000441601B2026
:1020C000214600F0D9FF5B20214600F0D5FF3120EA
:1020D000214600F0D1FF50202146BDE8104000F01D
:1020E000CBBF00BF10BD000080B5B0F800C00FFA34
:1020F0008CF3002B48BF80BD426862451FD900BFEA
:1021000000EB0C035A7A0CF101011A7242689142F9
:1021100014D2997A597242680CF1020191420DD29F
:10212000D97A997242680CF10301914206D2197B67
:102130000CF1040CD97242689445E1D30388591E0E
:102140000180511E416040F66861C2F20001082022
:1021500000F092FF02A0BDE8804000F091BE00BFF9
:102160001B5B315000000000F0B581B040F6746692
:10217000C2F20006718DA1B30446B0F90000411C03
:1021800043F29B20C0F2000000F07AFE43F2A1204F
:10219000C0F2000000F074FE718D04F1080506F134
:1021A00024002A4600F0CAF92846FEF71FF8054623
:1021B00060600138208065B1E71D40F66864C2F2B6
:1021C000000400BF17F8010F214600F055FF013D44
:1021D000F8D1708D318D013082B28A4288BF0120E2
:1021E000708501B0F0BD000010B540F674624FF686
:1021F000FF71C2F2000240F6686401800021138D75
:10220000C2F2000441600D202146538500F034FFE6
:102210000A202146BDE8104000F02EBF0146B0F96B
:102220000000002848BF7047421E02A00A8000F04C
:1022300027BE00BF1B5B3144000000004FF6FF715A
:1022400040F6746201800021C2F200024160138DE9
:1022500040F66861C2F200010A20538500F00CBF0D
:1022600042680146B0F90000013A8242D8BF704787
:1022700080B2421C01A00A8000F002BE1B5B314309
:1022800000000000F0B581B040F6746400F108066B
:10229000C2F2000405462046314600F01DF950B355
:1022A0000746686850B3B5F90000411C43F29B2013
:1022B000C0F2000000F0E4FD43F2A120C0F20000F3
:1022C00000F0DEFD3846FDF791FF68600138288098
:1022D00030463946FDF79FFF6E6866B140F6686488
:1022E0000735C2F2000400BF15F8010F214600F0C7
:1022F000C3FE013EF8D101B0F0BD00BF43F29C30F7
:10230000C0F2000000F0BAFE206AC168F1B143F2E9
:10231000A52543F29C360021C0F20005C0F200065C
:10232000002700BF01EB810100EB8101284600F08E
:10233000A7FD304600F0A2FE0137206AF9B201EB9A
:10234000810200EB8202D268002AEBD143F2A52081
:1023500040F67461C0F20000C2F2000101B0BDE8B5
:10236000F04000F08DBD0000F0B581B040F674661D
:10237000C2F20006718D99B30446B0F90000411C09
:1023800043F29B20C0F2000000F07AFD43F2A1204E
:10239000C0F2000000F074FD718D04F1080506F133
:1023A00024002A4600F0CAF82846FDF71FFF05461C
:1023B00060600138208065B1E71D40F66864C2F2B4
:1023C000000400BF17F8010F214600F055FE013D43
:1023D000F8D1708D318D0138020418BF0146718526
:1023E00001B0F0BDB0B533A137A20020FEF77EFBEF
:1023F00041F22405C4F2020543F248242A78C0F2CF
:10240000000400202146FEF771FB6A780020214677
:10241000FEF76CFBAA7800202146FEF767FBEA78FE
:1024200000202146FEF762FB2A7900202146FEF7B4
:102430005DFB6A7900202146FEF758FBAA7900204F
:102440002146FEF753FBEA7900202146FEF74EFBBA
:102450002A7A00202146FEF749FB6A7A00202146AD
:10246000FEF744FBAA7A00202146FEF73FFBEA7AFA
:1024700000202146FEF73AFB2A7B00202146FEF78A
:1024800035FB6A7B00202146FEF730FBAA7B00204B
:102490002146FEF72BFBEA7B00202146FEF726FBB8
:1024A00043F263220AA1C0F200020020BDE8B0405E
:1024B000FEF71CBB25736D6375206368697020751A
:1024C00069643A200D0A00001B5B313B33326D001A
:1024D00025730D0A000000002DE9F04381B0066A63
:1024E000307828B388460025FF2430464FF0000995
:1024F000002709E004460137FDB205EB850016F818
:10250000201006EB800079B14146FDF75DFE002802
:10251000F1D005EB850106EB8101401AE2B2904251
:10252000E9D202068946E5D1484601B0BDE8F0830C
:102530004FF00009484601B0BDE8F0832DE9F041B5
:1025400083888B4238BFBDE8F081034633F80E5BC9
:1025500029444D1EACB2032C88BF4D1FA9B213F8FD
:1025600001C0691C8DB2032D88BF002189B213F808
:1025700001E0F4452CD26146634600BF4418A1EB4C
:102580000C05591CA47C89B2714554551AD24418C3
:10259000A1EB0C05991CA47C89B27145545511D24C
:1025A0004418A1EB0C05D91CA47C89B27145545583
:1025B00008D244180433A47CA1EB0C0599B27145F0
:1025C0005455DBD3A1EB0C0000211154BDE8F08180
:1025D000BCF1FD0F36D8CCF10201CCF1FD0311F0B6
:1025E0000304E04615D000EB0C01897C012C0CF1B2
:1025F000010811700DD000EB0801897C022C0CF150
:102600000208517005D000EB0801897C0CF1030829
:102610009170032B16D3A2EB0C04031F043CFE2580
:1026200003EB0806B77D04EB08010F71F77D043D4D
:102630004F71377E04338F71767EA84504F1040410
:10264000CE71EDD1BEF1000F3AD00023002100BFC2
:10265000C418A3EB0C039D1841F00103A47C9BB2AA
:10266000734585F8FE4022D2C418A3EB0C039D18D5
:1026700041F00203A47C9BB2734585F8FE4016D25C
:10268000C418A3EB0C039D1841F00303A47C9BB278
:10269000734585F8FE400AD2C418A3EB0C0304313D
:1026A000A47C9D188BB2734585F8FE40D0D303F10E
:1026B000FE01A1EB0C0000211154BDE8F08100BF28
:1026C000FE21A1EB0C0000211154BDE8F0810000B7
:1026D000F0B581B0044608460F46FDF787FD80B28D
:1026E000FD2847D8A18913E02288013B013295B229
:1026F000032D88BF0022228092B222442589927B3A
:10270000A380954288BFFE3DAB1A1944A181228166
:102710008AB2C2F1FD02A3889042E5DC032BE3D02C
:10272000B4F802C0628904EB0C050CF1010CAA7329
:102730001FFA8CF5032D88BF4FF0000C0133A4F86D
:1027400002C0A38090B10025002300BF7D5D96B23A
:1027500026440132B57496B20133FD2E9DB288BF76
:1027600000220131A8426281A181EFD81FFA8CF0CA
:102770002044827301B0F0BD2DE9F041B0F804802F
:10278000B8F1000F4BD00446078808460D46FDF708
:102790002DFDE11980B28A7B70B34FF0000E04E08A
:1027A0000EF1010EC645624639D20137BBB2032B8A
:1027B00088BF0027BBB2234493F80EC0BCEB0203D2
:1027C00038BFFE339BB28342EAD1D2B20023002647
:1027D00091B22144897CEB5C9942E1D1013291B202
:1027E0000136FD29B3B288BF00229842F0D80EF11D
:1027F000010080B2BDE8F081002000BF0137B9B20E
:10280000032988BF0027B9B22144897B01308A1A85
:1028100038BFFE321204ECD040450A46EED3002009
:1028200080B2BDE8F0810000F0B581B0022823D36A
:1028300048780C182DA02146FDF7DFFC10B32CA022
:102840002146FDF7DAFCC8B32AA02146FDF7D5FCE6
:1028500088BB29A000F012FC2DA000F00FFC2FA0D7
:1028600000F00CFC32A000F009FC37A001B0BDE87C
:10287000F04000F003BC00BF15A001B0BDE8F0407F
:1028800000F0FCBB40F67466C2F20006306AC16814
:1028900089B10C2733A434A53844A0F10C0120469B
:1028A00000F0EEFA284600F0E9FB306AC1194969E8
:1028B00014370029F0D101B0F0BD00BF43F28A20E7
:1028C000C0F2000001B0BDE8F04000F0D7BB00BF8F
:1028D0006C73206E656564206D6F72652061726730
:1028E000756D656E7473210D00000000636D6400EA
:1028F0002D7600002D6800007573656167653A20CC
:102900006C73205B6F7074696F6E735D0D000000F7
:102910006F7074696F6E733A200D000009202D6886
:1029200020093A2073686F772068656C700D00008D
:1029300009202D7620093A2073686F77207665721A
:1029400073696F6E0D0000000920636D6420093A01
:102950002073686F7720616C6C20636F6D6D616EA2
:1029600064730D00257300000D0000002DE9F04F89
:10297000A7B000F12406824630468846FFF7FCFEE9
:1029800030B998F8000018B130464146FFF7A0FE74
:102990004046FDF72BFC652804D30FF24C4000F0B5
:1029A0006DFBF5E10020CDF87D002690CDF8950077
:1029B000CDF89100CDF88D00CDF88900CDF88500D7
:1029C000CDF8810041F62820C2F200001FAC0122A0
:1029D0000068661C8DF880208DF87C20B8F1000F0F
:1029E00018BF4046C11C11F8030C00281FBFC308C4
:1029F000E35C00F0070702FA07F718BF13EA0703C2
:102A000000F0D08111F8020C00281FBFC308E35C5E
:102A100000F0070702FA07F718BF13EA07031FD0F1
:102A200011F8010C00281FBFC308E35C00F0070782
:102A300002FA07F718BF13EA070319D011F8040BBD
:102A400038B1C308E35C00F0070702FA07F73B4020
:102A5000C9D1B0FA80F2520904390D4672B122E0B0
:102A6000B0FA80F2520902390D463AB11BE000BFBC
:102A7000B0FA80F2520901390D46A2B94A1C00BFD2
:102A8000C308E35C00F0070023FA00F0C007154616
:102A900006D12A4612F8010B0028F1D103E000BF4D
:102AA000002005F8010CDAF820700296FE68B1EB00
:102AB000050941F6282018BF8946002EC2F2000001
:102AC00005606FD040463946FDF797FB60B120376F
:102AD0003E68002E66D0A7F10C014046FDF78DFB45
:102AE000002807F11407F3D10A208DF80E000DF12C
:102AF0000E000A304146FDF78EFB4046FDF776FB9F
:102B0000029A0021C2F81B10916151611161D160DC
:102B10009160516011600123EA1C8DF880308DF8BE
:102B20007C30009612F8031C00291FBFCF08E75D18
:102B300001F0070503FA05F518BF17EA050700F0CD
:102B40003B8112F8021C00291FBFCF08E75D01F08E
:102B5000070503FA05F518BF17EA050732D012F882
:102B6000011C00291FBFCF08E75D01F0070503FA2C
:102B700005F518BF17EA05072ED012F8041B39B166
:102B8000CF08E75D01F0070503FA05F52F40C9D12D
:102B9000B1FA81F35B09A2F1040B029E5D461BB3FF
:102BA00037E000BFFDF7E8FA006898F80010405CD5
:102BB00010F0980F00F0EC8085A0494600F060F915
:102BC000E6E000BFB1FA81F35B09A2F1020B029EBD
:102BD0005D464BB11DE000BFB1FA81F35B09A2F184
:102BE000010B029E5D46A3B90BF10102CB08E35C29
:102BF00001F0070123FA01F1C907154606D12A465B
:102C000012F8011B0029F1D103E000BF002105F8F3
:102C1000011C41F62821C2F20001AB454FF001072B
:102C20000D60CDF804A000F0A98000F10B0A4FF070
:102C300000094FF001080BE005F8019C41F628203F
:102C400008F10108AB45C2F20000056000F0988071
:102C50005FFA88F00DF10E0101F800A05FFA8AF02A
:102C600008445946FDF7D7FA5846FDF7BFFA5044D5
:102C700000F1010AE91CC6F81B90C6F81890C6F8C6
:102C80001490C6F81090C6F80C90C6F80890C6F8D4
:102C90000490C6F800908DF880708DF87C7011F863
:102CA000030C00281FBFC208A25C00F0070307FA4C
:102CB00003F318BF12EA030256D011F8020C0028E1
:102CC0001FBFC208A25C00F0070307FA03F318BF96
:102CD00012EA030222D011F8010C00281FBFC2081B
:102CE000A25C00F0070307FA03F318BF12EA03021D
:102CF0001ED011F8040B38B1C208A25C00F0070323
:102D000007FA03F31A40CAD1B0FA80F25209A1F1CE
:102D1000040B002A5D4691D113E000BFB0FA80F2A7
:102D20005209A1F1020B002A5D467FF487AF08E04B
:102D3000B0FA80F25209A1F1010B002A5D467FF43E
:102D40007DAF0BF1010100BFC208A25C00F00700DB
:102D500022FA00F0C0070D467FF46EAF294611F845
:102D6000010B0028F0D169E7B0FA80F25209A1F115
:102D7000030B002A5D467FF461AFE2E74FF00108E4
:102D8000009A5FFA88F00DF10E019047DDF804A07B
:102D900043F2A520C0F20000514600F071F827B0C0
:102DA000BDE8F08FB0FA80F252090339002A0D46CF
:102DB0003FF464AE77E600BFB1FA81F35B09A2F19C
:102DC000030B029E002B5D463FF40EAF21E700BFD0
:102DD0006E6F20636F6D6D616E64206E616D6564F2
:102DE0003A2025730D0A00007468697320636F6DC3
:102DF0006D616E6420697320746F6F206C6F6E67F5
:102E00002E0D0000F0B581B0054609A00C4600F07B
:102E100035F955B100260AA7A05D3146221838467B
:102E200000F02EF80136B542F6D101B0F0BD00BF7A
:102E30007465737420636F6D6D616E643A0D00008C
:102E400070617261732025643A2025730D0A0000B9
:102E50001EF0040F0CBFEFF30880EFF30980FDF7BD
:102E600031BB40F2393CC2F2000C604740F6A15C35
:102E7000C2F2000C604740F2010CC2F2000C604745
:102E80000FB4054B10B503A9044A029800F018F8D6
:102E900010BC5DF814FB0000211F0000680E00202C
:102EA00002E008C8121F08C1002AFAD17047704713
:102EB000002001E001C1121F002AFBD17047000071
:102EC0002DE9FF4F8BB09A460F460546002606E0D7
:102ED00025280BD052460D9990476D1C761C2878FA
:102EE0000028F5D10FB03046BDE8F08F0024A04691
:102EF0000122604900E0044315F8013F203B02FA3B
:102F000003F00842F7D128782E2817D115F8010FC1
:102F100044F004042A280ED06FF02F022878A0F184
:102F2000300109290AD808EB880102EB410100EBC6
:102F300001086D1CF2E757F8048B6D1C287869288E
:102F40003ED006DC0028CDD063280BD0642804D105
:102F500036E0732810D075284BD052460D99904713
:102F6000761C85E017F8040B8DF8000000208DF822
:102F70000100E946012003E057F8049B4FF0FF30C1
:102F800061074FF0000401D40AE0641C44450DDAE7
:102F90008442FADB19F804100029F6D106E0641C1B
:102FA0008442FCDB19F804100029F8D1264404E01F
:102FB00019F8010B52460D999047641EF8D257E05C
:102FC00001CF4FF00A0B002802DA40422D2102E027
:102FD000210504D52B218DF82410012103E0E10700
:102FE00005D02021F7E70DF1200908910CE0002120
:102FF000F9E701CF4FF00A0BF9E75946FDF714F94D
:1030000001F1300209F8012D0028F6D1ADEB0900DD
:1030100000F1200B600701D44FF00108D84502DD14
:10302000A8EB0B0000E000208046002406E009A881
:103030005246005D0D999047641C761C08988442A6
:10304000F5DB04E0302052460D999047761CB8F12C
:103050000001A8F10108F5DC05E019F8010B524662
:103060000D999047761CBBF10001ABF1010BF4DC2C
:103070006D1C34E709280100FEF752BF10B5044665
:1030800001E0FEF74DFF14F8010B04490028F8D1C8
:10309000BDE810400A20FEF743BF0000680E002084
:1030A000004040404040404040404141414141405B
:1030B0004040404040404040404040404040404010
:1030C000400502020202020202020202020202029F
:1030D00002202020202020202020200202020202A4
:1030E00002029090909090901010101010101010FC
:1030F0001010101010101010101010100202020208
:10310000020288888888888808080808080808084B
:103110000808080808080808080808080202020247
:1031200040000000A13000006D4941424344584B2B
:103130004D504A404C6C686E4873757E000000002C
:1031400029200000292000006923000069210000D7
:10315000612200001D22000029200000292000001B
:10316000292000002920000029200000292000003B
:10317000292000002920000029200000292000002B
:103180002920000029200000292000005D200000E7
:10319000E92000003D220000E92100008522000016
:1031A00030000000000000000000000000000000EF
:1031B000000000006E0000000000000000000000A1
:1031C00000000000000000006C7300000000000020
:1031D00000000000292800000000000074657374DE
:1031E0000000000000000000052E000000000000AC
:1031F00000000000000000000000000000000000CF
:1032000000000000636F6D70696C65642074696D07
:10321000653A2025732025730D0A00257352414419
:103220004152204D4F44554C453A20505433325A68
:10323000313932204144435F53414D504C45204485
:10324000454D4F25730D0A00253032582000466544
:103250006220323120323032320031383A32353A5F
:103260003436001B5B306D001B5B343B34316D002A
:103270002E2E2F736F757263652F6D61696E2E63CD
:10328000005465726D696E616C006C7320766572B6
:1032900073696F6E20312E302E0D001B5B25644448
:1032A000001B5B4B00257300205F5F5F5F5F20208A
:1032B0005F202020205F20205F5F5F5F2020205F55
:1032C0005F5F20205F5F2020205F5F205F5F200D19
:1032D000007C20205F5F205C7C207C20207C207C88
:1032E0002F205F5F205C202F205F205C2F5F207CE1
:1032F000202F202F2F5F207C0D007C207C20202081
:10330000207C207C20207C207C207C5F5F7C207CBB
:1033100020285F29207C7C207C20285F29207C209D
:103320007C0D007C207C5F5F29207C207C5F5F7CA3
:10333000207C207C20207C207C20285F29207C7C15
:10334000207C2F202F5F207C207C0D007C20205FA4
:103350005F5F2F7C20205F5F20207C207C20207CF2
:10336000207C3E205F203C207C207C20275F205C4E
:103370007C207C0D007C5F7C202020207C5F7C20DA
:10338000207C5F7C5C5F5F5F5F2F205C5F5F5F2FF7
:10339000207C5F7C5C5F5F5F2F7C5F7C0D000000AA
:1033A0000034000000000020680E0000A02E000085
:1033B00068420000680E00205801000078020000FA
:1033C000A8420000C00F0020701A0000B02E0000BC
:1033D00000000000000000000000000000000000ED
:1033E00000000000000000000000000000000000DD
:1033F00000000000000000000000000000000000CD
:103400002DE9F04381B041F68015C2F200059046E7
:103410002A78002A38D0894641F600110646C0F3C2
:10342000C620C2F20001085CC6F30221C840C007F2
:103430002AD000BF2F4657F8184F00F0E1FE014692
:1034400057E8000F47E8001202B1F9E7A042F1D1B6
:10345000A14208D205F1100050E8002F531C40E8AB
:10346000003404B1F8E73246C0F20802EFF30580F9
:10347000002808BFB2B202F140704A46434601B08C
:10348000BDE8F04300F004B8012001B0BDE8F083CE
:103490002DE9F0474FF0805707EAD1074FF000566B
:1034A00041F6801C06EA92064FF080453843C2F28E
:1034B000000C924605EA530530430CF1040252E831
:1034C000004F671C42E8007606B1F8E741F2005E63
:1034D00040EA050904F03F0004F47077C2F2000EE0
:1034E00049EA87370EEB0014984647F040660C34E3
:1034F00054E8007FBB0103D3BFF32F8F002706E002
:1035000007F00047374344E8007505B1F0E77B0159
:1035100000F1D78052E8003F581C42E8000404B193
:10352000F8E703F03F0003F4707349EA83330EEBCE
:10353000001443F040630C3454E8007FBE0103D311
:10354000BFF32F8F002706E007F000471F4344E832
:10355000007505B1F0E77B0100F1B38052E8003F50
:10356000581C42E8000404B1F8E703F03F0003F4FC
:10357000707349EA83330EEB001443F040630C345C
:1035800054E8007FBE0103D3BFF32F8F002706E06E
:1035900007F000471F4344E8007505B1F0E77B01E1
:1035A00000F18F8052E8003F581C42E8000404B14B
:1035B000F8E703F03F0003F4707349EA83330EEB3E
:1035C000001443F040630C3454E8007FBE0103D381
:1035D000BFF32F8F002706E007F000471F4344E8A2
:1035E000007505B1F0E77B0100F16B8052E8003F08
:1035F000581C42E8000404B1F8E703F03F0003F46C
:10360000707349EA83330EEB001443F040630C34CB
:1036100054E8007FBE0103D3BFF32F8F002706E0DD
:1036200007F000471F4344E8007505B1F0E77B0150
:1036300000F1478052E8003F581C42E8000404B102
:10364000F8E703F03F0003F4707349EA83330EEBAD
:10365000001443F040630C3454E8007FBE0103D3F0
:10366000BFF32F8F002706E007F000471F4344E811
:10367000007505B1F0E77B0123D452E8003F581CE8
:1036800042E8000404B1F8E703F03F0003F470726D
:1036900049EA82320EEB001342F0406203F10C045F
:1036A00054E8007FBD0103D3BFF32F8F002706E04E
:1036B00007F00047174344E8007303B1F0E77A01CD
:1036C0002ED587F0044202F0004321F00041194456
:1036D0000EEB001500014EF800102AF0004028F013
:1036E000004118441944C5E9010154E8001F89014B
:1036F00003D2BFF32F8F002004E044E8002303B17E
:10370000F3E7012060B10CF1080050E8001F4A1CEB
:1037100040E8002303B1F8E70120BDE8F08700BFCF
:103720000CF10C0050E8001F4A1C40E8002303B1D4
:10373000F8E70020BDE8F0872DE9F04F81B041F6B1
:10374000801A41F6001B8146C2F2000A0020C2F234
:10375000000B88468AF80000584680214FF0FF375A
:1037600000F06CFD40F65060C2F2000003381821F2
:1037700041F221024FF0FF3310F8036F83EA062372
:103780001EB282EA4304BE42C8BF5C0023B282EA92
:103790004406BB42C8BF660033B282EA4604BB425D
:1037A000C8BF740023B282EA4406BB42C8BF6600A9
:1037B00033B282EA4604BB42C8BF740023B282EA35
:1037C0004406BB42C8BF660033B282EA4604BB422D
:1037D000C8BF740023B282EA4406BB42C8BF660079
:1037E0004478837886EA042634B282EA4605BC42ED
:1037F000C8BF75002EB282EA4504BE42C8BF6C0045
:1038000026B282EA4405BE42C8BF65002EB282EAF3
:103810004504BE42C8BF6C0026B282EA4405BE42DF
:10382000C8BF65002EB282EA4504BE42C8BF6C0024
:1038300026B282EA4405BE42C8BF65002EB282EAC3
:103840004504BE42C8BF6C0084EA03231EB282EA6C
:103850004305BE42C8BF5D002BB282EA4506BB42AB
:10386000C8BF6E0033B282EA4605BB42C8BF7500CE
:103870002BB282EA4506BB42C8BF6E0033B282EA71
:103880004605BB42C8BF75002BB282EA4506BB4263
:10389000C8BF6E0033B282EA4605BB42C8BF75009E
:1038A0002EB282EA4503BE42C8BF6B0003397FF4E3
:1038B00063AFDAF8201042F26B70CEF2A5108142AD
:1038C00040F09280BAF8020099B2884240F08E80AF
:1038D000DAF81C00411C0028CAF81C1000F08B808C
:1038E00041F20050C2F20000002100BF4218D3682C
:1038F00001F580715F0144BF23F04063D360D36959
:103900005F0144BF23F04063D361D36A5F0144BFCA
:1039100023F04063D362D36B5F0144BF23F0406365
:10392000D363D36C5F0144BF23F04063D364D36D92
:103930005F0144BF23F04063D365D36E5F0144BF92
:1039400023F04063D366D36F5F0144BF23F040632D
:10395000D367D2F88C305F0144BF23F04063C2F8D4
:103960008C30D2F89C305F0144BF23F04063C2F832
:103970009C30D2F8AC305F0144BF23F04063C2F802
:10398000AC30D2F8BC305F0144BF23F04063C2F8D2
:10399000BC30D2F8CC305F0144BF23F04063C2F8A2
:1039A000CC30D2F8DC305F0144BF23F04063C2F872
:1039B000DC30D2F8EC305F0144BF23F04063C2F842
:1039C000EC30D2F8FC305F0144BF23F04063C2F812
:1039D000FC30B1F5806F89D100F01EFC07463FBB7B
:1039E000384601B0BDE8F08FCAF820000120AAF8DF
:1039F0000230CAF81C0041F200500026C2F200005A
:103A00004FF480618AF80160CAE90166CAF80C6067
:103A100000F019FC00F000FC002807460CBF002055
:103A200000F0F4FBCAE90460CAF81860002FD7D090
:103A30005FEAC97000F0C18000200121C30800F0D6
:103A400007021BF8036001FA02F216430BF8036049
:103A5000431C03F00706DB081BF8035001FA06F6C7
:103A60002E430BF80360831C03F00706DB081BF8EA
:103A7000035001FA06F62E430BF80360C31C03F053
:103A80000706DB081BF8035001FA06F62E430BF875
:103A90000360031D03F00706DB081BF8035001FA5F
:103AA00006F62E430BF80360431D03F00706DB0800
:103AB0001BF8035001FA06F62E430BF80360831D32
:103AC00003F00706DB081BF8035001FA06F62E4345
:103AD0000BF80360C31D03F00706DB081BF8035057
:103AE00001FA06F62E430BF8036000F10803DB0829
:103AF0001BF8036016430BF8036000F1090303F0A1
:103B00000706DB081BF8035001FA06F62E430BF8F4
:103B1000036000F10A0303F00706DB081BF80350FB
:103B200001FA06F62E430BF8036000F10B0303F0D5
:103B30000706DB081BF8035001FA06F62E430BF8C4
:103B4000036000F10C0303F00706DB081BF80350C9
:103B500001FA06F62E430BF8036000F10D0303F0A3
:103B60000706DB081BF8035001FA06F62E430BF894
:103B7000036000F10E0303F00706DB081BF8035097
:103B800001FA06F62E430BF8036000F10F0303F071
:103B90000706DB081BF8035001FA06F62E430BF864
:103BA000036000F11003DB081BF80360113032439F
:103BB000FF280BF803207FF441AF5FEA897040F1E2
:103BC000D3800020012100BF0BEBD00300F00702DF
:103BD00093F8206001FA02F2164383F82060431C38
:103BE00003F007060BEBD30393F8205001FA06F617
:103BF0002E4383F82060831C03F007060BEBD303EE
:103C000093F8205001FA06F62E4383F82060C31C77
:103C100003F007060BEBD30393F8205001FA06F6E6
:103C20002E4383F82060031D03F007060BEBD3033C
:103C300093F8205001FA06F62E4383F82060431DC6
:103C400003F007060BEBD30393F8205001FA06F6B6
:103C50002E4383F82060831D03F007060BEBD3038C
:103C600093F8205001FA06F62E4383F82060C31D16
:103C700003F007060BEBD30393F8205001FA06F686
:103C80002E4383F8206000F108030BEBD30393F875
:103C90002060164383F8206000F1090303F0070653
:103CA0000BEBD30393F8205001FA06F62E4383F86A
:103CB000206000F10A0303F007060BEBD30393F82F
:103CC000205001FA06F62E4383F8206000F10B0322
:103CD00003F007060BEBD30393F8205001FA06F626
:103CE0002E4383F8206000F10C0303F007060BEB72
:103CF000D30393F8205001FA06F62E4383F8206090
:103D000000F10D0303F007060BEBD30393F82050EB
:103D100001FA06F62E4383F8206000F10E0303F04B
:103D200007060BEBD30393F8205001FA06F62E4357
:103D300083F8206000F10F0303F007060BEBD303B9
:103D400093F8205001FA06F62E4383F8206000F124
:103D500010030BEBD30393F8206011303243FF289C
:103D600083F820207FF430AF5FEA497040F1D280C1
:103D7000002001210BEBD00300F0070293F8406014
:103D800001FA02F2164383F84060431C03F0070671
:103D90000BEBD30393F8405001FA06F62E4383F859
:103DA0004060831C03F007060BEBD30393F84050ED
:103DB00001FA06F62E4383F84060C31C03F00706A1
:103DC0000BEBD30393F8405001FA06F62E4383F829
:103DD0004060031D03F007060BEBD30393F840503C
:103DE00001FA06F62E4383F84060431D03F00706F0
:103DF0000BEBD30393F8405001FA06F62E4383F8F9
:103E00004060831D03F007060BEBD30393F840508B
:103E100001FA06F62E4383F84060C31D03F007063F
:103E20000BEBD30393F8405001FA06F62E4383F8C8
:103E3000406000F108030BEBD30393F84060164396
:103E400083F8406000F1090303F007060BEBD3038E
:103E500093F8405001FA06F62E4383F8406000F1D3
:103E60000A0303F007060BEBD30393F8405001FA63
:103E700006F62E4383F8406000F10B0303F00706BB
:103E80000BEBD30393F8405001FA06F62E4383F868
:103E9000406000F10C0303F007060BEBD30393F82B
:103EA000405001FA06F62E4383F8406000F10D03FE
:103EB00003F007060BEBD30393F8405001FA06F624
:103EC0002E4383F8406000F10E0303F007060BEB6E
:103ED000D30393F8405001FA06F62E4383F840606E
:103EE00000F10F0303F007060BEBD30393F84050E8
:103EF00001FA06F62E4383F8406000F110030BEB45
:103F0000D30393F8406011303243FF2883F84020F8
:103F10007FF430AF5FEA097040F1D28000200121C8
:103F20000BEBD00300F0070293F8606001FA02F295
:103F3000164383F86060431C03F007060BEBD303C2
:103F400093F8605001FA06F62E4383F86060831CF4
:103F500003F007060BEBD30393F8605001FA06F663
:103F60002E4383F86060C31C03F007060BEBD303FA
:103F700093F8605001FA06F62E4383F86060031D43
:103F800003F007060BEBD30393F8605001FA06F633
:103F90002E4383F86060431D03F007060BEBD30349
:103FA00093F8605001FA06F62E4383F86060831D93
:103FB00003F007060BEBD30393F8605001FA06F603
:103FC0002E4383F86060C31D03F007060BEBD30399
:103FD00093F8605001FA06F62E4383F8606000F112
:103FE00008030BEBD30393F86060164383F860601B
:103FF00000F1090303F007060BEBD30393F86050BD
:1040000001FA06F62E4383F8606000F10A0303F01C
:1040100007060BEBD30393F8605001FA06F62E4324
:1040200083F8606000F10B0303F007060BEBD3038A
:1040300093F8605001FA06F62E4383F8606000F1B1
:104040000C0303F007060BEBD30393F8605001FA5F
:1040500006F62E4383F8606000F10D0303F00706B7
:104060000BEBD30393F8605001FA06F62E4383F866
:10407000606000F10E0303F007060BEBD30393F827
:10408000605001FA06F62E4383F8606000F10F03DA
:1040900003F007060BEBD30393F8605001FA06F622
:1040A0002E4383F8606000F110030BEBD30393F809
:1040B000606011303243FF2883F860207FF430AF16
:1040C0009BF81D009BF83D109BF85D2040F08000A0
:1040D0008BF81D0041F080009BF87D109BF85F304D
:1040E0008BF83D0042F080008BF85D0041F08000CD
:1040F0008BF87D0043F040008BF85F00544654F885
:10410000185F00F07DF8014654E8000F44E8001203
:1041100002B1F9E7A842F1D1A94208D20AF1100090
:1041200050E8002F531C40E8003404B1F8E74FF684
:104130000075DAF81C20C0F2003528460023FFF78E
:10414000A7F9B8F1000F3FF44BAC9AF80000002833
:104150007FF446AC01208AF8000000BF544654F8B2
:10416000186F00F04DF8014654E8000F44E80012C3
:1041700002B1F9E7B042F1D1B14208D20AF1100020
:1041800050E8002F531C40E8003404B1F8E7681CE5
:1041900000220023FFF77CF9384601B0BDE8F08F1C
:1041A00070B541F68014C2F20004207810B10120ED
:1041B00070BD00BF01202070264656F8185F00F041
:1041C0001FF8014656E8000F46E8001202B1F9E771
:1041D000A842F1D1A94208D204F1100050E8002F02
:1041E000531C40E8003404B1F8E74FF60170C0F208
:1041F000003000220023FFF74BF9012070BD0000C2
:1042000041F20400CEF200000068704740F66C6096
:10421000C2F20000006870474EF6FC50CEF200007B
:10422000016841F08071016041F20001CEF20001AD
:10423000086840F0010201200A60704740F2B31C98
:10424000C0F2000C604740F2B31CC0F2000C6047A3
:1042500001000101400000000015002000190020AD
:10426000801900200000000061C01D688909003627
:104270006E011B5B33333B316D70743332406363CB
:1042800063633A1B5B306D03FFC831012D000000F2
:10429000000000000000000000000000000000001E
:0842A000000000000000000016
:0400000500000131C5
:00000001FF
