:020000040800F2
:10000000988000201D030008A12900081571000830
:100010009D29000875220008C13F0008000000006B
:10002000000000000000000000000000D1320008C5
:100030005925000800000000330300081D340008A3
:1000400037030008370300083703000837030008A8
:100050003703000837030008370300083703000898
:100060003703000837030008370300083703000888
:100070003703000837030008370300083703000878
:100080003703000837030008370300083703000868
:100090003703000837030008370300083703000858
:1000A0003703000837030008370300080935000844
:1000B0003703000837030008370300083703000838
:1000C0003703000837030008370300083703000828
:1000D000370300083703000837030008453C0008D1
:1000E0003703000837030008370300083703000808
:1000F00037030008370300083703000837030008F8
:1001000037030008370300083703000837030008E7
:1001100037030008370300083703000837030008D7
:1001200037030008370300083703000837030008C7
:1001300037030008370300083703000837030008B7
:1001400037030008370300083703000837030008A7
:100150003703000837030008370300083703000897
:100160003703000837030008370300083703000887
:100170003703000837030008370300083703000877
:100180003703000837030008370300083703000867
:10019000370300083703000800F002F800F0AFF85A
:1001A0000AA090E8000C82448344AAF10107DA45D2
:1001B00001D100F0A4F8AFF2090EBAE80F0013F075
:1001C000010F18BFFB1A43F001031847087700001E
:1001D000287700000A4410F8014B14F00F0508BFFF
:1001E00010F8015B240908BF10F8014B6D1E05D003
:1001F00010F8013B6D1E01F8013BF9D1641E03D0DC
:10020000641E01F8015BFBD19142E4D3704700000A
:100210000023002400250026103A28BF78C1FBD80F
:10022000520728BF30C148BF0B6070476E2900F0ED
:100230006582702900F09B83662906F0CC876529CA
:1002400006F0C987672906F0C687612906F0C587C9
:1002500003681B0A28BF41F08001692900F012825F
:10026000642900F00F82752900F00C826F2900F0DC
:100270002983782900F06783E92900F0C382E42903
:1002800000F0C082F52900F0BD82EF2900F026833E
:10029000F82900F066830368DB0928BF41F080017C
:1002A000632901F0E981732901F0EE81E32901F06E
:1002B000F981F32901F0FE81002070471FB506F097
:1002C0007DFF9DE8030001F07FFB00F075F904005D
:1002D0000020002106F046FF401C60600020002145
:1002E00006F056FFE06000F011FC00F053F91FBD6E
:1002F00010B5002001F0CCFA00F071FC10BD01F047
:1003000022FB1146FFF7DAFF05F054FC01F038FD3F
:1003100003B4FFF7EDFF03BC01F05AFD0948804725
:1003200009480047FEE7FEE7FEE7FEE7FEE7FEE7D7
:10033000FEE7FEE7FEE7FEE704480549054A064BEF
:10034000704700003D34000899010008986F0020B4
:1003500098800020987000209870002010B500F060
:100360002BF9001D10BD00BFFD6D00000FB4044946
:1003700010B503AA029800F0D5F910BC5DF814FB83
:10038000B401002005F060BA0B460146184600F0A3
:1003900059BC30B505460B462A4613F8014B12F8F6
:1003A000010B08B1A042F8D01CB1002802D06D1C8E
:1003B000F1E7284630BD40EA0103024630B59B070D
:1003C00010D14FF0013400E008C208C91D1B9D4345
:1003D00015EAC41FF8D013F0FF0102F8011B0DD07D
:1003E0001B0AF8E711F8013B002B02F8013B05D08E
:1003F00011F8013B002B02F8013BF3D130BD10B5E1
:10040000431C02E010F8011B71B18107FAD14FF0D3
:10041000013202C88C1A8C4314EAC211F9D0C01AF6
:100420000A0603D0C01E10BDC01A10BD0A0401D0B8
:10043000801E10BD0902FCD0401E10BD032A40F2F0
:10044000308010F0030C00F0158011F8013BBCF176
:10045000020F624498BF11F801CB00F8013B38BF8E
:1004600011F8013BA2F1040298BF00F801CB38BF9C
:1004700000F8013B11F0030300F0FB83083AC0F0E1
:10048000088051F8043B083A51F804CBA0E8081062
:10049000F5E7121D5CBF51F8043B40F8043BAFF395
:1004A0000080D20724BF11F8013B11F801CB48BFEF
:1004B00011F8012B24BF00F8013B00F801CB48BF25
:1004C00000F8012B70474FF000020429C0F01280A1
:1004D00010F0030C00F00184CCF1040CBCF1020F0D
:1004E00018BF00F8012BA8BF20F8022BA1EB0C01CC
:1004F00000F0F3BB5FEAC17C24BF00F8012B00F8D9
:10050000012B48BF00F8012B7047000000000000DD
:1005100030B44FF0013C50F8042B51F8043BCCFAB6
:1005200052F4D51A20D1FCB950F8042B51F8043BF1
:10053000CCFA52F4D51A17D1B4B950F8042B51F8AB
:10054000043BCCFA52F4D51A0ED16CB950F8042BF6
:1005500051F8043BCCFA52F4D51A05D1002CDAD06C
:1005600030BC4FF00000704729BAB1FA81F111F0A8
:100570001801D1F120008440F2D1CA40CB4012F0E2
:10058000FF0213F0FF0330BCD01A7047704770476A
:100590007047000070B5064C7C44064D7D4404E075
:1005A0002046016808448047241DAC42F8D170BD44
:1005B0008474000084740000004870477C020020AE
:1005C00070B5044685690068C10601D5302600E093
:1005D0002026C00707D070BDD4E9012130469047DE
:1005E000206A401C20626D1EF6D570BD70B50446B1
:1005F00085690078C00707D170BDD4E901212020AA
:100600009047206A401C20626D1EF6D570BD0968B7
:100610004A0501D540B27047C905FCD500B2704704
:1006200009684A0501D5C0B27047C905FCD580B23A
:10063000704770B50C460546012A05D0287880061B
:1006400000D5EA69002302E0012305E05B1C934228
:1006500002D2E05C0028F9D1A869E618C01AA861A6
:10066000286A184428622846FFF7AAFF04E0D5E963
:10067000012114F8010B9047B442F8D32846FFF744
:10068000B5FF70BD2DE9F0410646002410687529BC
:10069000314616A510D0FFF7BAFF002802DA404213
:1006A00013A507E031688A0701D512A502E04907C2
:1006B00004D511A5012401E0FFF7B2FF00210A22B1
:1006C00006F1240709E0B0FBF2FCB0FBF2F302FBF9
:1006D0001C00303078541846491C0028F3D12346BA
:1006E0002A463046BDE8F04100F0BFBB00000000E4
:1006F0002D0000002B00000020000000116802689F
:10070000006A530501D508700AE0D30501D50880B9
:1007100006E0130603D5C217C1E9000200E0086035
:1007200001207047074B70B50D467B4400F087FFF2
:100730000446284600F0C2FF10B14FF0FF3070BDF4
:10074000204670BD1B5100002DE9FF5F15468A460B
:100750000446DFF8AC80F8440027D8E900103E4694
:10076000CDE9001010E03AF816106A4602A801F030
:100770006BF8411C07D02178890603D5E269391846
:1007800091420DD80744761C2078800602D5E06996
:10079000B84205DDAE42E6DB3AF816000028E2D1A9
:1007A000A069C01BA0612046FFF70AFFD8E900102E
:1007B000CDE90010002017E03AF818106A4602A8A8
:1007C00001F042F8B0F1FF3F81460BD000250DF15A
:1007D000080B05E0D4E901211BF8050090476D1CCA
:1007E0004D45F7D308F10100B0428046E4DB206AB2
:1007F000384420622046FFF7F9FEBDE8FF9F000065
:10080000866A00002DE9F0418046D21D22F00702E1
:100810000025D2E90002F52915A614D0011E72F1B7
:10082000000106DA0023D0EB030063EB020211A6FD
:1008300008E0D8F800108B0701D50FA602E04907A1
:1008400001D50EA601251146002408F1240704E075
:1008500000F0C6FA30323A55641C50EA0102F7D172
:100860002B46324621464046BDE8F04100F0FDBA35
:10087000000000002D0000002B0000002000000000
:1008800030B4002100F1240408E002F00705D2088A
:10089000303542EA4372DB086554491C52EA0305CD
:1008A000F3D10468002310A2250708D504F0200422
:1008B0000C4304D0C46901230CA2641EC46130BC83
:1008C00000F0D3BA10B5044621461068FFF7A8FE21
:1008D00002462046BDE810400023D1E7D21D22F099
:1008E0000701D1E90023CBE7000000003000000041
:1008F000F0B40D460188090502D5214C7C4402E084
:100900001F4C7C440E34002100F1240608E002F064
:100910000F071209E75D42EA03721B097754491C6D
:1009200052EA0307F3D102780023120704D5702D91
:1009300006D009B1022311342246F0BC00F095BA6A
:1009400001231034F8E770B504460D4621461068BF
:10095000FFF766FE024629462046BDE870400023A8
:10096000C6E7D21D22F00703D3E90023C0E70368DE
:10097000126843F0200303600823C3610023B7E734
:10098000E86800002DE9F05F894604464FF0000A50
:10099000DFF874B1FB44C0F820A02046E168884726
:1009A000002874D0252806D0D4E901219047206A78
:1009B000401C2062F1E700265F462046E168884738
:1009C0002028054607DB312D05D2781910F8200CB8
:1009D00008B10643F1E7B00701D526F00406C4F8D4
:1009E0001CA00027C4F818A02A2D09D0284606F01C
:1009F000B2FB38B304EB8708303DC8F8185019E053
:100A000059F8041B204604EB87029161E16888478E
:100A1000012F054618D1E069002820DA26F02006CB
:100A20001DE0D8F8180000EB800005EB40003038DE
:100A3000C8F818002046E1688847054606F08BFB99
:100A40000028EED1012F0AD02E2D08D12046E168D2
:100A500088477F1C0546022F46F02006C4DBA069AC
:100A6000002803DA404246F00106A061F00701D0F9
:100A700026F010066C2D0BD0682D09D04C2D39D0E6
:100A80006A2D35D0742D35D07A2D33D016E038E06C
:100A9000E1682F4620468847B842054609D16C2FA9
:100AA00026D04FF48060E16806432046884705461B
:100AB00004E06C2F1AD04FF4807006430DB3A5F1FB
:100AC0004100192802D8203546F400664A462946D6
:100AD000204626604E46FFF7A9FB80B101280BD0C7
:100AE000F61D26F0070000F1080956E74020E4E76C
:100AF0008020D8E70020D6E706F104094DE7284614
:100B000052E7206ABDE8F09F7868000010B54248BF
:100B1000542100F0E0F84148542100F0DCF840484E
:100B2000542100F0D8F83F493B483C4A3F4B08600D
:100B30003D490A603A491960531C0365481C106519
:100B4000012008653B48344A39A1784400F0DEFDB5
:100B500020B9384878440A3800F0BBFE37482F4A9D
:100B600035A1784400F0D2FD20B9344878440A38E1
:100B700000F0AFFE32482A4A2FA1784400F0C6FDAB
:100B800020B92F4878440A3800F0A3FE40232248B9
:100B9000DC000021224600F095FD20B12548784474
:100BA000543800F096FE1D4822464023002100F0F4
:100BB00089FD20B121487844543800F08AFE184855
:100BC00022461023002100F07DFD002806D01C489D
:100BD0007844BDE81040563800F07BBE10BD104888
:100BE00070B5006D20F001040B4800F007FE0B48C3
:100BF00000F004FE0A4800F001FE09E0206D20F03C
:100C00000105204600F0FAFD204600F0C2F82C460F
:100C1000002CF3D170BD000060010020B401002061
:100C2000080200200000002004000020080000202E
:100C300072000000D366000077000000BF6600006D
:100C4000AB6600002DE9F041074615460E46102020
:100C500000F070F804000AD06760C4E9026500F093
:100C600065F80168216004600020BDE8F081012082
:100C7000FBE710B5203AC0F00B80B1E81850A0E8AF
:100C80001850B1E81850A0E81850203ABFF4F5AF5A
:100C90005FEA027C24BFB1E81850A0E8185044BFB6
:100CA00018C918C0BDE810405FEA827C24BF51F823
:100CB000043B40F8043B08BF7047D20728BF31F817
:100CC000023B48BF11F8012B28BF20F8023B48BF68
:100CD00000F8012B70474FF0000200B51346944610
:100CE0009646203922BFA0E80C50A0E80C50B1F184
:100CF0002001BFF4F7AF090728BFA0E80C5048BF98
:100D00000CC05DF804EB890028BF40F8042B08BF35
:100D1000704748BF20F8022B11F0804F18BF00F831
:100D2000012B7047004870475C0200200048704764
:100D30009402002070B5064600F02AFE056806F110
:100D40000B0020F00704B4429CBF002070BD2B466E
:100D50006A68BAB11068A04210D304F10801884251
:100D60003CBF5068586007D3516810194160116842
:100D7000091B016058601460101D70BD1346526855
:100D8000002AE7D12146284600F00AFE0028DED1DD
:100D900070BD70B50446051F00F0FAFD0068002C18
:100DA00014BF446870BD002C18BFAC423CBF204645
:100DB0006468F8D301680A18AA4218BF456003D1D5
:100DC0002A6805461144016028684119A1421CBFE8
:100DD0006C6070BD6168696021680844286070BDFE
:100DE00030B5B0F10A0271F100034FEA900E4EEAFD
:100DF000817EB0EB0E0061EB91014FEA101E4EEACE
:100E0000017E10EB0E0041EB11114FEA102E4EEA5D
:100E1000016E10EB0E0041EB11214FEA104E4EEA2D
:100E2000014E10EB0E0041EB1141401841F1000161
:100E30004FEAD00040EA41704FEAD1014FEA810405
:100E400044EA907410EB800544EB01046D1944EB07
:100E50000404521BA3414FF0000348BF0A3200D5DF
:100E600030BD401C41F1000130BD2DE9F0470D4679
:100E700099469246044600F124080168880604D584
:100E8000E06921F01001216000E00120A84201DDAD
:100E9000471B00E00027A1697A1902EB0900081A34
:100EA000A0612078C00602D42046FFF789FB002607
:100EB00008E0D4E901211AF806009047206A401C96
:100EC000761C20624E45F4DB2078C0060AD5204609
:100ED000FFF776FB06E0D4E9012130209047206A35
:100EE000401C2062381EA7F10107F4DC07E0D4E9BA
:100EF000012118F805009047206A401C2062281E36
:100F0000A5F10105F3DC2046FFF770FB2078000611
:100F100002D50220BDE8F0870120FBE72DE9FF4F55
:100F20000C461E464FF0FF378BB0D2E90001DDF8CA
:100F300060800A908A46C1F30A5505B93D460021F2
:100F400008464FF00000BAF1000F00F4400005DA47
:100F500000EB80004FF4400101EA50004FEA905945
:100F6000B9F1010F00DDB9460A9850EA4A000ED0E7
:100F700044F61050A5F2FF3545432F14B8F1000F89
:100F80001ED07542291E1EDDC9F100021CE0B8F119
:100F9000010F4FF0000001D0302103E0F24305E0E3
:100FA0002154401CB042FBDB30460022002121547A
:100FB0000B99C1F80880C1E900200FB0BDE8F08F9F
:100FC000BD1B6D1CDEE74A4600DA694206A800F048
:100FD00071FD06AB93E8070003AB83E807005046BA
:100FE0000A9905F0CEFC8DE80700A0F500501F38E7
:100FF00000900398002D0ADD42F21F014A46084482
:10100000002303A90390684605F038FF09E0A0F526
:1010100000504A461F38002303A90390684605F094
:1010200042FF8DE807000004000C03D04FF0FF30B2
:10103000410800E01046B8F1000F03D000220092F2
:1010400015461EE0751E05D4FFF7CAFE3032625504
:101050006D1EF9D5B3460122084302D000227F1C41
:1010600004E02078302801D100227F1E002A099751
:1010700084D01DE0112D07DAFFF7B2FE3032625541
:101080006D1C50EA0102F5D1084302D00098C8B1A6
:101090000EE00021681E05E0235C625C635422546C
:1010A000401E491C8142F7DBAB46A81B401E09903D
:1010B000002004F80B000B98099AC0F80880C0E9DA
:1010C000002B7AE711264FF0000857E72DE9F04F83
:1010D00088460446D21D22F0070191B0D1E90001F3
:1010E000CDE90A0106F01FF802460B98C00F01D0A7
:1010F0002D2007E02068810701D52B2002E0202168
:1011000001EAC000032A099001D0072A05DB034643
:101110004146204600F08EFC0BE12078800601D588
:10112000E06900E00620B8F1650F814606D0B8F10D
:10113000660F18D0B8F1670F70D131E00020B9F117
:10114000110F009001DB112301E009F101030AAA4C
:1011500001A90CA8FFF7E2FEDDE90C70002609F1F9
:101160000105834647E001204B4600904FF00047C1
:101170000AAA01A90CA8FFF7D1FEDDE90DB00C9970
:101180005D46002610B909F101000D18B9EB050004
:1011900003D4C0F1FF3609F10105A5EB09002BE0EE
:1011A000B9F1010F01DA4FF001090020B9F1110F77
:1011B0000090484601DD112300E003460AAA01A978
:1011C0000CA8FFF7ABFEDDE90C704D460026834608
:1011D000207800070AD4AB4500DA5D4601A8012D4E
:1011E00004DD411911F8011C302907D04F4502DAFE
:1011F00017F1040F04DA012082460FE06D1EEEE7BE
:10120000002F02DCED1B3E4403E0781CA84200DD09
:101210007D1CB81B00F1010A4FF000472078000741
:1012200003D4AA4501DB4FF0FF3A0021B7F1004F8C
:101230000DF143088DF8431024D002202B23002FFA
:1012400001DA7F422D230A21021EA0F1010000DCF9
:101250005FB197FBF1FC97FBF1F201FB1C7C174699
:101260000CF1300C08F801CDEEE7A8F10100037095
:101270002188090501D5452100E06521A0F101087B
:1012800000F8011C09980FA9A1EB0807FF1D00B188
:101290000120411901EBEA70A1693844081A401E87
:1012A000A0612078C00602D42046FFF789F909988A
:1012B00028B1D4E901219047206A401C206220789F
:1012C000C00622D52046FFF77BF91EE0002E04DB86
:1012D000B34502DD01A8805D00E03020D4E90121A2
:1012E0009047206A401C2062761CAAF101005FEA48
:1012F000000A0AD1FFF760F9C0680168405CD4E9D0
:1013000001219047206A401C2062281EA5F101059A
:10131000DCDC07E0D4E9012118F8010B9047206AD2
:10132000401C2062381EA7F10107F3DC2046FFF7BE
:101330005DF9032011B041E62DE9F04F04460D465A
:10134000D21D22F0070089B0D0E9009748463946FF
:1013500005F0E9FE0246F80F01D02D2307E02068D2
:10136000810701D52B2302E0202101EAC0038DF87B
:1013700020300BB1012000E00020032A824601D07A
:10138000072A04DB2946204600F054FB3FE1207881
:10139000800601D40D2500E0E569C7F30A560D2D3E
:1013A00049DA00214FEA175B08464FF00000002F92
:1013B00000F4400007DA00EB80004FF4400100EB3E
:1013C000D07001EA60008115012901DD4FF0FF3185
:1013D00000224FEA850CBCF1180F06D31346ACF17E
:1013E00018004FF08052C24003E04FF4801323FAFC
:1013F0000CF30CF10C0CBCF1200F04D3ACF1200C5D
:1014000009FA0CF001E007FA0CF000294FF000484F
:1014100001DD18B90FE00ED140450CD319EB0209DC
:101420005F4121B9404502D19F4329EA0209BBEB44
:10143000175F00D0761C2088000502D57B487844D1
:1014400002E07A487844193808AA302302F80A30B2
:10145000037C0AF10101002E0AF1020A53546A4684
:1014600002DC4FF0300101E04FF031014FF0010894
:101470008DF8001002D0A6F2FF3603E059EA4701CA
:1014800000D06B4E002D02DC2178090704D54FF007
:1014900002082E218DF80110C44600210BE0C7F38D
:1014A00003433F01C35C491C6D1E02F80830052947
:1014B00008F1010801DA002DF1DC00210CE000EB5D
:1014C0001973491C1B786D1E082902F808304FEA71
:1014D000091908F1010801DA002DF0DC21688B06FA
:1014E00002D516E0A8F10108E04505DD02EB08038E
:1014F00013F8013C302BF5D0B8F1000F09DD02EBF9
:10150000080313F8013C2E2B03D1090701D4A8F1DD
:101510000108002D05DD3E2102F808106D1E08F1BE
:101520000108407C002E02F8080008F1010804DAE6
:101530002D20764202F8080002E02B2002F8080075
:101540000A214FF47A70864208F101080BDB96FB02
:10155000F0F3303302F8083096FBF0F308F101089D
:1015600000FB136601E0642E0CDB642096FBF0F3B5
:10157000303302F8083096FBF0F308F1010800FB65
:10158000136601E00A2E06DB96FBF1F0303002F81C
:10159000080008F1010896FBF1F001FB1060303003
:1015A00002F80800A16908F1010808EB050202EB46
:1015B0000A00081AA0612078C00602D42046FEF76F
:1015C000FFFF216A08AE01EB0A00206204E0D4E9C3
:1015D000012116F8010B9047BAF1010AF7D22078E1
:1015E000C00602D52046FEF7EBFF6E4609E016F86E
:1015F000010B3E280FD0D4E901219047206A401CFE
:101600002062B8F10108F2D22046FEF7EFFF09B0E0
:101610000320BDE8F08F206A2844206203E0D4E96B
:101620000121302090476D1EEBD3F8E7FE5D0000EE
:1016300002FCFFFF01694A1C02610878704700B58F
:101640008FB0CDE901310021059105497944CDE9FB
:10165000031011466846FFF795F90FB000BD000072
:10166000E5FFFFFF10B5436913B1AFF3008001E060
:10167000FEF7DFFF012010BD127800F124010A708F
:1016800000224A700122EDE711684FF0FF32E9E7CE
:1016900010B5436913B1AFF3008001E0FFF754F8D0
:1016A000012010BD128800F1240182840022C2842E
:1016B0000122EDE711684FF0FF32E9E7007B00F00F
:1016C0008000704770B5C468A50713D0650211D4B7
:1016D000B2F5807F09D0B2F5007F06D0B2F5806FF9
:1016E00008D1012300F1240106E05D1E6FF07F4662
:1016F000B54201D3012070BD0161C361416024F492
:1017000070611143C160002070BD00002DE9F041FF
:101710000C461646070047D0104600F06FF82078B8
:10172000611C61280AD0722802D077283CD102E0DF
:101730000125002405E00225042402E0082448F2E3
:10174000020511F8010B2B2806D0622809D011F8E8
:10175000010C74280AD00BE045F0030544F00204A4
:10176000EFE745F0040544F00104EAE744F0100413
:101770003846214600F0B4F8411C15D000213161F3
:1017800071604FF40071F560F1617061200704D55C
:1017900030460222002100F0FFF9306D40F00100D8
:1017A00030653046BDE8F0810020FBE72DE9F041CF
:1017B0000D460646104C206DC10704D0410804D0E8
:1017C00020F00104F7E722460EE05420FFF7B2FABA
:1017D00007000ED0206D47F0010108435421206519
:1017E0003846FFF778FA3A4629463046BDE8F041D8
:1017F0008CE70020D6E70000600100202DE9F047CB
:1018000004464FF000094FF0FF37C568D4E904865D
:10181000A80707D0204600F06FFA304600F06AF8BB
:10182000002802DA3846BDE8F087280502D5404690
:10183000FFF7AFFA4C212046FFF74DFA206D20F05C
:10184000010020654846EEE72DE9F04116460C46BA
:101850000546FEF783FD036893F80101012807D0D0
:10186000FF2C12D8185D80B101202C70BDE8F081EA
:10187000D3F807013246214603F20713C71828465A
:10188000BC46BDE8F041002360474FF0FF30EDE774
:101890002DE9F0410646FFF749FA8046454613E038
:1018A00016B1E068B0420ED120682860D4E9010189
:1018B000D8F8007088472046FFF76BFAD8F8000088
:1018C000B842EBD100E025462C68002CE8D1BDE8F9
:1018D000F08110B500F062FABDE8104000F059BA8E
:1018E0000EB5CDE90001FEF78AFD029069460120A0
:1018F000ABBE0EBD08B5694600900220ABBE08BD68
:101900001FB58DE8070069460520ABBE04B010BDC9
:101910001FB58DE80F0069460620ABBEF6E708B597
:10192000694600900920ABBE08BD1CB5CDE9000199
:1019300069460A20ABBE1CBD704708B569460090D9
:101940000C20ABBE08BD7546FFF7ECF9AE460500AE
:101950006946534620F00700854618B020B5FEF7CB
:10196000EBFCBDE820404FF000064FF000074FF0C1
:1019700000084FF0000BAC46ACE8C009ACE8C00969
:10198000ACE8C009ACE8C00921F007018D467047FA
:1019900000487047640200207047704770477047E6
:1019A00038B504460A4600206946AFF30080002897
:1019B00008BF38BD02460099204600F010FA012009
:1019C00038BD012000F05FBAF8B5AFF300800546DE
:1019D00000200C46102000BF0646A819A0420DD9D1
:1019E000324669460020AFF30080070008BF00F0D0
:1019F0004AFA0098A04218BF0546C419FFF7C8FF6D
:101A000005600746F01D20F007004619284600F043
:101A10000AF8B44208BFF8BDA21B31463868BDE8D9
:101A2000F84000F0DCB900210160C0E90110704706
:101A3000102070472DE9F0411F4604460326016837
:101A4000072A01F4006004DB08B116A505E016A51D
:101A500003E008B115A500E015A521F010002060F5
:101A6000A069C01EA0610FB1401EA0612046FEF714
:101A7000A7FD4FB1D4E9012138469047206A401CA8
:101A80002062C01C206206E0206AFAE7D4E9012146
:101A900015F8010B9047761EF8D22046FEF7A6FDFA
:101AA000BDE8F0814E414E006E616E00494E460029
:101AB000696E66002DE9F047814616468AB03548C2
:101AC00078440DC88DE80D0032487844801C03AC82
:101AD0000DC884E80D0041F69B300844372190FB87
:101AE000F1F290FBF1F5A5F1800501FB12041B3C1E
:101AF00002D56442012000E00020DFF898A0804673
:101B00000027FA44AAF1BE0A0EE0E0070AD03246E6
:101B1000684607EB470101230AEB810105F0C3F991
:101B20008DE8070064107F1C002CEED1194F7F4414
:101B3000AE3F19E0E80715D007EB04100DF1180AC5
:101B400090E80E008AE80E00C068F04201D19819B2
:101B500008903246012306A903A805F0A4F903ABB7
:101B600083E807006D10641C002DE3D14FF00103E2
:101B700032466946B8F1000F03A802D005F07EF99D
:101B800001E005F090F9C9E90001C9F808200AB0A0
:101B9000BDE8F0870C5800002DE9F04104461646D8
:101BA0000D464769007B80072ED03846FFF7B7FE09
:101BB00050BB3EB3012E02D0022E25D104E02046B8
:101BC00000F027F905441DE03846FFF7B6FEE1684E
:101BD000002841F01001E16005DA204600F058F8D5
:101BE0000120BDE8F081C9030BD56268E16A91422A
:101BF00000D81146A26911442269891A814200DD88
:101C000008460544002D01DA0220EAE7E16A60682F
:101C1000E268814206D29103E06203D522F40031EA
:101C200041F01002A6690027AE4213DCE16A81424E
:101C300001D90B4600E0034603EB060C2369ACEB2D
:101C4000030CAC4506DD814201D98C4600E0844698
:101C50009C4505D1A760276042F02000A5620DE0F9
:101C6000AD1BE669AE1B8142A66000D90846C01ACA
:101C7000281A20605819606022F0200003490840AB
:101C8000E060002084F84870ABE70000BFCFD7FFCA
:101C9000C16821F4001141F08001C1600021816020
:101CA000016070472DE9F047814614460E464FF01B
:101CB000FF383248D5685769054209D03846A169CE
:101CC000FFF733FE002811DB2C48C0430540E560D8
:101CD0002B46324649463846FFF712FEA16920F0EE
:101CE0000042B21A11440028A16103D02046FFF738
:101CF000CFFF4046BDE8F08770B504460569C06A6D
:101D00006168884200D80846E16821F42011E1604A
:101D1000C90312D5A84208D02246411B2846FFF726
:101D2000C1FF10B14FF0FF3070BD0020E562C4E983
:101D30000150E06820F48030E060002070BD10B5F4
:101D40000446C06820F02000E060A16AA0698842D3
:101D50000DD02046FFF7D0FFE06820F4405040F05F
:101D60001000E060A06AA0612069E062606044F257
:101D70004001E0688843E06010BD000010000200F0
:101D800010B50446AFF300802046BDE81040FEF7D2
:101D9000BFBA002801D000F01BB8704710B501464B
:101DA00002A000F057F8012010BD0000534947522F
:101DB000545245443A2052656469726563743A200E
:101DC00063616E2774206F70656E3A20000000001A
:101DD00001491820ABBEFEE726000200704703460B
:101DE00040688C46002818BF88423CBF03464068C4
:101DF000F8D318681844884207D00CF1030020F08B
:101E00000700001D411A521A0146081D0A60FEF71C
:101E1000C0BF10B50146C268900703D0900607D531
:101E2000886A0AE000F03EF801210160881E10BDBA
:101E30008B69486818440B69C01A91F848301BB187
:101E400091F84910401A10BD1103FCD50028FADDA5
:101E5000401E10BD70B505460C460A2000E06D1C02
:101E600000F018F835B128780028F8D102E0641C99
:101E700000F010F814B120780028F8D1BDE87040C7
:101E80000A2000F007B810B500F010F8BDE81040C7
:101E9000FFF77FBF08B569468DF800000320ABBE91
:101EA00008BD0000004870475C02002010B5012802
:101EB00005D0002103A0FFF7CDFF012010BD09A12F
:101EC000F8E7000053494752544D454D3A204F75AD
:101ED00074206F662068656170206D656D6F727922
:101EE000000000003A2048656170206D656D6F72DA
:101EF0007920636F727275707465640080B582B00A
:101F00008DF8070000919DF8070048B9FFE74FF4EE
:101F10008070002100F0E0FD009800F0C7FD07E0B0
:101F20000098012100F0D8FD002000F0BFFDFFE780
:101F300002B080BD84B003908DF80B108DF80A209C
:101F40008DF809300020019000909DF80B001228B8
:101F500010D1FFE70398C06D0190019820F00700B1
:101F600001909DF809100198084301900198039988
:101F7000C86544E09DF80B000A2821DBFFE70398C1
:101F8000C06801909DF80B0000EB4000A0F11E011D
:101F900007208840009000990198884301909DF89F
:101FA00009009DF80B1001EB41011E39884000909B
:101FB000009901980843019001980399C8601DE0B9
:101FC0000398006901909DF80B0000EB4001072089
:101FD0008840009000990198884301909DF809007D
:101FE0009DF80B1001EB4101884000900099019889
:101FF00008430190019803990861FFE7FFE79DF806
:102000000A00062820DCFFE70398406B01909DF84A
:102010000A0000EB8000411F1F20884000900099BB
:102020000198884301909DF80B009DF80A1001EB80
:10203000810105398840009000990198084301907A
:1020400001980399486347E09DF80A000C2821DCB9
:10205000FFE70398006B01909DF80A0000EB8000F9
:10206000A0F123011F208840009000990198884327
:1020700001909DF80B009DF80A1001EB81012339B6
:1020800088400090009901980843019001980399B5
:10209000086320E00398C06A01909DF80A0000EBF5
:1020A0008000A0F141011F20884000900099019814
:1020B000884301909DF80B009DF80A1001EB810107
:1020C0004139884000900099019808430190019897
:1020D0000399C862FFE7FFE704B0704782B0019040
:1020E0008DF803109DF8030030B1FFE7019988686F
:1020F00040F00100886005E00199886820F0010047
:102100008860FFE702B0704782B001908DF803103D
:102110009DF8030030B1FFE70199886840F48070B2
:10212000886005E00199886820F480708860FFE786
:1021300002B0704782B001908DF803109DF8030043
:1021400030B1FFE70199886840F4A000886005E09D
:102150000199886820F4A0008860FFE702B070470A
:1021600082B0019000208DF803000198806840073C
:10217000002804D5FFE701208DF8030003E00020CC
:102180008DF80300FFE79DF8030002B070470000E0
:1021900082B001908DF8031000208DF802000198A4
:1021A000806D9DF80310084204D0FFE701208DF8F0
:1021B000020003E000208DF80200FFE79DF8020016
:1021C00002B0704784B003900291002001908DF816
:1021D000030003984068019001984FF6FF61CFF625
:1021E000F0710840019002990868097940EA0121DC
:1021F000019808430190019803994860039880680A
:10220000019001984FF2FD71CFF6F17108400190F5
:102210000299C8688A681043497940EA41010198E7
:10222000084301900198039988600398C06A01905F
:10223000019820F4700001900298007C411E9DF8E6
:10224000030008438DF803009DF80310019840EA4D
:102250000150019001980399C86204B070470000D2
:1022600081B000900099886840F00400886001B057
:1022700070470000FFE7FEE781B000900099086812
:102280004FF6FE7210400860009900200860009927
:102290004860009988600099C86000980821C4F2DD
:1022A0000201884208D1FFE70421C4F20201086854
:1022B00040F00F000860FFE000981C21C4F202010A
:1022C000884208D1FFE70421C4F20201086840F007
:1022D000F0000860EFE000983021C4F2020188426B
:1022E00008D1FFE70421C4F20201086840F47060DD
:1022F0000860DFE000984421C4F20201884208D15E
:10230000FFE70421C4F20201086840F4704008604D
:10231000CFE000985821C4F20201884208D1FFE7BB
:102320000421C4F20201086840F470200860BFE094
:1023300000986C21C4F20201884208D1FFE7042111
:10234000C4F20201086840F470000860AFE0009831
:102350008021C4F20201884208D1FFE70421C4F2BF
:102360000201086840F0706008609FE000989421C6
:10237000C4F20201884208D1FFE70421C4F202013D
:10238000086840F0704008608FE0009840F2084113
:10239000C4F20201884209D1FFE740F20441C4F2CD
:1023A0000201086840F00F0008607DE0009840F2EC
:1023B0001C41C4F20201884209D1FFE740F2044106
:1023C000C4F20201086840F0F00008606BE0009879
:1023D00040F23041C4F20201884209D1FFE740F2E5
:1023E0000441C4F20201086840F47060086059E0DA
:1023F000009840F24441C4F20201884209D1FFE74B
:1024000040F20441C4F20201086840F470400860E0
:1024100047E0009840F25841C4F20201884209D1D5
:10242000FFE740F20441C4F20201086840F4702062
:10243000086035E0009840F26C41C4F20201884225
:1024400009D1FFE740F20441C4F20201086840F4F8
:102450007000086023E0009840F28041C4F202015D
:10246000884209D1FFE740F20441C4F20201086842
:1024700040F07060086011E0009840F29441C4F2AE
:102480000201884209D1FFE740F20441C4F202018F
:10249000086840F070400860FFE7FFE7FFE7FFE7EC
:1024A000FFE7FFE7FFE7FFE7FFE7FFE7FFE7FFE7FC
:1024B000FFE7FFE7FFE7FFE701B0704782B0019059
:1024C0008DF803109DF8030030B1FFE7019908680B
:1024D00040F00100086006E0019908684FF6FE72BE
:1024E00010400860FFE702B07047000080B583B07D
:1024F00002900191002000900298006800900098DE
:1025000047F6F071884300900199D1F820E088687F
:10251000D1F810C04B698A6940EA0E0040EA0C000D
:1025200018431043CA6910434A6A1043896A014339
:102530000098084300900098029908600198C068CC
:102540000299486001980068029988600198406883
:102550000299C86003B080BD7047000081B0009050
:102560000098006901B0704781B000900099002088
:10257000086100994868886000994868C86001B09F
:102580007047000082B000900098006920B9FFE712
:1025900001208DF8070003E000208DF80700FFE719
:1025A0009DF8070002B0704784B003900291019239
:1025B00000200090FFE700980199884240D2FFE791
:1025C0000398006908B9FFE73AE003984268C168D8
:1025D0000069891AB0EBA10F09D9FFE703990A68CE
:1025E000C8680B69D21A00EB8200886006E0039984
:1025F000C8680A69A0EB82008860FFE70299039827
:1026000080680068086003998868043088600298D0
:102610000430029003990869013808610398026840
:102620004168806801EB8201884204D3FFE7039987
:1026300048688860FFE7FFE7009801300090BAE73C
:1026400004B0704784B00390029101920020009082
:10265000FFE70098019988422AD2FFE703980168B2
:1026600000690139884201D9FFE721E00398C16878
:102670000298006808600399C8680430C86002982E
:1026800004300290039908690130086103980268D8
:102690004168C06801EB8201884204D3FFE70399D7
:1026A0004868C860FFE7FFE7009801300090D0E776
:1026B00004B0704780B582B001910090009801A9E4
:1026C0000122FFF7BFFF02B080BD000088B0079075
:1026D00006910020059004900390029001900090D4
:1026E0000698C07800F00F0005900698C078C006E4
:1026F000002806D5FFE706988178059808430590DD
:10270000FFE70698007800284BD0FFE7079800689D
:10271000019000200390FFE7039807283DD8FFE7CA
:102720000399012088400290069800880299084089
:1027300004900498029988422AD1FFE70398800008
:10274000029002990F2088400090009901988843D8
:1027500001900598029900FA01F10198084301904F
:102760000698C078282806D1FFE703990120884001
:10277000079948610BE00698C078482806D1FFE722
:1027800003990120884007990861FFE7FFE7FFE709
:10279000FFE7039801300390BEE7019807990860AE
:1027A000FFE706980088B0F5807F50DBFFE70798C9
:1027B0004068019000200390FFE70398072842D863
:1027C000FFE7039800F10801012088400290069875
:1027D00000880299084004900498029988422DD1FB
:1027E000FFE703988000029002990F208840009034
:1027F00000990198884301900598029900FA01F127
:102800000198084301900698C078282808D1FFE76E
:10281000039800F108010120884007994861FFE70B
:102820000698C078482808D1FFE7039800F108010E
:102830000120884007990861FFE7FFE7FFE7039859
:1028400001300390B9E7019807994860FFE708B0A5
:102850007047000082B00190ADF8021000208DF8A2
:10286000010001988068BDF80210084204D0FFE71B
:1028700001208DF8010003E000208DF80100FFE742
:102880009DF8010002B0704783B002904EF62C50C4
:10289000CEF200000068C00F68B1FFE74EF62C5181
:1028A000CEF20001086840F0004008600299886993
:1028B0000230886170E04EF62450CEF200000068CD
:1028C00042F2FC11C2F20001019108624EF628505A
:1028D000CEF20000007881F824004EF62950CEF2A6
:1028E0000000007888624EF63850CEF20000006892
:1028F000C8624EF62A50CEF20000008808864EF6D6
:102900002C50CEF20000006848634EF63050CEF2F4
:102910000000006888634EF63C50CEF2000000686C
:10292000C86342F23C21C2F2000100200860FFE7C8
:1029300042F23C20C2F20000006808B9FFE7F7E766
:102940000298006842F2FC11C2F200010091086096
:102950000298406848600298806888600298C06861
:10296000C86002980069086102984069486102984D
:10297000806988610298C069C86142F23C21C2F254
:10298000000100200860FFE742F23C20C2F2000094
:10299000006808B9FFE7F7E703B07047FFE7FEE715
:1029A0007047000084B003900020029001900F2037
:1029B00000900398C078C0B3FFE74EF60C50CEF2FB
:1029C00000000068C043C0F3022002900298C0F1EA
:1029D0000400019000980299C84000900398407844
:1029E00001998840029003988078009901400298EC
:1029F0000843029002980001029002980399097816
:102A00004EF20042CEF2000288540398027802F09F
:102A10001F01012088404EF20011CEF2000141EA70
:102A2000D20121F0030108600FE00398027802F060
:102A30001F01012088404EF28011CEF2000141EAD0
:102A4000D20121F003010860FFE704B070470000E5
:102A500081B0009000980021C0F2FA5108434EF670
:102A60000C51CEF20001086001B0704783B00290B3
:102A700001910020009041F22C01C4F2020108688B
:102A80000090009820F480600090009820F4784036
:102A90000090029A009810430090019A0098104309
:102AA00000900098086003B07047000082B0019069
:102AB0000020009041F22C01C4F20201086800904D
:102AC000009820F00F000090019A009810430090A9
:102AD0000098086002B0704783B002908DF807102C
:102AE0000020009041F22C00C4F202000068009027
:102AF000009820F4F87000909DF8070028B1FFE7D7
:102B0000029900980843009008E002990098084351
:102B10000090009820F480700090FFE7009841F248
:102B20002C01C4F20201086003B0704782B001902A
:102B30000020009041F20401C4F2020108680090F4
:102B4000009820F4E0600090019A009810430090F3
:102B50000098086002B0704782B001908DF80310B1
:102B60009DF8030048B1FFE7019A41F21401C4F255
:102B7000020108681043086008E0019A41F214015C
:102B8000C4F20201086890430860FFE702B0704792
:102B900082B001908DF803109DF8030048B1FFE763
:102BA000019A41F21C01C4F2020108681043086056
:102BB00008E0019A41F21C01C4F202010868904346
:102BC0000860FFE702B0704782B001908DF80310F3
:102BD0009DF8030048B1FFE7019A41F21801C4F2E1
:102BE000020108681043086008E0019A41F21801E8
:102BF000C4F20201086890430860FFE702B0704722
:102C000087B00690002005900490039002900190F8
:102C100041F20400C4F2020001680022C0F63C0246
:102C200011400391006800F4803002909DF80F007D
:102C30000007002806D4FFE70399022000EB91402B
:102C4000039006E003996FF4F77000EB9140039056
:102C5000FFE7029840B9FFE7039840F60011C0F281
:102C60003D014843049019E041F20400C4F202001F
:102C700000688003002808D5FFE7039840F600119C
:102C8000C0F23D014843049007E0039841F200215F
:102C9000C0F27A0148430490FFE7FFE741F20400E5
:102CA000C4F20200006800F00C0005900598009046
:102CB00040B1FFE7009804280BD0FFE700980828F0
:102CC0000ED011E0069941F20020C0F27A000860AF
:102CD00011E0069941F20020C0F27A0008600AE093
:102CE00004980699086006E0069941F20020C0F2B7
:102CF0007A000860FFE741F20401C4F202010868AB
:102D000000F0F0000590059800090590059A47F23B
:102D1000D030C0F60000825C0192069B1A68DDF894
:102D200004C022FA0CF25A600A6802F4E0620592CA
:102D3000059A120A0592059A825C0192069B5A68CE
:102D4000DDF804C022FA0CF29A60096801F46051BF
:102D500005910599C90A05910599405C019006996C
:102D60004868019AD040C86041F22C00C4F20200C9
:102D7000016801F00F010591059A47F2A031C0F6F4
:102D80000001895C0191069A5168019BB1FBF3F146
:102D90005161006800F4F8700590059800090590ED
:102DA000059800F00F0147F2B030C0F6000030F88F
:102DB0001100019004980199B0FBF1F006990861A7
:102DC00007B0704780B58AB0DDF830C0099008912F
:102DD0000792069342F24020C2F200000290FFE701
:102DE0000298007818B9FFE701F0ECF8FFE7FFE779
:102DF00042F24020C2F200000490099802282AD82A
:102E0000FFE7EFF311804FF0200181F3118801906B
:102E10000498099901EB410100EBC10018300390BF
:102E2000099878B1FFE70898039908600798039913
:102E30004860069803998860039900200861039907
:102E4000C860FFE70C9803994861019880F31188E6
:102E50000020059003E04FF0FF300590FFE7059854
:102E60000AB080BD80B501F0ADF880BD80B586B0F8
:102E700005900491039242F24020C2F200000190BA
:102E8000FFE70198007818B9FFE701F09BF8FFE72A
:102E9000FFE7EFF311804FF0200181F311880090DC
:102EA00005980499039A00F007F80290009880F3BF
:102EB0001188029806B080BD80B58AB0099008914B
:102EC000079208980490099800EB400142F24020D4
:102ED000C2F2000000EBC100183003900398406973
:102EE000029040B1FFE70298012819D0FFE702984D
:102EF00002282CD032E0039801F0C0F80590059824
:102F00000799884203D2FFE70020069007E0079860
:102F1000069003980499079A01F03AFBFFE720E036
:102F2000039801F0ABF8059005980799884203D201
:102F3000FFE70598019002E007980190FFE70198EC
:102F4000069003980499069A01F022FB09E0039881
:102F50000499079A01F0AAFA069002E00020069070
:102F6000FFE706980AB080BD82B080B584B00793B1
:102F700006920390029106A80090039802996A466F
:102F800000F008F80190019804B0BDE8804002B05C
:102F90007047000080B5A4B023902291219207A829
:102FA0001B9040201C9000201D9023991F911E9083
:102FB000FFE7229800788DF8830022980130229054
:102FC0009DF8830008B9FFE76DE19DF8830025288F
:102FD00040F05C81FFE70020189001201A90FFE785
:102FE000229800788DF883009DF8830023380146ED
:102FF00004910D2829D80499DFE801F01F2727271D
:103000002727272717270727270F189840F00100A1
:1030100018902298013022901AE0189840F002008F
:10302000189022980130229012E0189840F0040085
:1030300018902298013022900AE0189840F0080079
:10304000189022980130229002E000201A90FFE7A9
:10305000FFE71A980028C3D1FFE700201790FFE789
:10306000229800788DF883009DF88300302805DBD6
:10307000FFE79DF883003A2801DBFFE710E0229884
:1030800001302290179800EB80019DF8830000EB3F
:10309000410030381790FFE701200028E0D1FFE71A
:1030A00000201990229800788DF883009DF8830005
:1030B0002E2825D1FFE7229801302290FFE72298A1
:1030C00000788DF883009DF88300302805DBFFE74A
:1030D0009DF883003A2801DBFFE710E022980130D9
:1030E0002290199800EB80019DF8830000EB4100CD
:1030F00030381990FFE701200028E0D1FFE7FFE713
:10310000229800788DF88300FFE79DF883006C28F3
:1031100005D0FFE79DF88300682808D1FFE72298D3
:1031200001302290229800788DF8830000E004E0BE
:10313000FFE701200028E8D1FFE79DF88300014662
:103140000391252800F09880FFE7039858284FD076
:10315000FFE70398632814D0FFE7039864281FD083
:10316000FFE70398702876D0FFE70398732853D0C1
:10317000FFE70398752827D0FFE70398782837D012
:103180007FE0219A1068011D116000681A901A985A
:103190008DF81B009DF81B101BA801F04BF971E086
:1031A000219A1068011D116000681A901A99199BE4
:1031B0001798DDF860C06A46C2F804C010601BA80A
:1031C0000A2200F07BFF5DE0219A1068011D11606A
:1031D00000681A901A99199B1798DDF860C06A4622
:1031E000C2F804C010601BA80A2201F04DF849E0A3
:1031F000219A1068011D116000681A901A99199B94
:103200001798DDF860C06A46C2F804C010601BA8B9
:10321000102201F039F835E0219A1068011D116083
:1032200000680590FFE7059800788DF88300059801
:10323000013005909DF8830008B9FFE70AE09DF88A
:1032400083101BA801F0F6F8FFE71E98B0F1FF3FCE
:10325000E9DCFFE716E0219A1068011D11600068A3
:103260001A901A99684600224260082303601BA83E
:10327000102201F009F805E01BA8252101F0DAF879
:1032800000E0FFE722980130229005E09DF88310CE
:103290001BA801F0CFF8FFE7FFE71E98B0F1FF3F52
:1032A0003FF787AEFFE71E9801280EDBFFE71D986A
:1032B00030B1FFE723981D9A07A9FFF7D7FDFFE775
:1032C0001D991E9808441E90FFE71E9824B080BDEB
:1032D0007047000085B0002004908DF80F00029028
:1032E00041F20001C4F20201086840F48030086035
:1032F000FFE741F20000C4F202000068C0F3404062
:103300008DF80F00029801300290FFE79DF80F1032
:103310000020C907019039B9FFE70298B0F50040D5
:1033200018BF01200190FFE70198C0070028E0D1F5
:10333000FFE741F20000C4F202000068C0F3404021
:103340008DF80F009DF80F00C00750B9FFE740F25D
:103350002001C2F2000141F20020C0F27A000860B0
:103360005AE042F20001C4F20201086820F00300B2
:103370000860086840F00400086041F20401C4F2EB
:103380000201009108680860086840F40050086075
:10339000086840F4A060086008684FF6FF72CFF23A
:1033A000C0721040086008680490049840F48030AF
:1033B000049004980022C0F604021043049004987C
:1033C000086041F20001C4F20201086840F0807018
:1033D0000860FFE741F20000C4F2020000688001CB
:1033E000002801D4FFE7F5E741F20401C4F202012D
:1033F000086820F003000860086840F002000860D8
:10340000FFE741F20400C4F20200006800F00C0083
:10341000082801D0FFE7F4E705B0704742F6D06016
:10342000C2F20000006840B1FFE742F6D061C2F28C
:103430000001086801380860FFE7704780B54EF664
:103440008851CEF20001086840F47000086041F233
:103450000002C4F20202106840F00100106041F264
:103460000401C4F2020108684CF20003CFF6FF0326
:103470001840086010684FF6FF73CFF6F6631840E7
:103480001060106820F48020106008684FF6FF720A
:10349000CFF200721040086041F22C01C4F2020128
:1034A0000020086041F23001C4F20201086041F2DC
:1034B0000801C4F202014FF41F00086041F21C0130
:1034C000C4F20201086840F08050086047F20C0224
:1034D000C4F20002106840F001001060086820F09B
:1034E0008050086042F20001C4F20201086840F016
:1034F00090000860FFF7EEFE4EF60851CEF2000194
:103500004FF00060086080BD80B542F60040C4F214
:103510000100022100F00CF940B1FFE742F6004043
:10352000C4F20100022100F05BF858E042F60040CE
:10353000C4F20100042100F0FBF840B1FFE742F6BD
:103540000040C4F20100042100F04AF846E042F6CF
:103550000040C4F20100082100F0EAF840B1FFE7A2
:1035600042F60040C4F20100082100F039F834E0CE
:1035700042F60040C4F20100102100F031F842F69A
:10358000DA60C2F20000008842F2F861C2F2000183
:10359000088040F60000C4F201004FF48061FFF79C
:1035A00059F938B9FFE742F2F861C2F20001002090
:1035B000488006E042F2F861C2F200010120488032
:1035C000FFE742F2F860C2F20000016840F20C002E
:1035D000C2F20000FFF76EF8FFE7FFE7FFE780BDEC
:1035E00082B001900091009A0199086990430861A6
:1035F00002B0704782B001908DF803109DF803006F
:1036000030B1FFE70199086840F08000086005E0EC
:103610000199086820F080000860FFE702B0704759
:1036200082B00190ADF802108DF801209DF80100E4
:1036300038B1FFE7BDF802200199888910438881DD
:1036400006E0BDF802200199888990438881FFE750
:1036500002B0704782B00190ADF802100020ADF8C2
:1036600000000198808BADF80000BDF8000020F04C
:103670000800ADF80000BDF80210BDF800000843D6
:10368000ADF80000BDF800000199888302B07047D2
:1036900082B00190ADF802100020ADF80000019852
:1036A000808BADF80000BDF8000020F40060ADF89C
:1036B0000000BDF80210BDF8000040EA0120ADF89E
:1036C0000000BDF800000199888302B07047000037
:1036D00082B001908DF803109DF8030030B1FFE730
:1036E0000199086840F00100086005E00199086848
:1036F00020F001000860FFE702B0704782B001903F
:103700008DF803109DF8030040B1FFE70199B1F86F
:10371000440040F40040A1F8440007E00199B1F8EA
:1037200044006FF3DF30A1F84400FFE702B07047B8
:1037300085B00490039100208DF80B00019000905B
:1037400004980069039908400190049880890399BE
:1037500008400090019838B1FFE7009820B1FFE7DA
:1037600001208DF80B0003E000208DF80B00FFE72F
:103770009DF80B0005B0704785B0049003910020C0
:10378000ADF80A00019000900499086A20F4807056
:1037900008620498006A01900498406800900498B8
:1037A000808BADF80A00BDF80A0020F07000ADF87B
:1037B0000A00BDF80A0020F00300ADF80A000398E3
:1037C0000188BDF80A000843ADF80A00019820F40A
:1037D0000070019003980189019840EA012001904E
:1037E00003984188019840EA01200190049842F62C
:1037F0000041C4F20101884208D0FFE7049843F277
:103800000041C4F20101884229D1FFE7019820F468
:103810000060019003984189019840EA01200190DD
:10382000019820F48060019003988188019840EA13
:1038300001200190009820F480500090009820F41E
:103840000050009003988189009840EA0110009090
:103850000398C189009840EA01100090FFE70098A2
:1038600004994860BDF80A00049988830398C088C9
:103870000499888701980499086205B07047000090
:1038800085B0049003910020ADF80A0001900090EB
:103890000499086A20F4805008620498006A019034
:1038A0000498406800900498808BADF80A00BDF839
:1038B0000A0020F4E040ADF80A00BDF80A0020F448
:1038C0004070ADF80A0003980188BDF80A0040EA8C
:1038D0000120ADF80A00019820F4005001900398EF
:1038E0000189019840EA01300190039841880198CC
:1038F00040EA01300190049842F60041C4F201010F
:10390000884208D0FFE7049843F20041C4F2010165
:1039100088420BD1FFE7009820F480400090039884
:103920008189009840EA81100090FFE7009804998F
:103930004860BDF80A00049988830398C0880499F8
:10394000A1F8400001980499086205B07047000092
:1039500083B00290019100200090029800680090CE
:10396000029842F60041C4F20101884225D0FFE7E7
:10397000029843F20041C4F2010188421DD0FFE7E2
:103980000298B0F1804F18D0FFE7029840F2004152
:10399000C4F20001884210D0FFE7029840F600010F
:1039A000C4F20001884208D0FFE7029840F60041C7
:1039B000C4F2000188420AD1FFE7009820F07000AD
:1039C000009001984188009808430090FFE7029812
:1039D00041F20001C4F20001884212D0FFE70298D0
:1039E00041F20041C4F2000188420AD0FFE700988A
:1039F00020F4407000900198C1880098084300901E
:103A0000FFE70098029908600198808802998885EC
:103A10000198008802990885029842F60041C4F294
:103A20000101884208D0FFE7029843F20041C4F246
:103A30000101884205D1FFE70198007A02990886C2
:103A4000FFE702990120888202980068009002989E
:103A500042F60041C4F20101884225D0FFE70298F6
:103A600043F20041C4F2010188421DD0FFE70298F1
:103A7000B0F1804F18D0FFE7029840F20041C4F245
:103A80000001884210D0FFE7029840F60001C4F21E
:103A90000001884208D0FFE7029840F60041C4F2D6
:103AA0000001884210D1FFE70198407AC00728B191
:103AB000FFE7009840F40060009004E0009820F4D4
:103AC00000600090FFE7FFE70298B0F1804F18D048
:103AD000FFE7029840F20041C4F20001884210D092
:103AE000FFE7029840F60001C4F20001884208D0C6
:103AF000FFE7029840F60041C4F2000188421FD15E
:103B0000FFE70198807AC00728B1FFE7009840F4EA
:103B10008050009004E0009820F480500090FFE76F
:103B20000198C07AC00728B1FFE7009840F4005020
:103B3000009004E0009820F400500090FFE7FFE7B9
:103B40000298B0F1804F10D0FFE7029840F2004198
:103B5000C4F20001884208D0FFE7029840F6000155
:103B6000C4F20001884210D1FFE70198007BC00732
:103B700028B1FFE7009840F48040009004E00098EE
:103B800020F480400090FFE7FFE7029842F60041F2
:103B9000C4F2010188421DD0FFE7029843F20041C0
:103BA000C4F20101884215D0FFE70298B0F1804FBE
:103BB00010D0FFE7029840F20041C4F200018842B1
:103BC00008D0FFE7029840F60001C4F200018842E5
:103BD00010D1FFE70198407BC00728B1FFE70098AC
:103BE00040F40040009004E0009820F40040009071
:103BF000FFE7FFE70098029908600298406800908C
:103C00000298B0F1804F08D0FFE7029840F600011B
:103C1000C4F20001884210D1FFE70198807BC00701
:103C200028B1FFE7009840F48070009004E000980D
:103C300020F480700090FFE7FFE700980299486049
:103C400003B0704780B582B044F60000C4F20000B3
:103C500040F2255100F0B6F880B3FFE744F60000CB
:103C6000C4F2000000F098F98DF807009DF80700F5
:103C700042F60C71C2F2000101F0C8FC0D2811D10E
:103C8000FFE742F60C70C2F20000009000F108015C
:103C900040F22400C2F2000002F08EFD009801F014
:103CA000A5FCFFE7FFE79DF8072047F6AD01C0F64A
:103CB00000010020FFF758F9FFE7FFE702B080BDE1
:103CC00086B00590ADF812108DF8112000200390F9
:103CD000029001900090BDF8120040F66A118842EF
:103CE00001D1FFE7FFE7059800909DF81200400919
:103CF0000390BDF8120000F01F000290029901200D
:103D0000884001900398012804D1FFE700980C3007
:103D100000900CE00398022804D1FFE700981030CF
:103D2000009003E0009814300090FFE7FFE79DF853
:103D3000110030B1FFE7019A00990868104308604C
:103D400005E0019A0099086890430860FFE706B013
:103D50007047000082B001908DF803109DF80300B9
:103D600030B1FFE70199888940F40050888105E06F
:103D70000199888920F400508881FFE702B07047DC
:103D800082B00190ADF8021000208DF80100BDF85E
:103D90000200B0F5007F01D1FFE7FFE7019800883E
:103DA000BDF802100840000420B1FFE701208DF8A3
:103DB000010003E000208DF80100FFE79DF80100FD
:103DC00002B0704786B00590ADF812100020039045
:103DD000029001908DF80300BDF8120040F66A11C0
:103DE000884201D1FFE7FFE79DF8120040090190EA
:103DF000BDF8120000F01F000290029901208840D7
:103E000002900198012806D1FFE705988189029860
:103E10000840029010E00198022806D1FFE70598BB
:103E2000018A02980840029005E00598818A02986C
:103E300008400290FFE7FFE79DF813000390039905
:103E4000012088400390059801880398084003905A
:103E5000029838B1FFE7039820B1FFE701208DF801
:103E6000030003E000208DF80300FFE79DF8030046
:103E700006B0704780B58EB00D900C9100200B906D
:103E80000A900990089007900C98808908B1FFE784
:103E9000FFE70D9807900D98008A0B900B984CF651
:103EA000FF7108400B900C98C1880B9808430B9049
:103EB0000B980D9908820D9880890B900B984EF6FF
:103EC000F31108400B900C9988880A89104349899E
:103ED00001430B9808430B900B980D9988810D981E
:103EE000808A0B900B984FF6FF4108400B900C987E
:103EF00081890B9808430B900B980D99888201A833
:103F0000FEF77EFE079843F60001C4F201018842E5
:103F100010D0FFE7079845F20001C4F20101884282
:103F200008D0FFE7079845F20041C4F2010188423A
:103F300003D1FFE704980A9002E003980A90FFE794
:103F40000A98192148430C9909688900B0FBF1F0DF
:103F50000990099848F21F51C5F2EB11A0FB01022C
:103F60006FF00F0000EA52000B90099B0B980009BC
:103F7000642200FB12300890089A322000EB0210F5
:103F8000A0FB0110C0F343110B9808430B900B9852
:103F90000D9908810EB080BD81B000900098808896
:103FA0006FF35F2001B0704782B00190ADF802104E
:103FB000BDF802006FF35F200199888002B070475E
:103FC000FFE7FEE780B582B042F24020C2F2000077
:103FD000019001990320086101994861019847F611
:103FE000CB01C0F600018161019A42F2F820C2F2D1
:103FF0000000D061019A4FF480601062019A0020A5
:104000009062019A5062019AD062019A1166019AF7
:1040100042F2E821C2F200015166019A1021916634
:10402000019908670199C8660199486701980730A6
:1040300047F6C701C0F60001FCF7BDF9BFF35F8F7B
:10404000019847F6C001C0F60001FCF7B4F9BFF3D0
:104050005F8F019920208871BFF35F8F02B080BD10
:1040600080B501F0D3F901F0E7F901F0FBF901F0B7
:104070000FFA01F023FA01F037FA80BD84B0039003
:104080000398006902900398C06801900298019912
:10409000884209D8FFE7039880680199401A02997D
:1040A00008440138009005E002990198C043084493
:1040B0000090FFE7009804B07047000010B58CB086
:1040C000DDF83CC0DDF838C00B900A9109920893E6
:1040D0000A98B0F1FF3F04DCFFE70A9840420590E0
:1040E00002E00A980590FFE70598069001200790E6
:1040F000FFE706980999884209DBFFE706980999C6
:1041000090FBF1F00690079801300790F1E70898CE
:104110000799884203D9FFE708980790FFE70E98B0
:1041200070B1FFE70A98002806D4FFE79DF83C002D
:104130004007002804D5FFE70E9801380E90FFE7EE
:104140009DF83C008007002803D5FFE7089858B386
:10415000FFE79DF83C00C00730BBFFE70E9810B3A7
:10416000FFE7FFE70E990020049041B1FFE70799B0
:104170000E9A0020914238BF01200490FFE7049876
:10418000C00778B1FFE70E9801380E900B982021F8
:1041900000F050F90B98C068B0F1FF3F01DCFFE779
:1041A00000E0DFE7FFE7FFE70B98C068002869D46D
:1041B000FFE70A98B0F1FF3F08DCFFE70A984042AA
:1041C0000A900B982D2100F035F90CE09DF83C0089
:1041D0004007002805D5FFE70B982B2100F02AF9AE
:1041E00000E0FFE7FFE70B98C068002849D4FFE72D
:1041F0009DF83C00800700282ED5FFE79DF83C0085
:10420000C00748BBFFE7089830BBFFE70E9810B324
:10421000FFE7FFE70E990020039041B1FFE7079900
:104220000E9A0020914238BF01200390FFE70398C7
:10423000C00778B1FFE70E9801380E900B98302137
:1042400000F0F8F80B98C068B0F1FF3F01DCFFE721
:1042500000E0DFE7FFE7FFE70B98C06800280FD416
:10426000FFE70B980A99099A089BDDF838C00F9C64
:10427000EE46CEF80440CEF800C000F005F8FFE7A7
:10428000FFE7FFE70CB010BD80B58CB0DDF83CC097
:10429000DDF838C00B900A91099208930A980590AE
:1042A000012006900490FFE705980999884209D3F8
:1042B000FFE705980999B0FBF1F0059004980130EB
:1042C0000490F1E708980499884203D9FFE7089819
:1042D0000490FFE79DF83C00C007C0BBFFE70E98C5
:1042E000A0B3FFE79DF83C008007002807D5FFE753
:1042F000089820B9FFE730208DF80F0003E0202058
:104300008DF80F00FFE7FFE70E990020029041B102
:10431000FFE704990E9A0020914238BF01200290D5
:10432000FFE70298C00780B1FFE70E9801380E90B2
:104330000B989DF80F1000F07DF80B98C068B0F155
:10434000FF3F01DCFFE700E0DEE7FFE7FFE70B9858
:10435000C06800286CD4FFE7FFE70898022804D360
:10436000FFE70898013808900BE00A980699B0FB1F
:10437000F1F0079007980999884201D2FFE705E01C
:10438000FFE70999069848430690E6E7FFE70A9891
:104390000699B0FBF1F00790079806990A9A00FB7E
:1043A00011200A900B98079A47F2E821C0F6000105
:1043B000895C00F03FF80B98C068B0F1FF3F01DC6A
:1043C000FFE709E009990698B0FBF1F00690FFE7D6
:1043D00006980028DBD1FFE79DF83C00C00730B30A
:1043E000FFE70E9810B3FFE7FFE70E99002001905A
:1043F00041B1FFE704990E9A0020914238BF012095
:104400000190FFE70198C00778B1FFE70E980138E7
:104410000E900B98202100F00DF80B98C068B0F1B9
:10442000FF3F01DCFFE700E0DFE7FFE7FFE7FFE733
:104430000CB080BD80B584B003908DF80B1003984C
:1044400080680190019801300399496888420FD82B
:10445000FFE79DF80B0003990968019A88540198B9
:104460000130039988600399C8680130C860FFE78C
:10447000039841688068884215D1FFE70398016876
:1044800082680069FEF7F2FC03998968884205D0CA
:10449000FFE703994FF0FF30C86003E00399002065
:1044A0008860FFE7FFE704B080BD000080B58AB0F8
:1044B000099008910792002005900998C068039020
:1044C000FFE709980069049004980399884206D987
:1044D000FFE704990398C0430844069008E0099850
:1044E00081680398049A801AC04308440690FFE745
:1044F000069809998968039A891A884203D2FFE7C6
:104500000698019005E0099880680399401A019087
:10451000FFE70198069006980799884203D2FFE7C3
:104520000698009002E007980090FFE70098069038
:104530000998406803990844029002980899069ADD
:10454000FBF77CFF069905980844059006990898A2
:104550000844089006990798401A0790069903980E
:1045600008440390039809998968884203D1FFE7BA
:1045700000200390FFE7BFF35F8F03980999C8609D
:10458000FFE7079800289CD1FFE705980AB080BD97
:1045900080B588B00790069105920798C06803908F
:1045A000079880680399401A0290029805998842FA
:1045B00012D9FFE7079840680399084401900198D1
:1045C0000699059AFBF73AFFBFF35F8F03980599A9
:1045D00008440799C8601FE0029804900798406853
:1045E00003990844019001980699049AFBF726FF65
:1045F00005980299401A0490079840680190019824
:104600000699029A1144049AFBF718FFBFF35F8FD3
:1046100004980799C860FFE708B080BD80B584B0F2
:104620008DF80F000291002001909DF80F000228E4
:1046300076DBFFE702984178014447F67000C0F648
:104640000000FBF765FF60BBFFE700200190FFE77C
:1046500040F22400C2F20000006A019901EB8101DE
:1046600000EB8100C068D8B1FFE740F22400C2F23D
:104670000000006A019901EB810100EB810147F222
:104680007060C0F60000FBF771FE47F66800C0F6E8
:104690000000FBF76BFEFFE7019801300190D7E7C0
:1046A0003DE002984178014447F27360C0F6000093
:1046B000FBF72EFF38B9FFE747F24A50C0F600007B
:1046C000FBF754FE2AE002984178014447F26D60FE
:1046D000C0F60000FBF71CFFF8B9FFE747F26F5088
:1046E000C0F60000FBF742FE47F21050C0F6000093
:1046F000FBF73CFE47F2B850C0F60000FBF736FE71
:1047000047F2A150C0F60000FBF730FE47F2DB5045
:10471000C0F60000FBF72AFEFFE7FFE7FFE706E031
:1047200047F21C50C0F60000FBF720FEFFE704B084
:1047300080BD000080B582B08DF8070000919DF823
:10474000070002283BD1FFE700984178014447F277
:10475000E340C0F60000FBF7DBFE70B9FFE747F26D
:104760002A60C0F60000FBF701FE42F6DC60C2F2F0
:104770000000083000F01AFA20E000984178014467
:1047800047F26B60C0F60000FBF7C2FE70B9FFE7AE
:1047900047F21060C0F60000FBF7E8FD42F6DC606F
:1047A000C2F20000083000F0F5F906E047F236509A
:1047B000C0F60000FBF7DAFDFFE7FFE706E047F28F
:1047C0005C50C0F60000FBF7D1FDFFE702B080BDF2
:1047D00080B582B08DF8070000919DF80700012890
:1047E00002D1FFE700F09EF847F24360C0F60000F8
:1047F000FBF7BCFDFFE702B080BD000080B584B0D0
:104800008DF80F00029100200190FFE701989DF8BC
:104810000F1088420FD2FFE701990298425C0244D0
:1048200047F2CC50C0F60000FBF7A0FDFFE701986F
:1048300001300190EAE79DF80F00032805D1FFE75A
:104840000020802101F01AF812E047F28650C0F6ED
:104850000000FBF78BFD47F2F850C0F60000FBF7B5
:1048600085FD47F25260C0F60000FBF77FFDFFE7D1
:1048700004B080BD80B542F2FC60C2F2000000F0DE
:1048800033FB80BD80B501F09FF980BD80B582B05B
:10489000009000980138B0F1807F03D3FFE701203A
:1048A000019019E0009801384EF21401CEF2000197
:1048B00008604FF0FF300F2100F012F84EF218019F
:1048C000CEF20001002008604EF21002CEF200028B
:1048D000072111600190FFE7019802B080BD000040
:1048E00082B08DF8070000919DF9070000280AD4D6
:1048F000FFE7009800019DF907104EF20042CEF24A
:10490000000288540BE0009800019DF8071001F0A8
:104910000F014EF61452CEF200028854FFE702B0A7
:1049200070470000BFF34F8F4EF60C51CEF20001DE
:10493000086800F4E0600422C0F2FA5210430860F4
:10494000BFF34F8FFFE700BFFDE7000081B000908D
:10495000009988880968486101B0704781B000906B
:10496000009988880968086101B0704781B000909B
:10497000009882880168C8685040C86001B07047DC
:1049800080B586B005900491ADF80E200598019091
:10499000049840F60001C4F20101884205D1FFE706
:1049A00004200121FEF710F954E0049840F600417C
:1049B000C4F20101884205D1FFE708200121FEF77A
:1049C00003F946E0049841F20001C4F20101884273
:1049D00005D1FFE710200121FEF7F6F838E0049832
:1049E00041F20041C4F20101884205D1FFE72020D5
:1049F0000121FEF7E9F82AE0049841F60001C4F22B
:104A00000101884205D1FFE740200121FEF7DCF8D3
:104A10001CE0049841F60041C4F20101884205D12E
:104A2000FFE780200121FEF7CFF80EE0049842F264
:104A30000001C4F20101884206D1FFE74FF4807003
:104A40000121FEF7C1F8FFE7FFE7FFE7FFE7FFE718
:104A5000FFE7FFE7BDF80E00B0F5803F0FDAFFE794
:104A6000BDF80E00ADF8080003208DF80A001020F4
:104A70008DF80B00049802A9FDF728FEFFE70199C5
:104A800004980860BDF80E00888006B080BD000064
:104A900081B00090009801B07047000081B0009094
:104AA000009801B07047000080B594B013900020CA
:104AB0000390129011901B218DF840108DF8410049
:104AC0008DF84200012006908DF8430010A8FDF7F4
:104AD00069FF4FF48060ADF83C00182005908DF818
:104AE0003F0003208DF83E0040F60000C4F20100B4
:104AF0000FA9FDF7EBFD039840F2E731ADF8301058
:104B00004721ADF82C10ADF83200ADF82E0042F67A
:104B10000040C4F2010004900BA9FEF719FF0399AD
:104B20000498069A30230193ADF81C30ADF81E208E
:104B3000F922ADF82220ADF8241007A90291FEF762
:104B40001BFE03990498FEF785FDDDF804C0029969
:104B5000039A0498069BADF81CC0ADF81E3040F2D5
:104B6000ED23ADF82230ADF82420FEF789FE03993D
:104B70000498FEF78DFD04980699FEF73BFD049816
:104B80000699FEF7A5FD04980599069AFEF748FDDB
:104B900014B080BD80B582B0019042F60040C4F2EE
:104BA00001000121FEF7AAFD02B080BD80B582B0F0
:104BB000019042F60040C4F201000021FEF79EFD84
:104BC00002B080BD80B582B001900198009041F2A2
:104BD0000001C4F20101102200F006F9009840F62D
:104BE0000001C4F20101402200F0FEF8009800F03C
:104BF0009DF8009800F008F80098FFF755FF00981E
:104C0000FFF7D4FF02B080BD80B58AB009900021C3
:104C10000491012003908DF814008DF815004FF4D5
:104C20006022069207918DF8200040F60000C4F241
:104C30000200029004A9FDF7C5FA0298039A032125
:104C40000523FDF777F902980399FDF75DFA0298BD
:104C50000399FDF743FAFFE740F60000C4F20200B3
:104C60002021FDF795FA08B9FFE7F5E740F60000C7
:104C7000C4F20200FDF7F4FAFFE740F60000C4F2C8
:104C80000200FDF76DFA08B1FFE7F6E740F6000015
:104C9000C4F2020001210191FDF74CFA01980021B4
:104CA00004918DF814008DF815004FF460220692DF
:104CB00007918DF8200040F60040C4F202000090F9
:104CC00004A9FDF77FFA0098019A05231946FDF71C
:104CD00031F900980199FDF717FA00980199FDF74D
:104CE000FDF9FFE740F60040C4F202002021FDF785
:104CF0004FFA08B9FFE7F5E740F60040C4F20200BA
:104D0000FDF7AEFAFFE740F60040C4F20200FDF7FF
:104D100027FA08B1FFE7F6E740F60040C4F20200C8
:104D20000121FDF707FA0AB080BD0000B0B594B0CC
:104D300013900820C4F202000090FDF79DFA00983D
:104D400040F64C01C4F20201089142F6D861C2F269
:104D500000010991002103910A91012407940B9409
:104D60000C910D914FF4807205920E924FF4806277
:104D700001920F922022029210924FF4405211920F
:104D8000129108A90491FDF7B1FB00982146FDF7A7
:104D900095FB9420C4F202000690FDF76DFADDF851
:104DA00004C0029B039A04990698DDF814E040F6CB
:104DB0004C45C4F20205089542F6DA65C2F20005D8
:104DC00009950A920B940C920D92CDF838E0CDF82B
:104DD0003CC0109311921292FDF788FB0698079938
:104DE000FDF76CFB14B0B0BD80B584B003900291A8
:104DF00001920198ADF8000000208DF803000298A0
:104E00006946FDF763FC04B080BD000080B582B048
:104E1000019001980090FFF7D5FE009802B080BD88
:104E200081B00090009801B07047000080B582B05A
:104E300001900198009046F69470C2F2000064213F
:104E400000F020FA42F6DC60C2F200002430FFF7E6
:104E50008DFD0099487808700020487002B080BD30
:104E600081B0009000994878087001B07047000048
:104E700080B582B00190FFE747F20551C0F600010E
:104E80000020FEF771F8FFE747F20550C0F600007A
:104E9000FBF76CFA02B080BD80B584B00390039834
:104EA000029040F20C00C2F20000FDF757FBB0F593
:104EB000FA7F12D9FFE70298811C019140F20C00A1
:104EC000C2F200004FF4FA72FDF76EFB0199012067
:104ED0004FF4FA62FDF7CAFFFFE70299012008705C
:104EE0000220487004B080BD80B584B00390039860
:104EF0000190007801460291032814D80299DFE856
:104F000001F0020A060E0198FFF7C6FF0FE00198B4
:104F1000FFF7A6FF0BE00198FFF788FF07E0019875
:104F2000FFF7A6FF03E00198FFF7A2FFFFE704B039
:104F300080BD000080B582B00190019A0092901C63
:104F40000021117051704FF4FA61FBF7BCFA009820
:104F500002B080BD81B00090009801B070470000A1
:104F600080B588B0079001A8FDF74AFEFFE7019AD7
:104F700047F26B41C0F600010020FDF7F5FFFFE7A7
:104F8000FFE7029A47F26041C0F600010020FDF7FA
:104F9000EBFFFFE7FFE7039A47F24441C0F6000149
:104FA0000020FDF7E1FFFFE7FFE7049A47F25041D9
:104FB000C0F600010020FDF7D7FFFFE7FFE7069AE4
:104FC00047F25C41C0F600010020FDF7CDFFFFE78E
:104FD00008B080BD80B584B003900398029008208B
:104FE00001210191FDF7F0FD01994FF48020FDF7BB
:104FF000CFFD01990846FDF7E7FD01994FF4805078
:10500000FDF7AAFD01994FF40050FDF7A5FD0199A8
:105010000846FDF7A1FD4FF4A060FDF787FD01995B
:105020004FF40060FDF7D0FD01990420FDF7CCFDA1
:1050300001990846FDF7ACFD01990220FDF7A8FD96
:1050400000200721FCF75AFF4FF400304FF4605165
:10505000FDF70CFD0298FFF783FF029804B080BDB6
:1050600081B00090009801B07047000080B582B018
:105070000190019A69460020086047F2F141C0F6AC
:10508000000101204FF48043FDF79CFEFDF7EAFE8E
:10509000FFE747F2AC41C0F6000147F2FD42C0F61F
:1050A000000247F69E03C0F600030020FDF75CFFF8
:1050B000FFE7FFE747F29541C0F6000147F2E542FE
:1050C000C0F6000247F2DC43C0F600030020FDF703
:1050D0004BFFFFE7FFE747F27841C0F600010020F1
:1050E000FDF742FFFFE702B080BD000080B582B04F
:1050F000019001980090FFF7B9FF009802B080BDC1
:1051000081B00090009801B07047000080B588B071
:1051100007900691069802900020ADF80C00ADF8BB
:105120000E00ADF81000ADF814000C20ADF8120020
:1051300044F60000C4F20000009002A9FEF79AFEB7
:10514000009840F2255101220192FEF7B9FD009826
:105150000199FEF7FFFD08B080BD000080B586B064
:1051600005904FF48060ADF81000032001908DF899
:10517000120018208DF8130040F60040C4F2010020
:10518000029004A90391FDF7A1FA019A02980399EC
:105190004FF40063ADF810308DF8122004228DF822
:1051A0001320FDF793FA06B080BD000080B582B0F1
:1051B00001904FF4E060FDF74BFC27208DF80000D4
:1051C00000208DF8020001208DF803006846FDF7ED
:1051D000E9FB02B080BD000080B582B0019001986B
:1051E0000090FFF7BBFF00984FF4E131FFF78EFF0F
:1051F0000098FFF7DBFF009802B080BD81B00090FF
:10520000009801B07047000080B582B0019042F66E
:105210000C70C2F2000000F0B3FA40F22400C2F2B7
:10522000000000F077F902B080BD000080B582B0C8
:10523000019001980090FFF7E7FF009802B080BD51
:1052400081B00090009801B07047000080B582B036
:10525000019040F22000C2F20000006844F6D351F1
:10526000C1F26201A0FB01108009FFF70FFB10B132
:10527000FFE7FFE7FEE74FF0FF300021FFF730FBCD
:1052800002B080BD82B001900091009842F6D061DA
:10529000C2F200010860FFE742F6D060C2F20000EF
:1052A000006808B1FFE7F7E702B0704780B582B049
:1052B000019001980090FFF7C9FF009802B080BDEF
:1052C00081B00090009801B07047000082B001905A
:1052D000009101994EF6FC52CEF20002106840F0A7
:1052E0008070106041F20002CEF20002106840F0BF
:1052F000010010600098086002B0704780B588B067
:1053000007900798009001A8FDF77AFC0098019992
:10531000FFF7DCFF009808B080BD000081B000906E
:10532000009801B07047000080B588B007900798DA
:105330000690FFF74FFE06980430FFF74DFF0698E2
:105340000830FFF763FD06980C300290FFF7A0FBD2
:10535000069814300390FFF79BFB06981C300490CE
:10536000FFF796FB069824300590FFF791FB029813
:1053700040F60041C4F2010100911022FFF700FB4A
:10538000009903982022FFF7FBFA049840F60001E9
:10539000C4F2010101914FF48072FFF7F1FA019913
:1053A00005984FF48052FFF7EBFA0298FFF7D6FA10
:1053B0000398FFF7D3FA0498FFF7C8FA0598FFF7A8
:1053C000CDFA069808B080BD80B582B001900198F2
:1053D00000902430FFF762FB00981C30FFF75EFB63
:1053E00000981430FFF75AFB00980C30FFF756FB7B
:1053F00000980830FFF714FD00980430FFF7FEFE18
:105400000098FFF72DFE009802B080BD80B582B0F5
:1054100042F69470C2F200000190FFF767FE019916
:1054200045F20110C0F6000040F20002C0F6000292
:10543000FAF7AAFF02B080BD80B582B042F6DC6008
:10544000C2F200000190FFF76FFF019945F2C930E9
:10545000C0F6000040F20002C0F60002FAF794FF26
:1054600002B080BD80B582B042F60870C2F2000082
:105470000190FFF7DBFE019945F24120C0F60000E4
:1054800040F20002C0F60002FAF77EFF02B080BDD3
:1054900080B582B042F2FC60C2F200000190FFF7DA
:1054A00049FD019944F65570C0F6000040F2000233
:1054B000C0F60002FAF768FF02B080BD80B582B086
:1054C00042F6D460C2F200000190FFF717FF019985
:1054D00045F21D30C0F6000040F20002C0F60002A6
:1054E000FAF752FF02B080BD80B582B046F69470E4
:1054F000C2F200000190FFF7D9FE019945F2C120E8
:10550000C0F6000040F20002C0F60002FAF73CFFCD
:1055100002B080BD80B582B0019047F6A300C0F60E
:105520000000FAF723FF47F2F660C0F60000FAF732
:105530001DFF47F29970C0F60000FAF717FF47F217
:10554000ED70C0F60000FAF711FF47F61700C0F63D
:105550000000FAF70BFF47F2C370C0F60000FAF73D
:1055600005FF47F64100C0F60000FAF7FFFE47F6D8
:105570009C00C0F60000FAF7F9FE47F67400C0F68A
:105580000000FAF7F3FE47F23C70C0F60000FAF7AD
:10559000EDFE47F25170C0F60000FAF7E7FE47F261
:1055A0006A70C0F6000047F2FD41C0F6000147F600
:1055B0009E02C0F60002FAF7D9FE019947F2706028
:1055C000C0F60000FAF7D2FE0198243001F024F86A
:1055D0000198243047F66D01C0F6000100F064FF29
:1055E00001990120488502B080BD000081B0009083
:1055F000009900204860009A4FF6FF7111800099D1
:105600004A681144087201B07047000080B584B048
:105610008DF80F0002914FF0FF3001909DF80F00C0
:105620007F2804D1FFE708208DF80F00FFE70298DC
:1056300090F88100002841D1FFE79DF80F0047F264
:105640006031C0F6000100F0B1F801900198002827
:1056500014D4FFE7019947F26830C0F6000050F813
:10566000210050B1FFE7019947F26830C0F6000011
:1056700050F8211002988847FFE71EE09DF80F00C0
:105680001B2813D1FFE70299022081F881009DF8C1
:105690000F00029991F88020114481F86C00029962
:1056A00091F88000013081F8800005E002989DF8B3
:1056B0000F1000F0D7FAFFE7FFE75DE0029890F8DF
:1056C0008100022852D1FFE79DF80F00029991F85E
:1056D0008020114481F86C009DF80F00612805DBE3
:1056E000FFE79DF80F007B280FDBFFE79DF80F0019
:1056F000412805DBFFE79DF80F005B2805DBFFE78E
:105700009DF80F007E281AD1FFE79DF80F0047F2A1
:10571000F821C0F6000100F049F80190019947F224
:105720001030C0F6000050F8211002988847029906
:10573000002081F88000029981F8810015E002982C
:1057400090F88000132808DBFFE70299002081F819
:105750008000029981F8810006E0029991F88000AA
:10576000013081F88000FFE7FFE704E002990020A4
:1057700081F88100FFE7FFE79DF80F0004B080BDCE
:1057800081B00090009900204860009A4FF6FF71A8
:10579000118000994A6811440872009981F88000CC
:1057A000009981F8810001B07047000085B08DF844
:1057B0000F00029100200190FFE702980199415CDF
:1057C0009DF80F2000209142009008D0FFE702983A
:1057D0000199405C002818BF01200090FFE7009865
:1057E000C00728B1FFE7FFE7019801300190E4E727
:1057F00002980199405C18B1FFE70198049003E01A
:105800004FF0FF300490FFE7049805B070470000A8
:1058100080B584B00390029100200190FFE70198C9
:10582000029988420ED2FFE703980199405C40F24A
:10583000B411C2F20001FAF7A5FDFFE701980130AB
:105840000190ECE704B080BD80B582B0019000917A
:105850009DF8041044F60000C4F20000FEF7A4FB1B
:10586000FFE744F60000C4F200008021FEF788FA4A
:1058700008B9FFE7F5E7019802B080BD80B5A0B098
:105880001E901D91FFE71E9B1D986946086047F218
:105890007661C0F6000147F2D062C0F60002002037
:1058A000FDF762FBFFE71E9A1D9B47F27660C0F68C
:1058B000000047F2D061C0F60001FAF757FD1D98CD
:1058C000012805DBFFE71D98B0F5807F04DDFFE7C9
:1058D0004FF0FF301F906AE147F2BF60C0F6000052
:1058E0001C9000201B908DF86B001B90FFE71B980D
:1058F0001D99CA1701EB127121F00F01884280F245
:105900009D80FFE700200990FFE709980F286EDCD3
:10591000FFE71E981B99099A1144405C8DF86B00B3
:10592000099800EB400008901C989DF86B1009093D
:10593000405C089A511C08910DF1290188541C986B
:105940009DF86B2002F00F02805C089A531C0893AC
:10595000885409990020092902900DDCFFE7099875
:105960000130C11700EB517121F00701401AB0FA64
:1059700080F040090290FFE70298C107202000292B
:1059800018BF0920089A511C08910DF1290188546B
:105990009DF86B00202818DBFFE79DF86B00A0B195
:1059A000FFE79DF86B0009280FD0FFE79DF86B001B
:1059B0000D280AD0FFE79DF86B000A2805D0FFE705
:1059C0009DF86B00082806D1FFE7099A0DF15A01EE
:1059D0002E20885406E09DF86B00099A0DF15A01BB
:1059E0008854FFE7FFE70998013009908DE7002010
:1059F0008DF85900099A0DF15A018854FFE71B9A56
:105A000069460DF15A00086047F2B261C0F6000124
:105A100000200DF12903FDF7A7FAFFE71B9947F2D4
:105A2000A460C0F600000DF129020DF15A03FAF747
:105A30009DFCFFE71B9810301B9058E71D98C1177D
:105A400000EB117121F00F01401A07900798002810
:105A500003DCFFE700201F90A9E0002006901B98C0
:105A60000590FFE71B981D99884255DAFFE71E98BD
:105A70001B99405C8DF86B00069800EB4000049089
:105A80001C989DF86B100909405C049A511C049104
:105A90000DF1290188541C989DF86B2002F00F022B
:105AA000805C049A531C04938854049A501C0490FC
:105AB000202088549DF86B00202818DBFFE79DF814
:105AC0006B00A0B1FFE79DF86B0009280FD0FFE73E
:105AD0009DF86B000D280AD0FFE79DF86B000A289F
