:020000040000FA
:10000000F08800204501000099060000D535000069
:1000100057010000590100005B01000000000000D2
:100020000000000000000000000000003117000088
:100030005F01000000000000750900003517000096
:1000400065010000000000000000000079090000C8
:100050002105000065010000090700000D070000F0
:1000600011070000610700000000000045040000C7
:100070000000000000000000000000000000000080
:100080000000000000000000550300000000000018
:100090000000000000000000000000000000000060
:1000A000D91800002919000000000000000000001D
:1000B0002D190000311900003519000065010000FC
:1000C00000000000000000000000000029170000F0
:1000D0002D1700003D1900004119000045190000CE
:1000E0000000000000000000000000000000000010
:1000F0000000000000000000000000000000000000
:100100000000000065010000000000006501000023
:1001100000000000000000000000000000000000DF
:100120000000000039190000000000006501000017
:10013000DFF80CD000F0AAF800480047E9250000DD
:10014000F0880020084880470848094901600948AC
:100150000047FEE7FEE7FEE7FEE7FEE7FEE7FEE715
:10016000FEE7FEE7FEE700005917000000F8004038
:10017000F000A5A531010000004870474C3B00008D
:1001800040EA01039B0703D009E008C9121F08C019
:10019000042AFAD203E011F8013B00F8013B521E99
:1001A000F9D27047D2B201E000F8012B491EFBD210
:1001B00070470022F6E710B513460A460446194672
:1001C000FFF7F0FF204610BD30B505462A460B4626
:1001D00012F8010B13F8014B08B1A042F8D01CB182
:1001E000002802D06D1CF1E7284630BD421C10F8F3
:1001F000011B0029FBD1801A704710B5002200E0D6
:10020000521C835C8C5CA34201D1002BF8D1D8B284
:10021000E1B2401A10BD034611F8012B00F8012B82
:10022000002AF9D1184670472DE9F05F05460020F5
:1002300092469B4688460646814640241BE0284657
:1002400041464746224600F042F853465A46C01AF5
:10025000914110D311461846224600F029F82D1A74
:1002600067EB01084F4622460120002100F020F8EC
:1002700017EB00094E41201EA4F10104DFDC4846C3
:1002800031462A464346BDE8F09F0000064C074D24
:1002900006E0E06840F0010394E807009847103456
:1002A000AC42F6D3FFF748FF883E0000B83E00009E
:1002B000202A04DB203A00FA02F100207047914026
:1002C000C2F1200320FA03F3194390407047202A1B
:1002D00004DB203A21FA02F00021704721FA02F3F0
:1002E000D040C2F12002914008431946704730B512
:1002F0008C1810F8012B12F00F0301D110F8013BFC
:10030000120906D110F8012B03E010F8015B01F887
:10031000015B5B1EF9D101E001F8013B521EFBD1EC
:10032000A142E6D3002030BD026822F4F8720260D8
:1003300002680A4302600909012202FA01F14161DF
:10034000704700000268002922F0010218BF013244
:10035000026070477047000010B50268D1E900C321
:1003600022F0FC02D1E902E41A432243026042680F
:100370004FF607739A43097C42EA0C02114341EAA3
:100380000E2141602109012202FA01F1416110BDF3
:10039000016841F002010160704700004FF20C0259
:1003A0004001C4F200021358002923F48043135083
:1003B000135823F4804318BF03F58043135070474C
:1003C0004FF20C024001C4F200021358002923F03E
:1003D00001031350135823F0010318BF01331350C6
:1003E00070470000B0B54FF2000CC4F2000CD1E928
:1003F0000032D1E902454FEA401E0CEB40104CF8A8
:100400000E3042608460C268D1E9043422F4CF72B5
:1004100042EAC502896942EAC31242EA440242EA58
:100420008101C160B0BD00004FF20C024001C4F276
:100430000002135823F4005313501358194311505A
:10044000704700007047000080B54FF28C03C4F283
:100450000003C0004FF01F0CD3F800E00CFA00F2CC
:100460002EEA02021A601A6801FA00F010431860BE
:1004700080BD00000069704741680022C0E9021198
:10048000026170470069B0FA80F0400970470000CF
:10049000B0B5002A08BFB0BDD0F810C0BCF1000F45
:1004A00025D0D0F804E0C568A5EB0E03BCEBA30F84
:1004B0008CBFD0F800E04FF0000EAEEB0C0305EB64
:1004C0008304846055F8233041F8043BD0E900E30D
:1004D000846805690434A5F1010C03EB8E05AC4278
:1004E0008460C0F810C028BF8360013AD6D1B0BD87
:1004F00080B502680369013A934288BF80BDC26833
:100500001160D0E900CED0E903320EEB8C01043348
:100510000132C3608B42026128BFC0F80CE080BD8D
:1005200070470000816370472023002A08BF2423FE
:10053000C15070470B79D1F800C05A1E022A09D267
:10054000022BC0F810C014BF48304430C0F800C0BF
:10055000704700BF032B03D11430C0F800C07047B0
:10056000C0F814C0497902290AD001290ED0002907
:1005700018BF7047C0F850C04030C0F800C0704786
:10058000C0F84CC04030C0F800C07047C0F83CC054
:100590005030C0F800C070474900836902FA01F189
:1005A00019438161704700000068084018BF0120AE
:1005B000704700004268114341607047042A88BFB9
:1005C0007047DFE802F003070B0D11008162016341
:1005D000C160704781624163C1607047816070474C
:1005E000C1620163C1607047C1624163C16070470D
:1005F0004EF62C52CEF200021168B1F1FF3F43DDFE
:1006000052F8083C40F65C71C2F200014B6212F8ED
:10061000043C81F8283012F8033CCB62D3680B63AA
:1006200032F8023C8B8613688B635368CB63126984
:100630000A6400220A6000BF0A6832B90A6822B957
:100640000A6812B90A68002AF6D002684A6042684D
:100650008A608268CA60C2680A6102694A61426946
:100660008A618269CA61C06908620020086000BFAF
:10067000086880B9086870B9086860B90868002817
:1006800018BF7047F4E700BF116841F000411160E6
:1006900081690231816170477047000010B581782F
:1006A00002784EF2004CCEF2000C09B393081CF80D
:1006B00003E04478182101EAC201FF22A4018A4024
:1006C000E4B22EEA020204FA01F111430CF803101D
:1006D0000078012200F01F0102FA01F1C0F342107C
:1006E0004FF600520CEB8000CFF6FF72815010BD28
:1006F00002F01F00012101FA00F04FF68051CFF601
:10070000FF714CF8010010BD7047000070470000F9
:1007100010B542F20004C4F2010420464FF4806197
:10072000FFF700FF20464FF40061FFF7FBFE05A135
:10073000002000F0DFFA40F64470C2F20000012110
:10074000016010BD7573657220627574746F6E20E0
:10075000707265737365642121210D0A0000000029
:10076000704700000A8802628A78CB7891F804C04A
:100770004979426041EA0C010361C16170470000A0
:10078000826C22F00072114381647047826C0029F0
:1007900022F0807218BF02F18072826470470000FC
:1007A000016070474268012922F0010208BF01324E
:1007B000426070470068084018BF01207047000081
:1007C0007F2915DC102988BF7047012303FA01FC3B
:1007D00040F21613C0F201031CEA030F07D0002AEF
:1007E000C3690CBF8B430B430829C3611AD0704700
:1007F000B1F5004F06DA802914D0B1F5006F11D0A1
:10080000F5E700BF0ED0B1F1806FF0D1816C002A06
:100810001EBF41F080618164704721F08061816476
:10082000704700BF002A426B14BF114322EA010146
:1008300041637047F0B587B041F20004C4F2000490
:1008400004F57045284608210222FFF7A5FE284638
:100850000B210222FFF7A0FE1820ADF800000120B6
:100860008DF802006846FFF719FF40F6F050C2F21B
:10087000000000684DF68361C4F21B31A0FB01014A
:1008800040F2E730ADF814004FF0FF3000EBD140FC
:100890008DF81700002605A92046ADF81860FFF76F
:1008A00061FF4FF4407001ADADF804004FF48037A4
:1008B0002046294602968DF812600397ADF8106025
:1008C00000F024F840F20330ADF8040040F2F310D9
:1008D000ADF810002046294602968DF81260039765
:1008E00000F014F8204610210122FFF769FF20468E
:1008F0000021FFF74BFF20460021FFF741FF204674
:100900000121FFF74FFF07B0F0BD0000B0B50A7836
:10091000032A11D8DFE802F002060A0E8B8943622F
:100920000AE000BF8B89836206E000BF8B89C36247
:1009300002E000BF8B8903634FEA820E07234FF466
:10094000881403FA0EF39440D0F848C023434C783F
:100950002CEA030504FA0EFCD1E90143944003FAA2
:1009600002F244EA050343EA0C031A438264897BDA
:10097000C164B0BD7047000070470000B0B546F6D6
:10098000E46EC2F2000E9EF800408C46002C42D16C
:100990000321CEF81010CEF8141043F6E34146F6CA
:1009A0008C74C0F20001C2F20004CEF81810CEF828
:1009B0001C404FF48064CEF820400024CEF828403C
:1009C000CEF82440CEF82C40CEF8601040F64871A6
:1009D000C2F200010131CEF864101021CEF8681087
:1009E00045F25241C0F25401CEF87040CEF86C404E
:1009F000CEF87440CEF8071044F24751C0F25201CD
:100A0000CEF8031044F25351C4F24771CEF80010EF
:100A100020218EF80610022884BF4FF0FF30B0BDB1
:100A2000049DEFF311844FF0200181F3118850B140
:100A300000EB40010EEBC101C1F818C0CA610022F1
:100A40000B628A624A6200EB40000EEBC000C56296
:100A5000002084F31188B0BD46F6E460C2F20000C5
:100A600003210161416143F6E34146F68C72C0F215
:100A70000001C2F200028161C2614FF48062026231
:100A8000002282624262C262016640F64871C2F28E
:100A90000001013141661021816645F25241C0F2E8
:100AA00054010267C2664267C0F8071044F247511A
:100AB000C0F25201C0F8031044F25351C4F247711E
:100AC000016020218171704710B546F6E46EC2F2D4
:100AD000000E9EF800308C46002B42D10321CEF848
:100AE0001010CEF8141043F6E34146F68C73C0F2B2
:100AF0000001C2F20003CEF81810CEF81C304FF4FB
:100B00008063CEF820300023CEF82830CEF8243091
:100B1000CEF82C30CEF8601040F64871C2F20001D9
:100B20000131CEF864101021CEF8681045F2524120
:100B3000C0F25401CEF87030CEF86C30CEF874307C
:100B4000CEF8071044F24751C0F25201CEF803101C
:100B500044F25351C4F24771CEF8001020218EF8B0
:100B60000610EFF311844FF0200181F311886146E4
:100B700000F004F884F3118810BD00002DE9F04F57
:100B800081B046F6E46300EB4000C2F2000303EBE1
:100B9000C006F06A14460228894611D0012845D0C3
:100BA00048B9354655F8247F6868B84276D9F94384
:100BB0000844A04279D20026304601B0BDE8F08F4B
:100BC00056F8245F301DA6F1040BB246A6F10808C2
:100BD0000026009020E000BFDBF80000EA4311444B
:100BE0000144471BB94238BF0F46D8F80000A7425E
:100BF00028BF2746284449463A46FFF7C1FADBF8A2
:100C000000007919E41B0D1A3E44B94418BF0D4683
:100C1000002CCAF8005057D000980168A942DBD9CF
:100C2000EA43DBF800001144DBE700BFB04658F8A8
:100C3000247FD8F80410B94204D9FA43306A114429
:100C400004E000BF306AFA4311440144A14238BFB6
:100C50000C46C51B56F81C0FAC4238440CD2494612
:100C60002246FFF78DFAE019C8F800002646304604
:100C700001B0BDE8F08F00BF49462A46FFF780FA71
:100C8000671B306809EB05013A46FFF779FAC8F8A7
:100C900000702646304601B0BDE8F08F316AFA4355
:100CA00010440844A042FFF486AF56F81C0F716848
:100CB0003844A1EB0708A0450AD949462246FFF768
:100CC0005FFA381928602646304601B0BDE8F08F3B
:100CD00049464246FFF754FAA4EB0807306809EB8F
:100CE00008013A46FFF74CFA2F602646304601B01D
:100CF000BDE8F08F82B080B582B0CDE9042304AAAC
:100D0000019201AA00F006F802B0BDE8804002B0EE
:100D1000704700002DE9F04F9DB0164608AA41F239
:100D2000597918924022002505901C900DF1600B16
:100D3000CDF2B71900200C461992CDE91A55079645
:100D40000CE000BF3B46CDF8048000F083FEA3E139
:100D50001B982146B0F1FF3F40F3CE8414F8013BCD
:100D6000252B1BD0002B00F0AF84DDE91920411C9E
:100D7000914207D8189A13541B98199A01301B9066
:100D800008461A919042E3D118991C98FFF79CFEEF
:100D90001A99884240F0A4841A95D9E701F1020A11
:100DA0004FF000081AF8011CA1F123030D2B00F2EB
:100DB0005F800222DFE803F0085C5C5C5C5C5C5CEA
:100DC0000A5C0C5C5C0D00BF082202E0042200E01B
:100DD00001229AF8001048EA0208A1F123030D2B22
:100DE00000F286800222DFE803F007838383838397
:100DF000838309830B83830C082202E0042200E032
:100E000001229AF8011048EA0208A1F123030D2BF0
:100E100000F26C800222DFE803F007696969696902
:100E2000696909690B69690C082202E0042200E083
:100E300001229AF8021048EA0208A1F123030D2BBF
:100E400000F262800222DFE803F00F5F5F5F5F5F06
:100E50005F5F115F0D5F5F0748EA02080AF1040A4D
:100E6000A0E700BF0122F7E70822F5E70422F3E735
:100E7000AAF1010AA1F13002092A3DD80AF1020AB9
:100E8000002200BF02EB820201EB42021AF8011CB1
:100E9000303AA1F13003092B3ED802EB820201EB7C
:100EA00042029AF80010303AA1F13003092B35D8EC
:100EB00002EB820201EB42029AF80110303AA1F1F2
:100EC0003003092B76D802EB820201EB42029AF83A
:100ED0000210303AA1F13003092B0AF1040AD1D9EA
:100EE000AAF1020A2E291BD009E000BF0AF1010A6B
:100EF000A1F13002092AC1D900222E2910D00027E1
:100F00002539532968D9C7E00AF1020AA1F1300254
:100F1000092AF1D8B2E700BFAAF1010A2E29EED1C1
:100F2000534613F8011FA1F13007092F06D90027F6
:100F30009A46253953294FD9AEE000BF0AF1020A7B
:100F4000002700BF07EB870301EB43039AF800106B
:100F5000A1F13007092FA3F1300739D807EB870338
:100F600001EB43039AF80110A1F13007092FA3F117
:100F7000300725D807EB870301EB43039AF80210EB
:100F8000A1F13007092FA3F130071FD807EB870322
:100F900001EB43039AF80310A3F13007A1F13003EA
:100FA000092B0AF1040ACDD9AAF1010A25395329DE
:100FB00012D971E00AF1010A2E29B1D09FE700BFD2
:100FC0000AF1010A2539532906D965E00AF1020A16
:100FD0002539532900F26080DFE811F0AC015E0092
:100FE0005E005E005E005E005E005E005E005E0011
:100FF0005E005E005E005E005E005E005E005E0001
:101000005E005E005E005E005E005E005E005E00F0
:101010005E005E005E005E005E005E005E005E00E0
:101020005E005E005E005E005E005E005E005E00D0
:101030005E005E005E005E005E005E005E005E00C0
:101040005E0054005E005E005E005E005E005E00BA
:101050005E005E005E005E00DC01FC015E005E0082
:101060005E0062005E005E005E0062005E005E0088
:101070005E00A4025E005E00B2025E00E0025E005E
:101080005E005400FFE73068011D31600168009286
:101090005846102256E600BF0AF1010458E600BF88
:1010A0009AF801102539532900F22A81DFE811F05E
:1010B00020012801280128012801280128012801F0
:1010C00028012801280128012801280128012801D8
:1010D00028012801280128012801280128012801C8
:1010E00028012801280128012801280128012801B8
:1010F00028012801280128012801280128012801A8
:101100002801280128012801280128012801280197
:10111000280128012801540028012801280128015C
:101120002801280128012801280128012C0130016B
:101130002801280128015800280128012801580009
:10114000280128012801340128012801380128013B
:101150003C012801280154000AF1010A93E700BF6D
:101160009AF802102539532900F2EE80DFE811F0D9
:10117000E000EC00EC00EC00EC00EC00EC00EC001B
:10118000EC00EC00EC00EC00EC00EC00EC00EC00FF
:10119000EC00EC00EC00EC00EC00EC00EC00EC00EF
:1011A000EC00EC00EC00EC00EC00EC00EC00EC00DF
:1011B000EC00EC00EC00EC00EC00EC00EC00EC00CF
:1011C000EC00EC00EC00EC00EC00EC00EC00EC00BF
:1011D000EC00EC00EC00B800EC00EC00EC00EC00E3
:1011E000EC00EC00EC00EC00EC00EC00F000F40093
:1011F000EC00EC00EC005400EC00EC00EC005400BF
:10120000EC00EC00EC00F800EC00EC00FC00EC0062
:101210000001EC00EC00B8009AF8031025395329BE
:1012200000F2B280DFE811F0A800B000B000B0001A
:10123000B000B000B000B000B000B000B000B0002E
:10124000B000B000B000B000B000B000B000B0001E
:10125000B000B000B000B000B000B000B000B0000E
:10126000B000B000B000B000B000B000B000B000FE
:10127000B000B000B000B000B000B000B000B000EE
:10128000B000B000B000B000B000B000B00060002E
:10129000B000B000B000B000B000B000B000B000CE
:1012A000B000B000B400D400B000B000B0005400F2
:1012B000B000B000B0005400B000B000B0007C013D
:1012C000B000B0008A01B000B801B000B00060000A
:1012D0001AF8041F253953297FF67EAEDCE600BFDD
:1012E0000AF1020ACFE600BF0AF1030ACBE600BF0B
:1012F0000AF1010ADDE91920411C91421FD95AE087
:101300000AF1010AC8E600BF0AF1010A42E000BF83
:101310000AF1010A5EE000BF0AF1010A02E100BF22
:101320000AF1010A0CE100BF0AF1010A36E100BF2F
:101330000AF1020ADDE91920411C91423BD8189AB2
:101340002523135431E000BF0AF1020AA4E600BFCE
:101350000AF1020A1EE000BF0AF1020A3AE000BFE9
:101360000AF1020ADEE000BF0AF1020AE8E000BF6B
:101370000AF1020A12E100BF0AF1030ADDE91920AD
:10138000411C9142DBD916E00AF1030A84E600BF52
:101390000AF1030ADDE919203368411C1F1D91423F
:1013A000376008D81A68189B1A541B98199A01308C
:1013B0001B9008461A9190427FF46EAE18991C98C3
:1013C000FFF782FB1A99884240F0E2801A9563E6A3
:1013D0000AF1030A31680B1D33600C68002C2146AA
:1013E000C4F1000348BF19460A2906931CD34FF0E5
:1013F000020B42F2107500BF632917D9B1F57A7F4D
:10140000C0F03E81A942C0F03F81A1FB093648F2FD
:101410009F63C0F2010399424FEA56310BF1040B6E
:10142000EAD8ABF1010B01E04FF0010BBB454FF0E7
:10143000000538BFBB466AB10021002C48BF01211E
:1014400008F0040341EA9301A2EB010918F0020637
:1014500005D12FE04FF0000918F002062AD04FBB4B
:10146000002800F12281B4F1FF3F40F3A1805FEA40
:10147000487040F1B680DDE91920411C914208D83E
:10148000189A2B2313541B98199A01301B90084665
:101490001A91904240F0A58018991C98FFF714FB10
:1014A0001A99884240F0FE801A951B98002840F156
:1014B0009B80FAE05FEAC871D2D1B9F1000FCFD0BA
:1014C00059460496D94538BF494609F1010641F20B
:1014D00059790025CDF2B719039104E01B981A95AC
:1014E000002800F1B880013EB34580F0D180DDE9ED
:1014F00019214B1C934208D81898202242541B985B
:10150000199A013019461A931B909142E8D1189903
:101510001C98FFF7D9FA1A998842DFD098E000BFEB
:101520000AF1030A30681022011D316001680820A9
:101530000090584608230195FFF707BC0AF1030AFB
:1015400031680A1D32600C6808E000BF1B981A95CC
:10155000B0F1FF3F04F101047FF79EAD2778002F23
:101560003FF49AADDDE919214B1C934207D8189836
:1015700047541B98199A013019461A931B909142AF
:10158000E6D118991C98FFF79FFA1A998842DDD086
:101590004FF0FF301B907FE50AF1030A3068011D10
:1015A00031600168009258460A22FFF7CBBB00BFAA
:1015B000DDE91920411C914208D8189A2D231354B3
:1015C0001B98199A01301B9008461A91904263D1DA
:1015D00018991C98FFF778FA1A99884262D1069CEC
:1015E0001A951B98002860D4D6B308F0010139433E
:1015F00036D1B9F1000F33D006945C46D94538BFD7
:101600004C4609F1010641F259790025CDF2B7198E
:1016100004E000BF1B981A9500281CD4013EB34576
:101620004ED2DDE919214B1C934208D8189830227C
:1016300042541B98199A013019461A931B909142F3
:10164000EAD118991C98FFF73FFA1A998842E1D01D
:101650004FF0FF301B90079E0DF1600BFFF71CBD94
:10166000079E0DF1600B584621460A223B46CDF8F5
:101670000090CDF8048000F0EDF9002519E000BFDE
:101680000BF1010BD2E600BF0BF1020BCEE600BF5F
:10169000DDE903960025E3E6069C1B980028A3D508
:1016A00003E000BF4FF0FF301B90079E00250DF1B7
:1016B000600B41F25979CDF2B719FFF7EDBC00BFCD
:1016C000A146079E069CCCE701280FDB1A9A8AB137
:1016D000059808A9FFF7F8F9DDE91A100BE000BF3B
:1016E0004FF0FF301DB0BDE8F08F00BF00201DB0EF
:1016F000BDE8F08F002108441DB0BDE8F08F000068
:1017000044F61041C4F200010A68120509D50A68BE
:10171000120544BF0A685FEA025202D50A68120540
:10172000F2D441F8100C7047704700007047000079
:101730007047000046F6E060C2F20000016811B197
:1017400001680139016047F6EC00C2F2000001684F
:10175000013101607047000080B583B045F610008C
:10176000C4F20000816A41F20C0E21F00101816295
:10177000426AC4F2020E22F001024262DEF8002048
:1017800043F2006322F04002CEF8002040F6F4520B
:10179000C2F20002C0F26E1313604AF21802C0F2E5
:1017A0000102426040F611520260026842F01002EB
:1017B000026000BF0268B2F1FF3F09DD0168002945
:1017C00006D40168002903D40168B1F1FF3FF1DCC0
:1017D0004FF60002F023C4F20002CAF2A5534FF004
:1017E000000C1360CDF800C0009B43F68002C0F2ED
:1017F0000102934218DA00BF009B01330093009B63
:10180000934211DA009901310091009991420BDA6B
:101810000099013100910099914205DA0099013156
:10182000009100999142E7DBDEF800304FF6FC7141
:1018300019400231CEF80010CDF808C0029991424B
:1018400018DA00BF0299013102910299914211DA2E
:10185000029901310291029991420BDA0299013108
:1018600002910299914205DA02990131029102999D
:101870009142E7DBDEF800104FF67F4341F48061D0
:10188000CEF80010DEF800101940CEF8001000214C
:1018900001910199914217DA019901310191019960
:1018A000914211DA019901310191019991420BDACA
:1018B0000199013101910199914205DA01990131B2
:1018C000019101999142E7DB50F8081C41F00101B8
:1018D00040F8081C03B080BDB0B541F20004C4F26A
:1018E000000420461021FEF765FF002808BFB0BDA8
:1018F00047F28C30C2F20000058804F570404FF4C6
:101900000061FEF751FE002840F6DC5018BF05F5D7
:101910008035C2F200002946FEF7EAFD204610217C
:10192000BDE8B040FEF73CBF7047000070470000C4
:1019300070470000704700007047000070470000CB
:1019400070470000B0B544F60040C4F200000468DF
:1019500047F66405C2F20005E0B2294600F020FA1D
:101960000D280AD140F6F85005F10801C2F2000036
:1019700001F0C2FB284600F00BFA03A1002022462A
:10198000BDE8B040FFF7B6B97265763A20307825E9
:101990003032580D0A0000004268002922F080020F
:1019A00018BF803242607047002AC2680CBF22EA2A
:1019B00001011143C160704780B54FF6FF720262AA
:1019C0004FF0FF32C261B1F804C0CB880A8943EA04
:1019D0000C031A4342600A8A4368002A23F4807386
:1019E00018BF03F580734360D1F800C0CA68D1F80E
:1019F00014E00CFB02F3BEFBF3F101FB13EE530802
:101A000003FB0CF39E4588BF013189B2042A816033
:101A10000CD0082A14D0102A18BF80BD816821F488
:101A2000403181608168816080BD00BF816821F4A0
:101A300040318160816841F48031816080BD00BFA8
:101A4000816821F440318160816841F40031816016
:101A500080BD00002DE9F04F83B08B46DDE90C918D
:101A60001F4615469345044602D24FF001081FE079
:101A70004FF00208584600BFB0FBF5F0A84217D35C
:101A8000B0FBF5F0A8420DD3B0FBF5F0A8420DD3A2
:101A9000B0FBF5F008F10408A842EDD2A8F1010866
:101AA00006E000BF08F1010802E000BF08F10208EB
:101AB000B84538BFB846B9F1000F01F001000290F7
:101AC00035D0A0BB88074FF020064FF0200048BF5C
:101AD0003026002F18BF064640464FF0000AC84582
:101AE00088BF4846019005E0C4F808A0E068B0F15E
:101AF000FF3F1CDDC8456FD2D4E90120411C914253
:101B000007D822681654E06862680130E060084631
:101B1000A1609042A9F10109E8D121682069FEF78E
:101B2000D3FFA1688842DFD04FF0FF30E060E0686B
:101B3000002860D4012601E0013F6E43022F01D34B
:101B4000013F03E0BBFBF6F1A9421BD3012F05FBCC
:101B500006F601D9013F03E0BBFBF6F1A94211D320
:101B6000012F05FB06F601D9013F03E0BBFBF6F1AF
:101B7000A94207D3012F05FB06F6DDD8BBFBF6F122
:101B8000A942DAD2A1680FF2C80A00BF6268BBFBA3
:101B9000F6F74B1C934209D81AF8070022685054F4
:101BA000E068626801301946A360E060914209D1A3
:101BB00021682069FEF788FFA168884212D1E06899
:101BC0000021A160002810D4B6FBF5F207FB16BB7C
:101BD000AE421646DAD208E0DDF80490E06800284C
:101BE000A8D508E04FF0FF30E060029A002A18BF45
:101BF000B9F1000F02D103B0BDE8F08F09F1010582
:101C0000202602E0B0F1FF3FF5DD013DA845F2D20C
:101C100062684B1C934207D820684654E0686268AB
:101C200001301946A360E0609142EBD12168206940
:101C3000FEF74AFFA168884204D1E0680021A16054
:101C4000E0E700BF4FF0FF30E06003B0BDE8F08F89
:101C500030313233343536373839414243444546E2
:101C6000B0B5044629A001F0C9FC43F66050C0F2AB
:101C7000000001F017FF43F68950C0F2000001F0A8
:101C800011FF43F6DB50C0F2000001F00BFF43F6FA
:101C90000460C0F2000001F005FF43F6B250C0F24C
:101CA000000001F0FFFE43F62D60C0F2000001F0DD
:101CB000F9FE19A001F0A2FC43F65660C0F2000044
:101CC00001F09CFC16A001F0EDFE1AA001F0EAFE66
:101CD0001EA100200025FFF70DF821A026A128A2B3
:101CE00001F08CFC43F65D50C0F20000214601F08B
:101CF00085FC44F8245F24A12046A580A560A58129
:101D000001F0ACF80120E080B0BD00BF0D0A1B5B04
:101D100033363B316D0000000D0A1B5B306D000057
:101D200056657273696F6E3A2020202020312E3064
:101D30002E300D00436F707972696768743A202005
:101D4000203230323220626574610D00666C61733E
:101D500068636F64652070726F6772616D0D0A0051
:101D60002573666C617368636F6465257320707298
:101D70006F6772616D0D0A001B5B343B34316D007F
:101D80001B5B306D000000006C7320636D6400000D
:101D900000214FF6FF72416002800172704700001F
:101DA000B0B50D4691F88110044602290ED00029E5
:101DB0002ED1A4F10802052A44D800200121DFE831
:101DC00002F044033D41414F03204AE095F8800072
:101DD000A4F16101C9B228441A2980F86C401DD2CF
:101DE00043F650314FF0FF30C0F20001132853D0BA
:101DF0000A185378A3424FD09378A34254D0D37893
:101E0000A34253D012790430A242EFD14FE000BF79
:101E1000002085F881002046B0BD00BF7E2CDFD0B9
:101E2000A4F14100C0B21928DAD995F8800013282E
:101E300027D30020A5F880002046B0BD0121012055
:101E400021B911E04FF0FF30002169B143F6B831FC
:101E5000C0F2000151F82010284688472046B0BD46
:101E6000022001210029F1D11B2C0FD195F88010FF
:101E7000022085F8810068181B2180F86C1095F805
:101E80008000013085F880002046B0BD28462146FC
:101E900000F0E6FB2046B0BDA0F11301B1FA81F1DC
:101EA0004909013004E000BF023000E003300021A6
:101EB000002943F66831C0F2000118BF4FF0FF302F
:101EC00051F82010284688470020A5F880002046B9
:101ED000B0BD000000214FF6FF7241600280017228
:101EE000A0F880107047000010B5ADF5FA6D40F60F
:101EF0004070C2F20000416800291CBF002141600F
:101F00000178032926D8DFE801F003373D2500BF1B
:101F100068464FF4FA61FEF74CF940F6DC50C2F225
:101F20000000FEF7A7FAB0F5FA7F2DD940F6DC5095
:101F30006C46C2F2000021464FF4FA72FEF7A8FA8E
:101F4000012021464FF4FA62FEF7BEFD0DF5FA6D51
:101F500010BD00BF43F64041C0F200010020FEF773
:101F6000C9FE43F64B40C0F200000DF5FA6DBDE826
:101F7000104001F097BD00BF022101700DF5FA6D10
:101F800010BD00BF417801700DF5FA6D10BD000065
:101F90002DE9F04389B043F6CF4142F6E0624FF0BD
:101FA0000008C0F20001C2F2000201204FF4804399
:101FB000CDF800800124FEF7E1FCFEF74DFD43F66D
:101FC000874143F6DB4243F68063C0F20001C0F272
:101FD0000002C0F200030020FEF78CFE43F67041C1
:101FE00043F6BA4243F6C643C0F20001C0F2000213
:101FF000C0F200030020FEF77DFE00F0FBFA00F0C7
:1020000069FD2720ADF8080002A88DF80A40FEF708
:1020100045FB46F20009C4F20009A9F5A056304676
:1020200001210122FFF7C0FC42F20005C4F20105C4
:10203000A5F5805738460A210122FEF7ADFA384649
:102040000B210122FEF7A8FA4FF4E13002900120A3
:10205000C0F2080003902020ADF810001020059079
:1020600046F60000C0F68910079002A93046ADF888
:102070001840FFF7A1FC30460121FFF78DFC4020FE
:1020800002AE029028463146ADF80C40FEF752FAF7
:102090008020029028463146ADF80C40FEF74AFAFF
:1020A0004FF48070029028463146ADF80C40FEF7A0
:1020B00041FA28464021FEF77DFA28468021FEF7A6
:1020C00079FA28464FF48071FEF774FA0820ADF8CB
:1020D000080002A88DF80A40FEF7E0FA28464FF4FF
:1020E00080610022FEF76AFA28464FF40061002260
:1020F000FEF764FA28464FF480610122FEF714FAD5
:1021000028464FF400610122FEF70EFAFEF792FB1B
:10211000484630213025FEF707F904200290FF20C1
:10212000CDE9040502A948468DF81840CDF80C8089
:10213000FEF712F948460121FEF704F94846FEF77A
:1021400027F946F20C00C4F20000029047F28C30EE
:10215000C2F20000CDE9030402A90020CDE9054444
:10216000CDE90788FEF73EF900200E21FEF76CF955
:1021700000200021FEF758F900200121FEF70EF99A
:1021800000200121FEF71CF940F6F050C2F20000D9
:10219000006844F6D351C1F26201A0FB01014FF087
:1021A000FF3000EB9110B0F1807F01D3FEE700BF5C
:1021B0004EF21001CEF2000148604EF62350CEF2EE
:1021C0000000C02202700720C1F8088008600F20BC
:1021D000012101F008FA01F00BFA47F66400C2F29F
:1021E0000000FFF777FE40F6F850C2F20000FFF75C
:1021F00037FD09B0BDE8F08380B5C0B2FFF780FAC3
:1022000080BD00002DE9F04F99B043F6EC4443F651
:102210004B550646C0F20004C0F200050F460020F0
:1022200021462A4633460097FEF764FD204629469C
:1022300032463B4601F0E2F9781EFF2804D94FF000
:10224000FF3019B0BDE8F08F102F4FF00004039657
:1022500038460497C0F2A48004994FF6F070084005
:102260000690039843F63A5B00F101090DF1530023
:10227000411CC0F2000B0DF1220A4FF0200800248F
:10228000059100BFDDF814E000226FF0060C0A2172
:10229000079400BF09EB020313F8016C0AEB010578
:1022A00037091BF807705C7805F80A7C06F00F0701
:1022B0001BF8075002EB420757449B787D7087F864
:1022C0000280202E38BF2E2619F802500DF153003F
:1022D00086542E091BF8066005F00F001BF800005D
:1022E000FE7026091BF8066038710AEB0C0080F8B6
:1022F0000C80202D38BF2E25BE7104F00F061BF870
:1023000006600EF80250867318091BF8000087F863
:102310000880202C38BF2E24787203F00F001BF8A1
:1023200000004E1E0AF80100101D46F00207460785
:102330000EEB02054FF020066C7058BF0926072AE5
:1023400028BF4646202B0AF8076038BF2E230CF121
:102350000C0C0C3110280246AB709BD1079C00205E
:1023600043F61C518DF852008DF863000020C0F236
:102370000001224653460DF153050095FEF7BAFCC5
:1023800043F60E50C0F20000214652462B4601F0A3
:1023900035F906981034844209F11009FFF472AF40
:1023A0000499C81701EB107020F00F000A1A012AD7
:1023B000C0F213814FF0000A8C424FF0000380F20C
:1023C000E780E0430B1B084443F63A5803F003014F
:1023D0000328C0F2000807D2DDF80CB00026A146A1
:1023E000002940F08280D3E023F00300CDE9060409
:1023F000039800262044013005900DF1530000F1B0
:10240000010A6FF00B004FF0200BCDE9011204938D
:10241000059A0DF12209931913F8011C09EB000C20
:102420000F0918F807705C788CF80C7001F00F0732
:1024300018F8075006EB46074F447D70202938BF37
:102440002E21955D0DF153029155290918F80110BF
:1024500093F802E0F97005F00F0118F8011087F801
:1024600002B03971210918F801108CF811B0202D33
:1024700038BF2E25B97104F00F0118F801100AF8C1
:1024800006508CF813104FEA1E1118F801100AEBD1
:10249000060387F808B0202C38BF2E2479720EF07E
:1024A0000F015C7000F1150418F8011044F00204EB
:1024B0008CF8161009F804B0BEF1200F38BF4FF0A9
:1024C0002E0E06990436B14200F10C0083F802E0AA
:1024D0009ED1079CDDF80CB0049BDDE9011204EBF2
:1024E00006094FF0000A002952D01BF809508C460B
:1024F000280918F8007006EB46010DF12200475438
:1025000005F00F0718F8077001444FF0200E4F70C8
:1025100081F802E06146202D38BF2E250DF1530CC5
:1025200001290CF8065033D0D94499F8015004938E
:102530000B4629090794741C18F8011004EB440792
:10254000C15505F00F0118F801100744202D7970CE
:1025500087F802E038BF2E25022B0CF8045015D066
:1025600099F80240B11C260918F8066004F00F051E
:1025700001EB410718F80530C519C65520206B70CE
:10258000A870202C38BF2E240CF80140079C049B17
:1025900002EB42010DF12205681805F801A00DF1CA
:1025A0005306C1F13001202206F803A0FDF7FAFD21
:1025B00043F61C51C0F20001002022462B468DF844
:1025C00052A00096FEF796FB43F60E50C0F20000B4
:1025D00021462A46334601F011F8002019B0BDE823
:1025E000F08F0000FFF7D4BCFFF7FCFFFFF77CFC87
:1025F000FCE70000B0B540F6DC50C2F20000FDF789
:1026000041FF01281DD040F6DC5443F65545C2F287
:102610000004C0F2000500BF2046FDF72BFF024674
:1026200000202946FEF766FB2046FDF723FF024601
:1026300000202946FEF75EFB2046FDF723FF012818
:10264000EAD140F6DC50C2F20000FDF715FF40F67B
:10265000A070C2F200004FF4FA51FDF7AAFDB0BD20
:10266000B0B54268612A25D80D46B0F900108A42FB
:102670002CD900BF8118CB79541E0B72B0F90030F1
:102680009C4225D98B79941ECB71B0F900309C42C5
:102690001ED94B79D41E8B71B0F900309C4217D9EA
:1026A0000B79043A4B71B0F900108A42E2D889B232
:1026B0000FE000BF018861226129426024BF6021D0
:1026C0000180002180F86910B0BD00BF89B201E02F
:1026D00099B24268013101320180426009B200F1D1
:1026E00008025554416800235354B0F90010406863
:1026F0000131814202D206A000F080FF40F6D8519D
:10270000C2F200012846BDE8B04001F0C8B900BFE0
:102710001B5B314000000000F0B581B0044690F82A
:10272000800080B140F6D85504F16C060027C2F253
:10273000000500BFF05D294601F0B1F994F8800072
:1027400001378742F6D301B0F0BD000010B590F814
:102750006E10332918BF10BDB0F900404268611CEB
:1027600091421BD20319997A59724268A11C914275
:1027700012D2D97A99724268E11C91420CD2197B2B
:10278000D9724268211D914206D25A7B1A7342685F
:10279000631D93420C46E5D3B0F9004011B2A1424B
:1027A00018DD40F6D854511EC2F2000441601B20CF
:1027B000214601F074F95B20214601F070F93120C7
:1027C000214601F06CF950202146BDE8104001F08F
:1027D00066B900BF10BD000080B5B0F800C00FFAA8
:1027E0008CF3002B48BF80BD426862451FD900BFF3
:1027F00000EB0C035A7A0CF101011A724268914203
:1028000014D2997A597242680CF1020191420DD2A8
:10281000D97A997242680CF10301914206D2197B70
:102820000CF1040CD97242689445E1D30388591E17
:102830000180511E416040F6D851C2F200010820CB
:1028400001F02DF902A0BDE8804000F0D7BE00BF26
:102850001B5B315000000000F0B581B040F6F85627
:10286000C2F20006718DA1B30446B0F90000411C0C
:1028700043F65350C0F2000000F0C0FE43F659503A
:10288000C0F2000000F0BAFE718D04F1080506F1F7
:1028900024002A4600F018FA2846FDF7A7FC054652
:1028A00060600138208065B1E71D40F6D854C2F25F
:1028B000000400BF17F8010F214601F0F0F8013DB8
:1028C000F8D1708D318D013082B28A4288BF0120EB
:1028D000708501B0F0BD000010B540F6F8524FF61B
:1028E000FF71C2F2000240F6D85401800021138D1E
:1028F000C2F2000441600D202146538501F0CFF85B
:102900000A202146BDE8104001F0C9B80146B0F9DF
:102910000000002848BF7047421E02A00A8000F055
:102920006DBE00BF1B5B3144000000004FF6FF711D
:1029300040F6F85201800021C2F200024160138D7E
:1029400040F6D851C2F200010A20538501F0A7B821
:1029500042680146B0F90000013A8242D8BF704790
:1029600080B2421C01A00A8000F048BE1B5B3143CC
:1029700000000000F0B581B040F6F85400F1080600
:10298000C2F2000405462046314600F01DF950B35E
:102990000746686850B3B5F90000411C43F6535030
:1029A000C0F2000000F02AFE43F65950C0F20000C9
:1029B00000F024FE3846FDF719FC686001382880D5
:1029C00030463946FDF727FC6E6866B140F6D854AC
:1029D0000735C2F2000400BF15F8010F214601F0CF
:1029E0005EF8013EF8D101B0F0BD00BF43F654607F
:1029F000C0F2000001F056F8206AC168F1B143F658
:102A00005D5543F654660021C0F20005C0F2000691
:102A1000002700BF01EB810100EB8101284600F097
:102A2000EDFD304601F03EF80137206AF9B201EBC6
:102A3000810200EB8202D268002AEBD143F65D509E
:102A400040F6F851C0F20000C2F2000101B0BDE84A
:102A5000F04000F0D3BD0000F0B581B040F6F8566C
:102A6000C2F20006718D99B30446B0F90000411C12
:102A700043F65350C0F2000000F0C0FD43F6595039
:102A8000C0F2000000F0BAFD718D04F1080506F1F6
:102A900024002A4600F018F92846FDF7A7FB054652
:102AA00060600138208065B1E71D40F6D854C2F25D
:102AB000000400BF17F8010F214600F0F0FF013DB0
:102AC000F8D1708D318D0138020418BF014671852F
:102AD00001B0F0BDB0B533A137A20020FEF70AF96E
:102AE00041F22405C4F2020543F6B4442A78C0F248
:102AF000000400202146FEF7FDF86A7800202146F8
:102B0000FEF7F8F8AA7800202146FEF7F3F8EA78F5
:102B100000202146FEF7EEF82A7900202146FEF734
:102B2000E9F86A7900202146FEF7E4F8AA79002046
:102B30002146FEF7DFF8EA7900202146FEF7DAF8B1
:102B40002A7A00202146FEF7D5F86A7A002021462D
:102B5000FEF7D0F8AA7A00202146FEF7CBF8EA7AF1
:102B600000202146FEF7C6F82A7B00202146FEF70A
:102B7000C1F86A7B00202146FEF7BCF8AA7B002042
:102B80002146FEF7B7F8EA7B00202146FEF7B2F8AF
:102B900043F680620AA1C0F200020020BDE8B04006
:102BA000FEF7A8B825736D6375206368697020759A
:102BB00069643A200D0A00001B5B313B33326D0023
:102BC00025730D0A000000002DE9F04381B0066A6C
:102BD000307828B388460025FF2430464FF000099E
:102BE000002709E004460137FDB205EB850016F821
:102BF000201006EB800079B14146FDF7E5FA002888
:102C0000F1D005EB850106EB8101401AE2B290425A
:102C1000E9D202068946E5D1484601B0BDE8F08315
:102C20004FF00009484601B0BDE8F083F0B581B02F
:102C3000C0B143F6FF4704460D460026C0F2000728
:102C4000A85D31462A18384600F0D8FC0136B44257
:102C5000F6D1032C06D10020802101B0BDE8F04060
:102C6000FFF7D0BA05A000F01DFF0BA000F01AFF7F
:102C70000FA001B0BDE8F04000F014BF75736561AE
:102C800067653A2068657864756D70206164647268
:102C9000206C656E0D00000009616464723A206D5D
:102CA000656D6F727920616464726573730D0000E5
:102CB000096C656E3A20646973706C617920686F85
:102CC00077206D616E790D002DE9F04183888B428C
:102CD00038BFBDE8F081034633F80E5B29444D1E32
:102CE000ACB2032C88BF4D1FA9B213F801C0691CF8
:102CF0008DB2032D88BF002189B213F801E0F4459D
:102D00002CD26146634600BF4418A1EB0C05591C48
:102D1000A47C89B2714554551AD24418A1EB0C0514
:102D2000991CA47C89B27145545511D24418A1EB69
:102D30000C05D91CA47C89B27145545508D244189D
:102D40000433A47CA1EB0C0599B271455455DBD337
:102D5000A1EB0C0000211154BDE8F081BCF1FD0F86
:102D600036D8CCF10201CCF1FD0311F00304E046AA
:102D700015D000EB0C01897C012C0CF101081170BD
:102D80000DD000EB0801897C022C0CF10208517077
:102D900005D000EB0801897C0CF103089170032B2E
:102DA00016D3A2EB0C04031F043CFE2503EB08061C
:102DB000B77D04EB08010F71F77D043D4F71377E3D
:102DC00004338F71767EA84504F10404CE71EDD1F1
:102DD000BEF1000F3AD00023002100BFC418A3EBBE
:102DE0000C039D1841F00103A47C9BB2734585F848
:102DF000FE4022D2C418A3EB0C039D1841F002033D
:102E0000A47C9BB2734585F8FE4016D2C418A3EB90
:102E10000C039D1841F00303A47C9BB2734585F815
:102E2000FE400AD2C418A3EB0C030431A47C9D1805
:102E30008BB2734585F8FE40D0D303F1FE01A1EBC0
:102E40000C0000211154BDE8F08100BFFE21A1EB70
:102E50000C0000211154BDE8F0810000F0B581B0F4
:102E6000044608460F46FDF7C1F980B2FD2847D851
:102E7000A18913E02288013B013295B2032D88BF5E
:102E80000022228092B222442589927BA38095421F
:102E900088BFFE3DAB1A1944A18122818AB2C2F1DA
:102EA000FD02A3889042E5DC032BE3D0B4F802C016
:102EB000628904EB0C050CF1010CAA731FFA8CF566
:102EC000032D88BF4FF0000C0133A4F802C0A3808B
:102ED00090B10025002300BF7D5D96B226440132EB
:102EE000B57496B20133FD2E9DB288BF0022013128
:102EF000A8426281A181EFD81FFA8CF0204482732E
:102F000001B0F0BD2DE9F041B0F80480B8F1000F38
:102F10004BD00446078808460D46FDF767F9E119CE
:102F200080B28A7B70B34FF0000E04E00EF1010E08
:102F3000C645624639D20137BBB2032B88BF002792
:102F4000BBB2234493F80EC0BCEB020338BFFE3380
:102F50009BB28342EAD1D2B20023002691B221442F
:102F6000897CEB5C9942E1D1013291B20136FD29B5
:102F7000B3B288BF00229842F0D80EF1010080B2AF
:102F8000BDE8F081002000BF0137B9B2032988BF36
:102F90000027B9B22144897B01308A1A38BFFE323A
:102FA0001204ECD040450A46EED3002080B2BDE8C2
:102FB000F0810000F0B581B0022823D348780C18C6
:102FC0002DA02146FDF719F910B32CA02146FDF7DD
:102FD00014F9C8B32AA02146FDF70FF988BB29A030
:102FE00000F060FD2DA000F05DFD2FA000F05AFD67
:102FF00032A000F057FD37A001B0BDE8F04000F06E
:1030000051BD00BF15A001B0BDE8F04000F04ABDC1
:1030100040F6F856C2F20006306AC16889B10C2742
:1030200033A434A53844A0F10C01204600F0E6FAA0
:10303000284600F037FD306AC11949691437002964
:10304000F0D101B0F0BD00BF43F62950C0F200003E
:1030500001B0BDE8F04000F025BD00BF6C73206EEC
:10306000656564206D6F726520617267756D656E50
:103070007473210D00000000636D64002D76000064
:103080002D6800007573656167653A206C73205B7D
:103090006F7074696F6E735D0D0000006F707469FE
:1030A0006F6E733A200D000009202D6820093A2028
:1030B00073686F772068656C700D000009202D76AD
:1030C00020093A2073686F772076657273696F6E96
:1030D0000D0000000920636D6420093A2073686FB9
:1030E0007720616C6C20636F6D6D616E64730D0091
:1030F000257300000D0000002DE9F04FA7B000F18E
:103100002406824630468846FFF7FCFE30B998F820
:10311000000018B130464146FFF7A0FE4046FDF7DB
:1031200065F8652804D30FF24C4000F0BBFCF5E1D4
:103130000020CDF87D002690CDF89500CDF89100C7
:10314000CDF88D00CDF88900CDF88500CDF881004F
:1031500047F6E800C2F200001FAC01220068661CBE
:103160008DF880208DF87C20B8F1000F18BF404604
:10317000C11C11F8030C00281FBFC308E35C00F05A
:10318000070702FA07F718BF13EA070300F0D08118
:1031900011F8020C00281FBFC308E35C00F007070A
:1031A00002FA07F718BF13EA07031FD011F8010C42
:1031B00000281FBFC308E35C00F0070702FA07F707
:1031C00018BF13EA070319D011F8040B38B1C3086C
:1031D000E35C00F0070702FA07F73B40C9D1B0FAF9
:1031E00080F2520904390D4672B122E0B0FA80F241
:1031F000520902390D463AB11BE000BFB0FA80F225
:10320000520901390D46A2B94A1C00BFC308E35C4C
:1032100000F0070023FA00F0C007154606D12A4641
:1032200012F8010B0028F1D103E000BF002005F8DF
:10323000010CDAF820700296FE68B1EB050947F63A
:10324000E80018BF8946002EC2F2000005606FD06A
:1032500040463946FCF7D1FF60B120373E68002E6A
:1032600066D0A7F10C014046FCF7C7FF002807F124
:103270001407F3D10A208DF80E000DF10E000A306C
:103280004146FCF7C8FF4046FCF7B0FF029A002118
:10329000C2F81B10916151611161D1609160516060
:1032A00011600123EA1C8DF880308DF87C30009687
:1032B00012F8031C00291FBFCF08E75D01F00705C6
:1032C00003FA05F518BF17EA050700F03B8112F86D
:1032D000021C00291FBFCF08E75D01F0070503FAB4
:1032E00005F518BF17EA050732D012F8011C0029AE
:1032F0001FBFCF08E75D01F0070503FA05F518BF0A
:1033000017EA05072ED012F8041B39B1CF08E75D84
:1033100001F0070503FA05F52F40C9D1B1FA81F391
:103320005B09A2F1040B029E5D461BB337E000BFB0
:10333000FCF722FF006898F80010405C10F0980F2E
:1033400000F0EC8085A0494600F058F9E6E000BFA7
:10335000B1FA81F35B09A2F1020B029E5D464BB10B
:103360001DE000BFB1FA81F35B09A2F1010B029EDF
:103370005D46A3B90BF10102CB08E35C01F0070144
:1033800023FA01F1C907154606D12A4612F8011B96
:103390000029F1D103E000BF002105F8011C47F628
:1033A000E801C2F20001AB454FF001070D60CDF816
:1033B00004A000F0A98000F10B0A4FF000094FF0C3
:1033C00001080BE005F8019C47F6E80008F1010848
:1033D000AB45C2F20000056000F098805FFA88F00B
:1033E0000DF10E0101F800A05FFA8AF00844594679
:1033F000FCF711FF5846FCF7F9FE504400F1010AB2
:10340000E91CC6F81B90C6F81890C6F81490C6F8C8
:103410001090C6F80C90C6F80890C6F80490C6F84C
:1034200000908DF880708DF87C7011F8030C0028E6
:103430001FBFC208A25C00F0070307FA03F318BF1E
:1034400012EA030256D011F8020C00281FBFC2086E
:10345000A25C00F0070307FA03F318BF12EA0302A5
:1034600022D011F8010C00281FBFC208A25C00F096
:10347000070307FA03F318BF12EA03021ED011F87C
:10348000040B38B1C208A25C00F0070307FA03F38B
:103490001A40CAD1B0FA80F25209A1F1040B002AF5
:1034A0005D4691D113E000BFB0FA80F25209A1F15C
:1034B000020B002A5D467FF487AF08E0B0FA80F285
:1034C0005209A1F1010B002A5D467FF47DAF0BF19B
:1034D000010100BFC208A25C00F0070022FA00F060
:1034E000C0070D467FF46EAF294611F8010B002886
:1034F000F0D169E7B0FA80F25209A1F1030B002A7A
:103500005D467FF461AFE2E74FF00108009A5FFA91
:1035100088F00DF10E019047DDF804A043F65D50F0
:10352000C0F20000514600F069F827B0BDE8F08F06
:10353000B0FA80F252090339002A0D463FF464AE16
:1035400077E600BFB1FA81F35B09A2F1030B029E9B
:10355000002B5D463FF40EAF21E700BF6E6F206386
:103560006F6D6D616E64206E616D65643A202573C8
:103570000D0A00007468697320636F6D6D616E647D
:1035800020697320746F6F206C6F6E672E0D0000C2
:10359000F0B581B005460BA00C4600F083FA75B17A
:1035A00043F6FF470026C0F2000700BFA05D31468A
:1035B0002218384600F022F80136B542F6D101B0A3
:1035C000F0BD00BF7465737420636F6D6D616E64D0
:1035D0003A0D00001EF0040F0CBFEFF30880EFF36C
:1035E0000980FDF705B840F2A92CC2F2000C604733
:1035F00040F6115CC2F2000C604700000FB4054BAE
:1036000010B503A9044A029800F018F810BC5DF840
:1036100014FB0000F9210000D80D002002E008C8CA
:10362000121F08C1002AFAD170477047002001E03C
:1036300001C1121F002AFBD1704700002DE9FF4F86
:103640008DB00F460546002606E025280BD0DDE9A3
:103650000F1290476D1C761C28780028F5D111B008
:103660003046BDE8F08F0024A246A1460122EC4975
:1036700000E0044315F8013F203B02FA03F0084242
:10368000F7D128782A2810D06FF02F022878A0F1DF
:103690003001092914D80AEB8A0102EB410144F0F8
:1036A000020400EB010A6D1CF0E701CF5FEA000A9B
:1036B00003D544F40054CAF1000A44F002046D1C1E
:1036C00028782E2817D115F8010F44F004042A2871
:1036D0000ED06FF02F022878A0F1300109290AD806
:1036E00009EB890102EB410100EB01096D1CF2E7D6
:1036F00057F8049B6D1C28786C280FD006DC4C28EA
:1037000017D068280DD06A2814D104E0742810D08E
:103710007A280FD10DE044F400140AE044F4801438
:1037200001E044F440146978814202D104F5801428
:103730006D1C6D1C2A786E2A1FD00CDC632A31D0D8
:1037400004DC002A8BD0582A11D1A3E0642A68D067
:10375000692A0CD165E0732A2ED004DC6F2A73D05D
:10376000702A04D19BE0752A6FD0782A6ED010465B
:10377000DDE90F129047761C50E1C4F30250022895
:1037800006D0032809D0042801CF09D0066045E1FE
:1037900001CFF117C0E9006140E101CF06803DE1B2
:1037A00006703BE117F8040B8DF8000000208DF83F
:1037B0000100EB46012003E057F804BB4FF0FF3057
:1037C00061074FF0000102D40DE008F101018846C5
:1037D00049450FDA8045F8DB1BF808100029F4D1C1
:1037E00008E008F1010188468142FADB1BF8081065
:1037F0000029F6D1DDE90F23AAEB08008146214616
:1038000000F036F9304400EB080604E0DDE90F1261
:103810001BF8010B9047B8F10108F7D22146484642
:10382000F7E00A21C4F302534FF0000B0891022B7A
:1038300004D001CFC117032B09D00AE0FF1D27F0E8
:103840000707F7E8020108E032E01FE020E000B2DD
:10385000C117042B01D140B2C117031E71F100033F
:1038600007DA4FF0000CD0EB0C006CEB01012D23BC
:1038700002E0230504D52B238DF82430012303E037
:10388000E30701D02023F7E7984658E00A2110E02B
:1038900010210EE010204FF0000B08900CE01021DA
:1038A0004FF0000B44F004044FF00809089103E0C6
:1038B00008214FF0000B0891C4F30253022B04D0EF
:1038C00001CF0021032B06D006E0FF1D27F00707DC
:1038D000F7E8020103E080B2042B00D1C0B24FF040
:1038E000000823072BD5702A07D0DDF820C08CF004
:1038F000100C5CEA0B0C05D00EE040238DF8243050
:10390000012308E050EA010306D030238DF824306B
:103910008DF8252002239846DDF820C08CF0080C95
:103920005CEA0B0C0BD150EA010301D1630706D509
:1039300030238DF824304FF00108A9F10109582AED
:1039400004D038A20B9208AA0A920BE03AA2F9E737
:103950005B46089AFCF768FC0B9B9B5C0A9A521E1C
:103960000A92137050EA0102F2D10A98ADEB0000FE
:1039700000F1200B600702D524F4803401E04FF001
:103980000109D94502DDA9EB0B0000E0002000EBA6
:103990000B0141440890AAEB010AE00306D4DDE9DB
:1039A0000F232146504600F063F806444FF000090B
:1039B00008E009A911F80900DDE90F12904709F1A3
:1039C0000109761CC145F4DBE0030CD5DDE90F23CA
:1039D0002146504600F04CF8064404E0DDE90F12A1
:1039E00030209047761C0899481E08900029F5DC85
:1039F00008E00A980A990078491C0A91DDE90F123B
:103A00009047761CBBF10001ABF1010BF1DC2146C4
:103A10005046DDE90F2300F019F806446D1C1BE643
:103A20000928010030313233343536373839616294
:103A30006364656600000000303132333435363758
:103A40003839414243444546000000002DE9F04129
:103A5000044600251E461746880404D405E039466E
:103A60002020B0476D1C641EF9D52846BDE8F081C2
:103A70002DE9F041044600251E469046C80301D5B5
:103A8000302700E02027880404D505E04146384669
:103A9000B0476D1C641EF9D52846BDE8F081FEF7DD
:103AA000ABBB000010B5044601E0FEF7A5FB14F81F
:103AB000010B04490028F8D1BDE810400A20FEF7A8
:103AC0009BBB0000D80D00200040404040404040DB
:103AD00040404141414141404040404040404040E1
:103AE0004040404040404040400502020202020285
:103AF00002020202020202020220202020202020D4
:103B000020202002020202020202909090909090E7
:103B100010101010101010101010101010101010A5
:103B20001010101002020202020288888888888819
:103B30000808080808080808080808080808080805
:103B4000080808080202020240000000C93A00000A
:103B50006D4941424344584B4D504A404C6C686E4D
:103B60004873757E00000000192700001927000027
:103B7000592A000059280000512900000D29000091
:103B80001927000019270000192700001927000035
:103B90001927000019270000192700001927000025
:103BA0001927000019270000192700001927000015
:103BB000192700004D270000D92700002D290000FB
:103BC000D928000075290000300000000000000026
:103BD0000000000000000000000000006E00000077
:103BE00000000000000000000000000000000000D5
:103BF0006C7300000000000000000000B52F000002
:103C000000000000746573740000000000000000F4
:103C1000913500000000000068657864756D7000E3
:103C2000000000002D2C000000000000000000003B
:103C30000000000000000000000000000000000084
:103C40006572726F722121210D0A006572726F72A6
:103C50002121210D006669666F30206E756D6265E9
:103C600072207573656C6573733A2025640D0A00C4
:103C7000636F6D70696C65642074696D653A2025A9
:103C8000732025730D0A0025735241444152204D83
:103C90004F44554C453A20505433325A3139322032
:103CA0004144435F53414D504C452044454D4F25C1
:103CB000730D0A00253032582000466562203235E7
:103CC00020323032320031363A34303A3432004A1F
:103CD00053636F70655F55325532001B5B343B3464
:103CE000316D005465726D696E616C005B25735DAA
:103CF0003A203078253038582C2025640D0A007081
:103D0000617261732025643A2025730D0A00253005
:103D10003478202025732025730D0A00253034784F
:103D2000202025732025730A006C7320766572733A
:103D3000696F6E20312E302E0D0030313233343524
:103D400036373839414243444546006865786475E2
:103D50006D70001B5B256444001B5B4B00257300EA
:103D6000205F5F5F5F5F20205F202020205F20209A
:103D70005F5F5F5F2020205F5F5F20205F5F20200C
:103D8000205F5F205F5F200D007C20205F5F205C54
:103D90007C207C20207C207C2F205F5F205C202FDB
:103DA000205F205C2F5F207C202F202F2F5F207C26
:103DB0000D007C207C202020207C207C20207C206A
:103DC0007C207C5F5F7C207C20285F29207C7C20FD
:103DD0007C20285F29207C207C0D007C207C5F5F7C
:103DE00029207C207C5F5F7C207C207C20207C2024
:103DF0007C20285F29207C7C207C2F202F5F207C4A
:103E0000207C0D007C20205F5F5F2F7C20205F5F87
:103E100020207C207C20207C207C3E205F203C20B9
:103E20007C207C20275F205C7C207C0D007C5F7CDC
:103E3000202020207C5F7C20207C5F7C5C5F5F5F9B
:103E40005F2F205C5F5F5F2F207C5F7C5C5F5F5F2C
:103E50002F7C5F7C0D001B5B33373B316D427569F6
:103E60006C643A20202020202020466562203235D4
:103E700020323032322031363A34303A34330D0A7F
:103E80001B5B306D00000000C03E00000000002001
:103E9000D80D00001C360000984C0000D80D002002
:103EA00068010000EE020000D84C0000400F002026
:103EB000B07900002C360000000000000000000077
:103EC0002DE9F0474FF0805707EAD1074FF0005631
:103ED00047F6400C06EA92064FF080453843C2F29E
:103EE000000C924605EA530530430CF1040252E8F7
:103EF000004F671C42E8007606B1F8E747F2C03E83
:103F000040EA050904F03F0004F47077C2F2000EA5
:103F100049EA87370EEB0014984647F040660C34A8
:103F200054E8007FBB0103D3BFF32F8F002706E0C7
:103F300007F00047374344E8007505B1F0E77B011F
:103F400000F1D78052E8003F581C42E8000404B159
:103F5000F8E703F03F0003F4707349EA83330EEB94
:103F6000001443F040630C3454E8007FBE0103D3D7
:103F7000BFF32F8F002706E007F000471F4344E8F8
:103F8000007505B1F0E77B0100F1B38052E8003F16
:103F9000581C42E8000404B1F8E703F03F0003F4C2
:103FA000707349EA83330EEB001443F040630C3422
:103FB00054E8007FBE0103D3BFF32F8F002706E034
:103FC00007F000471F4344E8007505B1F0E77B01A7
:103FD00000F18F8052E8003F581C42E8000404B111
:103FE000F8E703F03F0003F4707349EA83330EEB04
:103FF000001443F040630C3454E8007FBE0103D347
:10400000BFF32F8F002706E007F000471F4344E867
:10401000007505B1F0E77B0100F16B8052E8003FCD
:10402000581C42E8000404B1F8E703F03F0003F431
:10403000707349EA83330EEB001443F040630C3491
:1040400054E8007FBE0103D3BFF32F8F002706E0A3
:1040500007F000471F4344E8007505B1F0E77B0116
:1040600000F1478052E8003F581C42E8000404B1C8
:10407000F8E703F03F0003F4707349EA83330EEB73
:10408000001443F040630C3454E8007FBE0103D3B6
:10409000BFF32F8F002706E007F000471F4344E8D7
:1040A000007505B1F0E77B0123D452E8003F581CAE
:1040B00042E8000404B1F8E703F03F0003F4707233
:1040C00049EA82320EEB001342F0406203F10C0425
:1040D00054E8007FBD0103D3BFF32F8F002706E014
:1040E00007F00047174344E8007303B1F0E77A0193
:1040F0002ED587F0044202F0004321F0004119441C
:104100000EEB001500014EF800102AF0004028F0D8
:10411000004118441944C5E9010154E8001F890110
:1041200003D2BFF32F8F002004E044E8002303B143
:10413000F3E7012060B10CF1080050E8001F4A1CB1
:1041400040E8002303B1F8E70120BDE8F08700BF95
:104150000CF10C0050E8001F4A1C40E8002303B19A
:10416000F8E70020BDE8F0872DE9F04F81B047F671
:10417000400A47F2C07B8146C2F2000A0020C2F228
:10418000000B88468AF80000584680214FF0FF3720
:1041900000F06CFD40F6C050C2F200000338182158
:1041A00041F221024FF0FF3310F8036F83EA062338
:1041B0001EB282EA4304BE42C8BF5C0023B282EA58
:1041C0004406BB42C8BF660033B282EA4604BB4223
:1041D000C8BF740023B282EA4406BB42C8BF66006F
:1041E00033B282EA4604BB42C8BF740023B282EAFB
:1041F0004406BB42C8BF660033B282EA4604BB42F3
:10420000C8BF740023B282EA4406BB42C8BF66003E
:104210004478837886EA042634B282EA4605BC42B2
:10422000C8BF75002EB282EA4504BE42C8BF6C000A
:1042300026B282EA4405BE42C8BF65002EB282EAB9
:104240004504BE42C8BF6C0026B282EA4405BE42A5
:10425000C8BF65002EB282EA4504BE42C8BF6C00EA
:1042600026B282EA4405BE42C8BF65002EB282EA89
:104270004504BE42C8BF6C0084EA03231EB282EA32
:104280004305BE42C8BF5D002BB282EA4506BB4271
:10429000C8BF6E0033B282EA4605BB42C8BF750094
:1042A0002BB282EA4506BB42C8BF6E0033B282EA37
:1042B0004605BB42C8BF75002BB282EA4506BB4229
:1042C000C8BF6E0033B282EA4605BB42C8BF750064
:1042D0002EB282EA4503BE42C8BF6B0003397FF4A9
:1042E00063AFDAF8201042F26B70CEF2A510814273
:1042F00040F09280BAF8020099B2884240F08E8075
:10430000DAF81C00411C0028CAF81C1000F08B8051
:1043100047F2C030C2F20000002100BF4218D3684B
:1043200001F580715F0144BF23F04063D360D3691E
:104330005F0144BF23F04063D361D36A5F0144BF90
:1043400023F04063D362D36B5F0144BF23F040632B
:10435000D363D36C5F0144BF23F04063D364D36D58
:104360005F0144BF23F04063D365D36E5F0144BF58
:1043700023F04063D366D36F5F0144BF23F04063F3
:10438000D367D2F88C305F0144BF23F04063C2F89A
:104390008C30D2F89C305F0144BF23F04063C2F8F8
:1043A0009C30D2F8AC305F0144BF23F04063C2F8C8
:1043B000AC30D2F8BC305F0144BF23F04063C2F898
:1043C000BC30D2F8CC305F0144BF23F04063C2F868
:1043D000CC30D2F8DC305F0144BF23F04063C2F838
:1043E000DC30D2F8EC305F0144BF23F04063C2F808
:1043F000EC30D2F8FC305F0144BF23F04063C2F8D8
:10440000FC30B1F5806F89D100F01EFC07463FBB40
:10441000384601B0BDE8F08FCAF820000120AAF8A4
:104420000230CAF81C0047F2C0300026C2F2000079
:104430004FF480618AF80160CAE90166CAF80C602D
:1044400000F019FC00F000FC002807460CBF00201B
:1044500000F0F4FBCAE90460CAF81860002FD7D056
:104460005FEAC97000F0C18000200121C30800F09C
:1044700007021BF8036001FA02F216430BF803600F
:10448000431C03F00706DB081BF8035001FA06F68D
:104490002E430BF80360831C03F00706DB081BF8B0
:1044A000035001FA06F62E430BF80360C31C03F019
:1044B0000706DB081BF8035001FA06F62E430BF83B
:1044C0000360031D03F00706DB081BF8035001FA25
:1044D00006F62E430BF80360431D03F00706DB08C6
:1044E0001BF8035001FA06F62E430BF80360831DF8
:1044F00003F00706DB081BF8035001FA06F62E430B
:104500000BF80360C31D03F00706DB081BF803501C
:1045100001FA06F62E430BF8036000F10803DB08EE
:104520001BF8036016430BF8036000F1090303F066
:104530000706DB081BF8035001FA06F62E430BF8BA
:10454000036000F10A0303F00706DB081BF80350C1
:1045500001FA06F62E430BF8036000F10B0303F09B
:104560000706DB081BF8035001FA06F62E430BF88A
:10457000036000F10C0303F00706DB081BF803508F
:1045800001FA06F62E430BF8036000F10D0303F069
:104590000706DB081BF8035001FA06F62E430BF85A
:1045A000036000F10E0303F00706DB081BF803505D
:1045B00001FA06F62E430BF8036000F10F0303F037
:1045C0000706DB081BF8035001FA06F62E430BF82A
:1045D000036000F11003DB081BF803601130324365
:1045E000FF280BF803207FF441AF5FEA897040F1A8
:1045F000D3800020012100BF0BEBD00300F00702A5
:1046000093F8206001FA02F2164383F82060431CFD
:1046100003F007060BEBD30393F8205001FA06F6DC
:104620002E4383F82060831C03F007060BEBD303B3
:1046300093F8205001FA06F62E4383F82060C31C3D
:1046400003F007060BEBD30393F8205001FA06F6AC
:104650002E4383F82060031D03F007060BEBD30302
:1046600093F8205001FA06F62E4383F82060431D8C
:1046700003F007060BEBD30393F8205001FA06F67C
:104680002E4383F82060831D03F007060BEBD30352
:1046900093F8205001FA06F62E4383F82060C31DDC
:1046A00003F007060BEBD30393F8205001FA06F64C
:1046B0002E4383F8206000F108030BEBD30393F83B
:1046C0002060164383F8206000F1090303F0070619
:1046D0000BEBD30393F8205001FA06F62E4383F830
:1046E000206000F10A0303F007060BEBD30393F8F5
:1046F000205001FA06F62E4383F8206000F10B03E8
:1047000003F007060BEBD30393F8205001FA06F6EB
:104710002E4383F8206000F10C0303F007060BEB37
:10472000D30393F8205001FA06F62E4383F8206055
:1047300000F10D0303F007060BEBD30393F82050B1
:1047400001FA06F62E4383F8206000F10E0303F011
:1047500007060BEBD30393F8205001FA06F62E431D
:1047600083F8206000F10F0303F007060BEBD3037F
:1047700093F8205001FA06F62E4383F8206000F1EA
:1047800010030BEBD30393F8206011303243FF2862
:1047900083F820207FF430AF5FEA497040F1D28087
:1047A000002001210BEBD00300F0070293F84060DA
:1047B00001FA02F2164383F84060431C03F0070637
:1047C0000BEBD30393F8405001FA06F62E4383F81F
:1047D0004060831C03F007060BEBD30393F84050B3
:1047E00001FA06F62E4383F84060C31C03F0070667
:1047F0000BEBD30393F8405001FA06F62E4383F8EF
:104800004060031D03F007060BEBD30393F8405001
:1048100001FA06F62E4383F84060431D03F00706B5
:104820000BEBD30393F8405001FA06F62E4383F8BE
:104830004060831D03F007060BEBD30393F8405051
:1048400001FA06F62E4383F84060C31D03F0070605
:104850000BEBD30393F8405001FA06F62E4383F88E
:10486000406000F108030BEBD30393F8406016435C
:1048700083F8406000F1090303F007060BEBD30354
:1048800093F8405001FA06F62E4383F8406000F199
:104890000A0303F007060BEBD30393F8405001FA29
:1048A00006F62E4383F8406000F10B0303F0070681
:1048B0000BEBD30393F8405001FA06F62E4383F82E
:1048C000406000F10C0303F007060BEBD30393F8F1
:1048D000405001FA06F62E4383F8406000F10D03C4
:1048E00003F007060BEBD30393F8405001FA06F6EA
:1048F0002E4383F8406000F10E0303F007060BEB34
:10490000D30393F8405001FA06F62E4383F8406033
:1049100000F10F0303F007060BEBD30393F84050AD
:1049200001FA06F62E4383F8406000F110030BEB0A
:10493000D30393F8406011303243FF2883F84020BE
:104940007FF430AF5FEA097040F1D280002001218E
:104950000BEBD00300F0070293F8606001FA02F25B
:10496000164383F86060431C03F007060BEBD30388
:1049700093F8605001FA06F62E4383F86060831CBA
:1049800003F007060BEBD30393F8605001FA06F629
:104990002E4383F86060C31C03F007060BEBD303C0
:1049A00093F8605001FA06F62E4383F86060031D09
:1049B00003F007060BEBD30393F8605001FA06F6F9
:1049C0002E4383F86060431D03F007060BEBD3030F
:1049D00093F8605001FA06F62E4383F86060831D59
:1049E00003F007060BEBD30393F8605001FA06F6C9
:1049F0002E4383F86060C31D03F007060BEBD3035F
:104A000093F8605001FA06F62E4383F8606000F1D7
:104A100008030BEBD30393F86060164383F86060E0
:104A200000F1090303F007060BEBD30393F8605082
:104A300001FA06F62E4383F8606000F10A0303F0E2
:104A400007060BEBD30393F8605001FA06F62E43EA
:104A500083F8606000F10B0303F007060BEBD30350
:104A600093F8605001FA06F62E4383F8606000F177
:104A70000C0303F007060BEBD30393F8605001FA25
:104A800006F62E4383F8606000F10D0303F007067D
:104A90000BEBD30393F8605001FA06F62E4383F82C
:104AA000606000F10E0303F007060BEBD30393F8ED
:104AB000605001FA06F62E4383F8606000F10F03A0
:104AC00003F007060BEBD30393F8605001FA06F6E8
:104AD0002E4383F8606000F110030BEBD30393F8CF
:104AE000606011303243FF2883F860207FF430AFDC
:104AF0009BF81D009BF83D109BF85D2040F0800066
:104B00008BF81D0041F080009BF87D109BF85F3012
:104B10008BF83D0042F080008BF85D0041F0800092
:104B20008BF87D0043F040008BF85F00544654F84A
:104B3000185F00F07DF8014654E8000F44E80012C9
:104B400002B1F9E7A842F1D1A94208D20AF1100056
:104B500050E8002F531C40E8003404B1F8E74FF64A
:104B60000075DAF81C20C0F2003528460023FFF754
:104B7000A7F9B8F1000F3FF44BAC9AF800000028F9
:104B80007FF446AC01208AF8000000BF544654F878
:104B9000186F00F04DF8014654E8000F44E8001289
:104BA00002B1F9E7B042F1D1B14208D20AF11000E6
:104BB00050E8002F531C40E8003404B1F8E7681CAB
:104BC00000220023FFF77CF9384601B0BDE8F08FE2
:104BD00070B547F64004C2F20004207810B10120FD
:104BE00070BD00BF01202070264656F8185F00F007
:104BF0001FF8014656E8000F46E8001202B1F9E737
:104C0000A842F1D1A94208D204F1100050E8002FC7
:104C1000531C40E8003404B1F8E74FF60170C0F2CD
:104C2000003000220023FFF74BF9012070BD000087
:104C300041F20400CEF200000068704740F6F050E8
:104C4000C2F20000006870474EF6FC50CEF2000041
:104C5000016841F08071016041F20001CEF2000173
:104C6000086840F0010201200A60704740F2B31C5E
:104C7000C0F2000C604740F2B31CC0F2000C604769
:104C80000100010140000000C0730020C077002037
:104C900040780020000000005133D007E5A00F004D
:104CA00020C01D68890900366E011B5B33333B3120
:104CB0006D7074333240636363633A1B5B306D0322
:104CC000FFF03B0129000000000000000000000090
:084CD0000000000000000000DC
:0400000500000131C5
:00000001FF
