:020000040000FA
:1000000010020020C100000065030000350300005D
:1000100000000000000000000000000000000000E0
:10002000000000000000000000000000E9030000E4
:1000300000000000000000006F0300001304000037
:10004000EB030000B901000000000000C101000046
:10005000D300000067030000690300006B03000089
:100060006D030000BB010000BD010000BF010000E6
:10007000B701000049040000000000007704000000
:10008000750400004D040000D300000000000000D3
:10009000D300000000000000000000003703000053
:1000A00039030000E5030000E7030000C504000079
:1000B000C7040000790400007B0400007D040000F8
:1000C0000448804704480047FEE7FEE7FEE7FEE7F6
:1000D000FEE7FEE715040000DD000000034885464A
:1000E00000F036F800480047D30800001002002056
:1000F000F0B51FB40646002082B0054640240191A9
:1001000000901BE0019922460F46304600F042F86D
:10011000049A059B801A994110D31046194622462D
:1001200000F028F8361A8F4101972246012000215D
:10013000009F00F01FF838184D4100902046641EC3
:100140000028DFDC019B00982946324607B0F0BD4D
:10015000064C0125064E05E0E36807CC2B430C3C1A
:1001600098471034B442F7D3FFF7BCFF980900005A
:10017000B809000010B5202A04DB0146203A91405E
:10018000002010BD914020239C1A0346E3401943F0
:10019000904010BD10B5202A04DB0846203AD0401C
:1001A000002110BD0B46D340D0402024A21A91401C
:1001B0000843194610BD7047704770477047704735
:1001C0007047000070B504460D4600260920C006A1
:1001D000844205D02E48844202D02E48844200D169
:1001E00003E097212C4800F0FDFA2868002800D091
:1001F00003E09821284800F0F5FA2879002808D073
:100200002879012805D02879022802D028790328E6
:1002100000D103E09921204800F0E4FA6879002831
:1002200005D06879012802D06879022800D103E05E
:100230009A21194800F0D6FA2E682879012802D0B0
:100240002879022808D1A660E6652879022801D11C
:1002500026651BE0666519E02879032802D1E6606F
:10026000A66513E0E660E6656879002804D00128F9
:1002700005D0022809D105E0E664666405E026643D
:10028000E66402E0A664666400BF00BF70BD0000C3
:1002900000100048003000480C09000070B504460A
:1002A0000D460920C006844205D00B48844202D086
:1002B0000A48844200D103E009490A4800F092FA52
:1002C000002D00D004E00649491C064800F08AFAD7
:1002D0002068A843206070BD00100048003000482E
:1002E0002A0200000C09000070B504460D460920E2
:1002F000C006844205D00B48844202D00A4884429A
:1003000000D103E009490A4800F06CFA002D00D042
:1003100004E081218900064800F064FA206828433F
:10032000206070BD0010004800300048030200004B
:100330000C0900007047704770471CB50720000289
:100340000090012168460171002141716946092030
:10035000C006FFF737FF072109020920C006FFF793
:10036000C3FF1CBD704770477047704770477047A8
:1003700000201349086980210140002908D0C107E5
:10038000C90F002904D0812101400D4A116116E0F6
:100390008021014000290AD080210140084A1161D2
:1003A0004721090191610749516100BFFEE7C1077B
:1003B000C90F002903D0C107C90F014A1161704755
:1003C00000F0014056AB000000BF05490969012259
:1003D000920211400029F8D10149086070470000DD
:1003E00000380140704770477047704700200DE0AB
:1003F000002107E0002201E0531CDAB2502AFBDBA7
:100400004B1CD9B2C829F5DB431CD8B2C828EFDB96
:100410007047704700B50A480078002806D10120CF
:1004200007490870074801218907086000F03AFA77
:1004300000F02EFA00F0F8F900F014FA00BD000008
:10044000000000200000EBAD7047000010B5012156
:10045000034800F015F803A000F036F810BD0000C6
:1004600000100040626F6F746C6F616465720D0AFA
:1004700000000000704770477047704770470000E9
:1004800070B504460D460B48844205D00A488442A4
:1004900002D00A48844200D103E0DB21084800F082
:1004A000A1F9012D00D103E0DC21054800F09AF903
:1004B000256070BD0010004000140040001C00408A
:1004C00054090000704770470FB410B503A9044BDE
:1004D000044A029800F018F810BC08BC04B0184791
:1004E000C50800000400002002E008C8121F08C16F
:1004F000002AFAD170477047002001E001C1121FA5
:10050000002AFBD170470000FFB58FB00F460446AC
:10051000002606E025280AD0129A11999047641CFB
:10052000761C20780028F5D1304613B0F0BD0025A8
:100530000121A14A009500E00543641C2378084688
:10054000203B98401042F7D120782E2815D1042066
:1005500005436078641C2A280AD101CF641C0090EE
:100560000BE000990A22514330394018641C009076
:100570002078014630390929F3D920786C280ED02B
:1005800004DC4C2813D06A2812D104E074280ED061
:100590007A280DD10BE001204005054307E0012139
:1005A000090562780D43824201D16D18641C641CF8
:1005B0002078864669284AD008DC0028B4D058281C
:1005C0006DD0632810D0642808D140E070286BD02B
:1005D000732812D0752860D0782860D0129A70469F
:1005E00011999047761CE5E038786946087200203A
:1005F000487202A80190012003E0386801900020B1
:10060000C0433F1D69070CD5002500E06D1C009913
:100610008D420FDA8542F9DB0199495D0029F5D158
:1006200008E0002500E06D1C8542FCDB0199495D76
:100630000029F8D1761907E0019801990078491C42
:100640000191129A119990476D1EF5D2B2E00A20DD
:10065000029000216802400F039102280CD001CFC4
:10066000C117844600290DDA62460846524200212D
:10067000814194462D2008E0FF1DFF08FF0003CFB5
:100680008446EFE7280504D52B206A461074012024
:100690003CE0E8073AD02020F7E70A2000E01020ED
:1006A00000210391029007E0102002900021042015
:1006B00005430820039100906802400F022810D0E3
:1006C00001CF0021844600200D9028071FD57046D9
:1006D00070280CD0029A1020039B42401A430CD081
:1006E00015E0FF1DFF08FF0003CF8446EBE7402025
:1006F0006A46107401200D900CE06046084306D055
:1007000030206A4610747046507402200D90704676
:10071000582804D029A001900DA80E900DE02CA01F
:10072000F9E76046039B029AFFF7E2FC019B8446CF
:100730009B5C0E9A521E0E92137060460843F0D1D5
:100740000E9805A9081A20300190680701D5009875
:1007500001E0012000900199884203DD01460198E3
:10076000081A00E000200025009006E004A8129A74
:10077000405D119990476D1C761C0D988542F5DB04
:1007800004E0129A302011999047761C0099481E77
:1007900000900029F5DC08E00E980E990078491CBD
:1007A0000E91129A11999047761C0199481E01905A
:1007B0000029F1DC641CB4E6092801003031323331
:1007C000343536373839616263646566000000008D
:1007D0003031323334353637383941424344454677
:1007E0000000000004460D462A46214602A0FFF7FD
:1007F0006BFE00BFFEE7000057726F6E67207061EE
:1008000072616D65746572732076616C75653A20EE
:1008100066696C65202573206F6E206C696E65209B
:1008200025640D0A000000000D48C068C008C00023
:100830000B49C8600846C068C8600846C068C86000
:100840000846C0684007400F002801D000BFFEE7FF
:100850000348C0680121090508430149C860704781
:1008600000F001400948406A7721884307494862FF
:100870000846406A10210843044948620846406A15
:1008800002210843014948627047000000180040F7
:1008900003488069400840000149886170470000B2
:1008A0000018004006480069012108430449086116
:1008B0000846806804218843014988607047000029
:1008C0000018004070B504460D462046FFF77CFD39
:1008D00070BD00BFFFF74CFDFFF72FFD15E0FFF7E0
:1008E00085FDFF2101310920C006FFF7D7FC032158
:1008F00049020920C006FFF7F7FCFFF777FD072143
:1009000009020920C006FFF7EFFCE8E72E2E5C2E57
:100910002E5C2E2E5C4C69627261726965735C504C
:10092000543332783033305F537464506572697079
:10093000685F4C69625F4472697665725C7372636A
:100940005C50543332783033305F6770696F2E6398
:10095000000000002E2E5C2E2E5C2E2E5C4C696258
:100960007261726965735C50543332783033305F32
:100970005374645065726970685F4C69625F447259
:10098000697665725C7372635C50543332783033CD
:10099000305F74696D2E6300B8090000000000200C
:1009A0000C000000E8040000C40900000C00002056
:1009B00004020000F8040000000000000000000035
:0409C0000000000033
:04000005000000DD1A
:00000001FF
