:020000040000FA
:1000000060080020F9000000010100004D0E000012
:1000100005010000070100000901000000000000C8
:100020000000000000000000000000000B010000C4
:100030000D010000000000000F010000750E00001F
:100040001301000013010000130100001301000060
:100050001301000013010000130100001301000050
:100060001301000013010000130100001301000040
:100070001301000013010000130100001301000030
:100080001301000013010000130100001301000020
:100090001301000013010000130100001301000010
:1000A0001301000013010000130100001301000000
:1000B00013010000130100001301000013010000F0
:1000C00013010000130100001301000013010000E0
:1000D00013010000130100001301000013010000D0
:1000E00013010000DFF80CD000F07AF80048004758
:1000F000551A00006008002006488047064800475F
:10010000FEE7FEE7FEE7FEE7FEE7FEE7FEE7FEE7C7
:10011000FEE7FEE7F1100000E50000002DE9F05FCA
:100120000546002092469B46884606468146402466
:100130001BE0284641464746224600F041F8534618
:100140005A46C01A914110D311461846224600F073
:1001500028F82D1A67EB01084F462246012000219E
:1001600000F01FF817EB00094E41201EA4F1010416
:10017000DFDC484631462A464346BDE8F09F40EA68
:1001800001039B0703D009E008C9121F08C0042A15
:10019000FAD203E011F8013B00F8013B521EF9D2FC
:1001A0007047202A04DB203A00FA02F10020704751
:1001B0009140C2F1200320FA03F3194390407047A5
:1001C000202A04DB203A21FA02F00021704721FAAC
:1001D00002F3D040C2F12002914008431946704713
:1001E000064C074D06E0E06840F0010394E8070084
:1001F00098471034AC42F6D3FFF778FFD4250000BF
:10020000F425000084B003900291019200930398BA
:1002100040F20841C4F203010860029840F20C4128
:10022000C4F20301086040F20040C4F2030005215B
:10023000016000BF00BF00BF00BF00BF00BF40F2B1
:100240001040C4F2030000680199086040F21440B5
:10025000C4F2030000680099086004B07047000011
:1002600084B00390029101920093039840F20841F8
:10027000C4F203010860029840F20C41C4F2030189
:10028000086040F20040C4F203001521016000BF85
:1002900000BF00BF00BF00BF00BF00BF00BF40F2F3
:1002A0001040C4F2030000680199086040F2144055
:1002B000C4F2030000680099086004B070470000B1
:1002C00084B00390029101920093039840F2084198
:1002D000C4F203010860029840F20C41C4F2030129
:1002E000086040F20040C4F203002521016000BF15
:1002F00000BF00BF00BF00BF00BF00BF00BF00BF06
:1003000000BF40F21040C4F2030000680199086089
:1003100040F21440C4F2030000680099086004B081
:100320007047000084B003900291019200930398FB
:1003300040F20841C4F203010860029840F20C4107
:10034000C4F20301086040F20040C4F2030035210A
:10035000016000BF00BF00BF00BF00BF00BF00BF03
:1003600000BF00BF00BF00BF00BF40F21040C4F29A
:10037000030000680199086040F21440C4F20300D1
:1003800000680099086004B07047000084B00390D2
:10039000029101920093039840F20841C4F20301D4
:1003A0000860029840F20C41C4F20301086040F278
:1003B0000040C4F203004521016000BF00BF00BF40
:1003C00000BF00BF00BF00BF00BF00BF00BF00BF35
:1003D00000BF00BF00BF40F21040C4F2030000683D
:1003E0000199086040F21440C4F2030000680099CB
:1003F000086004B07047000084B00390029101923D
:100400000093039840F20841C4F203010860029887
:1004100040F20C41C4F20301086040F20040C4F213
:1004200003005521016000BF00BF00BF00BF00BF37
:1004300000BF00BF00BF00BF00BF00BF00BF00BFC4
:1004400000BF00BF00BF00BF00BF40F21040C4F2B9
:10045000030000680199086040F21440C4F20300F0
:1004600000680099086004B07047000084B00390F1
:10047000029101920093039840F20841C4F20301F3
:100480000860029840F20C41C4F20301086040F297
:100490000040C4F203006521016000BF00BF00BF3F
:1004A00000BF00BF00BF00BF00BF00BF00BF00BF54
:1004B00000BF00BF00BF00BF00BF00BF00BF00BF44
:1004C00000BF40F21040C4F20300006801990860C8
:1004D00040F21440C4F2030000680099086004B0C0
:1004E0007047000084B0039002910192009303983A
:1004F00040F20841C4F203010860029840F20C4146
:10050000C4F20301086040F20040C4F20300752108
:10051000016000BF00BF00BF00BF00BF00BF00BF41
:1005200000BF00BF00BF00BF00BF00BF00BF00BFD3
:1005300000BF00BF00BF00BF00BF00BF00BF40F250
:100540001040C4F2030000680199086040F21440B2
:10055000C4F2030000680099086004B0704700000E
:1005600083B0029001910092029840F20841C4F2D7
:100570000301086040F20040C4F20300032101605F
:1005800000BF00BF00BF00BF00BF00BF40F210406F
:10059000C4F2030000680199086040F21440C4F2FC
:1005A000030000680099086003B0704783B00290B0
:1005B00001910092029840F20841C4F203010860E0
:1005C00040F20040C4F203001321016000BF00BFED
:1005D00000BF00BF00BF00BF00BF00BF40F210401F
:1005E000C4F2030000680199086040F21440C4F2AC
:1005F000030000680099086003B0704783B0029060
:1006000001910092029840F20841C4F2030108608F
:1006100040F20040C4F203002321016000BF00BF8C
:1006200000BF00BF00BF00BF00BF00BF00BF00BFD2
:1006300040F21040C4F2030000680199086040F2E3
:100640001440C4F2030000680099086003B07047CA
:1006500083B0029001910092029840F20841C4F2E6
:100660000301086040F20040C4F20300332101603E
:1006700000BF00BF00BF00BF00BF00BF00BF00BF82
:1006800000BF00BF00BF00BF40F21040C4F2030033
:1006900000680199086040F21440C4F20300006849
:1006A0000099086003B0704783B0029001910092F6
:1006B000029840F20841C4F20301086040F2004091
:1006C000C4F203004321016000BF00BF00BF00BFB0
:1006D00000BF00BF00BF00BF00BF00BF00BF00BF22
:1006E00000BF00BF40F21040C4F20300006801994F
:1006F000086040F21440C4F20300006800990860EA
:1007000003B0704783B0029001910092029840F2CA
:100710000841C4F20301086040F20040C4F2030043
:100720005321016000BF00BF00BF00BF00BF00BF7A
:1007300000BF00BF00BF00BF00BF00BF00BF00BFC1
:1007400000BF00BF40F21040C4F2030000680199EE
:10075000086040F21440C4F2030000680099086089
:1007600003B0704783B0029001910092029840F26A
:100770000841C4F20301086040F20040C4F20300E3
:100780006321016000BF00BF00BF00BF00BF00BF0A
:1007900000BF00BF00BF00BF00BF00BF00BF00BF61
:1007A00000BF00BF00BF00BF40F21040C4F2030012
:1007B00000680199086040F21440C4F20300006828
:1007C0000099086003B0704783B0029001910092D5
:1007D000029840F20841C4F20301086040F2004070
:1007E000C4F203007321016000BF00BF00BF00BF5F
:1007F00000BF00BF00BF00BF00BF00BF00BF00BF01
:1008000000BF00BF00BF00BF00BF00BF00BF00BFF0
:1008100040F21040C4F2030000680199086040F201
:100820001440C4F2030000680099086003B07047E8
:1008300080B500F001F880BDB0B541F25971CDF23C
:10084000B711A0FB0112510B232201FB02F14CF660
:10085000CD4301F1010C4DF68361C4F21B31A0FBC5
:100860000112910C332201FB02F2CCF6CC43A2FB25
:100870000323052201EBC10102EBD30349F2FF423E
:10088000C0F6BA22904201F1010502D94FF480610D
:100890003EE045F60071C0F64C11884202D94FF493
:1008A000607135E043F20021C0F61B01884202D995
:1008B0004FF440712CE040F20051C0F2EA618842EE
:1008C00002D94FF4207123E04CF60071C0F27B5145
:1008D000884202D94FF400711AE042F28061C0F2FE
:1008E0006941884202D94FF4C07111E047F20051CA
:1008F000C0F21931884202D94FF4807108E044F601
:10090000000EC0F2E81E0021704588BF0121C90118
:100910000C22C0F21002D3624FF480131C6824F43E
:10092000786421431960C2F800C04AF24172C0F2F3
:1009300082724FF0101190420D6038BFB0BD00F0D0
:100940007BFA40F64400C4F20100016841F4807172
:100950000160B0BD2DE9F04F85B0052800F2AB81F4
:10096000054608680C460021B1EB104F40F0A3810A
:1009700080B2002800F09F81606841F20101C0F25E
:10098000010100278842CEF6FF7709DCB0F5803FF1
:1009900010DA032818BF052811D041F2040106E03F
:1009A000C11905290BD341F20201C0F201018842AD
:1009B00005D080E1A0F58030022880F07C81052DF3
:1009C00055D80120A8404FF2000640F67008C4F246
:1009D0000106C4F2010881071BD110F00C0F2ED0C4
:1009E000012000F0E1FB08F1300008F1340C08F1BF
:1009F000440108F14802032D06F58066039041D1B9
:100A0000236808F128001B042360029008F12C00E1
:100A100049E0002000F0C8FB08F1040C08F11401C3
:100A2000012D08F11802CDF80C8031D12368A8F10E
:100A300008001B0423600290A8F1040033E00C209E
:100A400000F0B2FB08F1600008F1640C08F17401D9
:100A500008F17802052D06F5006603901ED1236883
:100A600008F158001B040290002023601BE00020C6
:100A7000029000200190002003904FF0000C002114
:100A8000002211E008F12000029008F124000AE0A1
:100A9000A8F110000290A8F10C0004E008F1500049
:100AA000029008F1540001902568002D00F00381A8
:100AB0004FF00108CDF800C004911CE06FF01F005A
:100AC000019900EB8A000B680F2505FA00F023EA74
:100AD00000000860049960680528106814BF20EAC7
:100AE0000B0540EA0B051560256835FA08F008F19A
:100AF000010800F0E080A8F1010A012000FA0AF3E1
:100B000015EA030BF0D0D4F804E0BEF5803F0FDC0B
:100B1000BEF1030F54D041F20400864550D0BEF51B
:100B2000803F40F08680336823EA0B03336080E027
:100B30000EEB07030025052BC1F2010559D23068E1
:100B40002EF0010320EA0B003060B069AB426FEA7F
:100B50000B0940EA0B00B0610FD1F069AE4500EA25
:100B60000900F061306A00EA09003062706A14BF5F
:100B700000EA090040EA0B007062A81C864507D114
:100B8000F06900EA0900F061306A40EA0B00306267
:100B90004FF6FD70CEF6FE707044012849D8F0691A
:100BA000002340EA0B00C1F20103F0610333706AD5
:100BB0009E4514BF00EA090040EA0B00706238E06D
:100BC000BAF1100F554628BFA8F11105072D1ED800
:100BD0000299AD000B680F20E768A84023EA0000E7
:100BE00007FA05F31843086000270499DDF800C0F0
:100BF0001DE0BEF1011F05D041F20200C0F201006C
:100C0000864516D1336843EA0B03336011E06FF079
:100C10001F00019900EB85000B680F27E5688740EE
:100C2000BB4305FA00F01843086000270499CEF68C
:100C3000FF77A568022D07D0012D0FD0CDB9039BFA
:100C4000186820EA0B000DE0039B186820EA0B00EF
:100C50001860DCF8000040EA0B0508E0039B186808
:100C600040EA0B001860DCF8000020EA0B05CCF825
:100C700000506079C006086854BF20EA0B0540EABE
:100C80000B050D60A079C0073FF425AFBAF1100F36
:100C900028BFA8F1110ABAF1070F3FF60FAF02996A
:100CA0004FEA8A0308680F2505FA03F398430860A2
:100CB000DDF800C00EE705B0BDE8F08F10B50446C2
:100CC000016844F6FF30C4F2000081424FF0010099
:100CD00008DC44F20042C4F2000291420ED044F615
:100CE000000207E043F60002C4F20102914205D07F
:100CF00044F60042C4F20002914263D1A0684FEA78
:100D00007010032852D8E06840F40040B0F5004F5E
:100D10004CD121690120062954D800FA01F111F0C3
:100D2000450F4FD061690120B1F5407F40DB0CD009
:100D300040F20032C2F20002914206D040F200328C
:100D4000C1F20002914218BF10BDA0694FEAB03055
:100D500003282BD8204600F037F8204600F06AFA26
:100D600004F108030ECB20681143194341F0100130
:100D7000C162D4E9051240F20033C2F20003994285
:100D800042EA010242F00102026318D040F2003050
:100D9000C1F2000081421CBF002010BD206840F25B
:100DA0005001C2F200010860002010BD012010BDFA
:100DB000B1F5807FC9D0B1F5007FC6D002E0022135
:100DC0004165002010BD000010B584B004460068E5
:100DD00043F60001C4F20101884201D004B010BD05
:100DE000102000F0E1F94FF4C06000900320019062
:100DF000012002900220039069460020FFF7AAFD1F
:100E0000607E000606D54FF4006000906946002021
:100E1000FFF7A0FD607E400606D54FF4805000909D
:100E200069460020FFF796FD00F05AFA00F070FACC
:100E300000F05EFA04B010BD07B45FF480305FF0DC
:100E4000005109180A6807BC70470000FEE700005F
:100E5000B0B501380024B4EB106F18BFB0BD4EF22E
:100E60001005CEF20005686000F04AFA0720AC6079
:100E70002860B0BD40F25C00C2F2000001680131A0
:100E80000160704780B586B04FF480110A6808236E
:100E900063F3CB120A60002240F62C010092C4F2E8
:100EA0000101029251F8083C9B0509D451F8083C15
:100EB00043F0010341F8083C51F8083C9B05FBD581
:100EC00049F2000EC0F2D03E0EF1010340F2580C80
:100ED0009842C2F2000C41F81C2C19D251F8082C8F
:100EE000D20509D551F8082C22F4807241F8082C5B
:100EF00051F8082C9205FBD544F60002C0F2E81226
:100F0000904222D10220CCF800200590012020E060
:100F1000029A52B3029A012A56D1002203920D225C
:100F200041F8042C51F8042CD2065FD444F240233B
:100F3000C0F20F03039A9A4256D0039A01320392E9
:100F400051F8042CD206F5D550E00120CCF800E091
:100F500005900490DCF80000049AB0FBF2F040F237
:100F60005402C2F20002106094E051F8082C42F4DE
:100F7000807241F8082C00BF51F8082C9205FBD56F
:100F80000A6842F001020A600A6822F400120A604C
:100F90000A685200FCD540F60062C0F22772904207
:100FA00015D049F20052C0F6BA2290424CD10A68DC
:100FB000212363F3D3020A600A6842F480020A60C4
:100FC0000A685200FCD554E00320009062E00A68F1
:100FD000122363F3D3020A600A6842F480020A60B3
:100FE0000A685200FCD544E002220092009A002ACE
:100FF00043D10A6842F001020A600A6822F4001232
:101000000A6000BF0A685200FCD540F60062C0F2D8
:10101000277290421BD049F20052C0F6BA22904289
:1010200012D10A6840F2122363F3D3020A600A68FD
:1010300042F006020A600A6842F480020A6000BFB9
:101040000A685200FCD514E00122009215E00A68FB
:1010500040F2124363F3D3020A600A6842F00602C8
:101060000A600A6842F480020A6000BF0A685200FF
:10107000FCD50122059202220492CCF80000049AC9
:10108000B0FBF2F040F25402C2F200021060042001
:1010900041F81C0C009810B10120059002E0049862
:1010A00001281ED10020019051F8180C059B40F238
:1010B000FF7290435A1E019B104340EA032041F8FF
:1010C000180C00BF51F8180CB0F1FF3FFADCDCF847
:1010D0000000FFF7ADFB0098B0FA80F0400906B0C1
:1010E00080BD0498022814BF05200420DBE700001F
:1010F0004EF68850CEF20000016841F470010160A4
:10110000002140F8801C704781B000900098411E7B
:1011100000280091FAD101B070470000BFF34F8F53
:10112000BFF36F8F4EF65070CEF2000000210160C9
:10113000BFF34F8FBFF36F8F4EF61450CEF2000007
:10114000016841F400310160BFF34F8FBFF36F8F2F
:101150007047000040F25400C2F20000006870477F
:1011600040F25800C2F200000068704780B540F6B7
:101170000000C4F20100016841F480310160502098
:10118000002100F02BF800F0CBF849F20050C0F637
:10119000BA20FFF777FE28B1FFF7C0FF00F034F860
:1011A00080BD00BFFEE7000080B540F61C010E28A0
:1011B000C4F2010107D30E3801220B6802FA00F0D5
:1011C0001843086005E001224B6802FA00F018435A
:1011D00048600220FFF798FF80BD000040F63C0207
:1011E000C4F20102136801291EBF23F4000010603D
:1011F00070476FF3551343EA40101060106840F4D5
:10120000000010607047000080B540F25C00C2F240
:1012100000000021016040F25800C2F200000068A6
:1012200044F6D351C1F26201A0FB01018809FFF726
:101230000FFE80BD70B50446FFF78CFF616826681D
:101240000A01B0FBF2F544F2402405FB1200C0F2A3
:101250000F04A0FB04010023FEF760FF89014AF29E
:10126000201241EA9061C0F2070212EB801041F1B6
:10127000000122460023FEF751FF3F2884BF0135BD
:1012800000207562B06270BD80B540F2080143F67F
:101290000003C2F20001C4F20103C1E9003040F2D0
:1012A00000304FF0600C0022C1F20000C1E902C220
:1012B000C1E9042008468A61FFF700FDFFF750FFEF
:1012C000014602A000F0F8FB80BD00BF4D43552051
:1012D00072756E73206174202564487A0A000000DC
:1012E0004EF28020CEF200004FF0006101607047A6
:1012F0004EF20010CEF200004FF000610160704726
:101300004EF62350CEF20000E0210170704700003D
:101310004EF21B40CEF20000A02101707047000089
:101320004EF60C50CEF2000001684FF6FF0211405D
:1013300041F0BF6141F40131016070472DE9F04F88
:1013400081B02DED048BADF58A6D41F6B8710DF2CB
:101350000440C0F200014422FEF711FF42F2D8110E
:10136000F0A8C0F200014422FEF709FF41F67471B3
:10137000DFA8C0F200014422FEF701FF42F29411FF
:10138000CEA8C0F200014422FEF7F9FE41F630710A
:10139000BDA8C0F200014422FEF7F1FE42F2501156
:1013A000ACA8C0F200014422FEF7E9FE41F6EC6170
:1013B0009BA8C0F200014422FEF7E1FE42F20C11AC
:1013C0008AA8C0F200014422FEF7D9FE41F6A861C6
:1013D00079A8C0F200014422FEF7D1FE42F2C80112
:1013E00068A8C0F200014422FEF7C9FE41F664611C
:1013F00057A8C0F200014422FEF7C1FE42F2840168
:1014000046A8C0F200014422FEF7B9FE41F6206171
:1014100035A8C0F200014422FEF7B1FE42F24001BD
:1014200024A8C0F200014422FEF7A9FE41F6DC51D7
:1014300013A8C0F200014422FEF7A1FE41F6FC71A0
:1014400002A8C0F200014422FEF799FE9FED8C8AAB
:101450009FED8C9A4FF000094FF0080A0DF24C4BAB
:101460000DF5896405E000BFBAF1010FC24640F2F4
:10147000DC80002503E000BF0135112DF4D0AAF176
:101480000108B8F1070F00F29F80DFE808F00417A9
:101490002A3D5063768942F21C2042F26021C0F25C
:1014A0000000C0F2000150F8250051F825105A46FE
:1014B0002346FEF7A7FE02AE13AF85E042F21C20E2
:1014C00042F26021C0F20000C0F2000150F8250095
:1014D00051F825105A462346FEF7C2FE24AE35AF1A
:1014E00072E042F21C2042F26021C0F20000C0F221
:1014F000000150F8250051F825105A462346FEF702
:10150000DFFE46AE57AF5FE042F21C2042F26021A0
:10151000C0F20000C0F2000150F8250051F825107B
:101520005A462346FEF7FEFE68AE79AF4CE042F223
:101530001C2042F26021C0F20000C0F2000150F80D
:10154000250051F825105A462346FEF71FFF8AAEA4
:101550009BAF39E042F21C2042F26021C0F2000051
:10156000C0F2000150F8250051F825105A462346D4
:10157000FEF742FFACAEBDAF26E042F21C2042F2C5
:101580006021C0F20000C0F2000150F8250051F8BF
:1015900025105A462346FEF769FFCEAEDFAF13E0B3
:1015A00042F21C2042F26021C0F20000C0F20001B1
:1015B00050F8250051F825105A462346FEF792FFB1
:1015C000F0AE0DF2044700BFDDF8483457F82500AF
:1015D000834206D01EA051462A4600F06DFA4FF015
:1015E00001090DF5806E9EED130AB8EEC00A80EE7B
:1015F000080A20EE090ABDEEC00A10EE100A4300E8
:10160000CDF84C3456F82510C1EB4000002848BFF7
:101610004042B0F5807F7FF72FAF1BA051462A468E
:1016200000F04AFA4FF0010926E723A042F2BA512E
:10163000C0F20001B9F1000F08BF084600F0BCFB82
:101640000DF58A6DBDEC048B01B0BDE8F08F00BFD5
:10165000202564206174616E206572726F7220258E
:101660002E303264206174616E325F76616C756514
:10167000206973203078252E3038780A0000000069
:101680000AC9524D0000804E202564207371727487
:10169000206572726F7220252E3032642073717251
:1016A00074325F76616C7565206973203078252E01
:1016B0003038780A000000006174616E2F73717217
:1016C000742074657374206572726F72000000007C
:1016D0002DE9F04F83B042F2643A42F2843B4FF07E
:1016E000000802AC01ADC0F2000AC0F2000B4FF0DE
:1016F0000009002608E000BF08F10808B8F1200F33
:1017000006F1010600F03C81A6A050F826702146A3
:1017100038462A46FEF724FF42F2A421C0F2000117
:10172000029A51F80800824209D0A2A0314600F086
:10173000C3F942F2A421C0F200014FF0010901EB0C
:101740000800019A4068824205D0A4A0314600F00A
:10175000B3F94FF00109384621462A46FEF726FF25
:1017600042F2C421C0F20001029A51F808008242FC
:1017700009D0A4A0314600F09FF942F2C421C0F282
:1017800000014FF0010901EB0800019A4068824214
:1017900008D042F2A430C0F20000314600F08CF9CB
:1017A0004FF00109384621462A46FEF727FF42F24C
:1017B000E421C0F20001029A51F8080082420CD0E4
:1017C00042F2AE40C0F20000314600F075F942F23C
:1017D000E421C0F200014FF0010901EB0800019A79
:1017E0004068824208D042F2CA30C0F2000031465E
:1017F00000F062F94FF00109384621462A46FEF70B
:1018000027FF42F20431C0F20001029A51F80800A9
:1018100082420CD042F2D440C0F20000314600F0C7
:101820004BF942F20431C0F200014FF0010901EB23
:101830000800019A4068824208D042F2F030C0F2BB
:101840000000314600F038F94FF0010938462146D2
:101850002A46FEF729FF42F22431C0F20001029A23
:1018600051F8080082420CD042F2FA40C0F2000067
:10187000314600F021F942F22431C0F200014FF06C
:10188000010901EB0800019A4068824208D042F247
:101890001640C0F20000314600F00EF94FF0010989
:1018A000384621462A46FEF72DFF42F24431C0F267
:1018B0000001029A51F8080082420CD042F22050F6
:1018C000C0F20000314600F0F7F842F24431C0F2B5
:1018D00000014FF0010901EB0800019A40688242C3
:1018E00008D042F23C40C0F20000314600F0E4F87B
:1018F0004FF00109384621462A46FEF733FF029A87
:101900005AF80800824208D042F24650C0F2000065
:10191000314600F0D1F84FF001090AEB0800019AB6
:101920004068824208D042F26240C0F20000314674
:1019300000F0C2F84FF00109384621462A46FEF76A
:1019400043FF029A5BF80800824208D042F26C50D2
:10195000C0F20000314600F0AFF84FF001090BEB88
:101960000800019A406882423FF4C6AE42F28840C5
:10197000C0F20000314600F09FF84FF00109BBE6CD
:1019800042F2925042F2A551C0F20000C0F20001B2
:10199000B9F1000F08BF084600F00EFA03B0BDE829
:1019A000F08F00BF005BB085C0055BC0B0055BF089
:1019B00080055B40636F73206572726F7220313AED
:1019C00020256420636F735F76616C756520697391
:1019D000203078252E3038780A00000073696E2098
:1019E0006572726F7220313A2025642073696E5FD0
:1019F00076616C7565206973203078252E303878D3
:101A00000A000000636F73206572726F7220323AB1
:101A100020256420636F735F76616C756520697340
:101A2000203078252E3038780A00000080B5FFF786
:101A30004FFEFFF783FC80BD40F25001C2F200016F
:101A40000968002904BF0020704708608A691207EE
:101A5000FCD47047FFF78AFB4FF4E130FFF714FC2A
:101A60004EF68850CEF20000016841F4700101602A
:101A700008A000F0A1F940F62000C4F201000168BE
:101A800041F480710160FFF7D1FF07A000F094F9E5
:101A9000FEE700BF46415520746573742062656798
:101AA000696E210A000000000A46415520746573E2
:101AB0007420446F6E6521000FB4054B10B503A967
:101AC000044A029800F018F810BC5DF814FB0000FE
:101AD000391A00000000002002E008C8121F08C1E7
:101AE000002AFAD170477047002001E001C1121F9F
:101AF000002AFBD1704700002DE9FF4F8DB09B46B7
:101B00000F460446002606E025280BD05A460F99BA
:101B10009047641C761C20780028F5D111B030461F
:101B2000BDE8F08F0025A8460122984900E0054352
:101B300014F8013F203B02FA03F00842F7D1207865
:101B40002E2817D114F8010F45F004052A280ED0CD
:101B50006FF02F022078A0F1300109290AD808EB94
:101B6000880102EB410100EB0108641CF2E757F821
:101B7000048B641C20786C280DD004DC4C2812D017
:101B80006A2811D104E074280DD07A280CD10AE01B
:101B900045F4001507E0617845F48015814202D1D3
:101BA000641C05F58015641C2278692A45D008DC80
:101BB000002AB3D0582A69D0632A10D0642A08D1E9
:101BC0003BE0702A67D0732A13D0752A5CD0782A3C
:101BD0005CD010465A460F999047761CD3E017F810
:101BE000040B8DF8000000208DF80100E94601206B
:101BF00003E057F8049B4FF0FF3069074FF00005F2
:101C000001D40AE06D1C45450DDA8542FADB19F86E
:101C100005100029F6D106E06D1C8542FCDB19F8A1
:101C200005100029F8D12E4404E019F8010B5A469A
:101C30000F9990476D1EF8D2A5E00A200021CDE94A
:101C40000801C5F3025002280DD001CFC117031EB1
:101C500071F100030DDA4FF0000CD0EB0C006CEBCF
:101C600001012D2308E0FF1D27F00707F7E8020117
:101C7000EDE72B0504D52B238DF8283001233BE01D
:101C8000EB0739D02023F7E70A2000E010200021DD
:101C9000CDE9080107E01020002145F00405CDE959
:101CA00008014FF00808C5F3025002280FD001CFF9
:101CB00000214FF0000A2B071FD5702A0DD0DDE957
:101CC00008C38CF0100C5CEA030C0CD015E0FF1D6F
:101CD00027F00707F7E80201EBE740228DF82820FC
:101CE0004FF0010A0BE050EA010306D030238DF8D3
:101CF00028308DF8292002239A46582A04D024A29D
:101D00000DF120090B9209E026A2F9E7DDE908238D
:101D1000FEF704FA0B9B9B5C09F8013D50EA0102B7
:101D2000F4D1ADEB090020300890680701D44FF0E2
:101D300001080899884502DDA8EB010000E00020B9
:101D40008046002506E00AA85A46405D0F99904754
:101D50006D1C761C5545F6DB04E030205A460F9981
:101D60009047761CB8F10001A8F10108F5DC05E008
:101D700019F8010B5A460F999047761C0899481E8E
:101D800008900029F4DC641CC5E600000928010065
:101D900030313233343536373839616263646566E1
:101DA00000000000303132333435363738394142A3
:101DB000434445460000000010B5044601E0FFF72B
:101DC0003BFE14F8010B04490028F8D1BDE810408F
:101DD0000A20FFF731BE00000000002000000000D4
:101DE0003D331717793DDF3CC3CCE86887C22043F9
:101DF0003D331797793DDFBCC3CCE8E887C220C3E9
:101E0000793DDFFC793DDF3C86C2208387C220C359
:101E10003D3317173D3317573D3317973D3317D7CA
:101E200000000000AF0FE31A0761133935A9B46C45
:101E3000F99EEC46453C358EC9109FBBBBC3CAF129
:101E4000F99EECC6EB19AB00EB19AB4014E6547FDE
:101E500015E654BF352AF91F352AF95F352AF99F4F
:101E6000352AF9DF000000008F5B171A23998D399E
:101E70006F78976BD9EA204665F0008F535576BB93
:101E8000DB7796F21953B8C7CB65DFFFCB65DF3F31
:101E9000349A2080359A20C0ABE52120ABE5216043
:101EA000ABE521A0ABE521E00000000022023B1AD7
:101EB000C0517E393A909C6B3C32304660671A8F35
:101EC000F00D67BB106091F27C9AC7C75E0C0300EF
:101ED0005E0C0340A1F3FC7FA2F3FCBF183FFE1F82
:101EE000183FFE5F183FFE9F183FFEDF0000000016
:101EF00043D3371AD3687C395B61996B438F2F4684
:101F00008138178FC3826BBB31318EF283F7C6C71E
:101F10007FDDFFFF7FDDFF3F80220080812200C048
:101F20000528002005280060052800A0052800E0FD
:101F300000000000A3E7371AF7027C3937C7996B16
:101F4000A9002F46E7A9168FA5456BBB0D978EF20A
:101F5000E968C6C7DFF1FFFFDFF1FF3F200E008019
:101F6000210E00C0A5130020A5130060A51300A03A
:101F7000A51300E0000000005FF4371A9B0A7C39CB
:101F80000BD9996B05F92E462B9D168F79576BBB94
:101F900039858EF28D70C6C79BFEFFFF9BFEFF3F0B
:101FA00064010080650100C0D1010020D101006002
:101FB000D10100A0D10100E000000000F7F5371AC0
:101FC0008F0B7C39B9D8996B6DF72E46D99C168F3B
:101FD000CB576BBBD1868EF2DF70C6C733000000D3
:101FE00033000040CCFFFF7FCDFFFFBF3900002052
:101FF00039000060390000A0390000E00000000056
:10200000A1C0D63881A6EC766C3D5E4CC91AA06C96
:1020100018034A7168D0FD4E7EDF055F65A5CD705F
:10202000C48D345CBDCD266F2E8DAE295B40352C22
:10203000733AAB7F72F5E6991D9CB639510A363D6D
:10204000000000009F37953961818D78335D4A4DDE
:10205000A76D076E7B66AA7461A8D94FB1EEBB620B
:102060007CCBAD72BA87695DAB449B70CA393A2AA2
:102070001064C92CCC611F84F163459F8305BA3B72
:1020800066B0583F00000000B47D9939CAF59378D6
:1020900081CF544DCD92106E7818B674372CDD4F29
:1020A0007E6DC46213E0B8728976705D2CA0A37057
:1020B0001F5C3D2AF0B6CC2C3BA1248455B74B9F26
:1020C000D764BC3B8B345B3F000000005F999939BB
:1020D0009214947825DC544D5BAB106E933BB67430
:1020E000D03BDD4F4B7FC462BBF9B87279A3705D02
:1020F00055D6A37063703D2A92CCCC2C8FE42484F7
:1021000084084C9F5183BC3BE1545B3F00000000BE
:10211000B69999391A15947886DC544DA9AB106E8E
:102120005F3CB674623CDD4FC97FC46213FAB8727B
:10213000F8A3705DF0D6A370A7703D2ACCCCCC2C50
:1021400004E524840C094C9F8183BC3B1B555B3FF9
:1021500000000000CA9999392D15947890DC544DEF
:10216000C6AB106E7C3CB674763CDD4FD37FC46248
:1021700030FAB8720BA4705D04D7A370BB703D2A0F
:10218000D6CCCC2C0EE5248416094C9F8B83BC3B0B
:1021900025555B3F00000000D39999393715947895
:1021A00090DC544DDAAB106E903CB674763CDD4F4B
:1021B000F07FC4623AFAB87215A4705D0ED7A370AE
:1021C000C4703D2AE9CCCC2C2BE5248433094C9FE8
:1021D000A883BC3B42555B3F00000000DD99993964
:1021E0004115947899DC544DE3AB106E993CB6746C
:1021F000893CDD4FFA7FC4624DFAB8721EA4705D4F
:1022000017D7A370CE703D2AFDCCCC2C3EE524849C
:1022100046094C9FBC83BC3B56555B3F0000000009
:10222000007B142E4033331300F628BC00295CEFEA
:1022300000333393703D0AF700A4705D608FC215C0
:1022400000A4705D00000000408FC2D500000000B7
:1022500000A4705D00295C8F408FC2D5C0CCCC2C0F
:1022600000000000405C8F22803D0A7740B81E25A8
:1022700000CDCC6C408FC2D500D7A3B0000000E0E9
:1022800000295C8F0000000000D7A3700000000050
:10229000403333D300A4705D00D7A370408FC2D504
:1022A000403333D3F0FEB08100B148F6F04EB709A9
:1022B000F0FEB0816063E06A00D8FCBB00B148F674
:1022C00000014F7E3053DD8100D15AEAE094E6FDF3
:1022D000A0BD098090B14F751097D8CC106B190232
:1022E0005042F67F90B54C81C0EECEED006A66019B
:1022F000200B02807059AF76508D10D0F09599FE6A
:10230000D0F4FD7F70E63C8180CF3DEE406B16013E
:10231000202F0180106EA976E0AF01D0B094E9FEC5
:10232000D0D0FE7F10D83E8150F22FEE206B1C01E2
:10233000F03B018060ADAE7680AA0ED0D094E3FE73
:1023400000C4FE7F00E13E81F0B22FEEF02A1E01B4
:10235000B03F0180A005AE76400B0DD000D5E1FE68
:1023600040C0FE7F50E43E81309B2FEE20F31D01E4
:10237000403F0180B0F6AD7630E60CD0D00CE2FEE6
:10238000B0C0FE7F30E53E8160942FEE30F41D0139
:10239000403F0180A0F5AD7670E30CD0E00DE2FE89
:1023A000B0C0FE7F73696E206572726F7220323A20
:1023B0002025642073696E5F76616C756520697392
:1023C000203078252E3038780A0073696E206572C7
:1023D000726F7220333A2025642073696E5F7661D4
:1023E0006C7565206973203078252E3038780A00A6
:1023F00073696E206572726F7220343A20256420F2
:1024000073696E5F76616C7565206973203078251D
:102410002E3038780A0073696E206572726F7220F0
:10242000353A2025642073696E5F76616C7565208E
:102430006973203078252E3038780A0073696E2051
:102440006572726F7220363A2025642073696E5F60
:1024500076616C7565206973203078252E30387868
:102460000A0073696E206572726F7220373A2025F8
:10247000642073696E5F76616C75652069732030C6
:1024800078252E3038780A0073696E206572726F75
:102490007220383A2025642073696E5F76616C750E
:1024A00065206973203078252E3038780A00636FF4
:1024B00073206572726F7220333A20256420636F37
:1024C000735F76616C7565206973203078252E30D6
:1024D00038780A00636F73206572726F7220343A25
:1024E00020256420636F735F76616C756520697366
:1024F000203078252E3038780A00636F732065729B
:10250000726F7220353A20256420636F735F7661A5
:102510006C7565206973203078252E3038780A0074
:10252000636F73206572726F7220363A20256420C3
:10253000636F735F76616C756520697320307825F1
:102540002E3038780A00636F73206572726F7220C4
:10255000373A20256420636F735F76616C75652060
:102560006973203078252E3038780A00636F732025
:102570006572726F7220383A20256420636F735F32
:1025800076616C7565206973203078252E30387837
:102590000A00636F732F73696E207465737420650E
:1025A00072726F7200636F732F73696E207465733C
:1025B000742073756363657373006174616E2F7348
:1025C00071727420746573742073756363657373BB
:1025D00000000000F82500000000002008000000B6
:1025E000D81A00000026000008000020580800004B
:1025F000E81A0000000000000000000000000000D9
:04000005000000E512
:00000001FF
