:020000040800F2
:10800000101C002001810008098100080B81000874
:108010000D8100080F810008118100080000000098
:1080200000000000000000000000000013810008B4
:10803000158100080000000017810008E1AE00086B
:108040001B8100081B8100081B8100081B810008A0
:108050001B8100081B8100081B8100081B81000890
:108060001B8100081B8100081B8100081B81000880
:108070001B8100081B8100081B8100081B81000870
:108080001B8100081B8100081B8100081B81000860
:108090001DB500081B8100081B8100081B8100081A
:1080A0001B8100081B8100081B8100081B81000840
:1080B0002DB000081B81000865B000081B81000876
:1080C0001B8100081B8100081B8100081B81000820
:1080D0001B81000855B200081B8100081B810008A5
:1080E0001B8100081B8100081B810008DFF80CD0F1
:1080F00000F090F80048004701BC0008101C002068
:108100000648804706480047FEE7FEE7FEE7FEE731
:10811000FEE7FEE7FEE7FEE7FEE7FEE7D9AF000871
:10812000ED80000840EA01039B0703D009E008C97D
:10813000121F08C0042AFAD203E011F8013B00F82C
:10814000013B521EF9D27047D2B201E000F8012B78
:10815000491EFBD270470022F6E710B513460A46C7
:1081600004461946FFF7F0FF204610BD421C10F8E8
:10817000011B0029FBD1801A704730B5044600204E
:10818000034600E05B1C934203D2E05CCD5C401BE5
:10819000F8D030BD30B505460020034600E05B1C3A
:1081A000934205D2EC5CC85C201A01D1002CF6D1B8
:1081B00030BD2DE9F05F0546002092469B4688467B
:1081C0000646814640241BE0284641464746224653
:1081D00000F041F853465A46C01A914110D3114657
:1081E0001846224600F028F82D1A67EB01084F4682
:1081F00022460120002100F01FF817EB00094E4134
:10820000201EA4F10104DFDC484631462A464346DD
:10821000BDE8F09F064C074D06E0E06840F0010322
:1082200094E8070098471034AC42F6D3FFF762FF9A
:108230001CEE00083CEE0008202A04DB203A00FA7D
:1082400002F1002070479140C2F1200320FA03F3AD
:10825000194390407047202A04DB203A21FA02F0AB
:108260000021704721FA02F3D040C2F12002914070
:1082700008431946704770B58C1810F8015B15F06B
:10828000070301D110F8013B2A1106D110F8012B88
:1082900003E010F8016B01F8016B5B1EF9D12B07AD
:1082A00005D40023521E0DD401F8013BFAE710F863
:1082B000013BCB1A921C03E013F8015B01F8015B50
:1082C000521EF9D5A142D8D3002070BD034A18B17F
:1082D000034841814FF4967010807047400400407D
:1082E0000000002030B589B00121082001F04EF9CE
:1082F0000121022001F032F90220ADF81C00032018
:108300008DF81E0018208DF81F0007A9164800F0F0
:1083100085FD0520ADF8000040F6B830ADF804004A
:108320000024124DADF80640ADF8024069462846DB
:1083300002F042FF6021ADF80C100120ADF80E00F4
:10834000ADF8144003A9284602F0F6FE00212846A5
:1083500002F02EFF0821284602F020FF01212846C6
:1083600002F0CBFE09B030BD000C0140000400401B
:10837000C1B2000A40EA0120704700002DE9F84F21
:108380000020ADF800004BF6BF7648F280084A4D59
:108390004A4C40F68F7ADFF8289148F60F7B494F18
:1083A0002FE0088810F00F0089F8000032D007EBAA
:1083B0008001D1F8002CADF80020BDF80020120497
:1083C0000BD5D1F8002C02EA0A02C1F8002C3E4974
:1083D00001EB800050F8040C8047BDF80000000657
:1083E0000FD599F8000007EB8001D1F8002C02EAC4
:1083F0000B02C1F8002C354901EB800050F8040C49
:1084000080472D4844300068314908800004C8D4B2
:10841000BDE8F88F28682080208800F03000608058
:10842000208800F4405020802868304080F40050BC
:1084300080F0200040EA080028600888C00617D4B1
:10844000296801EA0B01296000F0C4FE28E02188B8
:10845000890401D580F400506188C90628D4618858
:10846000890601D580F0200040EA08002860CFE7A7
:108470002868ADF80000BDF80000000506D52968A1
:1084800001EA0A01296002F041FB09E0BDF80000A1
:108490000004B6D5286800EA0A00286000F0F2FF60
:1084A000286821883040C904D1D580F48050CEE7B7
:1084B00080F01000D3E70000005C00409200002034
:1084C0008000002000500040D0000020B4000020B8
:1084D000B2000020810008480844D0F8001C49047C
:1084E00009D5D0F8001C48F68F7211404CF280027A
:1084F0001143C0F8001C704700500040810008483C
:108500000844D0F8001C490609D5D0F8001C48F6EC
:108510008F72114048F2C0021143C0F8001C70472E
:1085200000500040810006480844D0F8001C48F67E
:108530008F62114048F280021143C0F8001C70475E
:108540000050004004490020044A48600870106050
:108550008860012070470000C013002064000020E4
:10856000124910B50A680628117801F07F0103D17D
:10857000012901D1537913B121290AD013E0907850
:10858000222802D0212802D00DE0094904E009493F
:1085900002E0032807D1084929B1002091615082E7
:1085A0008847002010BD022010BD0000840000207C
:1085B000FD850008D5850008E1850008014902F025
:1085C0007DBB0000FC000020014902F077BB0000E9
:1085D000F4000020014902F071BB00000C010020F2
:1085E00008B1044870470449012009680882002046
:1085F00070470000F000002084000020014902F0D4
:108600005DBB00000401002005490968C978042900
:1086100001D900207047034A02EBC10102F04EBBB2
:10862000840000204401002009B9002800D0022065
:108630007047000006490968097801F07F01212987
:1086400001D10B2801D00220704700F071B8000062
:1086500084000020284810B5006800218172C17292
:108660002649C9794172002002F0EEF84FF40071FA
:10867000002002F0B7F91021002002F089F918213A
:10868000002002F00DF95821002002F063F90020CB
:10869000FFF748FF1A4890F82C10002002F010F95C
:1086A000002002F045F94FF4C061012002F09AF970
:1086B0009821012002F04EF94021012002F05AF9E0
:1086C0000021012002F01CF92021012002F060F9B4
:1086D000D821012002F0E4F84021012002F0F0F856
:1086E0004FF44051012002F00BF9002002F0B4F8E1
:1086F00004490120086010BD840000203EE300080A
:10870000140100208801002004480068807A0028B5
:1087100002D0034905200860704700008400002053
:10872000880100200149042008607047880100206A
:10873000034804490068C0780860002070470000C2
:1087400084000020F000002070477047054810B5F5
:1087500000680024847200F0EBFE02F0E1FE0248A3
:10876000046010BD8400002088010020C0EB0010D0
:108770000021C0000722B0FBF2F0491C8142FCD965
:10878000704700002DE9F047DFF89490254F4FF037
:108790003008D9F8001001F11005088A0E7A08B9DE
:1087A000042E04D0AC88A04215D8042614E01E483C
:1087B0000178012903D00726102038802BE01B4ABE
:1087C000002112681A4B120403EBD2325160A7F851
:1087D000008001701FE00226844200D90446A96887
:1087E000204688478246002000F08AFB0146224648
:1087F000504602F0A5FE2146002002F0BBF8288872
:10880000001B2880688820446880A7F800800949F8
:108810004FF440500880D9F800000672BDE8F08798
:1088200084000020940000207C000020505C004068
:1088300000600040920000202DE9F047224EDFF852
:108840008C803027346834F8100FA168A9B100B3C8
:10885000A588854200D90546284688478146208854
:10886000401B2080608828446080002000F028FBA6
:1088700001462A46484600F029FE208848B114499E
:108880004FF4405008800021084602F073F8A8F821
:1088900000702088A188884201D3032001E020B124
:1088A000052031680872BDE8F0873168062008723B
:1088B000084900200968084A090402EBD1314860E0
:1088C000A8F80070EFE7000084000020940000206A
:1088D00092000020505C004000600040F8B55D4C04
:1088E0005D4D09262068002729684278062A05D0B0
:1088F000AAB1082A4DD00A2A50D06BE0027852065D
:1089000068D18078012804D0022804D0032804D03C
:1089100060E0C96956E0096A54E0496A52E0428859
:10892000B2BBC288022A55D102798ABB02785306AB
:1089300001D1838833B102F07F02012A04D0022AD8
:108940000CD047E045493DE08A69407900219047D5
:10895000F0B92068807A0028F4D13BE0417901F039
:108960000F0001F070020B063D4901EB8001D1F8C8
:10897000001C03D5C1F30111090102E0C1F301316B
:108980000903384B1B78834224D90AB90029D9D16D
:1089900020E0007840061DD1334913E0027802F050
:1089A0007F02012A16D1827AA2B1428892B9027955
:1089B00082B9C288012A0DD18A6940790021904785
:1089C00040B92A4931B12068478281610020884737
:1089D000002006E029682068096940788847032854
:1089E00013D021680A8AA2F57F43FF3B0BD00228EF
:1089F0000ED06AB10878000626D5C8880090824259
:108A00000AD9088218E00E72F8BD20680672F8BD17
:108A10004FF008000872F8BD0ED22868144B90F889
:108A20002C00824201D21F7006E0B2FBF0F400FB82
:108A3000142008B901201870286890F82C0088824A
:108A4000BDE8F840FFF79EBE032008720949000305
:108A50000880F8BD840000208800002001AD0008D7
:108A600000500040EC00002095AC0008D9AC000894
:108A70007C00002092000020002242F6F82306E04D
:108A80000021491C89B29942FBD3521C92B2824206
:108A9000F6D37047C0EB00100021C0000722B0FBE6
:108AA000F2F0491C8142FCD97047000070B50025E6
:108AB0002C46065D641C7540202CFADB11482844C6
:108AC00073B1E2B10B784340234401F8013B641CCD
:108AD000E31704EB136323F0FF03E41A521EF0E7DD
:108AE0006AB10B781B1B434001F8013B641CE31780
:108AF00004EB136323F0FF03E41A521EF0E7002097
:108B000070BD000043383728014901208863704751
:108B10000000002010B5012000F0E2F9C4B22246A6
:108B2000D821074800F0D2FC012001F001FF0449E0
:108B30002246A1F14400FFF7F5FA0248C46010BDD7
:108B4000B4020020000000200149032008607047A3
:108B50008801002070B505464FF43026304600F0FD
:108B600059F8042811D1094C206940F00200206115
:108B70006561206940F040002061304600F04AF80D
:108B8000216941F6FD721140216170BD0020024053
:108B900008490420CA68D20701D001207047CA687A
:108BA000520701D502207047C968C906FBD50320CA
:108BB00070470000002002400248016941F0800136
:108BC0000161704700200240F0B506464FF400579F
:108BD0000D46384600F01EF804280CD1064C2069DA
:108BE00040F0010020613580384600F013F821691B
:108BF000BA1E11402161F0BD002002400348024925
:108C000041600349416070472301674500200240ED
:108C1000AB89EFCD00B50346FFF7BAFF02E0FFF7DF
:108C2000B7FF5B1E012803D0002B00D1052000BD3B
:108C3000002BF4D1FAE700002DE9FC41214D00247E
:108C4000ADF80040042201A9284600F087F80198F9
:108C50004AF6AA21421C04D0B1EB104F01D1ADF865
:108C60000000184FBDF80000174E3F1DE0B1A0F501
:108C70007F41FF3914D00424A7022819042201A936
:108C800000F06CF80198401C19D0BDF80000204499
:108C900084B2BC42F1D3BDF800007060BDE8FC8135
:108CA0003760ADF80040F6E70648ADF80010022244
:108CB0006946801C00F05FF8C6E90074EEE72819E9
:108CC0003060E8E700FC00085C0000200346044830
:108CD0000A46D0E90010081A194600F03FB8000013
:108CE0005C0000202DE9F843184D8046164F288877
:108CF0000C46C0F30B00A0F6FC704642686828B929
:108D00000222291D38466C6000F035F86868A042E0
:108D100002D00020BDE8F883A6420AD20C48042203
:108D2000204300906946384600F025F80648001DAB
:108D3000286022464146286800F01DF82868204433
:108D400028602046E6E7000000FC00085C000020E8
:108D50000000AAAA491E8843FFF7FCBEA0F10063E9
:108D6000B3F1016F04D3704710F8013B01F8013BE8
:108D7000521EF9D270472DE9F8434FF00005140058
:108D8000884606462F4630D00AE07019012269460F
:108D9000FFF7E4FF9DF80000FF2803D16D1CADB282
:108DA000A542F2DBFFF72AFFA54204DA4FF4806107
:108DB0003046FFF7CFFF4546E0070DD00127641E80
:108DC00018F8040040F47F4806E035F8021B3046EE
:108DD000FFF7FAFEA41EB61C002CF6D11FB14146C7
:108DE0003046FFF7F1FEFFF7E7FEBDE8F88300002D
:108DF00008B50121082000F0C9FB4FF40040ADF890
:108E0000000003208DF8020010208DF80300694651
:108E1000014800F003F808BD000C0140F0B5CC7823
:108E2000002204F00F03E40601D58C7823430C786C
:108E30004FF00F0C14F0FF0F4FF0010E1BD0056820
:108E40000E880EFA02F42640A64210D196000CFAC3
:108E500006F725EA070703FA06F5CE783D43282EE4
:108E600002D0482E02D002E0446100E00461521CAE
:108E7000082AE5D305600A88FF2A1CD94468002225
:108E800002F108060EFA06F50E882E40AE420ED10B
:108E900096000CFA06F7BC4303FA06F7CE783C437B
:108EA000282E00D14561CE78482E00D10561521C94
:108EB000082AE5D34460F0BD416170470161704705
:108EC0000549096889B201EBC000044901EB400083
:108ED000008980B270470000505C00400060004094
:108EE0000549096889B201EBC000044901EB400063
:108EF0008089C0F309007047505C0040006000406A
:108F00000449096889B201EBC000034931F8100037
:108F100080B27047505C00400060004004490889FE
:108F2000002803D008890022C0B20A8170470000DF
:108F30000000002012480068124A40F30020401C44
:108F40001071D1784FF0010330EA01019170D070B7
:108F500001D0537102E0517900290BD00021002883
:108F6000507908D0401CC0B25071282802D95171E4
:108F70008120108170470028FCD013815171704707
:108F8000080801400000002010B500231A4604E044
:108F9000845C521C2344DBB2D2B28A42F8D3D84359
:108FA000C0B210BD2DE9F14F00265B4F82B0594889
:108FB0003E614FF00108354634463865DFF85CB154
:108FC0004FF40050CBF8100055A002F043FBDFF83F
:108FD00060A1B946D9F80C00002860D00020C9F87B
:108FE00010009AF80270F81CC1B25148FFF7CCFF8C
:108FF0009AF8011000910AEB0701C97881422CD13F
:109000000098844229D10298002630B139460AF1ED
:10901000030002F0F5FA00F0FF08B8F1000F10D0DD
:10902000641CE4B21E20B4FBF0F100FB11403D448F
:10903000002831D1DBF80C1081F40051CBF80C1072
:109040002AE04FF40050CBF814003AA002F002FBE3
:1090500003213DA003F09CF91EE0761CF6B20F2E12
:1090600004D94FF40050CBF8140043E0082237A194
:109070002F48FFF78FF8F0B1082237A12C48FFF7EF
:1090800089F800283BD0082136A003F081F9224658
:1090900037A0009902F0DEFA0020C9F80C00D9F8D8
:1090A0001000B0F5FA7F95D937A002F0D3FA00206E
:1090B000C9F81000D5E7D9F84C00A842ECD11C49FA
:1090C000AA208831087048708870C87008711848E4
:1090D0000821883003F05CF919210120FFF7F6F828
:1090E00029462DA0D9F8502002F0B4FA4FF40050D0
:1090F000CBF81000BDE8FE4F2FA002F0ABBA002461
:109100002546082117A003F043F92EA002F0A2FA89
:10911000C2E700000CA00008000000200010014081
:109120004941505F72756E5F666C617368210A0019
:109130007002002077726974655F666C6173685FA6
:10914000657272210A000000A0A0A00049415045AC
:109150004E444F4B00000000494150464C4153489B
:1091600000000000536574206F6B210A00000000AE
:109170006F6C645F69643A2564206F722073756D4B
:1091800069643A2564210A00657869745F74696DC1
:109190006F75740A00000000CEC4BCFEBDD3CAD5F2
:1091A000CDEAB1CF73697A653A25642C666C617338
:1091B000683A253038780A006961702D6F766572DB
:1091C0000A000000C3FCC1EECDB7D6D8B8B4C8B70A
:1091D000B6A80A0010B5134C2068017A022904D001
:1091E000042902D0062905D015E0FFF7CBFA206844
:1091F000007A11E04178052909D10178490606D1A4
:10920000C07801F029FB08480068006A80470748D9
:10921000006880688047082021680872BDE8104017
:1092200000F064B9840000208C0000208800002039
:1092300008B50121042000F0A9F94FF48070ADF8C1
:10924000000003208DF8020048208DF803006946D5
:109250000148FFF7E3FD08BD0008014038B50121D2
:10926000102000F093F94FF46040ADF800000320A7
:109270008DF802001020074C8DF803006946204647
:10928000FFF7CCFD60142061400060614000206168
:1092900038BD0000001001400448817A044809B13B
:1092A000052100E00121016070470000D01300207B
:1092B00088010020704708B54FF4A06000F054F812
:1092C00025208DF8000001208DF8010003218DF884
:1092D00002108DF80300684600F014F827208DF87E
:1092E000000002208DF80100684600F00BF81C20F9
:1092F0008DF8000004208DF80100684600F002F8A7
:1093000008BD000030B50F23C27801780125F2B105
:10931000144A126801F1E02102F4E062C2F5E06251
:10932000120AC2F10404D3404278A24084781C405F
:109330001443220181F80024007800F01F018D40C1
:109340004009800000F1E020C0F8005130BD01F07C
:109350001F0085404809800000F1E020C0F88051DE
:1093600030BD00000CED00E00249084302490860EE
:10937000704700000000FA050CED00E070B52F4DBD
:10938000296808784C78420606D000F07F00012852
:1093900028D002282BD035E0092C06D0052C07D088
:1093A000032C0ED0012C14D02CE001F0F3FC28E0AB
:1093B000C8787F282ED8887860BB888850BB887A88
:1093C00027E0C87801281DD18888D8B901F0FEFCB3
:1093D00017E0C878012815D1888898B9487A80069E
:1093E0000AD40FE00B2C0DD101F046FD09E0012C51
:1093F00002D0032C03D005E001F0CEFB01E001F028
:10940000F7FC58B10E492046096849698847032886
:1094100002D018B108200DE009200BE0094A06200F
:1094200000211268084B120403EBD2325160074A44
:10943000302111802968087270BD0000840000206E
:1094400088000020505C0040006000409400002034
:1094500030B50A4A00240123546013709460084A0E
:109460004FF6FF7108440514146003E0200400F077
:1094700069F9641CAC42F9D3012030BDC01300204F
:109480006400002010B50F4C2068007A022811D02B
:1094900004280FD0032804D0052802D0072805D0BF
:1094A00008E0FFF7C9F92068007A04E00648006880
:1094B000C0688047082021680872BDE8104000F0AD
:1094C00015B800008400002088000020064B521CC4
:1094D000520803EB410105D031F8043B20F8023B70
:1094E000521EF9D170470000006000400C4810B5D2
:1094F00090F82C10002001F0E3F90A480068007A87
:10950000082802D0092809D006E007494FF4805006
:109510000880064910200880002010BD012010BDE1
:1095200014010020840000209200002094000020FC
:1095300010B5012001F060FF064801210160002103
:10954000054A0160031D19604FF4E051118001606C
:10955000002010BD405C004090000020044A00291B
:10956000D16901D0014300E08143D161704700001F
:1095700000100240044A0029116901D0014300E0B3
:10958000814311617047000000100240044A002925
:10959000916901D0014300E081439161704700006F
:1095A00000100240044A0029D16801D0014300E0C4
:1095B0008143D160704700000010024030B5204A5E
:1095C0005168204B11F00C0103D0042901D0082967
:1095D00001D0036012E05168536801F470114FF03C
:1095E000020413F4803F04EB914102D053689B03C3
:1095F00001D5154B00E0134B5943016051680F230F
:1096000003EA1111114B5C5C0168E1404160546850
:10961000072505EA14241C5D21FA04F484605468CB
:1096200005EAD4241B5DD940C1605268032303EAD4
:109630009232064B1B1F9A5CB1FBF2F1016130BD07
:109640000010024000127A0000093D006C0000206A
:109650000149C1F8D80070470000424270B5054C7E
:109660000D468AB2A16800F08BF8A0682844A0607B
:10967000284670BDC013002070B51C4C072800D0D0
:109680002070207806250426194906282CD2DFE808
:1096900000F00306090E162000F02CF824E000F07C
:1096A00029F80AE0022060700320207070BD607805
:1096B000401E607060780028F8D1267070BD086880
:1096C00080B240F010000860052020700A20607011
:1096D00070BD6078401E607060780028F8D108681E
:1096E00080B220F010000860257070BD8D01002050
:1096F000405C004010B5064C206880B220F00400A9
:109700002060FFF7C9FD4FF43F40206010BD00000E
:10971000405C00400029018802D041F0400101E096
:1097200021F0400101807047054800B51022026019
:10973000062000F0EBF80248001F026000BD0000A8
:109740001408014000B50346FFF7EEFF0B48102256
:109750000260D82000F0DAF8C3F3074000F0D6F832
:10976000C3F3072000F0D2F8D8B200F0CFF80348D6
:10977000001F02605DF804EB00F052B814080140CD
:1097800070B505460E4810240B4604600B2000F00F
:10979000BDF8C3F3074000F0B9F8C3F3072000F0A9
:1097A000B5F8D8B200F0B2F8FF2000F0AFF81146DB
:1097B000284601F0DFF90248001F046070BD000078
:1097C0001408014070B505460C4810240B4604608F
:1097D000032000F09BF8C3F3074000F097F8C3F3B1
:1097E000072000F093F8D8B200F090F81146284610
:1097F00001F0C0F90148001F046070BD1408014069
:10980000064800B510220260052000F07FF8FF2016
:1098100000F07CF80149091F0A6000BD14080140EE
:1098200000B5FFF7EDFFC007FBD100BD2DE9F0410A
:109830000746C8B2C0F580740E461546A24200D84D
:1098400014464FF4807822463146384600F00EF830
:10985000A54208D0281B2744264485B24446A54289
:10986000F1D82C46EFE7BDE8F081000070B5144652
:109870000B460546FFF758FF1448102606600220E5
:1098800000F044F8C3F3074000F040F8C3F30720AA
:1098900000F03CF8D8B200F039F800210C4B06E09B
:1098A000685C988118898007FCD59889491CA14279
:1098B000F6D300E09889188910F0810FFAD1034897
:1098C000001F0660BDE87040FFF7AABF1408014002
:1098D0000030014030B502884C8802F441530A88B8
:1098E000CD8822438C882C4322430C8922434C8907
:1098F00022438C892243CC8922431A430280828BE3
:1099000022F400628283098A018230BD0349888182
:109910000889C007FCD08889C0B270470030014078
:109920007CB5002064250190009000F05DF8694648
:10993000002000F0FFF8009918B11DA001F08AFE88
:109940002AE01E4841601EA001F084FE1E21002076
:1099500000F0F2FC00BB0021082000F0EDFCD8B9BB
:109960004FF0A041042000F0E7FCA8B900244FF01C
:10997000204601A9042000F0DDF868B9019836EA14
:10998000000002D0641CAC42F3D3AC4204D01149B5
:10999000042000F0D1FC08B101207CBD002108208A
:1099A00000F0CAFC0CA001F055FE00207CBD0000B8
:1099B0006572723A307825580D0A00009001002037
:1099C00044505F4944434F44453A307825580D0A86
:1099D00000000000000F0050436F6E6E65637465F9
:1099E00064206F6B210A00002DE9F843214D4FF4EC
:1099F0008048C5F80080204F00212E1D3A686C1465
:109A0000346010460092401E0090FCD12C6010463D
:109A10000092401E0090FCD1491C3829F0D34EF230
:109A20009E7000F0EFF83868002234600146009024
:109A3000491E0091FCD12C6001460090491E009106
:109A4000FCD1521C382AF0D3C6F8008000223460C2
:109A500001460090491E0091FCD12C600146009007
:109A6000491E0091FCD1521C102AF0D30020BDE801
:109A7000F8830000100C01409C010020F8B50D4651
:109A8000074692B196081649002000F0D3FB044621
:109A90003946042000F0CEFB204410F0FF041AD019
:109AA00010A001F0D7FD2046F8BD0120F8BD0F2021
:109AB000694600F06FF9012801D010A006E00E20E1
:109AC000294600F067F9012803D012A001F0C2FD79
:109AD000EBE7641C2D1DB442E9D30020F8BD000063
:109AE00052000023535744207772697465617020D7
:109AF0006661696C65640D0A0000000053574420DC
:109B000064756D6D792072656164206661696C654C
:109B1000640D0A0053574420726561642064705FCD
:109B2000726561645F62756666206661696C656412
:109B30000D0A000000B500F00C00801C00F02AF9AE
:109B4000012801D0012000BD002000BD10B50C4649
:109B50000146042000F06EFB0F20214600F01AF9A8
:109B60000E20214600F016F9012801D0012010BD79
:109B7000002010BD70B50D4606460549002000F0D6
:109B800059FB044629463046FFF7E0FF204370BDED
:109B90005200002338B50D4604460749002000F066
:109BA00049FB69462046FFF7D1FFA107009AC90E7D
:109BB000CA402A7038BD00005000002338B50F4B52
:109BC0004FF48040186000211D1D44100C480268AD
:109BD0002C6010460092401E0090FCD11C60104684
:109BE0000092401E0090FCD1491C3829F0D34EF25F
:109BF0003C7000F007F8002038BD0000100C014058
:109C00009C010020F8B510490E4D00224FF480440D
:109C10002E1F0B686710C10701D0346000E02C6074
:109C20002F6019460093491E0091FCD137601946F8
:109C30000093491E0091FCD1521C4008D2B2102A58
:109C4000E9D3F8BD140C01409C0100202DE9F84334
:109C500000210446009101F067FF464DDFF81881AE
:109C6000444EE435A8F10101082C76D2DFE804F077
:109C700004110775565B567100F0FCFC77E03F4914
:109C8000304600F079FB002871D13DA001F0E2FCE4
:109C90006DE03E4F3E4C387828B12078022802D142
:109CA000002002F08BFB2078042801D000F0E2FCB9
:109CB0002820FEF75BFD387828B12078022802D1F1
:109CC000012002F07BFB2820FEF750FDFFF728FE65
:109CD000F0BB41462F46284600F04EFBC0BB254D49
:109CE0000121F035284600F047FB88BB2349304668
:109CF000C91E00F041FB58BB2078042801D000F0B9
:109D00008DFC3C4669462046FFF734FF00BB6420CB
:109D1000FEF72CFD00988003F4D50021284600F0C2
:109D20002BFBA8B923E0FFF75FFE88B91E210020B6
:109D300000F002FB60B90021082000F0FDFA38B9FC
:109D40004FF0A041042000F0F7FA08B94146E5E7DA
:109D500003E0284600F010FB10B10120BDE8F883B5
:109D600000F088FC0420FEF787FE00F057FC00207E
:109D7000F4E700000CED00E001005FA00700FA0529
:109D80004D4355205245534554210A00A00100205F
:109D90003803002030B50C4605462146284600F021
:109DA00003F80228F9D030BD2DE9F84F00228E4685
:109DB00090464FF48043FE4D2B6005F1040C5E107D
:109DC000CCF80060FB4F396800910C46641E00948B
:109DD000FCD12E600C460091641E0094FCD100F072
:109DE0000107FC0701D02B6001E0CCF80030CCF873
:109DF00000600C460091641E0094FCD12E600C465D
:109E00000091641E0094FCD14744C0F340045FEA13
:109E1000C47801D02B6001E0CCF80030CCF80060B1
:109E200088460091B8F10108CDF80080FAD12E6083
:109E300088460091B8F10108CDF80080FAD1274496
:109E400084085FEAC47801D02B6001E0CCF80030D0
:109E5000CCF8006088460091B8F10108CDF8008088
:109E6000FAD12E6088460091B8F10108CDF8008043
:109E7000FAD12744C4085FEAC47801D02B6001E01E
:109E8000CCF80030CCF8006088460091B8F10108A9
:109E9000CDF80080FAD12E6088460091B8F1010813
:109EA000CDF80080FAD13C44E40701D02B6001E0FA
:109EB000CCF80030CCF800600C460091641E009491
:109EC000FCD12E600C460091641E0094FCD1CCF8AD
:109ED0000030CCF800600C460091641E0094FCD168
:109EE0002E600C460091641E0094FCD12B60CCF8CF
:109EF00000600C460091641E0094FCD12E600C465C
:109F00000091641E0094FCD1DFF8A4A2AAF10C0A0F
:109F1000DAF8008028F07068CAF80080DAF800806B
:109F200048F00068CAF8008099462B604FF0800B1B
:109F3000CCF800B00123CCF800600C460091641E00
:109F40000094FCD12E600C460091641E0094FCD15C
:109F50005B1EF0D1964D2D1D2E600C460091641EA7
:109F60000094FCD1DFF848C2ACF1080CDCF80040EA
:109F70008F4FC4F300383E600C460091641E00947D
:109F8000FCD108FA03F85B1C48EA0202032BE1D378
:109F9000012A38D0022A7DD0042AFCD022202E604B
:109FA0000B4600915B1E0093FCD13E600B46009176
:109FB0005B1E0093FCD1401EF1D1DAF8004024F082
:109FC0007064CAF80040DAF8004044F04074CAF8FF
:109FD00000404C46C5F80090C7F800B0C7F80090A4
:109FE0002C602E600B4600915B1E0093FCD13E60FE
:109FF0000B4600915B1E0093FCD1401C0828EFD358
:10A00000D0B2BDE8F88F80075FD54FF00008444616
:10A0100020236748001D066008460091401E0090FE
:10A02000FCD1DCF800003E60C0F30035084600912A
:10A03000401E0090FCD14FEA58002C4440EAC578FD
:10A040005B1EE6D15A4D33462D1D2E60DFF864C1EC
:10A0500008460091401E0090FCD155480838006821
:10A06000534FC0F300303B600091491E0091FCD17A
:10A070004440E00700D00822BEF1000F01D0CEF826
:10A080000080DCF8004001212B6020460094401E37
:10A09000009000E09BE0FAD13B6020460094401E17
:10A0A0000090FCD1491EEFD1DAF8001021F0706168
:10A0B000CAF80010DAF8001041F04071CAF8001038
:10A0C000C5F80090C7F800B052E001232E600846A2
:10A0D0000091401E0090FCD13E6008460091401E59
:10A0E0000090FCD15B1EF1D1DAF8003023F07063F0
:10A0F000CAF80030DAF8003043F04073CAF8003094
:10A10000C5F80090C7F800B0A846DEF800004FF090
:10A11000000C20243546C3074B4601D03B6001E0CC
:10A12000C8F80030C8F800500B4600915B1E009341
:10A13000FCD13D600B4600915B1E0093FCD1844432
:10A140004008641EE7D15FEACC70484601D0386011
:10A1500001E0C8F80000C8F8005008460091401E11
:10A160000090FCD13D6008460091401E0090FCD15B
:10A17000DAF8001021F07061CAF80010DAF8001067
:10A1800041F04071CAF80010094D4C462D1DC5F82C
:10A1900000902F1FC7F800B0C7F8009005480021B5
:10A1A00003682C602E6018460093401E009003E068
:10A1B000100C01409C010020F7D13E60184600932E
:10A1C000401E0090FCD1491C0829EAD318E7012061
:10A1D0002E600B4600915B1E0093FCD13E600B4647
:10A1E00000915B1E0093FCD1401EF1D1DAF80040D3
:10A1F00024F07064CAF80040DAF8004044F040747B
:10A20000CAF800404C46C5F80090C7F800B0C7F83F
:10A2100000902C602E600B4600915B1E0093FCD1D9
:10A220003E600B4600915B1E0093FCD1401C082849
:10A23000EFD3E5E613B5044600F07F4100F0F000EF
:10A240000143082000F078F858B904F00C0001A987
:10A25000401CFFF79FFD0E200021FFF79BFD01280A
:10A2600001D001201CBD00201CBD00002DE9F041E3
:10A270000D46074662B1960813490020FFF7DAFF42
:10A28000040007D011A001F0E5F92046BDE8F081F7
:10A290000020FBE739460420FFF7CCFF0028F5D16A
:10A2A0000D27002409E029463846FFF773FD0128F1
:10A2B00001D00120EAE7641C2D1DB442F3D30E2027
:10A2C0000021FFF767FDE3E75200002341505F43A1
:10A2D00053572C204353575F56414C5545207C2003
:10A2E0004353575F53495A453332206661696C6561
:10A2F000640D0A0073B50646002464250D480199D3
:10A3000000F03AF8A0B90B4846F48031001F00F085
:10A3100033F868B9074E083E01A93046FFF72AFC1A
:10A320000198C00301D500207CBD641CAC42F3DB66
:10A3300001207CBDF8ED00E003B500F00C0001A9A0
:10A34000FFF728FD012801D001200CBD00200CBD25
:10A3500003B501460420FFF76DFF0D2001A9FFF7AB
:10A3600019FD0E200021FFF715FD012801D0012065
:10A370000CBD00200CBD000070B50C46054605491B
:10A380000020FFF757FF21462846BDE87040FFF741
:10A39000DFBF00005200002370B50D460446064999
:10A3A0000020FFF747FFA007C00E05FA00F1204686
:10A3B000BDE87040FFF7CCBF500000232DE9F0430B
:10A3C00093B00F46DDE91A8904461E46154644211E
:10A3D0006846FDF7C0FE8DE8600360680990A068DC
:10A3E0000D902068CDE90E074FF080701090684600
:10A3F00000F090F8E8BB224F204D3868FEF74AFB8A
:10A400000020204E0446386011A930463C60FFF71A
:10A41000B1FB20B121461CA001F01CF912E01198FB
:10A42000800309D5174800216F460C466425001D9E
:10A43000FFF7A2FFE8B909E0C820FEF72BFB641C78
:10A44000AC42E1D30F2013B0BDE8F083394630466B
:10A45000FFF790FB68B93868C00302D4641CAC42B3
:10A46000F4DBAC4205D0074839460830FFF782FBE1
:10A4700008B10120E7E70098C0B2E4E740420F00CE
:10A4800090010020F0ED00E0692D2D3E25640A00CA
:10A490002DE9F04114460F46054606E039462846A8
:10A4A000FFF778FB641E6D1C7F1C2CB3A807F5D149
:10A4B00016E0C5F30900C0F58066B44201D224F06D
:10A4C0000306324639462846FFF7D8FA28B10BA0D2
:10A4D00001F0C0F80120BDE8F08135443744A41BE9
:10A4E000032CE6D806E039462846FFF753FB641EE6
:10A4F0006D1C7F1C002CF6D10020ECE75357442044
:10A500007265616420626C6F636B206661696C6563
:10A51000640D0A0038B5054600210820FFF70CFF3E
:10A520000024204655F82410FFF7E4FE58BB641CB5
:10A53000042CF6D30920696AFFF7DCFE18BB0D2452
:10A54000204655F82410FFF7D5FEE0B9641C102C06
:10A55000F6D31020296CFFF7CDFEA0B90C4C0B49A7
:10A560002046FFF709FF70B908492046891EFFF70A
:10A5700003FF40B969460420FFF7DCFA18B90098D8
:10A5800010F0A00000D0012038BD00000B005FA03B
:10A59000F0ED00E02DE9F04114460D46064606E0D8
:10A5A00029783046FFF7F8FE641E6D1C761C2CB32C
:10A5B000B007F5D116E0C6F30900C0F58067BC42CC
:10A5C00001D224F003073A4629463046FFF74EFEF3
:10A5D00028B10BA001F03EF80120BDE8F0813E4417
:10A5E0003D44E41B032CE6D806E029783046FFF70B
:10A5F000D3FE641E6D1C761C002CF6D10020ECE707
:10A6000053574420777269746520626C6F636B20C6
:10A610006661696C65640D0A000000000121014853
:10A62000FEF74CBC000C014038B501210820FEF7B4
:10A63000ADFF46F28100ADF8000003248DF8024022
:10A6400010200B4D8DF8030069462846FEF7E6FB07
:10A65000A914ADF800108DF8024048208DF80300D1
:10A6600069462846FEF7DAFBFFF7D8FF38BD000041
:10A67000000C014001210148FEF71EBC000C014006
:10A680002DE9F74F0546002082B00746009081462D
:10A69000804606460190144601A96748FFF76AFA0A
:10A6A0004FF4FC43191D081D021DDCB1012C04D020
:10A6B000022C17D0032C1AD021E00198C00708D033
:10A6C0004FF4206740F6042940F6082840F60C268F
:10A6D00015E04FF4853707F1040909F1040808F182
:10A6E00004060CE01F4689468046164607E04FF4F4
:10A6F000003707F1040909F1040808F10406694666
:10A700004E48FFF737FADFF830A139460AF1080A58
:10A710005046FFF731FE4FF0804B49495846FFF74E
:10A720002BFE0A20FEF722F86421022001F022FA13
:10A7300000287BD1E8073946504603D0FFF71CFEBE
:10A74000009902E0FFF718FE03993B480C30FFF731
:10A7500013FE3B495846891EFFF70EFE6421012077
:10A7600001F008FAF0BBA80705F0C00749465046BB
:10A770001FD5FFF701FE022C02D0032C04D016E0F7
:10A78000C42040EA870103E0A80610D54DF2C43189
:10A7900029480C30FFF7F0FD29495846891EFFF77C
:10A7A000EBFD6421012001F0E5F9D8B907E0C421EF
:10A7B000EEE7FFF7E1FD022C19D0032C19D0680752
:10A7C0001FD541465046FFF7D7FD1B481D490C30A9
:10A7D000FFF7D2FD1A495846891EFFF7CDFD6421C7
:10A7E000012000E022E001F0C5F9F8B909E0B90064
:10A7F000CEE7A80602D54FF45341C9E74FF6FF71E3
:10A80000C6E7280716D531465046FFF7B5FD0A487A
:10A81000B5210C30FFF7B0FD09495846891EFFF7F6
:10A82000ABFD6421012001F0A5F918B1012005B0AC
:10A83000BDE8F08F0020FAE70400004020F001405E
:10A840002301AEC5CA1CEC15024920F007000860C0
:10A8500070470000505C0040F0B50E490E4E48F6BF
:10A860008F770D78002148F2800C0BE0CAB206EB1E
:10A870008203D3F8004C3C40144344EA0C04C3F870
:10A88000004C491CA942F1D3044940F08000086003
:10A89000F0BD0000EC000020005000404C5C004087
:10A8A000054A21F00101126892B202EBC000034A8E
:10A8B00002EB400081607047505C00400060004047
:10A8C0000D4A12683E2992B202EBC0000B4A02EB1D
:10A8D000400209D94809C90601D1401E80B24FF48F
:10A8E000004141EA802004E04808C90700D0401C2C
:10A8F0008002106070470000505C00400C60004017
:10A9000082000A480244D2F8000C4BF68F731840BC
:10A91000CB0401D580F48050890401D580F4005027
:10A9200048F280010843C2F8000C70470050004014
:10A93000810007480844D0F8001C4BF68F72114084
:10A9400081F4405148F280021143C0F8001C704766
:10A9500000500040054A21F00101126892B202EB5A
:10A96000C000034A42F8101070470000505C0040DD
:10A9700000600040044A126892B202EBC000034A31
:10A9800002EB400041607047505C004000600040B6
:10A9900082000A480244D2F8000C48F6BF731840FF
:10A9A000CB0601D580F01000890601D580F020008B
:10A9B00048F280010843C2F8000C70470050004084
:10A9C000810007480844D0F8001C48F6BF721140C7
:10A9D00081F0300148F280021143C0F8001C70473A
:10A9E00000500040820005481044D0F8002C48F682
:10A9F0008F131A400A43C0F8002C704700500040E3
:10AA00000CB50022264800920192016841F4803181
:10AA100001604FF4A063016801F4003101910099D5
:10AA2000491C0091019911B900999942F3D101682B
:10AA3000890333D5012101911A490A6842F01002B5
:10AA40000A600A6822F003020A600A6842F0020201
:10AA50000A604168416041684160416841F4806139
:10AA60004160416821F47C114160416841F4E81182
:10AA70004160016841F08071016001688901FCD585
:10AA8000416821F003014160416841F002014160E9
:10AA90004168C1F381010229FAD10CBD01920CBDBC
:10AAA00000100240002002401FB500910021ADF8C7
:10AAB0000410ADF80610ADF80810ADF80C100C211C
:10AAC000ADF80A10012808D0022809D0032803D1C4
:10AAD0006946054800F036FC1FBD69460348F9E7A2
:10AAE00069460348F6E7000000480040003801408E
:10AAF0000044004010B50020FEF7AAFD0121C80562
:10AB0000FEF72CFDBDE81040FEF772B970B516488F
:10AB10000068174D0004C10B14480144098989B22B
:10AB200000EB41042868017A09290FD021780170CF
:10AB300061784170A088FDF71BFC29684880208956
:10AB4000FDF716FC29688880A089C8802868012143
:10AB50000172C08828B1FDF7C1FEBDE87040FEF764
:10AB6000C5BCFEF70BFCF8E7505C004000600040FD
:10AB70008400002030B50022064BFF2506E09D81B1
:10AB80001C89E407FCD09C898454521C8A42F6D369
:10AB9000012030BD003001402DE9F0413848006807
:10ABA000017811F07F0102D0022905D066E0417AD8
:10ABB00001F0DF0141724EE0418800295ED1017948
:10ABC000F1BB4179304D21F080040A0605EB840287
:10ABD0002C4BD2F8002C03D5C2F30112120102E073
:10ABE000C2F3013212031E782346A64246D93AB375
:10ABF000807A28B308064FEA84000ED52844D0F89E
:10AC0000000CC0F30110012821D11846FDF776FC95
:10AC100020463021FFF7BCFE19E04619D6F8000C9B
:10AC2000C0F30130012812D14BF68F7748F280082B
:10AC3000A4B11846FDF74EFCD6F8000C384000E0F1
:10AC40001CE080F4405040EA0800C6F8000C0F48B1
:10AC50000068406980470020BDE8F0810C4890F80A
:10AC60002C100020FFF72CFED5F8000C384080F4A3
:10AC7000405040EA0800C5F8000CE8E70220EBE786
:10AC800084000020EC000020005000408C000020D8
:10AC90001401002010B5074C30B107480068006867
:10ACA000804720680A3010BD2168012008820020FA
:10ACB00010BD0000840000208C000020054A1368AD
:10ACC0005A8A10B10868104470478888801A188220
:10ACD000002070478400002010B5074C30B10748B1
:10ACE00000688068804720680C3010BD2168012012
:10ACF0000882002010BD0000840000208C0000208D
:10AD0000204910B5096860B11F48002202800A7806
:10AD100053060AD002F07F02012A16D0022A16D06A
:10AD200001E002200882002010BD497A8A060278DC
:10AD300002D542F0020201E002F0FD024906027073
:10AD4000D1B211D401F0FE0110E00F4810BD4979D5
:10AD50000A070B060D4901EB9261D1F8001C07D5DB
:10AD6000C1F3011106E0017841F00101017003E037
:10AD7000C1F301310129F6D0054800680069804718
:10AD8000E3E70000840000207E0000200050004027
:10AD90008C0000200A4810B500680A4AC178527831
:10ADA000914203D882780AB982880AB1022010BD84
:10ADB00081720548006840688047002010BD00008F
:10ADC00084000020EC0000208C000020064810B514
:10ADD0000068417A41F02001417204480068C0696E
:10ADE0008047002010BD0000840000208C0000205F
:10ADF00070B51D481D4D0268517921F0800005EBAA
:10AE000080000B06D0F8003C21F0800403D5C3F38A
:10AE100001131B0102E0C3F301331B03144D2D7812
:10AE2000A54210D9548874B96BB1927A5AB1090607
:10AE3000D0F8001C48F2800207D548F6BF731940CD
:10AE400081F0100106E0022070BD4BF68F731940AF
:10AE500081F480511143C0F8001C064800688069E5
:10AE60008047002070BD000084000020005000409A
:10AE7000EC0000208C00002010B50E4C0E4A20681B
:10AE80001268C17892694079904721688A7A22B124
:10AE900018B9087908B9887808B1022010BD0748A8
:10AEA0000068C068804720684179C172C178017329
:10AEB000002010BD84000020880000208C000020AD
:10AEC0000648016889B241F008010160016889B251
:10AED00041F004010160FDF737BE0000405C004016
:10AEE00070B53B4C606C012802D1206C401C206482
:10AEF0002069401C2061A079401CC0B2A07161692A
:10AF0000491C6161334B4FF480455E14FA283DD3F0
:10AF10000020A071A06920B1D86880F40050D860EA
:10AF20005D61206A20B1D86880F40050D8605D610E
:10AF3000606A18B1D86880F40050D860E06918B130
:10AF4000D86880F48040D860A06A70B1D96881F474
:10AF50000051D960E16919B9D96881F48041D9609B
:10AF6000401EA06201D15D611E61E06A70B1D968C6
:10AF700081F40051D960D96881F40041D960401E44
:10AF8000E06203D14FF4004018611E61606B20B194
:10AF9000401E606301D101202081608958B1608921
:10AFA000401E0004000C608105D100210846FDF719
:10AFB0008DF91E615D6120693221B0FBF1F201FB68
:10AFC0001200002803D1BDE87040FDF7B3BF70BD8B
:10AFD00000000020001001400F4810B5016841F04A
:10AFE0000101016041680D4A1140416001680C4A4D
:10AFF00011400160016821F480210160416821F461
:10B00000FE0141604FF41F018160FFF7F9FC064922
:10B010000448086010BD0000001002400000FFF866
:10B02000FFFFF6FE0080000808ED00E04FF08040D2
:10B03000018AC90706D0018A21F00101018200209E
:10B0400000F001B870474FF0804128B1002088849B
:10B05000088840F0010002E0088820F00100088024
:10B060007047000010B50C4C0121204600F04FF84D
:10B0700000280FD00121204600F03CF8064840F29D
:10B08000E7312C30018005484178002902D0C16B9E
:10B09000491CC16310BD00000008004000000020F2
:10B0A0007FB50D46044601210420FEF757FAADF89E
:10B0B00004400020ADF800500D4CADF80600ADF88E
:10B0C00002006946204600F077F80122114620462A
:10B0D00000F029F81E208DF80C0001208DF80D00DD
:10B0E0008DF80E008DF80F0003A8FEF70BF97FBD59
:10B0F00000080040C943018270470029018802D03E
:10B1000041F0010101E021F0010101807047024698
:10B110000020138A92890B4202EA010202D0002A1F
:10B1200000D001207047002A828901D00A4300E044
:10B130008A4382817047000070B5028C22F48052ED
:10B140000284058C8288838B0C8823F4E6464FF6B4
:10B15000FF7303EA0424344325F400560D8903EAFF
:10B16000053535434E8803EA06362E43094DA8427D
:10B1700002D0094DA84205D122F480458A8903EA0C
:10B1800082122A4382808483C988A0F840100684F2
:10B1900070BD0000002C014000340140828B4FF64E
:10B1A000FF7322F4006203EA012111438183704797
:10B1B000A0F840107047000030B502881B4C1C4DB1
:10B1C000A0420DD0A8420BD0B0F1804F08D0194B4F
:10B1D000984205D0184B984202D0184B984203D1A0
:10B1E00022F070034A881A43154B984206D0154B3B
:10B1F000984203D022F44073CA881A4302808A8896
:10B2000082850A880285A0420AD0A84208D00E4A48
:10B21000904205D00D4A904202D00D4A904201D191
:10B22000097A01860121818230BD0000002C014095
:10B23000003401400004004000080040000C0040C1
:10B240000010004000140040004001400044014054
:10B250000048014010B540F22551044800F053F871
:10B26000002802D00148001D008810BD00380140B0
:10B270000029818902D041F4005101E021F40051FC
:10B2800081817047174910B588420AD101218C038A
:10B290002046FEF787F92046BDE810400021FEF762
:10B2A00081B91149884202D101214C0410E00F49B3
:10B2B000884202D101218C040AE00D49884202D162
:10B2C0000121CC0404E00B4988420AD101210C057C
:10B2D0002046FEF74FF92046BDE810400021FEF75A
:10B2E00049B910BD0038014000440040004800400A
:10B2F000004C0040005000400246002012880A42E4
:10B3000000D00120704770B501F01F050126002410
:10B31000C1F3421306FA05F2012B0FD0022B0FD016
:10B32000838A4FEA11210088134206FA01F600EAE7
:10B33000060001D000B10124204670BD8389F0E7EA
:10B34000038AEEE730B50446008A85B00D464CF618
:10B35000FF710840E98801432182A0894EF6F3116C
:10B360000840A9882A8911436A8902431143A181AF
:10B37000A08A4FF6FF410840A9890143A18268468F
:10B38000FEF71CF91948844201D1039800E00298A5
:10B39000A189090400EBC00101EB0010296801D567
:10B3A000490000E08900B0FBF1F06422B0FBF2F14B
:10B3B00009010B096FF018056B4300EB8300A389AB
:10B3C0001D044FF0320306D503EBC000B0FBF2F0D2
:10B3D00000F0070005E003EB0010B0FBF2F000F016
:10B3E0000F000843208105B030BD00000038014047
:10B3F000C1F3080181807047044A00284FF40041DE
:10B40000104601D0FDF758BDFDF758BD000C0140B6
:10B4100006490548022208600272064A0448C1E94A
:10B420000102006800470000D013002084000020C3
:10B43000140100206401002008B54FF4A060FDF75E
:10B4400093FF14208DF8000001208DF801000021E9
:10B450008DF802108DF803006846FDF753FF08BD14
:10B4600070B5294C2068294D68806888284E31883D
:10B470000840000401D5FCF781FF68883188084046
:10B48000400505D54FF6FF302060224840688047D0
:10B49000698830880140890402D54DF6FF7121602A
:10B4A00069880140C80405D54EF6FF702060002071
:10B4B000FEF7E2F868883188084000050BD5164889
:10B4C000007810B1FFF7FCFC02E00220FEF7D4F890
:10B4D0004FF2FF702060698830880140890505D5EA
:10B4E0004FF6FF5121602978491C29706988014075
:10B4F000C80507D54FF6FF602060BDE87040072003
:10B50000FEF7BAB870BD0000445C0040B0000020F7
:10B5100090000020140100208C010020FFF7A0BF44
:10B5200005490020086005494FF43F400880024962
:10B53000091F086000207047445C00409000002014
:10B54000084B10B5521C520803EB410109D010F80A
:10B55000013B521E10F8014B43EA042321F8043B3F
:10B56000F5D110BD0060004030B587B001211C202E
:10B57000FEF70CF801210803FEF708F8E020ADF80B
:10B58000140003208DF8160018201B4D8DF81700AD
:10B5900005A92846FDF742FC1024ADF814408DF8AB
:10B5A000174005A92846FDF739FC13481030046000
:10B5B0000020ADF80000ADF804004FF48271ADF842
:10B5C00002100221ADF806100121ADF80C00ADF813
:10B5D0000810ADF80E0049020720084CADF80A101B
:10B5E000ADF8100069462046FEF774F901212046A7
:10B5F000FEF790F807B030BD000801400030014070
:10B600002DE9F041124C0F4604F580588AB20646E7
:10B610000025D8F80410FEF709F9BAB22046D8F888
:10B620000410FEF7CFF809E014F8010B16F8011B1F
:10B63000884202D00020BDE8F0816D1CBD42F3DBE2
:10B64000D8F8041038463944C8F80410F3E700006D
:10B65000C00300200FB4054B10B503A9044A02989B
:10B6600000F02CF810BC5DF814FB0000BDBB000816
:10B670006C0200200FB4084B10B504A902AA03986D
:10B6800000F01CF8044602A9002000F048FA204609
:10B6900010BC5DF814FB00001FBB000802E008C8E6
:10B6A000121F08C1002AFAD170477047002001E03C
:10B6B00001C1121F002AFBD1704700002DE9FF4F86
:10B6C0008DB00F460546002606E025280BD0DDE9A3
:10B6D0000F1290476D1C761C28780028F5D111B008
:10B6E0003046BDE8F08F0024A246A1460122EC4975
:10B6F00000E0044315F8013F203B02FA03F0084242
:10B70000F7D128782A2810D06FF02F022878A0F1DE
:10B710003001092914D80AEB8A0102EB410144F0F7
:10B72000020400EB010A6D1CF0E701CF5FEA000A9A
:10B7300003D544F40054CAF1000A44F002046D1C1D
:10B7400028782E2817D115F8010F44F004042A2870
:10B750000ED06FF02F022878A0F1300109290AD805
:10B7600009EB890102EB410100EB01096D1CF2E7D5
:10B7700057F8049B6D1C28786C280FD006DC4C28E9
:10B7800017D068280DD06A2814D104E0742810D08E
:10B790007A280FD10DE044F400140AE044F4801438
:10B7A00001E044F440146978814202D104F5801428
:10B7B0006D1C6D1C2A786E2A1FD00CDC632A31D0D8
:10B7C00004DC002A8BD0582A11D1A3E0642A68D067
:10B7D000692A0CD165E0732A2ED004DC6F2A73D05D
:10B7E000702A04D19BE0752A6FD0782A6ED010465B
:10B7F000DDE90F129047761C50E1C4F30250022895
:10B8000006D0032809D0042801CF09D0066045E1FD
:10B8100001CFF117C0E9006140E101CF06803DE1B1
:10B8200006703BE117F8040B8DF8000000208DF83E
:10B830000100EB46012003E057F804BB4FF0FF3056
:10B8400061074FF0000102D40DE008F101018846C4
:10B8500049450FDA8045F8DB1BF808100029F4D1C0
:10B8600008E008F1010188468142FADB1BF8081064
:10B870000029F6D1DDE90F23AAEB08008146214615
:10B8800000F036F9304400EB080604E0DDE90F1261
:10B890001BF8010B9047B8F10108F7D22146484642
:10B8A000F7E00A21C4F302534FF0000B0891022B7A
:10B8B00004D001CFC117032B09D00AE0FF1D27F0E8
:10B8C0000707F7E8020108E032E01FE020E000B2DD
:10B8D000C117042B01D140B2C117031E71F100033F
:10B8E00007DA4FF0000CD0EB0C006CEB01012D23BC
:10B8F00002E0230504D52B238DF82430012303E037
:10B90000E30701D02023F7E7984658E00A2110E02A
:10B9100010210EE010204FF0000B08900CE01021D9
:10B920004FF0000B44F004044FF00809089103E0C5
:10B9300008214FF0000B0891C4F30253022B04D0EE
:10B9400001CF0021032B06D006E0FF1D27F00707DB
:10B95000F7E8020103E080B2042B00D1C0B24FF03F
:10B96000000823072BD5702A07D0DDF820C08CF003
:10B97000100C5CEA0B0C05D00EE040238DF824304F
:10B98000012308E050EA010306D030238DF824306B
:10B990008DF8252002239846DDF820C08CF0080C95
:10B9A0005CEA0B0C0BD150EA010301D1630706D509
:10B9B00030238DF824304FF00108A9F10109582AED
:10B9C00004D038A20B9208AA0A920BE03AA2F9E737
:10B9D0005B46089AFCF7EDFB0B9B9B5C0A9A521E98
:10B9E0000A92137050EA0102F2D10A98ADEB0000FE
:10B9F00000F1200B600702D524F4803401E04FF001
:10BA00000109D94502DDA9EB0B0000E0002000EBA5
:10BA10000B0141440890AAEB010AE00306D4DDE9DA
:10BA20000F232146504600F063F806444FF000090A
:10BA300008E009A911F80900DDE90F12904709F1A2
:10BA40000109761CC145F4DBE0030CD5DDE90F23C9
:10BA50002146504600F04CF8064404E0DDE90F12A0
:10BA600030209047761C0899481E08900029F5DC84
:10BA700008E00A980A990078491C0A91DDE90F123A
:10BA80009047761CBBF10001ABF1010BF1DC2146C4
:10BA90005046DDE90F2300F019F806446D1C1BE643
:10BAA0000928010030313233343536373839616294
:10BAB0006364656600000000303132333435363758
:10BAC0003839414243444546000000002DE9F04129
:10BAD000044600251E461746880404D405E039466E
:10BAE0002020B0476D1C641EF9D52846BDE8F081C2
:10BAF0002DE9F041044600251E469046C80301D5B5
:10BB0000302700E02027880404D505E04146384668
:10BB1000B0476D1C641EF9D52846BDE8F0810A685F
:10BB2000531C0B60107070470849094A086890421E
:10BB300001D3012008E0074A0244B2FBF0F00228DA
:10BB4000F7D90322B0FBF2F048607047980100205B
:10BB500080A81201FF502502242804D2034951F87D
:10BB60002000002800D102A07047000040E9000832
:10BB700000000000F8B504460E4E002000900E4F65
:10BB80000D46306169463846FDF7F4FF00982042C3
:10BB900005D021463846FEF7EFFB0020F8BD012016
:10BBA000FCF76AFF3069401C3061A842EAD30120EB
:10BBB000F8BD0000A00100200400004070B5074D52
:10BBC0000446C1B22846FFF713FC40212846FFF780
:10BBD00093FB0028F9D0204670BD000000440040CF
:10BBE00010B50C460A469821FFF7AAFC2146012011
:10BBF000FEF7C0FEBDE810400120FEF7E1BE0000E8
:10BC000086B0002603960496FDF755FB4FF4E1300D
:10BC100002F044FBFE4D0A20E862FDF709FBFDF748
:10BC20001DFBFCF75FFBFFF79FFCFEF763FFFFF7D1
:10BC300003FCFFF7EDFB41F61F4140F2E730FFF751
:10BC40002FFA38220021F348FDF79AFDF2A1F4A063
:10BC5000FFF700FDEF4CE06800902278F1A06368E8
:10BC60002169FFF7F7FCE078DFF8ECA340074FF419
:10BC7000804112D5DAF8002022F07062CAF8002064
:10BC8000DAF8002042F00062CAF80020F2480C30D6
:10BC900001608022001D026001608B460846EF496A
:10BCA0004861FCF7C9FFDA4808215430FDF70EF867
:10BCB000D84CFF20483404F8310FD5485430D0E92F
:10BCC0000021E7A0FFF7C6FC01216170E6A0FFF7A5
:10BCD000C1FC00F093FB4FF0E02103200861FEF768
:10BCE000A3FCA846D8F80C00002842D00025C8F8CC
:10BCF0000C50C8480822DFA1C838FCF73EFA0028DB
:10BD000038D0C4480822DEA1C838FCF736FA00282B
:10BD10003CD0C0480822DDA1C838FCF72EFA002824
:10BD200037D0BC480822DCA1C838FCF726FA002826
:10BD30007DD0B8480822DBA1C838FCF71EFA0028DD
:10BD400074D0B4480822DAA1C838FCF716FA0028E3
:10BD5000CBD0B0480822D9A1C838FCF70EFA002889
:10BD60007ED0AC480822D8A1C838FCF706FA0028D3
:10BD700077D02BE2A748A8A2D6A14038FFF77AFCDB
:10BD8000A4484038FCF7F2F901461AE10921D2A093
:10BD900019E1A048C8388768D0F809100091D0F898
:10BDA0000D90DAF8001021F07061CAF80010DAF88E
:10BDB000001041F04071CAF80010A7481030C0F8D8
:10BDC00000B08023021F136043140360C2F800B068
:10BDD0000120FDF73BFF002410B14FF0004416E0B6
:10BDE0004A460495F8B20099FEF74AFCBD4D074655
:10BDF00004A92846FDF7BEFE07B12C07049810F0F1
:10BE0000FF0F04D0C1B20C432846FEF7B5FA8148B3
:10BE100005214838C0F80940083000F0B9FA02207E
:10BE2000FDF714FFFDF7CAFED0E100E0B6E0DAF856
:10BE3000001021F07061CAF80010DAF8001041F02B
:10BE40004071CAF8001084481030C0F800B0802358
:10BE5000021F136043140360C2F800B0002401E025
:10BE6000B4E063E10120FDF7F1FE40B169494FF014
:10BE700000404839C1F80900C1F812507EE003A91A
:10BE80009948FDF777FE0398C00700D00124964833
:10BE900003A92438FDF76EFE0398C10701D044F0D2
:10BEA0000204800701D544F004048F4803A9001F51
:10BEB000FDF760FE574F03A9483FC7F809400398B4
:10BEC000C7F8120089480068C7F8160086480A3784
:10BED0000C30FDF74FFE03987861834803A91030BA
:10BEE000FDF748FE0398B8617F4803A91430FDF7B9
:10BEF00041FE0398F8617C4803A91830FDF73AFE2B
:10BF000003983862784803A92038FDF733FE039878
:10BF10007862444603A946F6FC700A3FC8F84850C8
:10BF2000FDF728FE10B94FF48C70A06403A947F206
:10BF3000FC30FDF71FFE10B94FF49170A06403A907
:10BF400047F2FC50FDF716FE10B940F22710A0642E
:10BF500003A947F2FC70FDF70DFE10B94FF496707F
:10BF6000A06403A947F6FC50FDF704FE08B1A06CDD
:10BF700002E040F23B10A064C7F81A000A20FCF768
:10BF80007BFD0220FDF762FE0620FDF75FFE0A2022
:10BF9000FCF772FDFDF712FE2A2112E01D48A021D8
:10BFA00040381DA20170AA2141708170C1700171D9
:10BFB000A0F108011268C1F80D2030224A74857280
:10BFC00011461448403800F0E3F9FFE0114C4646B2
:10BFD000C83CA069C8F84C000D48216954300834A9
:10BFE000C0E900150821FCF77DFE0A48E178C17020
:10BFF00094F8281080F82810E16AC1622178017055
:10C0000094F8321080F83210394850F8211071E05D
:10C01000000000203803002056322E31300000008E
:10C0200025730A0066696C655F73697A653D2564EE
:10C030002C6D63755F747970653A25642C6D63753A
:10C040005F6964696E3A25782C6C696D696E743A23
:10C05000253032780A000000040C01400010014035
:10C0600025642D25640A00002D2D3E69735F25642B
:10C070000A0000004941502E2E5645520000000093
:10C080004941502E544553540000000057464C413E
:10C090002D4E56520000000043484B464C41534839
:10C0A000000000005357444C4F47494E0000000029
:10C0B00057522E4C4F47494E000000005741514601
:10C0C0004C41534800000000525744464C415348ED
:10C0D0000000000025730000536574206572722112
:10C0E0000A0000000400004024F0014094010020F8
:10C0F00000E3000871480160E0680090D4E9013273
:10C100006FA0F16CFFF7A6FAF06CFDF7A1F93821EA
:10C110002046FFF775FA10F0FF0657D0082174A0EB
:10C1200000F036F90120FCF73DFF4FE0734FA7F513
:10C130008071D1E90223D1E90401C7E90201C7E90D
:10C14000002397F801C0CDF814C03A787F888DE8B5
:10C150008300814614461D46614669A0FFF77AFABE
:10C16000082163A000F014F9DDF814C0BCF1000F41
:10C170002CD1002724B1012C09D0022C0FD014E0BF
:10C180005E48402229467838FDF7FAFA0DE05B490F
:10C19000402278392846FEF77BF97EB905E05749F9
:10C1A000402278392846FCF7D9FD54484021783898
:10C1B00000F0EEF8403540374F45DBD34F48394665
:10C1C0007838437802785DA0FFF744FAFCF7A6FEC2
:10C1D00000283FF487AD5FA0FFF73CFA47481030D6
:10C1E00090F83200F0B3454F383FF878400714D547
:10C1F000012088F80000DAF8001021F07061CAF818
:10C200000010DAF8001041F04071CAF800105349EC
:10C21000C1F800B08020091F08605148FB684168E0
:10C2200099422AD94BB302684EA0FFF713FAD8F807
:10C230001000C8F83000F87840077FF553AD474B41
:10C24000C3F800B0DAF8004024F07064CAF8004087
:10C25000DAF8004044F00064CAF80040181FC0F843
:10C2600000B000E005E080201860002088F80000A1
:10C2700038E53FA0FFF7EEF934E5444600250120FC
:10C28000C4E9105097F832203F49DFF8009151F887
:10C2900022200A490A6088F8010001464846C8F889
:10C2A0003C50FEF72AFF01F08DFF00214846FEF7C3
:10C2B00024FF65706564A561B9E70000980100205E
:10C2C00066696C655F73697A653D25642C6D63757D
:10C2D0005F69643A25782C6D63755F6964696E3AAD
:10C2E00025782C6C696D696E743A253032780A00B5
:10C2F000536574206F6B210A00000000700300205A
:10C300006F70743D25642C747970653A25782C61C2
:10C310006464723A3078253038782C7772645F73B1
:10C320003A3078253038782C646174613A30782559
:10C330003038782C733A253034780A0073656E648F
:10C340002D25642C2D253032782C2D253032780A7D
:10C35000000000004B4559210D0A0000140C01405B
:10C360005400002025642D25642D25640A0000005A
:10C37000CEB4D1E9D6A4CDA8B9FDA3ACB2BBC4DC80
:10C38000C9D5D0B4210D0A0000E300080008004020
:10C3900010B5084C0A46A16B0029FCD0014606489E
:10C3A000FBF7C0FE40210448FFF71AFC0020A06301
:10C3B00010BD000000000020F802002038B504463F
:10C3C00001210420FDF7E2F80421ADF8001010214E
:10C3D0008DF803100321084D8DF802106946284698
:10C3E000FCF71CFD4FF00401284614B1FCF766FD74
:10C3F00038BDFCF761FD38BD000801404FF0E0207A
:10C4000042F228314161034A0F211170002101617C
:10C410007047000023ED00E07CB500250A4C009534
:10C420000195A06A2B462A46806981682030FDF775
:10C43000C5FF08B10E207CBDA06A007F10B100F0DE
:10C440002BF8054628467CBDA00100201CB50246FD
:10C450000C48806A0168B2FBF1F301FB132109B1BA
:10C460000D201CBD00210091019180690023C1684D
:10C470002030FDF7A3FF0028F3D0014602A0FFF70C
:10C48000E9F8EDE7A001002065726173655F7072E5
:10C4900065743A25640A00001CB53348334C0078B3
:10C4A00060B101280FD0022812D0032815D004282B
:10C4B00018D02FA0FFF7CEF806201CBD2B482C303B
:10C4C000A0622FA012E029484C30A0622FA00DE0FE
:10C4D00026486C30A06230A008E024488C30A0626E
:10C4E00030A003E02148AC30A06231A0FFF7B2F8E1
:10C4F000A06A8069D0E90D21006BFEF74BF820B1EE
:10C500002EA0FFF7A7F808201CBDA06A8069416B28
:10C510002E48FBF720FEA06A2C498069426B006B15
:10C52000FDF7B6FF08B12AA008E0A06A8069D0E94B
:10C530000D212648FBF721FEA0B129A0FFF78AF8BC
:10C54000002000900190A06A00238268806950F862
:10C55000201BFDF733FF0028D6D024A0FFF77AF880
:10C560000A201CBD24A0E9E738030020A001002018
:10C57000554E6B6E6F775F747970650A000000002E
:10C5800050543332465858580A00000054617572AE
:10C59000757330310A000000505433325830303552
:10C5A0000A00000050543332583033300A00000083
:10C5B000505433325A3139320A000000696E6974BE
:10C5C0005F775F6D656D5F6572720A00C003002062
:10C5D000726561645F6D656D5F6572720A0000006F
:10C5E000646966666572656E740A0000696E6974D6
:10C5F0005F6572720A00000073616D650A000000D9
:10C600002DE9FF4715460F468046DFF88C903EE047
:10C61000D9F828004E468069C46BAC4200D92C463C
:10C62000C06A22463946FDF7B5FFD8B9B06A002284
:10C6300023468069C16ACDE9001201694246203073
:10C64000FDF7BCFEC0B915484078D8B91CE0102CE5
:10C6500001D2264600E01026324669464046FDF7E4
:10C6600017FF18B1092004B0BDE8F08732466946CB
:10C670003846FBF782FD08B10F20F4E7AD1BB0444C
:10C680003744A41B1CB1E2E7A04427442D1B002D16
:10C69000BED10020E7E70000A00100203803002001
:10C6A00038B5002469460B480094FDF763FA18B1C9
:10C6B00009A0FEF7CFFF08E000980A4DC00706D09A
:10C6C00009A0FEF7C7FF01202860012038BD2C60BB
:10C6D000002038BD24F001407377645F65727220DA
:10C6E0000A0000001C0000206572617365206E76F0
:10C6F00072200A002DE9FF5F0026FD490096019691
:10C7000002964FF400590396C1F81090FBF71AFFF8
:10C710003821F848FCF7A2FFF64FF74D01A9387809
:10C720003C696880F548FDF725FA0198DFF8D08369
:10C73000C0074FF0010A26D0F2485446C0F800A0C6
:10C740003A7897F83100F96AFDF79AFF18B1EE4987
:10C7500014200860ADE1039603A946464046FDF764
:10C7600009FA039810F07B0F05D000F07F013046E6
:10C77000FDF702FEEBE70A20FBF7F8FF6C70E3A081
:10C78000FEF768FF92E2DFF874B36878ABF1240B30
:10C7900098B3FFF785FFD9484FF48E610C38FDF749
:10C7A000EBFDD6484AF656311038FDF7E5FD42F26A
:10C7B0001070FBF7DBFFFDF701FAD748016821F0A5
:10C7C00070610160016841F040710160D2484FF42E
:10C7D0008043103003608021021F1160C0F8009078
:10C7E00013600120FDF732FAC34958461431FDF7B2
:10C7F000C1F90A20FBF7BAFF6E70F87810F0400F0D
:10C8000017D0BF484FF4FC410830FDF7B5FDC349D0
:10C810004FF08040FDF7B0FD4446B74920461C313B
:10C82000FDF7A8F9287F8007F7D50220FDF70EFA5B
:10C830003CE2B149B14814312438FDF79BF9AE49C7
:10C84000DFF8DCB218315846FDF794F9A948C078F2
:10C8500010F0100F58D1287DC00755D04FF055313A
:10C860005846FDF789FD6420FBF780FFAD49C1F80C
:10C8700000A00220FDF7EAF941F288376E6214E069
:10C880009E4801A914380196FDF774F99A499B480E
:10C89000143124386E61FDF76DF90120FCF7ECF8D6
:10C8A000686A401C6862B8427DD8287DC007E7D11D
:10C8B000FDF784F99848016821F070610160016812
:10C8C00041F04071016094494FF48040103108609C
:10C8D00080220B1F1A60C1F8009018600120FDF73C
:10C8E000B5F96420FBF742FF8349844814312438AA
:10C8F000FDF740F9804958461831FDF73BF9894862
:10C900000660287DC0074ED14FF05A315F46584629
:10C91000FDF732FD02A93846FDF72CF9DFF8D4B156
:10C920009BF8030010F0100F7ED00A20FBF71EFFCB
:10C9300072484FF48E610C38FDF71EFD6F484AF6C1
:10C9400056311038FDF718FD0120FDF77FF96420FE
:10C95000FBF70CFF6849694814312438FDF70AF9E0
:10C96000654938461831FDF705F94FF05A31384618
:10C97000FDF702FD287DC0076ED15F495F48203179
:10C98000001FFDF7F7F85E484FF4FC410830FDF753
:10C99000F3FC62494FF08040FDF7EEFC47465649F4
:10C9A00038461C3100E063E0FDF7E4F8287F80079B
:10C9B000F5D553484FF4FC410830FDF7DDFC5048F5
:10C9C000296A0C30FDF7D8FC54494FF08048891E85
:10C9D0004046FDF7D1FC484938461C31FDF7CAF8FE
:10C9E000287FC007F7D0464847F604610830FDF7B6
:10C9F000C3FC4348C4210C30FDF7BEFC4749404608
:10CA0000891EFDF7B9FC3C4938461C31FDF7B2F8E8
:10CA1000287FC007F7D039484FF48E610C38FDF7F6
:10CA2000ABFC4AF6563100E013E034481038FDF70D
:10CA3000A3FC0120FDF70AF96420FBF797FE2E49BD
:10CA40002E4814312438FDF795F8287DC00730D0E2
:10CA500002E0287DC00702D0B4F5006F29D89BF80A
:10CA60000300D846C006287D4FEAC07001D508B93A
:10CA70001FE0F0B9B34601A920480196FDF77AF806
:10CA8000FFF70AFD20B1FFF767F8014626A00EE088
:10CA90005046DFF8A0A0CAF80000FFF701FE06002C
:10CAA000A8880AD008B91020A880314622A0FEF735
:10CAB000D1FD012004B0BDE8F09FB8B998F803009B
:10CAC000C00706D0FFF7A8FC060055D001461DA000
:10CAD000EDE7A86A8768381900904BE03846FFF701
:10CAE000B5FC060042D001461BA0E0E744E0000090
:10CAF0000010014038030020A001002024F0014074
:10CB0000040000401C0000202800002065726173B2
:10CB100065206E7672200A00040C01402301AEC528
:10CB2000180C002020000020696E69743A25730AF1
:10CB3000000000001800002063686970703A2564E6
:10CB40000A00000065726173655F636869703A2569
:10CB50003032780A0000000065726173655F7365AA
:10CB600063746F723A253032780A0000A86A006850
:10CB7000074400988742B1D9CAF800B04C49A1F8DF
:10CB800004B0886A8768026839464AA0FEF762FDE9
:10CB900098F80300454600070CD514224A494B4833
:10CBA000FBF7C0FA49484AA10A6842614A688261B3
:10CBB0008968C1610020DFF828B1AA462BE000F5A2
:10CBC00080618846A14201D9251A01E04FF48065B1
:10CBD0003E4829462430FCF741FD9AF8030000073F
:10CBE00006D53A4900232A4624313848FBF75EFF30
:10CBF00036492A4624313846FFF702FD060002D0A6
:10CC0000394638A053E7DBF80C1081F40051CBF81B
:10CC10000C1040462F44A042D1D3354DDAF80C0019
:10CC2000544618B168680126401C6860A068C8B105
:10CC30006068B8B104226946FDF72AFC0098401CE0
:10CC400007D01B496068896A0968491E8843FFF755
:10CC5000FDFB042226496068FFF7D2FC2868401CCF
:10CC6000286000E01EB108212148FCF73BF894F849
:10CC70003000C10606D52278E16AFDF701FD0028E3
:10CC80007FF478ADE07880070AD54FF48E611948BB
:10CC9000FDF772FB17484AF65631001FFDF76CFB93
:10CCA00032210120FBF712FBCBF81090002001E7A6
:10CCB000A0010020616464723A253038782C2D3E42
:10CCC0007365633A25640A004C030020EC130020CE
:10CCD00051513A32383030323334383300000000AA
:10CCE000001001406572723A2530780A0000000099
:10CCF0005400002018F001402DE9FE4F0026E448C2
:10CD00000096019602960660E2494FF400500861D1
:10CD1000FBF718FC3821E048FCF7A0FCDE4FDF4DA4
:10CD200001A938783C696880DD48FCF723FF019849
:10CD3000DFF870A3DFF87083C0074FF014091ED02E
:10CD4000DA48012404603A7897F83100F96AFDF76F
:10CD500097FC10B1CAF80090CFE0029602A94646AF
:10CD60004046FCF707FF029810F07B0F05D000F05B
:10CD70007F013046FDF700FBECE76C7086E16878D8
:10CD800010B1FFF78DFC6E70C449C54814312438CA
:10CD9000FCF7F0FEF878BB4610F0100F7ED00A20AA
:10CDA000FBF7E4FCBE484FF48E610C38FDF7E4FA63
:10CDB000BB484AF656311038FDF7DEFA0120FCF781
:10CDC00045FF6420FBF7D2FCB449B5481431243840
:10CDD000FCF7D0FE287DC00767D1B049B0482031AC
:10CDE000001FFCF7C7FEB0484FF485310830FDF74F
:10CDF000C3FAAF494FF08040FDF7BEFA4746A74956
:10CE000038461C31FCF7B6FE287F8007F7D5A648C8
:10CE10004FF485310830FDF7AFFAA348296A0C308A
:10CE2000FDF7AAFAA2494FF08048891E4046FDF757
:10CE3000A3FA9A4938461C31FCF79CFE287FC007AC
:10CE4000F7D099489B490830FDF796FA9648C421D7
:10CE50000C30FDF791FA96494046891EFDF78CFA91
:10CE60008E4938461C31FCF785FE287FC007F7D075
:10CE70008B484FF48E610C38FDF77EFA88484AF6ED
:10CE800056311038FDF778FA0120FCF7DFFE6420F8
:10CE9000FBF76CFC81498248143100E005E024383E
:10CEA000FCF768FE287DC00727D09BF80300D84612
:10CEB000C006287D4FEAC07001D508B91DE0E0B971
:10CEC000B34601A976480196FCF754FEFFF7E4FA51
:10CED00020B1FEF741FE014677A00CE07948012120
:10CEE0000160FFF7DDFB0600A88809D008B9102013
:10CEF000A880314674A0FEF7ADFB0120BDE8FE8F8F
:10CF000040BB98F80300297D8843C0070FD07149C2
:10CF10008807FDF731FA32210420FEF72BFE10F0CE
:10CF2000FF0617D031466CA0FEF794FB12E7A86A03
:10CF30008768381900900BE03846FFF787FA06003B
:10CF400002D0014669A0D6E7A86A006807440098A5
:10CF50008742F1D95B49C1F800B05049A1F804B04B
:10CF6000886A87680268394665A0FEF773FB98F8FF
:10CF70000300454600070DD5474914221431654882
:10CF8000FBF7D0F8634964A002684A6142688A618D
:10CF90008068C8610020AB462AE000F580618846C1
:10CFA000A14201D9251A01E04FF48065594829466C
:10CFB0002430FCF753FB9BF80300000706D55549C6
:10CFC00000232A4624315348FBF770FD51492A4675
:10CFD00024313846FFF714FB060002D0394652A030
:10CFE00089E72C48C16881F40051C16040462F4454
:10CFF000A042D2D34F4DDBF80C005C4618B16868F4
:10D000000126401C6860A068C8B16068B8B10422FD
:10D010006946FDF73DFA0098401C07D01F4960683B
:10D02000896A0968491E8843FFF710FA04224149BA
:10D030006068FFF7E5FA2868401C286000E01EB130
:10D0400008213C48FBF74EFE94F83000C10606D597
:10D050002278E16AFDF714FB00287FF48DAEE078BA
:10D0600080070BD50E484FF48E610C38FDF784F91C
:10D070000B484AF656311038FDF77EF9322101206F
:10D08000FBF724F903494FF400500861002035E70D
:10D09000200000200010014038030020A0010020E3
:10D0A00024F0014028000020040000401C00002063
:10D0B0002301AEC5040A0100696E69743A25730A3A
:10D0C000000000001800002063686970703A256451
:10D0D0000A0000002501EBAD65726173655F63684E
:10D0E00069703A253032780A000000006572617379
:10D0F000655F736563746F723A253032780A000099
:10D10000616464723A253038782C2D3E7365633A39
:10D1100025640A00EC13002051513A323830303285
:10D1200033343833000000006572723A2530780AD3
:10D1300000000000540000202DE9F04F00248BB0C7
:10D14000FB49019400940294039406940494A1462C
:10D15000A246A3460C60F7494FF400500861FBF764
:10D16000F1F93821F448FCF779FAF34FDFF8CC8372
:10D17000F34839783D69A8F8021001A9FCF7FAFCD8
:10D180000198F04EC00720D0EF48012404603A789F
:10D1900097F83100F96AFDF773FAEC4F142508B1DE
:10D1A0003D6072E303A93046CDF80C90FCF7E2FC39
:10D1B000039810F07B0F05D000F07F013046FDF79B
:10D1C000DBF8EDE788F801407BE398F8010018B13F
:10D1D000FFF766FA88F801904FF4FC400590001DB7
:10D1E0000790001D0990001D089097F83000C006B8
:10D1F0004AD5D4484FF4FC410830FDF7BDF8D44976
:10D200004FF08040FDF7B8F864210220FEF7B2FC31
:10D210000028C6D197F8300007998007CD4809D576
:10D22000FDF7AAF897F83000C42100F0C00041EAE9
:10D23000800106E0FDF7A0F897F8300000F0C0008C
:10D240008100C448001DFDF797F8C149891E880771
:10D25000FDF792F864210120FEF78CFC0028A0D194
:10D26000B7484FF48E610C38FDF786F8B4484AF69B
:10D2700056311038FDF780F80A20FBF777FA0120C5
:10D28000FCF7E4FC00288CD1AC49AD4814312438BB
:10D29000FCF770FCA848C07810F0100F7DD00A2071
:10D2A000FBF764FAA6484FF48E610C38FDF764F87A
:10D2B000A3484AF656311038FDF75EF80120FCF716
:10D2C000C5FC6420FBF752FA9C499D481431243870
:10D2D000FCF750FC98F814004746C00769D19749FD
:10D2E00097482031001FFCF745FC4FF4FC4199485A
:10D2F000FDF742F896494FF08040FDF73DF88F4921
:10D3000030461C31FCF736FC387F8007F7D54FF4E8
:10D31000FC419048FDF730F88E48396A001DFDF752
:10D320002BF88B49891E8807FDF726F8834930467C
:10D330001C31FCF71FFC387FC007F7D047F60461AB
:10D340008448FDF719F883484FF43171001DFDF74B
:10D3500013F87F49891E8807FDF70EF877497D4845
:10D360001C31001DFCF706FC744930461C31FCF7EB
:10D3700001FC387FC007F7D071484FF48E610C383C
:10D38000FCF7FAFF6E484AF656311038FCF7F4FF06
:10D390000120FCF75BFC642000E00AE0FBF7E6F903
:10D3A0006649674814312438FCF7E4FB387DC00730
:10D3B00071D06249624814312438FCF7DBFB5E48C7
:10D3C0005D49C07801F1140110F0100F079173D17D
:10D3D00098F814004746C0076ED0554901200860F0
:10D3E00001465D48FCF7C8FFDFF84CA19AF803003E
:10D3F000C00748D000244FF4E04B04F5004002A9D8
:10D400000690FCF7B7FBD8B14D484FF48E610C384D
:10D41000FCF7B2FF4A484AF656311038FCF7ACFF29
:10D420000120FCF713FC6420FBF7A0F943494448B2
:10D4300014312438FCF79EFB387DC007B8D04FE08C
:10D4400044480699FCF798FF44494FF08040FCF7A8
:10D4500093FF02A93046CDF80890FCF78BFB06E05D
:10D4600002A93046FCF786FB6420FBF713FB029809
:10D470008007F5D502213046FCF77EFF04F50074E5
:10D480005C45BAD32CE005F500404FF40044DFF8CA
:10D49000C4B0009021E0F8E121465846FCF76CFF4B
:10D4A0002E494FF08040FCF767FF02A93046CDF8C7
:10D4B0000890FCF75FFB07E0C1E002A93046FCF7EB
:10D4C00059FB6420FBF7E6FA02988007F5D50221A4
:10D4D0003046FCF751FF04F5007400988442DBD914
:10D4E00001200690FEF7D8FF00286FD1A7F804901E
:10D4F000B86AB8464FF0010B8768026807F5004725
:10D50000394617A0FEF7A6F89AF8030000070CD5D5
:10D51000142218480799FAF705FE164816A10A685A
:10D5200042614A6882618968C161002456E0000056
:10D53000200000200010014038030020A00100203E
:10D5400024F00140040000401C00002028000020BE
:10D550002301AEC50C000040101000482301EBADC4
:10D56000616464723A253038782C2D3E7365633AD5
:10D5700025640A00EC13002051513A323830303221
:10D58000333438330000000004F5806AAA4501D91D
:10D590002E1B01E04FF480663146CB48FCF75EF865
:10D5A000CA48C078000706D5C74900233246A1F112
:10D5B0002400FBF77BFA3246C3493846FFF720F8D0
:10D5C00028B13946DBE0FEF745F85EE152E0C0489D
:10D5D000C16881F40051C16054463744AC42D3D392
:10D5E0004FF0010A0220FCF731FB4F464646C8F8CF
:10D5F000249014E001A9B7480197FCF7BBFAB5489D
:10D60000B54910387761FCF7B5FA0120FBF734FA19
:10D61000706A41F28831401C70628842D5D8307DF2
:10D62000C007E7D16420FBF7A1F8AA48AA4910383F
:10D63000FCF7A0FAA9480760307DC007C5D1A34810
:10D64000C078C00698F814004FEAC07001D510B930
:10D650001BE10028B9D19F4801A91430CDF80490EE
:10D66000FCF788FABBF1000F09D1FEF715FFC8F8E7
:10D670001C0020B1FEF770FA014699A0A3E79B4871
:10D6800001210160FFF70CF8060008D0B8F804107B
:10D6900011B91021A8F80410314695A093E7B8F805
:10D6A00004100698C34601431FD18848C078C007BC
:10D6B00006D0FEF7B1FE060017D001468FA082E724
:10D6C000DBF828005F468468601900900BE0204674
:10D6D000FEF7BCFE060002D001468DA073E7B86AD3
:10D6E0000068044400988442F1D980484946C0F853
:10D6F0000090BAF1000F4ED1ABF80410DBF828000F
:10D70000D0F8088002684146AFF2AC10FDF7A2FFE6
:10D710006E4FF87800070FD56B481422243807990C
:10D72000FAF700FD68482438AFF2B4110A68426184
:10D730004A6882618968C1610024DFF894A128E009
:10D7400004F58069A94501D92F1B01E04FF48067DA
:10D7500039465D48FBF782FF5C48C078000706D574
:10D76000594900233A46A1F12400FBF79FF93A46B4
:10D7700055494046FEF744FF060002D0414669A0E5
:10D7800021E7DAF80C1081F40051CAF80C104C466D
:10D79000B844AC42D4D3AC427BD34C4C644DE0682B
:10D7A00018B168680126401C6860A068C8B160684C
:10D7B000B8B104226946FCF76BFE0098401C07D004
:10D7C000DBF8281060680968491E8843FEF73EFEB2
:10D7D000042257496068FEF713FF2868401C286040
:10D7E00000E01EB108215248FBF77CFA94F83000A3
:10D7F000C1064FD5C0070AD0364804A91030FCF73F
:10D80000B9F94C480599FCF7B7FD049904E049487B
:10D810000599FCF7B1FDE16A4648001DFCF7ACFD37
:10D8200045498807FCF7A8FD64210120FEF7A2F90D
:10D8300058BB94F83000400711D53E480999FCF7D1
:10D840009BFD3C483D49001DFCF796FD3A49880781
:10D85000FCF792FD64210120FEF78CF9A8B994F839
:10D860003000000716D533480899FCF785FD31488C
:10D87000B521001DFCF780FD2F498807FCF77CFDD2
:10D8800064210120FEF776F920B101200BB0BDE83C
:10D89000F08F16E0E07880070BD50E484FF48E61CC
:10D8A0000830FCF769FD0B484AF65631001DFCF7BD
:10D8B00063FD32210120FAF709FD05494FF40050BC
:10D8C00008610020E2E70000101400203803002067
:10D8D0000010014010F00140B401002020000020A1
:10D8E000696E69743A25730A000000001800002070
:10D8F00063686970703A25640A000000657261739C
:10D90000655F636869703A253032780A000000006C
:10D9100065726173655F736563746F723A25303247
:10D92000780A00006572723A2530780A000000001B
:10D93000540000200C0000402101AEC5CA1CEC15AB
:10D940002DE9FE4F0027FF49009701974FF400593A
:10D950000297C1F81090FAF7F5FD3821FA48FBF765
:10D960007DFEDFF8E483F94DF94898F80010D8F807
:10D970001040698001A9D8F83460FCF7FBF80198E1
:10D98000DFF8D0A3C0074FF0010B28D0F2485C4667
:10D99000C0F800B098F8002098F83100D8F82C10A2
:10D9A000FCF76EFE18B1ED4914200860B7E102A93A
:10D9B000564650460297FCF7DDF8029911F07B0FAE
:10D9C00005D001F07F013046FCF7D6FCEBE70A20DA
:10D9D000FAF7CCFE6C70E2A0FDF73CFE94E26878AA
:10D9E000A0B3FEF75DFEDA484FF48E610C38FCF709
:10D9F000C3FCD7484AF656311038FCF7BDFC42F25A
:10DA00001070FAF7B3FEFCF7D9F8D848016821F096
:10DA100070610160016841F040710160D3494FF4C9
:10DA200080401031086080230A1F1360C1F8009005
:10DA300010600120FCF70AF9C449C54814312438A4
:10DA4000FCF798F80A20FAF791FE6F7098F8030037
:10DA500010F0400F17D0BF484FF4FC410830FCF7DE
:10DA60008BFCC3494FF08040FCF786FC5446B74915
:10DA700020461C31FCF77EF8287F8007F7D502206E
:10DA8000FCF7E4F840E2B149B14814312438FCF71E
:10DA900071F8AE49B7481831FCF76CF898F80300F4
:10DAA00010F0100F58D1287DC00755D04FF05531D8
:10DAB000B048FCF761FC6420FAF758FEAE49C1F8A3
:10DAC00000B00220FCF7C2F86F6216E0A04801A97E
:10DAD00014380197FCF74EF89C499D4814312438BE
